{
  "_format": "hh-sol-artifact-1",
  "contractName": "BeefyVaultV6",
  "sourceName": "contracts/autocompounder/BeefyVaultV6.sol",
  "abi": [
    {
      "inputs": [
        {
          "internalType": "contract IStrategy",
          "name": "_strategy",
          "type": "address"
        },
        {
          "internalType": "string",
          "name": "_name",
          "type": "string"
        },
        {
          "internalType": "string",
          "name": "_symbol",
          "type": "string"
        },
        {
          "internalType": "uint256",
          "name": "_approvalDelay",
          "type": "uint256"
        }
      ],
      "stateMutability": "nonpayable",
      "type": "constructor"
    },
    {
      "anonymous": false,
      "inputs": [
        {
          "indexed": true,
          "internalType": "address",
          "name": "owner",
          "type": "address"
        },
        {
          "indexed": true,
          "internalType": "address",
          "name": "spender",
          "type": "address"
        },
        {
          "indexed": false,
          "internalType": "uint256",
          "name": "value",
          "type": "uint256"
        }
      ],
      "name": "Approval",
      "type": "event"
    },
    {
      "anonymous": false,
      "inputs": [
        {
          "indexed": false,
          "internalType": "address",
          "name": "implementation",
          "type": "address"
        }
      ],
      "name": "NewStratCandidate",
      "type": "event"
    },
    {
      "anonymous": false,
      "inputs": [
        {
          "indexed": true,
          "internalType": "address",
          "name": "previousOwner",
          "type": "address"
        },
        {
          "indexed": true,
          "internalType": "address",
          "name": "newOwner",
          "type": "address"
        }
      ],
      "name": "OwnershipTransferred",
      "type": "event"
    },
    {
      "anonymous": false,
      "inputs": [
        {
          "indexed": true,
          "internalType": "address",
          "name": "from",
          "type": "address"
        },
        {
          "indexed": true,
          "internalType": "address",
          "name": "to",
          "type": "address"
        },
        {
          "indexed": false,
          "internalType": "uint256",
          "name": "value",
          "type": "uint256"
        }
      ],
      "name": "Transfer",
      "type": "event"
    },
    {
      "anonymous": false,
      "inputs": [
        {
          "indexed": false,
          "internalType": "address",
          "name": "implementation",
          "type": "address"
        }
      ],
      "name": "UpgradeStrat",
      "type": "event"
    },
    {
      "inputs": [
        {
          "internalType": "address",
          "name": "owner",
          "type": "address"
        },
        {
          "internalType": "address",
          "name": "spender",
          "type": "address"
        }
      ],
      "name": "allowance",
      "outputs": [
        {
          "internalType": "uint256",
          "name": "",
          "type": "uint256"
        }
      ],
      "stateMutability": "view",
      "type": "function"
    },
    {
      "inputs": [],
      "name": "approvalDelay",
      "outputs": [
        {
          "internalType": "uint256",
          "name": "",
          "type": "uint256"
        }
      ],
      "stateMutability": "view",
      "type": "function"
    },
    {
      "inputs": [
        {
          "internalType": "address",
          "name": "spender",
          "type": "address"
        },
        {
          "internalType": "uint256",
          "name": "amount",
          "type": "uint256"
        }
      ],
      "name": "approve",
      "outputs": [
        {
          "internalType": "bool",
          "name": "",
          "type": "bool"
        }
      ],
      "stateMutability": "nonpayable",
      "type": "function"
    },
    {
      "inputs": [],
      "name": "available",
      "outputs": [
        {
          "internalType": "uint256",
          "name": "",
          "type": "uint256"
        }
      ],
      "stateMutability": "view",
      "type": "function"
    },
    {
      "inputs": [],
      "name": "balance",
      "outputs": [
        {
          "internalType": "uint256",
          "name": "",
          "type": "uint256"
        }
      ],
      "stateMutability": "view",
      "type": "function"
    },
    {
      "inputs": [
        {
          "internalType": "address",
          "name": "account",
          "type": "address"
        }
      ],
      "name": "balanceOf",
      "outputs": [
        {
          "internalType": "uint256",
          "name": "",
          "type": "uint256"
        }
      ],
      "stateMutability": "view",
      "type": "function"
    },
    {
      "inputs": [],
      "name": "decimals",
      "outputs": [
        {
          "internalType": "uint8",
          "name": "",
          "type": "uint8"
        }
      ],
      "stateMutability": "view",
      "type": "function"
    },
    {
      "inputs": [
        {
          "internalType": "address",
          "name": "spender",
          "type": "address"
        },
        {
          "internalType": "uint256",
          "name": "subtractedValue",
          "type": "uint256"
        }
      ],
      "name": "decreaseAllowance",
      "outputs": [
        {
          "internalType": "bool",
          "name": "",
          "type": "bool"
        }
      ],
      "stateMutability": "nonpayable",
      "type": "function"
    },
    {
      "inputs": [
        {
          "internalType": "uint256",
          "name": "_amount",
          "type": "uint256"
        }
      ],
      "name": "deposit",
      "outputs": [],
      "stateMutability": "nonpayable",
      "type": "function"
    },
    {
      "inputs": [],
      "name": "depositAll",
      "outputs": [],
      "stateMutability": "nonpayable",
      "type": "function"
    },
    {
      "inputs": [],
      "name": "earn",
      "outputs": [],
      "stateMutability": "nonpayable",
      "type": "function"
    },
    {
      "inputs": [],
      "name": "getPricePerFullShare",
      "outputs": [
        {
          "internalType": "uint256",
          "name": "",
          "type": "uint256"
        }
      ],
      "stateMutability": "view",
      "type": "function"
    },
    {
      "inputs": [
        {
          "internalType": "address",
          "name": "_token",
          "type": "address"
        }
      ],
      "name": "inCaseTokensGetStuck",
      "outputs": [],
      "stateMutability": "nonpayable",
      "type": "function"
    },
    {
      "inputs": [
        {
          "internalType": "address",
          "name": "spender",
          "type": "address"
        },
        {
          "internalType": "uint256",
          "name": "addedValue",
          "type": "uint256"
        }
      ],
      "name": "increaseAllowance",
      "outputs": [
        {
          "internalType": "bool",
          "name": "",
          "type": "bool"
        }
      ],
      "stateMutability": "nonpayable",
      "type": "function"
    },
    {
      "inputs": [],
      "name": "name",
      "outputs": [
        {
          "internalType": "string",
          "name": "",
          "type": "string"
        }
      ],
      "stateMutability": "view",
      "type": "function"
    },
    {
      "inputs": [],
      "name": "owner",
      "outputs": [
        {
          "internalType": "address",
          "name": "",
          "type": "address"
        }
      ],
      "stateMutability": "view",
      "type": "function"
    },
    {
      "inputs": [
        {
          "internalType": "address",
          "name": "_implementation",
          "type": "address"
        }
      ],
      "name": "proposeStrat",
      "outputs": [],
      "stateMutability": "nonpayable",
      "type": "function"
    },
    {
      "inputs": [],
      "name": "renounceOwnership",
      "outputs": [],
      "stateMutability": "nonpayable",
      "type": "function"
    },
    {
      "inputs": [],
      "name": "stratCandidate",
      "outputs": [
        {
          "internalType": "address",
          "name": "implementation",
          "type": "address"
        },
        {
          "internalType": "uint256",
          "name": "proposedTime",
          "type": "uint256"
        }
      ],
      "stateMutability": "view",
      "type": "function"
    },
    {
      "inputs": [],
      "name": "strategy",
      "outputs": [
        {
          "internalType": "contract IStrategy",
          "name": "",
          "type": "address"
        }
      ],
      "stateMutability": "view",
      "type": "function"
    },
    {
      "inputs": [],
      "name": "symbol",
      "outputs": [
        {
          "internalType": "string",
          "name": "",
          "type": "string"
        }
      ],
      "stateMutability": "view",
      "type": "function"
    },
    {
      "inputs": [],
      "name": "totalSupply",
      "outputs": [
        {
          "internalType": "uint256",
          "name": "",
          "type": "uint256"
        }
      ],
      "stateMutability": "view",
      "type": "function"
    },
    {
      "inputs": [
        {
          "internalType": "address",
          "name": "recipient",
          "type": "address"
        },
        {
          "internalType": "uint256",
          "name": "amount",
          "type": "uint256"
        }
      ],
      "name": "transfer",
      "outputs": [
        {
          "internalType": "bool",
          "name": "",
          "type": "bool"
        }
      ],
      "stateMutability": "nonpayable",
      "type": "function"
    },
    {
      "inputs": [
        {
          "internalType": "address",
          "name": "sender",
          "type": "address"
        },
        {
          "internalType": "address",
          "name": "recipient",
          "type": "address"
        },
        {
          "internalType": "uint256",
          "name": "amount",
          "type": "uint256"
        }
      ],
      "name": "transferFrom",
      "outputs": [
        {
          "internalType": "bool",
          "name": "",
          "type": "bool"
        }
      ],
      "stateMutability": "nonpayable",
      "type": "function"
    },
    {
      "inputs": [
        {
          "internalType": "address",
          "name": "newOwner",
          "type": "address"
        }
      ],
      "name": "transferOwnership",
      "outputs": [],
      "stateMutability": "nonpayable",
      "type": "function"
    },
    {
      "inputs": [],
      "name": "upgradeStrat",
      "outputs": [],
      "stateMutability": "nonpayable",
      "type": "function"
    },
    {
      "inputs": [],
      "name": "want",
      "outputs": [
        {
          "internalType": "contract IERC20",
          "name": "",
          "type": "address"
        }
      ],
      "stateMutability": "view",
      "type": "function"
    },
    {
      "inputs": [
        {
          "internalType": "uint256",
          "name": "_shares",
          "type": "uint256"
        }
      ],
      "name": "withdraw",
      "outputs": [],
      "stateMutability": "nonpayable",
      "type": "function"
    },
    {
      "inputs": [],
      "name": "withdrawAll",
      "outputs": [],
      "stateMutability": "nonpayable",
      "type": "function"
    }
  ],
  "bytecode": "0x60a06040523480156200001157600080fd5b50604051620025823803806200258283398101604081905262000034916200027a565b8251839083906200004d90600390602085019062000107565b5080516200006390600490602084019062000107565b505050620000806200007a620000b160201b60201c565b620000b5565b6001600655600980546001600160a01b0319166001600160a01b039590951694909417909355505060805262000349565b3390565b600580546001600160a01b038381166001600160a01b0319831681179093556040519116919082907f8be0079c531659141344cd1fd0a4f28419497f9722a3daafe3b4186f6b6457e090600090a35050565b82805462000115906200030c565b90600052602060002090601f01602090048101928262000139576000855562000184565b82601f106200015457805160ff191683800117855562000184565b8280016001018555821562000184579182015b828111156200018457825182559160200191906001019062000167565b506200019292915062000196565b5090565b5b8082111562000192576000815560010162000197565b634e487b7160e01b600052604160045260246000fd5b600082601f830112620001d557600080fd5b81516001600160401b0380821115620001f257620001f2620001ad565b604051601f8301601f19908116603f011681019082821181831017156200021d576200021d620001ad565b816040528381526020925086838588010111156200023a57600080fd5b600091505b838210156200025e57858201830151818301840152908201906200023f565b83821115620002705760008385830101525b9695505050505050565b600080600080608085870312156200029157600080fd5b84516001600160a01b0381168114620002a957600080fd5b60208601519094506001600160401b0380821115620002c757600080fd5b620002d588838901620001c3565b94506040870151915080821115620002ec57600080fd5b50620002fb87828801620001c3565b606096909601519497939650505050565b600181811c908216806200032157607f821691505b602082108114156200034357634e487b7160e01b600052602260045260246000fd5b50919050565b6080516122166200036c600039600081816103f1015261129001526122166000f3fe608060405234801561001057600080fd5b50600436106101cf5760003560e01c8063853828b611610104578063b6b55f25116100a2578063def68a9c11610071578063def68a9c146103d9578063e2d1e75c146103ec578063e668524414610413578063f2fde38b1461041b57600080fd5b8063b6b55f251461037d578063d389800f14610390578063dd62ed3e14610398578063de5f6268146103d157600080fd5b8063a457c2d7116100de578063a457c2d71461033c578063a8c62e761461034f578063a9059cbb14610362578063b69ef8a81461037557600080fd5b8063853828b61461031b5780638da5cb5b1461032357806395d89b411461033457600080fd5b8063395093511161017157806370a082311161014b57806370a08231146102ac578063715018a6146102d557806376dfabb8146102dd57806377c7b8fc1461031357600080fd5b8063395093511461027e57806348a0d754146102915780635b12ff9b1461029957600080fd5b80631f1fcd51116101ad5780631f1fcd511461022757806323b872dd146102475780632e1a7d4d1461025a578063313ce5671461026f57600080fd5b806306fdde03146101d4578063095ea7b3146101f257806318160ddd14610215575b600080fd5b6101dc61042e565b6040516101e99190611f00565b60405180910390f35b610205610200366004611f66565b6104c0565b60405190151581526020016101e9565b6002545b6040519081526020016101e9565b61022f6104d6565b6040516001600160a01b0390911681526020016101e9565b610205610255366004611f92565b610571565b61026d610268366004611fd3565b610637565b005b604051601281526020016101e9565b61020561028c366004611f66565b61087a565b6102196108b6565b61026d6102a7366004611fec565b610952565b6102196102ba366004611fec565b6001600160a01b031660009081526020819052604090205490565b61026d610b22565b6007546008546102f4916001600160a01b03169082565b604080516001600160a01b0390931683526020830191909152016101e9565b610219610b88565b61026d610bc5565b6005546001600160a01b031661022f565b6101dc610bde565b61020561034a366004611f66565b610bed565b60095461022f906001600160a01b031681565b610205610370366004611f66565b610c9e565b610219610cab565b61026d61038b366004611fd3565b610dd6565b61026d610f35565b6102196103a6366004612009565b6001600160a01b03918216600090815260016020908152604080832093909416825291909152205490565b61026d610fc6565b61026d6103e7366004611fec565b611063565b6102197f000000000000000000000000000000000000000000000000000000000000000081565b61026d6111d3565b61026d610429366004611fec565b6113f7565b60606003805461043d90612042565b80601f016020809104026020016040519081016040528092919081815260200182805461046990612042565b80156104b65780601f1061048b576101008083540402835291602001916104b6565b820191906000526020600020905b81548152906001019060200180831161049957829003601f168201915b5050505050905090565b60006104cd3384846114d9565b50600192915050565b600954604080517f1f1fcd5100000000000000000000000000000000000000000000000000000000815290516000926001600160a01b031691631f1fcd51916004808301926020929190829003018186803b15801561053457600080fd5b505afa158015610548573d6000803e3d6000fd5b505050506040513d601f19601f8201168201806040525081019061056c9190612096565b905090565b600061057e848484611631565b6001600160a01b03841660009081526001602090815260408083203384529091529020548281101561061d5760405162461bcd60e51b815260206004820152602860248201527f45524332303a207472616e7366657220616d6f756e742065786365656473206160448201527f6c6c6f77616e636500000000000000000000000000000000000000000000000060648201526084015b60405180910390fd5b61062a85338584036114d9565b60019150505b9392505050565b600061065d61064560025490565b61065784610651610cab565b9061184a565b90611856565b90506106693383611862565b60006106736104d6565b6040517f70a082310000000000000000000000000000000000000000000000000000000081523060048201526001600160a01b0391909116906370a082319060240160206040518083038186803b1580156106cd57600080fd5b505afa1580156106e1573d6000803e3d6000fd5b505050506040513d601f19601f8201168201806040525081019061070591906120b3565b90508181101561085857600061071b83836119e7565b6009546040517f2e1a7d4d000000000000000000000000000000000000000000000000000000008152600481018390529192506001600160a01b031690632e1a7d4d90602401600060405180830381600087803b15801561077b57600080fd5b505af115801561078f573d6000803e3d6000fd5b50505050600061079d6104d6565b6040517f70a082310000000000000000000000000000000000000000000000000000000081523060048201526001600160a01b0391909116906370a082319060240160206040518083038186803b1580156107f757600080fd5b505afa15801561080b573d6000803e3d6000fd5b505050506040513d601f19601f8201168201806040525081019061082f91906120b3565b9050600061083d82856119e7565b9050828110156108545761085184826119f3565b94505b5050505b61087533836108656104d6565b6001600160a01b031691906119ff565b505050565b3360008181526001602090815260408083206001600160a01b038716845290915281205490916104cd9185906108b19086906120fb565b6114d9565b60006108c06104d6565b6040517f70a082310000000000000000000000000000000000000000000000000000000081523060048201526001600160a01b0391909116906370a082319060240160206040518083038186803b15801561091a57600080fd5b505afa15801561092e573d6000803e3d6000fd5b505050506040513d601f19601f8201168201806040525081019061056c91906120b3565b6005546001600160a01b031633146109ac5760405162461bcd60e51b815260206004820181905260248201527f4f776e61626c653a2063616c6c6572206973206e6f7420746865206f776e65726044820152606401610614565b806001600160a01b031663fbfa77cf6040518163ffffffff1660e01b815260040160206040518083038186803b1580156109e557600080fd5b505afa1580156109f9573d6000803e3d6000fd5b505050506040513d601f19601f82011682018060405250810190610a1d9190612096565b6001600160a01b0316306001600160a01b031614610aa35760405162461bcd60e51b815260206004820152602160248201527f50726f706f73616c206e6f742076616c696420666f722074686973205661756c60448201527f74000000000000000000000000000000000000000000000000000000000000006064820152608401610614565b6040805180820182526001600160a01b038316808252426020928301819052600780547fffffffffffffffffffffffff0000000000000000000000000000000000000000168317905560085591519182527f1aae2ec5647db56da2d513de40528ba3565c6057525637050660c4323bbac7df910160405180910390a150565b6005546001600160a01b03163314610b7c5760405162461bcd60e51b815260206004820181905260248201527f4f776e61626c653a2063616c6c6572206973206e6f7420746865206f776e65726044820152606401610614565b610b866000611ac6565b565b6000610b9360025490565b15610bb85761056c610ba460025490565b610657670de0b6b3a7640000610651610cab565b50670de0b6b3a764000090565b33600090815260208190526040902054610b8690610637565b60606004805461043d90612042565b3360009081526001602090815260408083206001600160a01b038616845290915281205482811015610c875760405162461bcd60e51b815260206004820152602560248201527f45524332303a2064656372656173656420616c6c6f77616e63652062656c6f7760448201527f207a65726f0000000000000000000000000000000000000000000000000000006064820152608401610614565b610c9433858584036114d9565b5060019392505050565b60006104cd338484611631565b600061056c600960009054906101000a90046001600160a01b03166001600160a01b031663722713f76040518163ffffffff1660e01b815260040160206040518083038186803b158015610cfe57600080fd5b505afa158015610d12573d6000803e3d6000fd5b505050506040513d601f19601f82011682018060405250810190610d3691906120b3565b610d3e6104d6565b6040517f70a082310000000000000000000000000000000000000000000000000000000081523060048201526001600160a01b0391909116906370a082319060240160206040518083038186803b158015610d9857600080fd5b505afa158015610dac573d6000803e3d6000fd5b505050506040513d601f19601f82011682018060405250810190610dd091906120b3565b906119f3565b60026006541415610e295760405162461bcd60e51b815260206004820152601f60248201527f5265656e7472616e637947756172643a207265656e7472616e742063616c6c006044820152606401610614565b6002600655600954604080517f573fef0a00000000000000000000000000000000000000000000000000000000815290516001600160a01b039092169163573fef0a9160048082019260009290919082900301818387803b158015610e8d57600080fd5b505af1158015610ea1573d6000803e3d6000fd5b505050506000610eaf610cab565b9050610ed0333084610ebf6104d6565b6001600160a01b0316929190611b30565b610ed8610f35565b6000610ee2610cab565b9050610eee81836119e7565b92506000610efb60025490565b610f06575082610f20565b610f1d83610657610f1660025490565b879061184a565b90505b610f2a3382611b81565b505060016006555050565b6000610f3f6108b6565b600954909150610f5b906001600160a01b0316826108656104d6565b600960009054906101000a90046001600160a01b03166001600160a01b031663d0e30db06040518163ffffffff1660e01b8152600401600060405180830381600087803b158015610fab57600080fd5b505af1158015610fbf573d6000803e3d6000fd5b5050505050565b610b86610fd16104d6565b6040517f70a082310000000000000000000000000000000000000000000000000000000081523360048201526001600160a01b0391909116906370a082319060240160206040518083038186803b15801561102b57600080fd5b505afa15801561103f573d6000803e3d6000fd5b505050506040513d601f19601f8201168201806040525081019061038b91906120b3565b6005546001600160a01b031633146110bd5760405162461bcd60e51b815260206004820181905260248201527f4f776e61626c653a2063616c6c6572206973206e6f7420746865206f776e65726044820152606401610614565b6110c56104d6565b6001600160a01b0316816001600160a01b031614156111265760405162461bcd60e51b815260206004820152600660248201527f21746f6b656e00000000000000000000000000000000000000000000000000006044820152606401610614565b6040517f70a082310000000000000000000000000000000000000000000000000000000081523060048201526000906001600160a01b038316906370a082319060240160206040518083038186803b15801561118157600080fd5b505afa158015611195573d6000803e3d6000fd5b505050506040513d601f19601f820116820180604052508101906111b991906120b3565b90506111cf6001600160a01b03831633836119ff565b5050565b6005546001600160a01b0316331461122d5760405162461bcd60e51b815260206004820181905260248201527f4f776e61626c653a2063616c6c6572206973206e6f7420746865206f776e65726044820152606401610614565b6007546001600160a01b03166112855760405162461bcd60e51b815260206004820152601560248201527f5468657265206973206e6f2063616e64696461746500000000000000000000006044820152606401610614565b60085442906112b4907f00000000000000000000000000000000000000000000000000000000000000006119f3565b106113015760405162461bcd60e51b815260206004820152601460248201527f44656c617920686173206e6f74207061737365640000000000000000000000006044820152606401610614565b6007546040516001600160a01b0390911681527f7f37d440e85aba7fbf641c4bda5ca4ef669a80bffaacde2aa8d9feb1b048c82c9060200160405180910390a1600960009054906101000a90046001600160a01b03166001600160a01b031663fb6177876040518163ffffffff1660e01b8152600401600060405180830381600087803b15801561139157600080fd5b505af11580156113a5573d6000803e3d6000fd5b505060078054600980547fffffffffffffffffffffffff00000000000000000000000000000000000000009081166001600160a01b03841617909155169055505064012a05f200600855610b86610f35565b6005546001600160a01b031633146114515760405162461bcd60e51b815260206004820181905260248201527f4f776e61626c653a2063616c6c6572206973206e6f7420746865206f776e65726044820152606401610614565b6001600160a01b0381166114cd5760405162461bcd60e51b815260206004820152602660248201527f4f776e61626c653a206e6577206f776e657220697320746865207a65726f206160448201527f64647265737300000000000000000000000000000000000000000000000000006064820152608401610614565b6114d681611ac6565b50565b6001600160a01b0383166115545760405162461bcd60e51b8152602060048201526024808201527f45524332303a20617070726f76652066726f6d20746865207a65726f2061646460448201527f72657373000000000000000000000000000000000000000000000000000000006064820152608401610614565b6001600160a01b0382166115d05760405162461bcd60e51b815260206004820152602260248201527f45524332303a20617070726f766520746f20746865207a65726f20616464726560448201527f73730000000000000000000000000000000000000000000000000000000000006064820152608401610614565b6001600160a01b0383811660008181526001602090815260408083209487168084529482529182902085905590518481527f8c5be1e5ebec7d5bd14f71427d1e84f3dd0314c0f7b2291e5b200ac8c7c3b925910160405180910390a3505050565b6001600160a01b0383166116ad5760405162461bcd60e51b815260206004820152602560248201527f45524332303a207472616e736665722066726f6d20746865207a65726f20616460448201527f64726573730000000000000000000000000000000000000000000000000000006064820152608401610614565b6001600160a01b0382166117295760405162461bcd60e51b815260206004820152602360248201527f45524332303a207472616e7366657220746f20746865207a65726f206164647260448201527f65737300000000000000000000000000000000000000000000000000000000006064820152608401610614565b6001600160a01b038316600090815260208190526040902054818110156117b85760405162461bcd60e51b815260206004820152602660248201527f45524332303a207472616e7366657220616d6f756e742065786365656473206260448201527f616c616e636500000000000000000000000000000000000000000000000000006064820152608401610614565b6001600160a01b038085166000908152602081905260408082208585039055918516815290812080548492906117ef9084906120fb565b92505081905550826001600160a01b0316846001600160a01b03167fddf252ad1be2c89b69c2b068fc378daa952ba7f163c4a11628f55a4df523b3ef8460405161183b91815260200190565b60405180910390a35b50505050565b60006106308284612113565b60006106308284612150565b6001600160a01b0382166118de5760405162461bcd60e51b815260206004820152602160248201527f45524332303a206275726e2066726f6d20746865207a65726f2061646472657360448201527f73000000000000000000000000000000000000000000000000000000000000006064820152608401610614565b6001600160a01b0382166000908152602081905260409020548181101561196d5760405162461bcd60e51b815260206004820152602260248201527f45524332303a206275726e20616d6f756e7420657863656564732062616c616e60448201527f63650000000000000000000000000000000000000000000000000000000000006064820152608401610614565b6001600160a01b038316600090815260208190526040812083830390556002805484929061199c90849061218b565b90915550506040518281526000906001600160a01b038516907fddf252ad1be2c89b69c2b068fc378daa952ba7f163c4a11628f55a4df523b3ef9060200160405180910390a3505050565b6000610630828461218b565b600061063082846120fb565b6040516001600160a01b0383166024820152604481018290526108759084907fa9059cbb00000000000000000000000000000000000000000000000000000000906064015b604080517fffffffffffffffffffffffffffffffffffffffffffffffffffffffffffffffe08184030181529190526020810180517bffffffffffffffffffffffffffffffffffffffffffffffffffffffff167fffffffff0000000000000000000000000000000000000000000000000000000090931692909217909152611c60565b600580546001600160a01b038381167fffffffffffffffffffffffff0000000000000000000000000000000000000000831681179093556040519116919082907f8be0079c531659141344cd1fd0a4f28419497f9722a3daafe3b4186f6b6457e090600090a35050565b6040516001600160a01b03808516602483015283166044820152606481018290526118449085907f23b872dd0000000000000000000000000000000000000000000000000000000090608401611a44565b6001600160a01b038216611bd75760405162461bcd60e51b815260206004820152601f60248201527f45524332303a206d696e7420746f20746865207a65726f2061646472657373006044820152606401610614565b8060026000828254611be991906120fb565b90915550506001600160a01b03821660009081526020819052604081208054839290611c169084906120fb565b90915550506040518181526001600160a01b038316906000907fddf252ad1be2c89b69c2b068fc378daa952ba7f163c4a11628f55a4df523b3ef9060200160405180910390a35050565b6000611cb5826040518060400160405280602081526020017f5361666545524332303a206c6f772d6c6576656c2063616c6c206661696c6564815250856001600160a01b0316611d459092919063ffffffff16565b8051909150156108755780806020019051810190611cd391906121a2565b6108755760405162461bcd60e51b815260206004820152602a60248201527f5361666545524332303a204552433230206f7065726174696f6e20646964206e60448201527f6f742073756363656564000000000000000000000000000000000000000000006064820152608401610614565b6060611d548484600085611d5c565b949350505050565b606082471015611dd45760405162461bcd60e51b815260206004820152602660248201527f416464726573733a20696e73756666696369656e742062616c616e636520666f60448201527f722063616c6c00000000000000000000000000000000000000000000000000006064820152608401610614565b843b611e225760405162461bcd60e51b815260206004820152601d60248201527f416464726573733a2063616c6c20746f206e6f6e2d636f6e74726163740000006044820152606401610614565b600080866001600160a01b03168587604051611e3e91906121c4565b60006040518083038185875af1925050503d8060008114611e7b576040519150601f19603f3d011682016040523d82523d6000602084013e611e80565b606091505b5091509150611e90828286611e9b565b979650505050505050565b60608315611eaa575081610630565b825115611eba5782518084602001fd5b8160405162461bcd60e51b81526004016106149190611f00565b60005b83811015611eef578181015183820152602001611ed7565b838111156118445750506000910152565b6020815260008251806020840152611f1f816040850160208701611ed4565b601f017fffffffffffffffffffffffffffffffffffffffffffffffffffffffffffffffe0169190910160400192915050565b6001600160a01b03811681146114d657600080fd5b60008060408385031215611f7957600080fd5b8235611f8481611f51565b946020939093013593505050565b600080600060608486031215611fa757600080fd5b8335611fb281611f51565b92506020840135611fc281611f51565b929592945050506040919091013590565b600060208284031215611fe557600080fd5b5035919050565b600060208284031215611ffe57600080fd5b813561063081611f51565b6000806040838503121561201c57600080fd5b823561202781611f51565b9150602083013561203781611f51565b809150509250929050565b600181811c9082168061205657607f821691505b60208210811415612090577f4e487b7100000000000000000000000000000000000000000000000000000000600052602260045260246000fd5b50919050565b6000602082840312156120a857600080fd5b815161063081611f51565b6000602082840312156120c557600080fd5b5051919050565b7f4e487b7100000000000000000000000000000000000000000000000000000000600052601160045260246000fd5b6000821982111561210e5761210e6120cc565b500190565b6000817fffffffffffffffffffffffffffffffffffffffffffffffffffffffffffffffff048311821515161561214b5761214b6120cc565b500290565b600082612186577f4e487b7100000000000000000000000000000000000000000000000000000000600052601260045260246000fd5b500490565b60008282101561219d5761219d6120cc565b500390565b6000602082840312156121b457600080fd5b8151801515811461063057600080fd5b600082516121d6818460208701611ed4565b919091019291505056fea26469706673582212209296a28b7f476bb75698f4355e7d6bbf8b4f6126d3b2bdd59ec1ba36c08c5bc364736f6c63430008080033",
  "linkReferences": {},
  "deployedLinkReferences": {}
}