{
  "_format": "hh-sol-artifact-1",
  "contractName": "DutchAuction",
  "sourceName": "contracts/DutchAuction.sol",
  "abi": [
    {
      "inputs": [
        {
          "internalType": "address",
          "name": "_token",
          "type": "address"
        },
        {
          "internalType": "uint256",
          "name": "_totalTokens",
          "type": "uint256"
        },
        {
          "internalType": "uint256",
          "name": "_startTime",
          "type": "uint256"
        },
        {
          "internalType": "uint256",
          "name": "_endTime",
          "type": "uint256"
        },
        {
          "internalType": "address",
          "name": "_paymentCurrency",
          "type": "address"
        },
        {
          "internalType": "uint256",
          "name": "_startPrice",
          "type": "uint256"
        },
        {
          "internalType": "uint256",
          "name": "_minimumPrice",
          "type": "uint256"
        },
        {
          "internalType": "address",
          "name": "_admin",
          "type": "address"
        },
        {
          "internalType": "address payable",
          "name": "_wallet",
          "type": "address"
        },
        {
          "internalType": "uint256",
          "name": "_maxUserCommitment",
          "type": "uint256"
        }
      ],
      "stateMutability": "nonpayable",
      "type": "constructor"
    },
    {
      "anonymous": false,
      "inputs": [
        {
          "indexed": false,
          "internalType": "address",
          "name": "addr",
          "type": "address"
        },
        {
          "indexed": false,
          "internalType": "uint256",
          "name": "commitment",
          "type": "uint256"
        }
      ],
      "name": "AddedCommitment",
      "type": "event"
    },
    {
      "anonymous": false,
      "inputs": [],
      "name": "AuctionCancelled",
      "type": "event"
    },
    {
      "anonymous": false,
      "inputs": [
        {
          "indexed": false,
          "internalType": "address",
          "name": "funder",
          "type": "address"
        },
        {
          "indexed": false,
          "internalType": "address",
          "name": "token",
          "type": "address"
        },
        {
          "indexed": false,
          "internalType": "uint256",
          "name": "totalTokens",
          "type": "uint256"
        },
        {
          "indexed": false,
          "internalType": "address",
          "name": "paymentCurrency",
          "type": "address"
        },
        {
          "indexed": false,
          "internalType": "address",
          "name": "admin",
          "type": "address"
        },
        {
          "indexed": false,
          "internalType": "address",
          "name": "wallet",
          "type": "address"
        }
      ],
      "name": "AuctionDeployed",
      "type": "event"
    },
    {
      "anonymous": false,
      "inputs": [],
      "name": "AuctionFinalized",
      "type": "event"
    },
    {
      "anonymous": false,
      "inputs": [
        {
          "indexed": false,
          "internalType": "address",
          "name": "pointList",
          "type": "address"
        },
        {
          "indexed": false,
          "internalType": "bool",
          "name": "enabled",
          "type": "bool"
        }
      ],
      "name": "AuctionPointListUpdated",
      "type": "event"
    },
    {
      "anonymous": false,
      "inputs": [
        {
          "indexed": false,
          "internalType": "uint256",
          "name": "startPrice",
          "type": "uint256"
        },
        {
          "indexed": false,
          "internalType": "uint256",
          "name": "minimumPrice",
          "type": "uint256"
        }
      ],
      "name": "AuctionPriceUpdated",
      "type": "event"
    },
    {
      "anonymous": false,
      "inputs": [
        {
          "indexed": false,
          "internalType": "uint256",
          "name": "startTime",
          "type": "uint256"
        },
        {
          "indexed": false,
          "internalType": "uint256",
          "name": "endTime",
          "type": "uint256"
        }
      ],
      "name": "AuctionTimeUpdated",
      "type": "event"
    },
    {
      "anonymous": false,
      "inputs": [
        {
          "indexed": false,
          "internalType": "address",
          "name": "wallet",
          "type": "address"
        }
      ],
      "name": "AuctionWalletUpdated",
      "type": "event"
    },
    {
      "anonymous": false,
      "inputs": [
        {
          "indexed": true,
          "internalType": "bytes32",
          "name": "role",
          "type": "bytes32"
        },
        {
          "indexed": true,
          "internalType": "bytes32",
          "name": "previousAdminRole",
          "type": "bytes32"
        },
        {
          "indexed": true,
          "internalType": "bytes32",
          "name": "newAdminRole",
          "type": "bytes32"
        }
      ],
      "name": "RoleAdminChanged",
      "type": "event"
    },
    {
      "anonymous": false,
      "inputs": [
        {
          "indexed": true,
          "internalType": "bytes32",
          "name": "role",
          "type": "bytes32"
        },
        {
          "indexed": true,
          "internalType": "address",
          "name": "account",
          "type": "address"
        },
        {
          "indexed": true,
          "internalType": "address",
          "name": "sender",
          "type": "address"
        }
      ],
      "name": "RoleGranted",
      "type": "event"
    },
    {
      "anonymous": false,
      "inputs": [
        {
          "indexed": true,
          "internalType": "bytes32",
          "name": "role",
          "type": "bytes32"
        },
        {
          "indexed": true,
          "internalType": "address",
          "name": "account",
          "type": "address"
        },
        {
          "indexed": true,
          "internalType": "address",
          "name": "sender",
          "type": "address"
        }
      ],
      "name": "RoleRevoked",
      "type": "event"
    },
    {
      "anonymous": false,
      "inputs": [
        {
          "indexed": false,
          "internalType": "address",
          "name": "token",
          "type": "address"
        },
        {
          "indexed": false,
          "internalType": "address",
          "name": "to",
          "type": "address"
        },
        {
          "indexed": false,
          "internalType": "uint256",
          "name": "amount",
          "type": "uint256"
        }
      ],
      "name": "TokensWithdrawn",
      "type": "event"
    },
    {
      "inputs": [],
      "name": "DEFAULT_ADMIN_ROLE",
      "outputs": [
        {
          "internalType": "bytes32",
          "name": "",
          "type": "bytes32"
        }
      ],
      "stateMutability": "view",
      "type": "function"
    },
    {
      "inputs": [],
      "name": "auctionEnded",
      "outputs": [
        {
          "internalType": "bool",
          "name": "",
          "type": "bool"
        }
      ],
      "stateMutability": "view",
      "type": "function"
    },
    {
      "inputs": [],
      "name": "auctionSuccessful",
      "outputs": [
        {
          "internalType": "bool",
          "name": "",
          "type": "bool"
        }
      ],
      "stateMutability": "view",
      "type": "function"
    },
    {
      "inputs": [],
      "name": "auctionToken",
      "outputs": [
        {
          "internalType": "address",
          "name": "",
          "type": "address"
        }
      ],
      "stateMutability": "view",
      "type": "function"
    },
    {
      "inputs": [
        {
          "internalType": "uint256",
          "name": "_commitment",
          "type": "uint256"
        },
        {
          "internalType": "address",
          "name": "from",
          "type": "address"
        }
      ],
      "name": "calculateCommitment",
      "outputs": [
        {
          "internalType": "uint256",
          "name": "committed",
          "type": "uint256"
        }
      ],
      "stateMutability": "view",
      "type": "function"
    },
    {
      "inputs": [],
      "name": "cancelAuction",
      "outputs": [],
      "stateMutability": "nonpayable",
      "type": "function"
    },
    {
      "inputs": [
        {
          "internalType": "address",
          "name": "",
          "type": "address"
        }
      ],
      "name": "claimed",
      "outputs": [
        {
          "internalType": "uint256",
          "name": "",
          "type": "uint256"
        }
      ],
      "stateMutability": "view",
      "type": "function"
    },
    {
      "inputs": [],
      "name": "clearingPrice",
      "outputs": [
        {
          "internalType": "uint256",
          "name": "",
          "type": "uint256"
        }
      ],
      "stateMutability": "view",
      "type": "function"
    },
    {
      "inputs": [
        {
          "internalType": "address payable",
          "name": "_beneficiary",
          "type": "address"
        },
        {
          "internalType": "bool",
          "name": "readAndAgreedToMarketParticipationAgreement",
          "type": "bool"
        }
      ],
      "name": "commitEth",
      "outputs": [],
      "stateMutability": "payable",
      "type": "function"
    },
    {
      "inputs": [
        {
          "internalType": "uint256",
          "name": "_amount",
          "type": "uint256"
        },
        {
          "internalType": "bool",
          "name": "readAndAgreedToMarketParticipationAgreement",
          "type": "bool"
        }
      ],
      "name": "commitTokens",
      "outputs": [],
      "stateMutability": "nonpayable",
      "type": "function"
    },
    {
      "inputs": [
        {
          "internalType": "address",
          "name": "_from",
          "type": "address"
        },
        {
          "internalType": "uint256",
          "name": "_amount",
          "type": "uint256"
        },
        {
          "internalType": "bool",
          "name": "readAndAgreedToMarketParticipationAgreement",
          "type": "bool"
        }
      ],
      "name": "commitTokensFrom",
      "outputs": [],
      "stateMutability": "nonpayable",
      "type": "function"
    },
    {
      "inputs": [
        {
          "internalType": "address",
          "name": "",
          "type": "address"
        }
      ],
      "name": "commitments",
      "outputs": [
        {
          "internalType": "uint256",
          "name": "",
          "type": "uint256"
        }
      ],
      "stateMutability": "view",
      "type": "function"
    },
    {
      "inputs": [],
      "name": "depositBalance",
      "outputs": [
        {
          "internalType": "uint256",
          "name": "",
          "type": "uint256"
        }
      ],
      "stateMutability": "nonpayable",
      "type": "function"
    },
    {
      "inputs": [],
      "name": "finalize",
      "outputs": [],
      "stateMutability": "nonpayable",
      "type": "function"
    },
    {
      "inputs": [],
      "name": "finalizeTimeExpired",
      "outputs": [
        {
          "internalType": "bool",
          "name": "",
          "type": "bool"
        }
      ],
      "stateMutability": "view",
      "type": "function"
    },
    {
      "inputs": [],
      "name": "finalized",
      "outputs": [
        {
          "internalType": "bool",
          "name": "",
          "type": "bool"
        }
      ],
      "stateMutability": "view",
      "type": "function"
    },
    {
      "inputs": [
        {
          "internalType": "address",
          "name": "_funder",
          "type": "address"
        },
        {
          "internalType": "address",
          "name": "_token",
          "type": "address"
        },
        {
          "internalType": "uint256",
          "name": "_totalTokens",
          "type": "uint256"
        },
        {
          "internalType": "uint256",
          "name": "_startTime",
          "type": "uint256"
        },
        {
          "internalType": "uint256",
          "name": "_endTime",
          "type": "uint256"
        },
        {
          "internalType": "address",
          "name": "_paymentCurrency",
          "type": "address"
        },
        {
          "internalType": "uint256",
          "name": "_startPrice",
          "type": "uint256"
        },
        {
          "internalType": "uint256",
          "name": "_minimumPrice",
          "type": "uint256"
        },
        {
          "internalType": "address",
          "name": "_admin",
          "type": "address"
        },
        {
          "internalType": "address payable",
          "name": "_wallet",
          "type": "address"
        }
      ],
      "name": "getAuctionInitData",
      "outputs": [
        {
          "internalType": "bytes",
          "name": "_data",
          "type": "bytes"
        }
      ],
      "stateMutability": "pure",
      "type": "function"
    },
    {
      "inputs": [],
      "name": "getBaseInformation",
      "outputs": [
        {
          "internalType": "address",
          "name": "",
          "type": "address"
        },
        {
          "internalType": "uint64",
          "name": "",
          "type": "uint64"
        },
        {
          "internalType": "uint64",
          "name": "",
          "type": "uint64"
        },
        {
          "internalType": "bool",
          "name": "",
          "type": "bool"
        }
      ],
      "stateMutability": "view",
      "type": "function"
    },
    {
      "inputs": [
        {
          "internalType": "bytes32",
          "name": "role",
          "type": "bytes32"
        }
      ],
      "name": "getRoleAdmin",
      "outputs": [
        {
          "internalType": "bytes32",
          "name": "",
          "type": "bytes32"
        }
      ],
      "stateMutability": "view",
      "type": "function"
    },
    {
      "inputs": [],
      "name": "getTotalTokens",
      "outputs": [
        {
          "internalType": "uint256",
          "name": "",
          "type": "uint256"
        }
      ],
      "stateMutability": "view",
      "type": "function"
    },
    {
      "inputs": [
        {
          "internalType": "bytes32",
          "name": "role",
          "type": "bytes32"
        },
        {
          "internalType": "address",
          "name": "account",
          "type": "address"
        }
      ],
      "name": "grantRole",
      "outputs": [],
      "stateMutability": "nonpayable",
      "type": "function"
    },
    {
      "inputs": [
        {
          "internalType": "address",
          "name": "_address",
          "type": "address"
        }
      ],
      "name": "hasAdminRole",
      "outputs": [
        {
          "internalType": "bool",
          "name": "",
          "type": "bool"
        }
      ],
      "stateMutability": "view",
      "type": "function"
    },
    {
      "inputs": [
        {
          "internalType": "bytes32",
          "name": "role",
          "type": "bytes32"
        },
        {
          "internalType": "address",
          "name": "account",
          "type": "address"
        }
      ],
      "name": "hasRole",
      "outputs": [
        {
          "internalType": "bool",
          "name": "",
          "type": "bool"
        }
      ],
      "stateMutability": "view",
      "type": "function"
    },
    {
      "inputs": [
        {
          "internalType": "address",
          "name": "_address",
          "type": "address"
        }
      ],
      "name": "hasSmartContractRole",
      "outputs": [
        {
          "internalType": "bool",
          "name": "",
          "type": "bool"
        }
      ],
      "stateMutability": "view",
      "type": "function"
    },
    {
      "inputs": [
        {
          "internalType": "address",
          "name": "_admin",
          "type": "address"
        }
      ],
      "name": "initAccessControls",
      "outputs": [],
      "stateMutability": "nonpayable",
      "type": "function"
    },
    {
      "inputs": [],
      "name": "isInitialized",
      "outputs": [
        {
          "internalType": "bool",
          "name": "",
          "type": "bool"
        }
      ],
      "stateMutability": "nonpayable",
      "type": "function"
    },
    {
      "inputs": [],
      "name": "isOpen",
      "outputs": [
        {
          "internalType": "bool",
          "name": "",
          "type": "bool"
        }
      ],
      "stateMutability": "view",
      "type": "function"
    },
    {
      "inputs": [],
      "name": "marketInfo",
      "outputs": [
        {
          "internalType": "uint64",
          "name": "startTime",
          "type": "uint64"
        },
        {
          "internalType": "uint64",
          "name": "endTime",
          "type": "uint64"
        },
        {
          "internalType": "uint128",
          "name": "totalTokens",
          "type": "uint128"
        }
      ],
      "stateMutability": "view",
      "type": "function"
    },
    {
      "inputs": [],
      "name": "marketParticipationAgreement",
      "outputs": [
        {
          "internalType": "string",
          "name": "",
          "type": "string"
        }
      ],
      "stateMutability": "pure",
      "type": "function"
    },
    {
      "inputs": [],
      "name": "marketPrice",
      "outputs": [
        {
          "internalType": "uint128",
          "name": "startPrice",
          "type": "uint128"
        },
        {
          "internalType": "uint128",
          "name": "minimumPrice",
          "type": "uint128"
        }
      ],
      "stateMutability": "view",
      "type": "function"
    },
    {
      "inputs": [],
      "name": "marketStatus",
      "outputs": [
        {
          "internalType": "uint128",
          "name": "commitmentsTotal",
          "type": "uint128"
        },
        {
          "internalType": "bool",
          "name": "finalized",
          "type": "bool"
        },
        {
          "internalType": "bool",
          "name": "usePointList",
          "type": "bool"
        }
      ],
      "stateMutability": "view",
      "type": "function"
    },
    {
      "inputs": [],
      "name": "paymentCurrency",
      "outputs": [
        {
          "internalType": "address",
          "name": "",
          "type": "address"
        }
      ],
      "stateMutability": "view",
      "type": "function"
    },
    {
      "inputs": [],
      "name": "pointList",
      "outputs": [
        {
          "internalType": "address",
          "name": "",
          "type": "address"
        }
      ],
      "stateMutability": "view",
      "type": "function"
    },
    {
      "inputs": [],
      "name": "priceDrop",
      "outputs": [
        {
          "internalType": "uint256",
          "name": "",
          "type": "uint256"
        }
      ],
      "stateMutability": "view",
      "type": "function"
    },
    {
      "inputs": [],
      "name": "priceFunction",
      "outputs": [
        {
          "internalType": "uint256",
          "name": "",
          "type": "uint256"
        }
      ],
      "stateMutability": "view",
      "type": "function"
    },
    {
      "inputs": [
        {
          "internalType": "bytes32",
          "name": "role",
          "type": "bytes32"
        },
        {
          "internalType": "address",
          "name": "account",
          "type": "address"
        }
      ],
      "name": "renounceRole",
      "outputs": [],
      "stateMutability": "nonpayable",
      "type": "function"
    },
    {
      "inputs": [
        {
          "internalType": "bytes32",
          "name": "role",
          "type": "bytes32"
        },
        {
          "internalType": "address",
          "name": "account",
          "type": "address"
        }
      ],
      "name": "revokeRole",
      "outputs": [],
      "stateMutability": "nonpayable",
      "type": "function"
    },
    {
      "inputs": [
        {
          "internalType": "uint256",
          "name": "_startPrice",
          "type": "uint256"
        },
        {
          "internalType": "uint256",
          "name": "_minimumPrice",
          "type": "uint256"
        }
      ],
      "name": "setAuctionPrice",
      "outputs": [],
      "stateMutability": "nonpayable",
      "type": "function"
    },
    {
      "inputs": [
        {
          "internalType": "uint256",
          "name": "_startTime",
          "type": "uint256"
        },
        {
          "internalType": "uint256",
          "name": "_endTime",
          "type": "uint256"
        }
      ],
      "name": "setAuctionTime",
      "outputs": [],
      "stateMutability": "nonpayable",
      "type": "function"
    },
    {
      "inputs": [
        {
          "internalType": "address payable",
          "name": "_wallet",
          "type": "address"
        }
      ],
      "name": "setAuctionWallet",
      "outputs": [],
      "stateMutability": "nonpayable",
      "type": "function"
    },
    {
      "inputs": [
        {
          "internalType": "bytes4",
          "name": "interfaceId",
          "type": "bytes4"
        }
      ],
      "name": "supportsInterface",
      "outputs": [
        {
          "internalType": "bool",
          "name": "",
          "type": "bool"
        }
      ],
      "stateMutability": "view",
      "type": "function"
    },
    {
      "inputs": [],
      "name": "tokenPrice",
      "outputs": [
        {
          "internalType": "uint256",
          "name": "",
          "type": "uint256"
        }
      ],
      "stateMutability": "view",
      "type": "function"
    },
    {
      "inputs": [
        {
          "internalType": "address",
          "name": "_user",
          "type": "address"
        }
      ],
      "name": "tokensClaimable",
      "outputs": [
        {
          "internalType": "uint256",
          "name": "claimerCommitment",
          "type": "uint256"
        }
      ],
      "stateMutability": "view",
      "type": "function"
    },
    {
      "inputs": [],
      "name": "totalTokensCommitted",
      "outputs": [
        {
          "internalType": "uint256",
          "name": "",
          "type": "uint256"
        }
      ],
      "stateMutability": "view",
      "type": "function"
    },
    {
      "inputs": [],
      "name": "wallet",
      "outputs": [
        {
          "internalType": "address payable",
          "name": "",
          "type": "address"
        }
      ],
      "stateMutability": "view",
      "type": "function"
    },
    {
      "inputs": [
        {
          "internalType": "address payable",
          "name": "beneficiary",
          "type": "address"
        }
      ],
      "name": "withdrawTokens",
      "outputs": [],
      "stateMutability": "nonpayable",
      "type": "function"
    },
    {
      "inputs": [],
      "name": "withdrawTokens",
      "outputs": [],
      "stateMutability": "nonpayable",
      "type": "function"
    },
    {
      "stateMutability": "payable",
      "type": "receive"
    }
  ],
  "bytecode": "0x60806040523480156200001157600080fd5b50604051620070a8380380620070a883398181016040528101906200003791906200099b565b60016003819055506402540be400871062000089576040517f08c379a0000000000000000000000000000000000000000000000000000000008152600401620000809062000b3e565b60405180910390fd5b42881015620000cf576040517f08c379a0000000000000000000000000000000000000000000000000000000008152600401620000c69062000bd6565b60405180910390fd5b87871162000114576040517f08c379a00000000000000000000000000000000000000000000000000000000081526004016200010b9062000c6e565b60405180910390fd5b600089116200015a576040517f08c379a0000000000000000000000000000000000000000000000000000000008152600401620001519062000d06565b60405180910390fd5b8385116200019f576040517f08c379a0000000000000000000000000000000000000000000000000000000008152600401620001969062000d9e565b60405180910390fd5b60008411620001e5576040517f08c379a0000000000000000000000000000000000000000000000000000000008152600401620001dc9062000e36565b60405180910390fd5b600073ffffffffffffffffffffffffffffffffffffffff168373ffffffffffffffffffffffffffffffffffffffff16141562000258576040517f08c379a00000000000000000000000000000000000000000000000000000000081526004016200024f9062000ece565b60405180910390fd5b600073ffffffffffffffffffffffffffffffffffffffff168273ffffffffffffffffffffffffffffffffffffffff161415620002cb576040517f08c379a0000000000000000000000000000000000000000000000000000000008152600401620002c29062000f66565b60405180910390fd5b60128a73ffffffffffffffffffffffffffffffffffffffff1663313ce5676040518163ffffffff1660e01b815260040160206040518083038186803b1580156200031457600080fd5b505afa15801562000329573d6000803e3d6000fd5b505050506040513d601f19601f820116820180604052508101906200034f919062000fc6565b60ff161462000395576040517f08c379a00000000000000000000000000000000000000000000000000000000081526004016200038c906200106e565b60405180910390fd5b73eeeeeeeeeeeeeeeeeeeeeeeeeeeeeeeeeeeeeeee73ffffffffffffffffffffffffffffffffffffffff168673ffffffffffffffffffffffffffffffffffffffff1614620004a85760008673ffffffffffffffffffffffffffffffffffffffff1663313ce5676040518163ffffffff1660e01b815260040160206040518083038186803b1580156200042657600080fd5b505afa1580156200043b573d6000803e3d6000fd5b505050506040513d601f19601f8201168201806040525081019062000461919062000fc6565b60ff1611620004a7576040517f08c379a00000000000000000000000000000000000000000000000000000000081526004016200049e9062001106565b60405180910390fd5b5b620004be886200077e60201b62002f241760201c565b600460000160006101000a81548167ffffffffffffffff021916908367ffffffffffffffff160217905550620004ff876200077e60201b62002f241760201c565b600460000160086101000a81548167ffffffffffffffff021916908367ffffffffffffffff1602179055506200054089620007d860201b62002f7b1760201c565b600460000160106101000a8154816fffffffffffffffffffffffffffffffff02191690836fffffffffffffffffffffffffffffffff1602179055506200059185620007d860201b62002f7b1760201c565b600560000160006101000a8154816fffffffffffffffffffffffffffffffff02191690836fffffffffffffffffffffffffffffffff160217905550620005e284620007d860201b62002f7b1760201c565b600560000160106101000a8154816fffffffffffffffffffffffffffffffff02191690836fffffffffffffffffffffffffffffffff16021790555089600860006101000a81548173ffffffffffffffffffffffffffffffffffffffff021916908373ffffffffffffffffffffffffffffffffffffffff16021790555085600960006101000a81548173ffffffffffffffffffffffffffffffffffffffff021916908373ffffffffffffffffffffffffffffffffffffffff16021790555081600a60006101000a81548173ffffffffffffffffffffffffffffffffffffffff021916908373ffffffffffffffffffffffffffffffffffffffff16021790555080600781905550620006f8836200083a60201b60201c565b7f5725d1e4352d6944889e54837ffaefde55cdc0b55796b831365d61cd4c87fdb888886040516200072b92919062001139565b60405180910390a17f622a57040c34e45abc5fadeb22e4c3c687cf48a096c86694cd21a7be9e7851ee85856040516200076692919062001139565b60405180910390a1505050505050505050506200124a565b600067ffffffffffffffff8016821115620007d0576040517f08c379a0000000000000000000000000000000000000000000000000000000008152600401620007c790620011b6565b60405180910390fd5b819050919050565b60006fffffffffffffffffffffffffffffffff801682111562000832576040517f08c379a0000000000000000000000000000000000000000000000000000000008152600401620008299062001228565b60405180910390fd5b819050919050565b60008054906101000a900460ff16156200085357600080fd5b60016000806101000a81548160ff02191690831515021790555080600060016101000a81548173ffffffffffffffffffffffffffffffffffffffff021916908373ffffffffffffffffffffffffffffffffffffffff16021790555050565b600080fd5b600073ffffffffffffffffffffffffffffffffffffffff82169050919050565b6000620008e382620008b6565b9050919050565b620008f581620008d6565b81146200090157600080fd5b50565b6000815190506200091581620008ea565b92915050565b6000819050919050565b62000930816200091b565b81146200093c57600080fd5b50565b600081519050620009508162000925565b92915050565b60006200096382620008b6565b9050919050565b620009758162000956565b81146200098157600080fd5b50565b60008151905062000995816200096a565b92915050565b6000806000806000806000806000806101408b8d031215620009c257620009c1620008b1565b5b6000620009d28d828e0162000904565b9a50506020620009e58d828e016200093f565b9950506040620009f88d828e016200093f565b985050606062000a0b8d828e016200093f565b975050608062000a1e8d828e0162000904565b96505060a062000a318d828e016200093f565b95505060c062000a448d828e016200093f565b94505060e062000a578d828e0162000904565b93505061010062000a6b8d828e0162000984565b92505061012062000a7f8d828e016200093f565b9150509295989b9194979a5092959850565b600082825260208201905092915050565b7f447574636841756374696f6e3a20656e74657220616e20756e69782074696d6560008201527f7374616d7020696e207365636f6e64732c206e6f74206d696c697365636f6e6460208201527f7300000000000000000000000000000000000000000000000000000000000000604082015250565b600062000b2660418362000a91565b915062000b338262000aa2565b606082019050919050565b6000602082019050818103600083015262000b598162000b17565b9050919050565b7f447574636841756374696f6e3a2073746172742074696d65206973206265666f60008201527f72652063757272656e742074696d650000000000000000000000000000000000602082015250565b600062000bbe602f8362000a91565b915062000bcb8262000b60565b604082019050919050565b6000602082019050818103600083015262000bf18162000baf565b9050919050565b7f447574636841756374696f6e3a20656e642074696d65206d757374206265206f60008201527f6c646572207468616e2073746172742074696d65000000000000000000000000602082015250565b600062000c5660348362000a91565b915062000c638262000bf8565b604082019050919050565b6000602082019050818103600083015262000c898162000c47565b9050919050565b7f447574636841756374696f6e3a20746f74616c20746f6b656e73206d7573742060008201527f62652067726561746572207468616e207a65726f000000000000000000000000602082015250565b600062000cee60348362000a91565b915062000cfb8262000c90565b604082019050919050565b6000602082019050818103600083015262000d218162000cdf565b9050919050565b7f447574636841756374696f6e3a207374617274207072696365206d757374206260008201527f6520686967686572207468616e206d696e696d756d2070726963650000000000602082015250565b600062000d86603b8362000a91565b915062000d938262000d28565b604082019050919050565b6000602082019050818103600083015262000db98162000d77565b9050919050565b7f447574636841756374696f6e3a206d696e696d756d207072696365206d75737460008201527f2062652067726561746572207468616e20300000000000000000000000000000602082015250565b600062000e1e60328362000a91565b915062000e2b8262000dc0565b604082019050919050565b6000602082019050818103600083015262000e518162000e0f565b9050919050565b7f447574636841756374696f6e3a2061646d696e20697320746865207a65726f2060008201527f6164647265737300000000000000000000000000000000000000000000000000602082015250565b600062000eb660278362000a91565b915062000ec38262000e58565b604082019050919050565b6000602082019050818103600083015262000ee98162000ea7565b9050919050565b7f447574636841756374696f6e3a2077616c6c657420697320746865207a65726f60008201527f2061646472657373000000000000000000000000000000000000000000000000602082015250565b600062000f4e60288362000a91565b915062000f5b8262000ef0565b604082019050919050565b6000602082019050818103600083015262000f818162000f3f565b9050919050565b600060ff82169050919050565b62000fa08162000f88565b811462000fac57600080fd5b50565b60008151905062000fc08162000f95565b92915050565b60006020828403121562000fdf5762000fde620008b1565b5b600062000fef8482850162000faf565b91505092915050565b7f447574636841756374696f6e3a20546f6b656e20646f6573206e6f742068617660008201527f6520313820646563696d616c7300000000000000000000000000000000000000602082015250565b600062001056602d8362000a91565b9150620010638262000ff8565b604082019050919050565b60006020820190508181036000830152620010898162001047565b9050919050565b7f447574636841756374696f6e3a205061796d656e742063757272656e6379206960008201527f73206e6f74204552433230000000000000000000000000000000000000000000602082015250565b6000620010ee602b8362000a91565b9150620010fb8262001090565b604082019050919050565b600060208201905081810360008301526200112181620010df565b9050919050565b62001133816200091b565b82525050565b600060408201905062001150600083018562001128565b6200115f602083018462001128565b9392505050565b7f426f72696e674d6174683a2075696e743634204f766572666c6f770000000000600082015250565b60006200119e601b8362000a91565b9150620011ab8262001166565b602082019050919050565b60006020820190508181036000830152620011d1816200118f565b9050919050565b7f426f72696e674d6174683a2075696e74313238204f766572666c6f7700000000600082015250565b600062001210601c8362000a91565b91506200121d82620011d8565b602082019050919050565b60006020820190508181036000830152620012438162001201565b9050919050565b615e4e806200125a6000396000f3fe60806040526004361061028c5760003560e01c80636ae260c11161015a578063a9d87ee6116100c1578063dc97e0821161007a578063dc97e082146109d0578063e0e081d7146109f9578063e6594abd14610a26578063e8fcf72314610a4f578063f04899d314610a8c578063f08b82e614610ab75761029b565b8063a9d87ee6146108ac578063b3f05b97146108d7578063c395fcb314610902578063c884ef831461093f578063d547741f1461097c578063d7568b6e146109a55761029b565b80638fa8b790116101135780638fa8b790146107ae578063919e93b5146107c557806391d14854146107f057806399fdb3201461082d5780639a87222c14610858578063a217fddf146108815761029b565b80636ae260c1146106b05780636db8ce0d146106d957806374cf9fc5146107165780637ff9b59614610741578063864333741461076c5780638d8f2adb146107975761029b565b806332a0f2d7116101fe57806347535d7b116101b757806347535d7b146105b257806349df728c146105dd5780634bb278f3146106065780634dc80e151461061d578063521eb2731461065a57806361bc1a49146106855761029b565b806332a0f2d7146104b157806336568abe146104dc57806336d0054b14610505578063392e53cd146105305780633d15cc6d1461055b57806345a15388146105865761029b565b8063248a9ca311610250578063248a9ca31461039b57806324e4025b146103d857806329762960146104015780632f2ff15d1461041d57806330f877f614610446578063314148e2146104835761029b565b806301ffc9a7146102a0578063031bee00146102dd578063113b0ab21461030a5780631702645514610347578063212f8a81146103725761029b565b3661029b57610299610ae2565b005b600080fd5b3480156102ac57600080fd5b506102c760048036038101906102c29190613f4f565b610b1d565b6040516102d49190613f97565b60405180910390f35b3480156102e957600080fd5b506102f2610b97565b60405161030193929190614000565b60405180910390f35b34801561031657600080fd5b50610331600480360381019061032c9190614095565b610bf3565b60405161033e9190613f97565b60405180910390f35b34801561035357600080fd5b5061035c610c49565b6040516103699190613f97565b60405180910390f35b34801561037e57600080fd5b5061039960048036038101906103949190614124565b610c84565b005b3480156103a757600080fd5b506103c260048036038101906103bd91906141ad565b610dea565b6040516103cf91906141e9565b60405180910390f35b3480156103e457600080fd5b506103ff60048036038101906103fa9190614204565b610e0a565b005b61041b60048036038101906104169190614282565b610fdc565b005b34801561042957600080fd5b50610444600480360381019061043f91906142c2565b61119c565b005b34801561045257600080fd5b5061046d60048036038101906104689190614302565b6111c5565b60405161047a919061447a565b60405180910390f35b34801561048f57600080fd5b50610498611209565b6040516104a894939291906144ab565b60405180910390f35b3480156104bd57600080fd5b506104c6611287565b6040516104d391906144ff565b60405180910390f35b3480156104e857600080fd5b5061050360048036038101906104fe91906142c2565b6112b6565b005b34801561051157600080fd5b5061051a611339565b6040516105279190613f97565b60405180910390f35b34801561053c57600080fd5b50610545611352565b6040516105529190613f97565b60405180910390f35b34801561056757600080fd5b50610570611368565b60405161057d919061451a565b60405180910390f35b34801561059257600080fd5b5061059b61138e565b6040516105a9929190614535565b60405180910390f35b3480156105be57600080fd5b506105c76113d8565b6040516105d49190613f97565b60405180910390f35b3480156105e957600080fd5b5061060460048036038101906105ff919061455e565b611435565b005b34801561061257600080fd5b5061061b6117dc565b005b34801561062957600080fd5b50610644600480360381019061063f9190614095565b611ce9565b60405161065191906144ff565b60405180910390f35b34801561066657600080fd5b5061066f611f1d565b60405161067c919061459a565b60405180910390f35b34801561069157600080fd5b5061069a611f43565b6040516106a791906144ff565b60405180910390f35b3480156106bc57600080fd5b506106d760048036038101906106d29190614204565b612092565b005b3480156106e557600080fd5b5061070060048036038101906106fb91906145b5565b6122d2565b60405161070d91906144ff565b60405180910390f35b34801561072257600080fd5b5061072b61249d565b604051610738919061464a565b60405180910390f35b34801561074d57600080fd5b506107566124c0565b60405161076391906144ff565b60405180910390f35b34801561077857600080fd5b5061078161255a565b60405161078e9190613f97565b60405180910390f35b3480156107a357600080fd5b506107ac612596565b005b3480156107ba57600080fd5b506107c36125a1565b005b3480156107d157600080fd5b506107da612856565b6040516107e791906144ff565b60405180910390f35b3480156107fc57600080fd5b50610817600480360381019061081291906142c2565b6128c4565b6040516108249190613f97565b60405180910390f35b34801561083957600080fd5b5061084261292f565b60405161084f919061451a565b60405180910390f35b34801561086457600080fd5b5061087f600480360381019061087a919061455e565b612955565b005b34801561088d57600080fd5b50610896612a52565b6040516108a391906141e9565b60405180910390f35b3480156108b857600080fd5b506108c1612a59565b6040516108ce91906144ff565b60405180910390f35b3480156108e357600080fd5b506108ec612b33565b6040516108f99190613f97565b60405180910390f35b34801561090e57600080fd5b5061092960048036038101906109249190614095565b612b4d565b6040516109369190613f97565b60405180910390f35b34801561094b57600080fd5b5061096660048036038101906109619190614095565b612ba7565b60405161097391906144ff565b60405180910390f35b34801561098857600080fd5b506109a3600480360381019061099e91906142c2565b612bbf565b005b3480156109b157600080fd5b506109ba612be8565b6040516109c791906144ff565b60405180910390f35b3480156109dc57600080fd5b506109f760048036038101906109f2919061466c565b612dd8565b005b348015610a0557600080fd5b50610a0e612de7565b604051610a1d939291906146ac565b60405180910390f35b348015610a3257600080fd5b50610a4d6004803603810190610a489190614095565b612e35565b005b348015610a5b57600080fd5b50610a766004803603810190610a719190614095565b612eab565b604051610a8391906144ff565b60405180910390f35b348015610a9857600080fd5b50610aa1612ec3565b604051610aae919061451a565b60405180910390f35b348015610ac357600080fd5b50610acc612ee9565b604051610ad991906144ff565b60405180910390f35b6040517f08c379a0000000000000000000000000000000000000000000000000000000008152600401610b149061477b565b60405180910390fd5b60007f7965db0b000000000000000000000000000000000000000000000000000000007bffffffffffffffffffffffffffffffffffffffffffffffffffffffff1916827bffffffffffffffffffffffffffffffffffffffffffffffffffffffff19161480610b905750610b8f82612fda565b5b9050919050565b60048060000160009054906101000a900467ffffffffffffffff16908060000160089054906101000a900467ffffffffffffffff16908060000160109054906101000a90046fffffffffffffffffffffffffffffffff16905083565b6000600160008373ffffffffffffffffffffffffffffffffffffffff1673ffffffffffffffffffffffffffffffffffffffff16815260200190815260200160002060009054906101000a900460ff169050919050565b60004262093a80600460000160089054906101000a900467ffffffffffffffff1667ffffffffffffffff16610c7e91906147ca565b10905090565b60026003541415610cca576040517f08c379a0000000000000000000000000000000000000000000000000000000008152600401610cc19061486c565b60405180910390fd5b600260038190555073eeeeeeeeeeeeeeeeeeeeeeeeeeeeeeeeeeeeeeee73ffffffffffffffffffffffffffffffffffffffff16600960009054906101000a900473ffffffffffffffffffffffffffffffffffffffff1673ffffffffffffffffffffffffffffffffffffffff161415610d77576040517f08c379a0000000000000000000000000000000000000000000000000000000008152600401610d6e906148fe565b60405180910390fd5b600015158115151415610d8d57610d8c610ae2565b5b6000610d9983856122d2565b90506000811115610ddc57610dd1600960009054906101000a900473ffffffffffffffffffffffffffffffffffffffff163383613044565b610ddb8482613146565b5b506001600381905550505050565b600060026000838152602001908152602001600020600101549050919050565b610e1333612b4d565b610e1c57600080fd5b808211610e5e576040517f08c379a0000000000000000000000000000000000000000000000000000000008152600401610e5590614990565b60405180910390fd5b60008111610ea1576040517f08c379a0000000000000000000000000000000000000000000000000000000008152600401610e9890614a22565b60405180910390fd5b6000600660000160009054906101000a90046fffffffffffffffffffffffffffffffff166fffffffffffffffffffffffffffffffff1614610f17576040517f08c379a0000000000000000000000000000000000000000000000000000000008152600401610f0e90614ab4565b60405180910390fd5b610f2082612f7b565b600560000160006101000a8154816fffffffffffffffffffffffffffffffff02191690836fffffffffffffffffffffffffffffffff160217905550610f6481612f7b565b600560000160106101000a8154816fffffffffffffffffffffffffffffffff02191690836fffffffffffffffffffffffffffffffff1602179055507f622a57040c34e45abc5fadeb22e4c3c687cf48a096c86694cd21a7be9e7851ee8282604051610fd0929190614ad4565b60405180910390a15050565b73eeeeeeeeeeeeeeeeeeeeeeeeeeeeeeeeeeeeeeee73ffffffffffffffffffffffffffffffffffffffff16600960009054906101000a900473ffffffffffffffffffffffffffffffffffffffff1673ffffffffffffffffffffffffffffffffffffffff1614611080576040517f08c379a000000000000000000000000000000000000000000000000000000000815260040161107790614b6f565b60405180910390fd5b60001515811515141561109657611095610ae2565b5b60006110a234846122d2565b905060006110b9823461334190919063ffffffff16565b905060008211156110cf576110ce8483613146565b5b6000811115611120578373ffffffffffffffffffffffffffffffffffffffff166108fc829081150290604051600060405180830381858888f1935050505015801561111e573d6000803e3d6000fd5b505b47600660000160009054906101000a90046fffffffffffffffffffffffffffffffff166fffffffffffffffffffffffffffffffff161115611196576040517f08c379a000000000000000000000000000000000000000000000000000000000815260040161118d90614c01565b60405180910390fd5b50505050565b6111a582610dea565b6111b6816111b161339a565b6133a2565b6111c0838361343f565b505050565b60608a8a8a8a8a8a8a8a8a8a6040516020016111ea9a99989796959493929190614c21565b60405160208183030381529060405290509a9950505050505050505050565b600080600080600860009054906101000a900473ffffffffffffffffffffffffffffffffffffffff16600460000160009054906101000a900467ffffffffffffffff16600460000160089054906101000a900467ffffffffffffffff16600660000160109054906101000a900460ff16935093509350935090919293565b6000806112926124c0565b9050600061129e612a59565b90508082116112ad57806112af565b815b9250505090565b6112be61339a565b73ffffffffffffffffffffffffffffffffffffffff168173ffffffffffffffffffffffffffffffffffffffff161461132b576040517f08c379a000000000000000000000000000000000000000000000000000000000815260040161132290614d2f565b60405180910390fd5b6113358282613520565b5050565b6000611343611287565b61134b6124c0565b1015905090565b60008060009054906101000a900460ff16905090565b600960009054906101000a900473ffffffffffffffffffffffffffffffffffffffff1681565b60058060000160009054906101000a90046fffffffffffffffffffffffffffffffff16908060000160109054906101000a90046fffffffffffffffffffffffffffffffff16905082565b6000600460000160009054906101000a900467ffffffffffffffff1667ffffffffffffffff1642101580156114305750600460000160089054906101000a900467ffffffffffffffff1667ffffffffffffffff164211155b905090565b6002600354141561147b576040517f08c379a00000000000000000000000000000000000000000000000000000000081526004016114729061486c565b60405180910390fd5b600260038190555061148b611339565b1561165757600660000160109054906101000a900460ff166114e2576040517f08c379a00000000000000000000000000000000000000000000000000000000081526004016114d990614d9b565b60405180910390fd5b60006114ed82611ce9565b905060008111611532576040517f08c379a000000000000000000000000000000000000000000000000000000000815260040161152990614e07565b60405180910390fd5b61158481600d60008573ffffffffffffffffffffffffffffffffffffffff1673ffffffffffffffffffffffffffffffffffffffff1681526020019081526020016000205461360290919063ffffffff16565b600d60008473ffffffffffffffffffffffffffffffffffffffff1673ffffffffffffffffffffffffffffffffffffffff168152602001908152602001600020819055506115f4600860009054906101000a900473ffffffffffffffffffffffffffffffffffffffff16838361365b565b7f6337ed398c0e8467698c581374fdce4db14922df487b5a39483079f5f59b60a4600860009054906101000a900473ffffffffffffffffffffffffffffffffffffffff16838360405161164993929190614e86565b60405180910390a1506117d1565b600460000160089054906101000a900467ffffffffffffffff1667ffffffffffffffff1642116116bc576040517f08c379a00000000000000000000000000000000000000000000000000000000081526004016116b390614f2f565b60405180910390fd5b6000600c60008373ffffffffffffffffffffffffffffffffffffffff1673ffffffffffffffffffffffffffffffffffffffff1681526020019081526020016000205490506000600c60008473ffffffffffffffffffffffffffffffffffffffff1673ffffffffffffffffffffffffffffffffffffffff16815260200190815260200160002081905550611772600960009054906101000a900473ffffffffffffffffffffffffffffffffffffffff16838361365b565b7f6337ed398c0e8467698c581374fdce4db14922df487b5a39483079f5f59b60a4600960009054906101000a900473ffffffffffffffffffffffffffffffffffffffff1683836040516117c793929190614e86565b60405180910390a1505b600160038190555050565b60026003541415611822576040517f08c379a00000000000000000000000000000000000000000000000000000000081526004016118199061486c565b60405180910390fd5b600260038190555061183333612b4d565b80611843575061184233610bf3565b5b8061189b57503373ffffffffffffffffffffffffffffffffffffffff16600a60009054906101000a900473ffffffffffffffffffffffffffffffffffffffff1673ffffffffffffffffffffffffffffffffffffffff16145b806118aa57506118a9610c49565b5b6118e9576040517f08c379a00000000000000000000000000000000000000000000000000000000081526004016118e090614fc1565b60405180910390fd5b6000600460000160109054906101000a90046fffffffffffffffffffffffffffffffff166fffffffffffffffffffffffffffffffff161161195f576040517f08c379a00000000000000000000000000000000000000000000000000000000081526004016119569061502d565b60405180910390fd5b6000600690508060000160109054906101000a900460ff16156119b7576040517f08c379a00000000000000000000000000000000000000000000000000000000081526004016119ae906150bf565b60405180910390fd5b6119bf611339565b15611afb57611a45600960009054906101000a900473ffffffffffffffffffffffffffffffffffffffff16600a60009054906101000a900473ffffffffffffffffffffffffffffffffffffffff168360000160009054906101000a90046fffffffffffffffffffffffffffffffff166fffffffffffffffffffffffffffffffff1661365b565b7f6337ed398c0e8467698c581374fdce4db14922df487b5a39483079f5f59b60a4600960009054906101000a900473ffffffffffffffffffffffffffffffffffffffff16600a60009054906101000a900473ffffffffffffffffffffffffffffffffffffffff168360000160009054906101000a90046fffffffffffffffffffffffffffffffff166fffffffffffffffffffffffffffffffff16604051611aee93929190614e86565b60405180910390a1611c95565b600460000160089054906101000a900467ffffffffffffffff1667ffffffffffffffff164211611b60576040517f08c379a0000000000000000000000000000000000000000000000000000000008152600401611b5790614f2f565b60405180910390fd5b611be2600860009054906101000a900473ffffffffffffffffffffffffffffffffffffffff16600a60009054906101000a900473ffffffffffffffffffffffffffffffffffffffff16600460000160109054906101000a90046fffffffffffffffffffffffffffffffff166fffffffffffffffffffffffffffffffff1661365b565b7f6337ed398c0e8467698c581374fdce4db14922df487b5a39483079f5f59b60a4600860009054906101000a900473ffffffffffffffffffffffffffffffffffffffff16600a60009054906101000a900473ffffffffffffffffffffffffffffffffffffffff16600460000160109054906101000a90046fffffffffffffffffffffffffffffffff166fffffffffffffffffffffffffffffffff16604051611c8c93929190614e86565b60405180910390a15b60018160000160106101000a81548160ff0219169083151502179055507f32bebcfd2d04dbae321298091d96d2cb1d07279f59718cd83bd98245b8b82b5a60405160405180910390a1506001600381905550565b600080600c60008473ffffffffffffffffffffffffffffffffffffffff1673ffffffffffffffffffffffffffffffffffffffff168152602001908152602001600020541415611d3b5760009050611f18565b6000600860009054906101000a900473ffffffffffffffffffffffffffffffffffffffff1673ffffffffffffffffffffffffffffffffffffffff166370a08231306040518263ffffffff1660e01b8152600401611d98919061451a565b60206040518083038186803b158015611db057600080fd5b505afa158015611dc4573d6000803e3d6000fd5b505050506040513d601f19601f82011682018060405250810190611de891906150f4565b9050611eb4600660000160009054906101000a90046fffffffffffffffffffffffffffffffff166fffffffffffffffffffffffffffffffff16611ea6600460000160109054906101000a90046fffffffffffffffffffffffffffffffff166fffffffffffffffffffffffffffffffff16600c60008873ffffffffffffffffffffffffffffffffffffffff1673ffffffffffffffffffffffffffffffffffffffff168152602001908152602001600020546136c390919063ffffffff16565b61373090919063ffffffff16565b9150611f08600d60008573ffffffffffffffffffffffffffffffffffffffff1673ffffffffffffffffffffffffffffffffffffffff168152602001908152602001600020548361334190919063ffffffff16565b915080821115611f16578091505b505b919050565b600a60009054906101000a900473ffffffffffffffffffffffffffffffffffffffff1681565b6000611fa5600860009054906101000a900473ffffffffffffffffffffffffffffffffffffffff1633600460000160109054906101000a90046fffffffffffffffffffffffffffffffff166fffffffffffffffffffffffffffffffff16613044565b7f7824ca06acdd8331a93fac9d8f97849b46c2d30748d7320b0d3a8173320b1f3a33600860009054906101000a900473ffffffffffffffffffffffffffffffffffffffff16600460000160109054906101000a90046fffffffffffffffffffffffffffffffff16600960009054906101000a900473ffffffffffffffffffffffffffffffffffffffff16600060019054906101000a900473ffffffffffffffffffffffffffffffffffffffff16600a60009054906101000a900473ffffffffffffffffffffffffffffffffffffffff1660405161208796959493929190615152565b60405180910390a190565b61209b33612b4d565b6120a457600080fd5b6402540be40082106120eb576040517f08c379a00000000000000000000000000000000000000000000000000000000081526004016120e29061524b565b60405180910390fd5b6402540be4008110612132576040517f08c379a00000000000000000000000000000000000000000000000000000000081526004016121299061524b565b60405180910390fd5b42821015612175576040517f08c379a000000000000000000000000000000000000000000000000000000000815260040161216c906152dd565b60405180910390fd5b8181116121b7576040517f08c379a00000000000000000000000000000000000000000000000000000000081526004016121ae9061536f565b60405180910390fd5b6000600660000160009054906101000a90046fffffffffffffffffffffffffffffffff166fffffffffffffffffffffffffffffffff161461222d576040517f08c379a000000000000000000000000000000000000000000000000000000000815260040161222490614ab4565b60405180910390fd5b61223682612f24565b600460000160006101000a81548167ffffffffffffffff021916908367ffffffffffffffff16021790555061226a81612f24565b600460000160086101000a81548167ffffffffffffffff021916908367ffffffffffffffff1602179055507f5725d1e4352d6944889e54837ffaefde55cdc0b55796b831365d61cd4c87fdb882826040516122c6929190614ad4565b60405180910390a15050565b60008061233c670de0b6b3a764000061232e6122ec611287565b600460000160109054906101000a90046fffffffffffffffffffffffffffffffff166fffffffffffffffffffffffffffffffff166136c390919063ffffffff16565b61373090919063ffffffff16565b9050600084905060075461239886600c60008873ffffffffffffffffffffffffffffffffffffffff1673ffffffffffffffffffffffffffffffffffffffff1681526020019081526020016000205461360290919063ffffffff16565b11156123f5576123f2600c60003373ffffffffffffffffffffffffffffffffffffffff1673ffffffffffffffffffffffffffffffffffffffff1681526020019081526020016000205460075461334190919063ffffffff16565b90505b8161243c82600660000160009054906101000a90046fffffffffffffffffffffffffffffffff166fffffffffffffffffffffffffffffffff1661360290919063ffffffff16565b111561249157612488600660000160009054906101000a90046fffffffffffffffffffffffffffffffff166fffffffffffffffffffffffffffffffff168361334190919063ffffffff16565b92505050612497565b80925050505b92915050565b60606040518061018001604052806101518152602001615cc86101519139905090565b6000612555600460000160109054906101000a90046fffffffffffffffffffffffffffffffff166fffffffffffffffffffffffffffffffff16612547670de0b6b3a7640000600660000160009054906101000a90046fffffffffffffffffffffffffffffffff166fffffffffffffffffffffffffffffffff166136c390919063ffffffff16565b61373090919063ffffffff16565b905090565b6000612564611339565b806125915750600460000160089054906101000a900467ffffffffffffffff1667ffffffffffffffff1642115b905090565b61259f33611435565b565b600260035414156125e7576040517f08c379a00000000000000000000000000000000000000000000000000000000081526004016125de9061486c565b60405180910390fd5b60026003819055506125f833612b4d565b61260157600080fd5b6000600690508060000160109054906101000a900460ff1615612659576040517f08c379a0000000000000000000000000000000000000000000000000000000008152600401612650906150bf565b60405180910390fd5b60008160000160009054906101000a90046fffffffffffffffffffffffffffffffff166fffffffffffffffffffffffffffffffff16146126ce576040517f08c379a00000000000000000000000000000000000000000000000000000000081526004016126c590615401565b60405180910390fd5b612750600860009054906101000a900473ffffffffffffffffffffffffffffffffffffffff16600a60009054906101000a900473ffffffffffffffffffffffffffffffffffffffff16600460000160109054906101000a90046fffffffffffffffffffffffffffffffff166fffffffffffffffffffffffffffffffff1661365b565b60018160000160106101000a81548160ff0219169083151502179055507fa5fb31e47bd1eca58bf14a3312d5e6aeafdc4ee787c8ed348c15c2b092324d9360405160405180910390a17f6337ed398c0e8467698c581374fdce4db14922df487b5a39483079f5f59b60a4600860009054906101000a900473ffffffffffffffffffffffffffffffffffffffff16600a60009054906101000a900473ffffffffffffffffffffffffffffffffffffffff16600460000160109054906101000a90046fffffffffffffffffffffffffffffffff166fffffffffffffffffffffffffffffffff1660405161284393929190614e86565b60405180910390a1506001600381905550565b60006128bf612863611287565b6128b1670de0b6b3a7640000600660000160009054906101000a90046fffffffffffffffffffffffffffffffff166fffffffffffffffffffffffffffffffff166136c390919063ffffffff16565b61373090919063ffffffff16565b905090565b60006002600084815260200190815260200160002060000160008373ffffffffffffffffffffffffffffffffffffffff1673ffffffffffffffffffffffffffffffffffffffff16815260200190815260200160002060009054906101000a900460ff16905092915050565b600860009054906101000a900473ffffffffffffffffffffffffffffffffffffffff1681565b61295e33612b4d565b61296757600080fd5b600073ffffffffffffffffffffffffffffffffffffffff168173ffffffffffffffffffffffffffffffffffffffff1614156129d7576040517f08c379a00000000000000000000000000000000000000000000000000000000081526004016129ce90615493565b60405180910390fd5b80600a60006101000a81548173ffffffffffffffffffffffffffffffffffffffff021916908373ffffffffffffffffffffffffffffffffffffffff1602179055507f34ae2bad9265f0212d4cf341708b8250949164bb54f9d0e4f442024f83bb2f9081604051612a4791906154b3565b60405180910390a150565b6000801b81565b6000600460000160009054906101000a900467ffffffffffffffff1667ffffffffffffffff164211612ac057600560000160009054906101000a90046fffffffffffffffffffffffffffffffff166fffffffffffffffffffffffffffffffff169050612b30565b600460000160089054906101000a900467ffffffffffffffff1667ffffffffffffffff164210612b2557600560000160109054906101000a90046fffffffffffffffffffffffffffffffff166fffffffffffffffffffffffffffffffff169050612b30565b612b2d613788565b90505b90565b6000600660000160109054906101000a900460ff16905090565b60008173ffffffffffffffffffffffffffffffffffffffff16600060019054906101000a900473ffffffffffffffffffffffffffffffffffffffff1673ffffffffffffffffffffffffffffffffffffffff16149050919050565b600d6020528060005260406000206000915090505481565b612bc882610dea565b612bd981612bd461339a565b6133a2565b612be38383613520565b505050565b60008060046040518060600160405290816000820160009054906101000a900467ffffffffffffffff1667ffffffffffffffff1667ffffffffffffffff1681526020016000820160089054906101000a900467ffffffffffffffff1667ffffffffffffffff1667ffffffffffffffff1681526020016000820160109054906101000a90046fffffffffffffffffffffffffffffffff166fffffffffffffffffffffffffffffffff166fffffffffffffffffffffffffffffffff16815250509050600060056040518060400160405290816000820160009054906101000a90046fffffffffffffffffffffffffffffffff166fffffffffffffffffffffffffffffffff166fffffffffffffffffffffffffffffffff1681526020016000820160109054906101000a90046fffffffffffffffffffffffffffffffff166fffffffffffffffffffffffffffffffff166fffffffffffffffffffffffffffffffff168152505090506000612d7c826020015183600001516fffffffffffffffffffffffffffffffff166139cc90919063ffffffff16565b6fffffffffffffffffffffffffffffffff1690506000612db78460000151856020015167ffffffffffffffff16613a4990919063ffffffff16565b67ffffffffffffffff1690508082612dcf91906154fd565b94505050505090565b612de3338383610c84565b5050565b60068060000160009054906101000a90046fffffffffffffffffffffffffffffffff16908060000160109054906101000a900460ff16908060000160119054906101000a900460ff16905083565b60008054906101000a900460ff1615612e4d57600080fd5b60016000806101000a81548160ff02191690831515021790555080600060016101000a81548173ffffffffffffffffffffffffffffffffffffffff021916908373ffffffffffffffffffffffffffffffffffffffff16021790555050565b600c6020528060005260406000206000915090505481565b600b60009054906101000a900473ffffffffffffffffffffffffffffffffffffffff1681565b6000600460000160109054906101000a90046fffffffffffffffffffffffffffffffff166fffffffffffffffffffffffffffffffff16905090565b600067ffffffffffffffff8016821115612f73576040517f08c379a0000000000000000000000000000000000000000000000000000000008152600401612f6a9061557a565b60405180910390fd5b819050919050565b60006fffffffffffffffffffffffffffffffff8016821115612fd2576040517f08c379a0000000000000000000000000000000000000000000000000000000008152600401612fc9906155e6565b60405180910390fd5b819050919050565b60007f01ffc9a7000000000000000000000000000000000000000000000000000000007bffffffffffffffffffffffffffffffffffffffffffffffffffffffff1916827bffffffffffffffffffffffffffffffffffffffffffffffffffffffff1916149050919050565b6000808473ffffffffffffffffffffffffffffffffffffffff166323b872dd85308660405160240161307893929190615606565b6040516020818303038152906040529060e01b6020820180517bffffffffffffffffffffffffffffffffffffffffffffffffffffffff83818316178352505050506040516130c69190615679565b6000604051808303816000865af19150503d8060008114613103576040519150601f19603f3d011682016040523d82523d6000602084013e613108565b606091505b5091509150818015613136575060008151148061313557508080602001905181019061313491906156a5565b5b5b61313f57600080fd5b5050505050565b600460000160009054906101000a900467ffffffffffffffff1667ffffffffffffffff16421015801561319c5750600460000160089054906101000a900467ffffffffffffffff1667ffffffffffffffff164211155b6131db576040517f08c379a00000000000000000000000000000000000000000000000000000000081526004016131d290615744565b60405180910390fd5b600060069050600061323583600c60008773ffffffffffffffffffffffffffffffffffffffff1673ffffffffffffffffffffffffffffffffffffffff1681526020019081526020016000205461360290919063ffffffff16565b905080600c60008673ffffffffffffffffffffffffffffffffffffffff1673ffffffffffffffffffffffffffffffffffffffff168152602001908152602001600020819055506132c86132c3848460000160009054906101000a90046fffffffffffffffffffffffffffffffff166fffffffffffffffffffffffffffffffff1661360290919063ffffffff16565b612f7b565b8260000160006101000a8154816fffffffffffffffffffffffffffffffff02191690836fffffffffffffffffffffffffffffffff1602179055507f077511a636ba1f10551cc7b89c13ff66a6ac9344e8a917527817a9690b15af7a8484604051613333929190615764565b60405180910390a150505050565b6000828284613350919061578d565b9150811115613394576040517f08c379a000000000000000000000000000000000000000000000000000000000815260040161338b9061580d565b60405180910390fd5b92915050565b600033905090565b6133ac82826128c4565b61343b576133d18173ffffffffffffffffffffffffffffffffffffffff166014613ab6565b6133df8360001c6020613ab6565b6040516020016133f0929190615901565b6040516020818303038152906040526040517f08c379a0000000000000000000000000000000000000000000000000000000008152600401613432919061464a565b60405180910390fd5b5050565b61344982826128c4565b61351c5760016002600084815260200190815260200160002060000160008373ffffffffffffffffffffffffffffffffffffffff1673ffffffffffffffffffffffffffffffffffffffff16815260200190815260200160002060006101000a81548160ff0219169083151502179055506134c161339a565b73ffffffffffffffffffffffffffffffffffffffff168173ffffffffffffffffffffffffffffffffffffffff16837f2f8788117e7eff1d82e926ec794901d17c78024a50270940304540a733656f0d60405160405180910390a45b5050565b61352a82826128c4565b156135fe5760006002600084815260200190815260200160002060000160008373ffffffffffffffffffffffffffffffffffffffff1673ffffffffffffffffffffffffffffffffffffffff16815260200190815260200160002060006101000a81548160ff0219169083151502179055506135a361339a565b73ffffffffffffffffffffffffffffffffffffffff168173ffffffffffffffffffffffffffffffffffffffff16837ff6391f5c32d9c69d2a47ea670b442974b53935d1edc7fd64eb21e047a839171b60405160405180910390a45b5050565b600081828461361191906147ca565b9150811015613655576040517f08c379a000000000000000000000000000000000000000000000000000000000815260040161364c90615987565b60405180910390fd5b92915050565b73eeeeeeeeeeeeeeeeeeeeeeeeeeeeeeeeeeeeeeee73ffffffffffffffffffffffffffffffffffffffff168373ffffffffffffffffffffffffffffffffffffffff1614156136b2576136ad8282613cf2565b6136be565b6136bd838383613df2565b5b505050565b6000808214806136eb5750828283856136dc91906159a7565b9250826136e991906154fd565b145b61372a576040517f08c379a000000000000000000000000000000000000000000000000000000000815260040161372190615a4d565b60405180910390fd5b92915050565b6000808211613774576040517f08c379a000000000000000000000000000000000000000000000000000000000815260040161376b90615ab9565b60405180910390fd5b818361378091906154fd565b905092915050565b60008060046040518060600160405290816000820160009054906101000a900467ffffffffffffffff1667ffffffffffffffff1667ffffffffffffffff1681526020016000820160089054906101000a900467ffffffffffffffff1667ffffffffffffffff1667ffffffffffffffff1681526020016000820160109054906101000a90046fffffffffffffffffffffffffffffffff166fffffffffffffffffffffffffffffffff166fffffffffffffffffffffffffffffffff16815250509050600060056040518060400160405290816000820160009054906101000a90046fffffffffffffffffffffffffffffffff166fffffffffffffffffffffffffffffffff166fffffffffffffffffffffffffffffffff1681526020016000820160109054906101000a90046fffffffffffffffffffffffffffffffff166fffffffffffffffffffffffffffffffff166fffffffffffffffffffffffffffffffff1681525050905060006139148360000151846020015167ffffffffffffffff16613a4990919063ffffffff16565b67ffffffffffffffff1661398f61394e846020015185600001516fffffffffffffffffffffffffffffffff166139cc90919063ffffffff16565b6fffffffffffffffffffffffffffffffff16613981866000015167ffffffffffffffff164261334190919063ffffffff16565b6136c390919063ffffffff16565b61399991906154fd565b90506139c48183600001516fffffffffffffffffffffffffffffffff1661334190919063ffffffff16565b935050505090565b6000826fffffffffffffffffffffffffffffffff1682846139ed9190615ad9565b9150816fffffffffffffffffffffffffffffffff161115613a43576040517f08c379a0000000000000000000000000000000000000000000000000000000008152600401613a3a9061580d565b60405180910390fd5b92915050565b60008267ffffffffffffffff168284613a629190615b0d565b91508167ffffffffffffffff161115613ab0576040517f08c379a0000000000000000000000000000000000000000000000000000000008152600401613aa79061580d565b60405180910390fd5b92915050565b606060006002836002613ac991906159a7565b613ad391906147ca565b67ffffffffffffffff811115613aec57613aeb615b41565b5b6040519080825280601f01601f191660200182016040528015613b1e5781602001600182028036833780820191505090505b5090507f300000000000000000000000000000000000000000000000000000000000000081600081518110613b5657613b55615b70565b5b60200101907effffffffffffffffffffffffffffffffffffffffffffffffffffffffffffff1916908160001a9053507f780000000000000000000000000000000000000000000000000000000000000081600181518110613bba57613bb9615b70565b5b60200101907effffffffffffffffffffffffffffffffffffffffffffffffffffffffffffff1916908160001a90535060006001846002613bfa91906159a7565b613c0491906147ca565b90505b6001811115613ca4577f3031323334353637383961626364656600000000000000000000000000000000600f861660108110613c4657613c45615b70565b5b1a60f81b828281518110613c5d57613c5c615b70565b5b60200101907effffffffffffffffffffffffffffffffffffffffffffffffffffffffffffff1916908160001a905350600485901c945080613c9d90615b9f565b9050613c07565b5060008414613ce8576040517f08c379a0000000000000000000000000000000000000000000000000000000008152600401613cdf90615c15565b60405180910390fd5b8091505092915050565b60008273ffffffffffffffffffffffffffffffffffffffff1682600067ffffffffffffffff811115613d2757613d26615b41565b5b6040519080825280601f01601f191660200182016040528015613d595781602001600182028036833780820191505090505b50604051613d679190615679565b60006040518083038185875af1925050503d8060008114613da4576040519150601f19603f3d011682016040523d82523d6000602084013e613da9565b606091505b5050905080613ded576040517f08c379a0000000000000000000000000000000000000000000000000000000008152600401613de490615ca7565b60405180910390fd5b505050565b6000808473ffffffffffffffffffffffffffffffffffffffff1663a9059cbb8585604051602401613e24929190615764565b6040516020818303038152906040529060e01b6020820180517bffffffffffffffffffffffffffffffffffffffffffffffffffffffff8381831617835250505050604051613e729190615679565b6000604051808303816000865af19150503d8060008114613eaf576040519150601f19603f3d011682016040523d82523d6000602084013e613eb4565b606091505b5091509150818015613ee25750600081511480613ee1575080806020019051810190613ee091906156a5565b5b5b613eeb57600080fd5b5050505050565b600080fd5b60007fffffffff0000000000000000000000000000000000000000000000000000000082169050919050565b613f2c81613ef7565b8114613f3757600080fd5b50565b600081359050613f4981613f23565b92915050565b600060208284031215613f6557613f64613ef2565b5b6000613f7384828501613f3a565b91505092915050565b60008115159050919050565b613f9181613f7c565b82525050565b6000602082019050613fac6000830184613f88565b92915050565b600067ffffffffffffffff82169050919050565b613fcf81613fb2565b82525050565b60006fffffffffffffffffffffffffffffffff82169050919050565b613ffa81613fd5565b82525050565b60006060820190506140156000830186613fc6565b6140226020830185613fc6565b61402f6040830184613ff1565b949350505050565b600073ffffffffffffffffffffffffffffffffffffffff82169050919050565b600061406282614037565b9050919050565b61407281614057565b811461407d57600080fd5b50565b60008135905061408f81614069565b92915050565b6000602082840312156140ab576140aa613ef2565b5b60006140b984828501614080565b91505092915050565b6000819050919050565b6140d5816140c2565b81146140e057600080fd5b50565b6000813590506140f2816140cc565b92915050565b61410181613f7c565b811461410c57600080fd5b50565b60008135905061411e816140f8565b92915050565b60008060006060848603121561413d5761413c613ef2565b5b600061414b86828701614080565b935050602061415c868287016140e3565b925050604061416d8682870161410f565b9150509250925092565b6000819050919050565b61418a81614177565b811461419557600080fd5b50565b6000813590506141a781614181565b92915050565b6000602082840312156141c3576141c2613ef2565b5b60006141d184828501614198565b91505092915050565b6141e381614177565b82525050565b60006020820190506141fe60008301846141da565b92915050565b6000806040838503121561421b5761421a613ef2565b5b6000614229858286016140e3565b925050602061423a858286016140e3565b9150509250929050565b600061424f82614037565b9050919050565b61425f81614244565b811461426a57600080fd5b50565b60008135905061427c81614256565b92915050565b6000806040838503121561429957614298613ef2565b5b60006142a78582860161426d565b92505060206142b88582860161410f565b9150509250929050565b600080604083850312156142d9576142d8613ef2565b5b60006142e785828601614198565b92505060206142f885828601614080565b9150509250929050565b6000806000806000806000806000806101408b8d03121561432657614325613ef2565b5b60006143348d828e01614080565b9a505060206143458d828e01614080565b99505060406143568d828e016140e3565b98505060606143678d828e016140e3565b97505060806143788d828e016140e3565b96505060a06143898d828e01614080565b95505060c061439a8d828e016140e3565b94505060e06143ab8d828e016140e3565b9350506101006143bd8d828e01614080565b9250506101206143cf8d828e0161426d565b9150509295989b9194979a5092959850565b600081519050919050565b600082825260208201905092915050565b60005b8381101561441b578082015181840152602081019050614400565b8381111561442a576000848401525b50505050565b6000601f19601f8301169050919050565b600061444c826143e1565b61445681856143ec565b93506144668185602086016143fd565b61446f81614430565b840191505092915050565b600060208201905081810360008301526144948184614441565b905092915050565b6144a581614057565b82525050565b60006080820190506144c0600083018761449c565b6144cd6020830186613fc6565b6144da6040830185613fc6565b6144e76060830184613f88565b95945050505050565b6144f9816140c2565b82525050565b600060208201905061451460008301846144f0565b92915050565b600060208201905061452f600083018461449c565b92915050565b600060408201905061454a6000830185613ff1565b6145576020830184613ff1565b9392505050565b60006020828403121561457457614573613ef2565b5b60006145828482850161426d565b91505092915050565b61459481614244565b82525050565b60006020820190506145af600083018461458b565b92915050565b600080604083850312156145cc576145cb613ef2565b5b60006145da858286016140e3565b92505060206145eb85828601614080565b9150509250929050565b600081519050919050565b600082825260208201905092915050565b600061461c826145f5565b6146268185614600565b93506146368185602086016143fd565b61463f81614430565b840191505092915050565b600060208201905081810360008301526146648184614611565b905092915050565b6000806040838503121561468357614682613ef2565b5b6000614691858286016140e3565b92505060206146a28582860161410f565b9150509250929050565b60006060820190506146c16000830186613ff1565b6146ce6020830185613f88565b6146db6040830184613f88565b949350505050565b7f4e6f2061677265656d656e742070726f76696465642c20706c6561736520726560008201527f766965772074686520736d61727420636f6e7472616374206265666f7265206960208201527f6e746572616374696e6720776974682069740000000000000000000000000000604082015250565b6000614765605283614600565b9150614770826146e3565b606082019050919050565b6000602082019050818103600083015261479481614758565b9050919050565b7f4e487b7100000000000000000000000000000000000000000000000000000000600052601160045260246000fd5b60006147d5826140c2565b91506147e0836140c2565b9250827fffffffffffffffffffffffffffffffffffffffffffffffffffffffffffffffff038211156148155761481461479b565b5b828201905092915050565b7f5265656e7472616e637947756172643a207265656e7472616e742063616c6c00600082015250565b6000614856601f83614600565b915061486182614820565b602082019050919050565b6000602082019050818103600083015261488581614849565b9050919050565b7f447574636841756374696f6e3a205061796d656e742063757272656e6379206960008201527f73206e6f74206120746f6b656e00000000000000000000000000000000000000602082015250565b60006148e8602d83614600565b91506148f38261488c565b604082019050919050565b60006020820190508181036000830152614917816148db565b9050919050565b7f447574636841756374696f6e3a207374617274207072696365206d757374206260008201527f6520686967686572207468616e206d696e696d756d2070726963650000000000602082015250565b600061497a603b83614600565b91506149858261491e565b604082019050919050565b600060208201905081810360008301526149a98161496d565b9050919050565b7f447574636841756374696f6e3a206d696e696d756d207072696365206d75737460008201527f2062652067726561746572207468616e20300000000000000000000000000000602082015250565b6000614a0c603283614600565b9150614a17826149b0565b604082019050919050565b60006020820190508181036000830152614a3b816149ff565b9050919050565b7f447574636841756374696f6e3a2061756374696f6e2063616e6e6f742068617660008201527f6520616c72656164792073746172746564000000000000000000000000000000602082015250565b6000614a9e603183614600565b9150614aa982614a42565b604082019050919050565b60006020820190508181036000830152614acd81614a91565b9050919050565b6000604082019050614ae960008301856144f0565b614af660208301846144f0565b9392505050565b7f447574636841756374696f6e3a207061796d656e742063757272656e6379206960008201527f73206e6f74204554482061646472657373000000000000000000000000000000602082015250565b6000614b59603183614600565b9150614b6482614afd565b604082019050919050565b60006020820190508181036000830152614b8881614b4c565b9050919050565b7f447574636841756374696f6e3a2054686520636f6d6d6974746564204554482060008201527f65786365656473207468652062616c616e636500000000000000000000000000602082015250565b6000614beb603383614600565b9150614bf682614b8f565b604082019050919050565b60006020820190508181036000830152614c1a81614bde565b9050919050565b600061014082019050614c37600083018d61449c565b614c44602083018c61449c565b614c51604083018b6144f0565b614c5e606083018a6144f0565b614c6b60808301896144f0565b614c7860a083018861449c565b614c8560c08301876144f0565b614c9260e08301866144f0565b614ca061010083018561449c565b614cae61012083018461458b565b9b9a5050505050505050505050565b7f416363657373436f6e74726f6c3a2063616e206f6e6c792072656e6f756e636560008201527f20726f6c657320666f722073656c660000000000000000000000000000000000602082015250565b6000614d19602f83614600565b9150614d2482614cbd565b604082019050919050565b60006020820190508181036000830152614d4881614d0c565b9050919050565b7f447574636841756374696f6e3a206e6f742066696e616c697a65640000000000600082015250565b6000614d85601b83614600565b9150614d9082614d4f565b602082019050919050565b60006020820190508181036000830152614db481614d78565b9050919050565b7f447574636841756374696f6e3a204e6f20746f6b656e7320746f20636c61696d600082015250565b6000614df1602083614600565b9150614dfc82614dbb565b602082019050919050565b60006020820190508181036000830152614e2081614de4565b9050919050565b6000819050919050565b6000614e4c614e47614e4284614037565b614e27565b614037565b9050919050565b6000614e5e82614e31565b9050919050565b6000614e7082614e53565b9050919050565b614e8081614e65565b82525050565b6000606082019050614e9b600083018661449c565b614ea86020830185614e77565b614eb560408301846144f0565b949350505050565b7f447574636841756374696f6e3a2061756374696f6e20686173206e6f7420666960008201527f6e69736865642079657400000000000000000000000000000000000000000000602082015250565b6000614f19602a83614600565b9150614f2482614ebd565b604082019050919050565b60006020820190508181036000830152614f4881614f0c565b9050919050565b7f447574636841756374696f6e3a2073656e646572206d75737420626520616e2060008201527f61646d696e000000000000000000000000000000000000000000000000000000602082015250565b6000614fab602583614600565b9150614fb682614f4f565b604082019050919050565b60006020820190508181036000830152614fda81614f9e565b9050919050565b7f4e6f7420696e697469616c697a65640000000000000000000000000000000000600082015250565b6000615017600f83614600565b915061502282614fe1565b602082019050919050565b600060208201905081810360008301526150468161500a565b9050919050565b7f447574636841756374696f6e3a2061756374696f6e20616c726561647920666960008201527f6e616c697a656400000000000000000000000000000000000000000000000000602082015250565b60006150a9602783614600565b91506150b48261504d565b604082019050919050565b600060208201905081810360008301526150d88161509c565b9050919050565b6000815190506150ee816140cc565b92915050565b60006020828403121561510a57615109613ef2565b5b6000615118848285016150df565b91505092915050565b600061513c61513761513284613fd5565b614e27565b6140c2565b9050919050565b61514c81615121565b82525050565b600060c082019050615167600083018961449c565b615174602083018861449c565b6151816040830187615143565b61518e606083018661449c565b61519b608083018561449c565b6151a860a0830184614e77565b979650505050505050565b7f447574636841756374696f6e3a20656e74657220616e20756e69782074696d6560008201527f7374616d7020696e207365636f6e64732c206e6f74206d696c697365636f6e6460208201527f7300000000000000000000000000000000000000000000000000000000000000604082015250565b6000615235604183614600565b9150615240826151b3565b606082019050919050565b6000602082019050818103600083015261526481615228565b9050919050565b7f447574636841756374696f6e3a2073746172742074696d65206973206265666f60008201527f72652063757272656e742074696d650000000000000000000000000000000000602082015250565b60006152c7602f83614600565b91506152d28261526b565b604082019050919050565b600060208201905081810360008301526152f6816152ba565b9050919050565b7f447574636841756374696f6e3a20656e642074696d65206d757374206265206f60008201527f6c646572207468616e2073746172742074696d65000000000000000000000000602082015250565b6000615359603483614600565b9150615364826152fd565b604082019050919050565b600060208201905081810360008301526153888161534c565b9050919050565b7f447574636841756374696f6e3a2061756374696f6e20616c726561647920636f60008201527f6d6d697474656400000000000000000000000000000000000000000000000000602082015250565b60006153eb602783614600565b91506153f68261538f565b604082019050919050565b6000602082019050818103600083015261541a816153de565b9050919050565b7f447574636841756374696f6e3a2077616c6c657420697320746865207a65726f60008201527f2061646472657373000000000000000000000000000000000000000000000000602082015250565b600061547d602883614600565b915061548882615421565b604082019050919050565b600060208201905081810360008301526154ac81615470565b9050919050565b60006020820190506154c86000830184614e77565b92915050565b7f4e487b7100000000000000000000000000000000000000000000000000000000600052601260045260246000fd5b6000615508826140c2565b9150615513836140c2565b925082615523576155226154ce565b5b828204905092915050565b7f426f72696e674d6174683a2075696e743634204f766572666c6f770000000000600082015250565b6000615564601b83614600565b915061556f8261552e565b602082019050919050565b6000602082019050818103600083015261559381615557565b9050919050565b7f426f72696e674d6174683a2075696e74313238204f766572666c6f7700000000600082015250565b60006155d0601c83614600565b91506155db8261559a565b602082019050919050565b600060208201905081810360008301526155ff816155c3565b9050919050565b600060608201905061561b600083018661449c565b615628602083018561449c565b61563560408301846144f0565b949350505050565b600081905092915050565b6000615653826143e1565b61565d818561563d565b935061566d8185602086016143fd565b80840191505092915050565b60006156858284615648565b915081905092915050565b60008151905061569f816140f8565b92915050565b6000602082840312156156bb576156ba613ef2565b5b60006156c984828501615690565b91505092915050565b7f447574636841756374696f6e3a206f7574736964652061756374696f6e20686f60008201527f7572730000000000000000000000000000000000000000000000000000000000602082015250565b600061572e602383614600565b9150615739826156d2565b604082019050919050565b6000602082019050818103600083015261575d81615721565b9050919050565b6000604082019050615779600083018561449c565b61578660208301846144f0565b9392505050565b6000615798826140c2565b91506157a3836140c2565b9250828210156157b6576157b561479b565b5b828203905092915050565b7f426f72696e674d6174683a20556e646572666c6f770000000000000000000000600082015250565b60006157f7601583614600565b9150615802826157c1565b602082019050919050565b60006020820190508181036000830152615826816157ea565b9050919050565b600081905092915050565b7f416363657373436f6e74726f6c3a206163636f756e7420000000000000000000600082015250565b600061586e60178361582d565b915061587982615838565b601782019050919050565b600061588f826145f5565b615899818561582d565b93506158a98185602086016143fd565b80840191505092915050565b7f206973206d697373696e6720726f6c6520000000000000000000000000000000600082015250565b60006158eb60118361582d565b91506158f6826158b5565b601182019050919050565b600061590c82615861565b91506159188285615884565b9150615923826158de565b915061592f8284615884565b91508190509392505050565b7f426f72696e674d6174683a20416464204f766572666c6f770000000000000000600082015250565b6000615971601883614600565b915061597c8261593b565b602082019050919050565b600060208201905081810360008301526159a081615964565b9050919050565b60006159b2826140c2565b91506159bd836140c2565b9250817fffffffffffffffffffffffffffffffffffffffffffffffffffffffffffffffff04831182151516156159f6576159f561479b565b5b828202905092915050565b7f426f72696e674d6174683a204d756c204f766572666c6f770000000000000000600082015250565b6000615a37601883614600565b9150615a4282615a01565b602082019050919050565b60006020820190508181036000830152615a6681615a2a565b9050919050565b7f426f72696e674d6174683a20446976207a65726f000000000000000000000000600082015250565b6000615aa3601483614600565b9150615aae82615a6d565b602082019050919050565b60006020820190508181036000830152615ad281615a96565b9050919050565b6000615ae482613fd5565b9150615aef83613fd5565b925082821015615b0257615b0161479b565b5b828203905092915050565b6000615b1882613fb2565b9150615b2383613fb2565b925082821015615b3657615b3561479b565b5b828203905092915050565b7f4e487b7100000000000000000000000000000000000000000000000000000000600052604160045260246000fd5b7f4e487b7100000000000000000000000000000000000000000000000000000000600052603260045260246000fd5b6000615baa826140c2565b91506000821415615bbe57615bbd61479b565b5b600182039050919050565b7f537472696e67733a20686578206c656e67746820696e73756666696369656e74600082015250565b6000615bff602083614600565b9150615c0a82615bc9565b602082019050919050565b60006020820190508181036000830152615c2e81615bf2565b9050919050565b7f5472616e7366657248656c7065723a204554485f5452414e534645525f46414960008201527f4c45440000000000000000000000000000000000000000000000000000000000602082015250565b6000615c91602383614600565b9150615c9c82615c35565b604082019050919050565b60006020820190508181036000830152615cc081615c84565b905091905056fe4920756e6465727374616e6420746861742049276d20696e746572616374696e672077697468206120736d61727420636f6e74726163742e204920756e6465727374616e64207468617420746f6b656e7320636f6d6d697474656420617265207375626a65637420746f2074686520746f6b656e2069737375657220616e64206c6f63616c206c617773207768657265206170706c696361626c652e204920726576696577656420636f6465206f662074686520736d61727420636f6e747261637420616e6420756e6465727374616e642069742066756c6c792e204920616772656520746f206e6f7420686f6c6420646576656c6f70657273206f72206f746865722070656f706c65206173736f6369617465642077697468207468652070726f6a656374206c6961626c6520666f7220616e79206c6f73736573206f72206d6973756e6465727374616e64696e6773a26469706673582212207ae34b7732ef7db4972c4604542d36c618cbef086d953a9987a9e89340e9469364736f6c63430008080033",
  "linkReferences": {},
  "deployedLinkReferences": {}
}