{
    "_format": "hh-sol-artifact-1",
    "contractName": "Garden",
    "sourceName": "contracts/Garden.sol",
    "abi": [
        {
            "anonymous": false,
            "inputs": [
                {
                    "indexed": true,
                    "internalType": "address",
                    "name": "executor",
                    "type": "address"
                },
                {
                    "indexed": false,
                    "internalType": "uint256",
                    "name": "at",
                    "type": "uint256"
                }
            ],
            "name": "Initialized",
            "type": "event"
        },
        {
            "anonymous": false,
            "inputs": [
                {
                    "indexed": true,
                    "internalType": "address",
                    "name": "user",
                    "type": "address"
                },
                {
                    "indexed": false,
                    "internalType": "uint256",
                    "name": "reward",
                    "type": "uint256"
                }
            ],
            "name": "RewardAdded",
            "type": "event"
        },
        {
            "anonymous": false,
            "inputs": [
                {
                    "indexed": true,
                    "internalType": "address",
                    "name": "user",
                    "type": "address"
                },
                {
                    "indexed": false,
                    "internalType": "uint256",
                    "name": "reward",
                    "type": "uint256"
                }
            ],
            "name": "RewardPaid",
            "type": "event"
        },
        {
            "anonymous": false,
            "inputs": [
                {
                    "indexed": true,
                    "internalType": "address",
                    "name": "user",
                    "type": "address"
                },
                {
                    "indexed": false,
                    "internalType": "uint256",
                    "name": "amount",
                    "type": "uint256"
                }
            ],
            "name": "Staked",
            "type": "event"
        },
        {
            "anonymous": false,
            "inputs": [
                {
                    "indexed": true,
                    "internalType": "address",
                    "name": "user",
                    "type": "address"
                },
                {
                    "indexed": false,
                    "internalType": "uint256",
                    "name": "amount",
                    "type": "uint256"
                }
            ],
            "name": "Withdrawn",
            "type": "event"
        },
        {
            "inputs": [
                {
                    "internalType": "uint256",
                    "name": "amount",
                    "type": "uint256"
                }
            ],
            "name": "allocateSeigniorage",
            "outputs": [],
            "stateMutability": "nonpayable",
            "type": "function"
        },
        {
            "inputs": [
                {
                    "internalType": "address",
                    "name": "account",
                    "type": "address"
                }
            ],
            "name": "balanceOf",
            "outputs": [
                {
                    "internalType": "uint256",
                    "name": "",
                    "type": "uint256"
                }
            ],
            "stateMutability": "view",
            "type": "function"
        },
        {
            "inputs": [
                {
                    "internalType": "address",
                    "name": "mason",
                    "type": "address"
                }
            ],
            "name": "canClaimReward",
            "outputs": [
                {
                    "internalType": "bool",
                    "name": "",
                    "type": "bool"
                }
            ],
            "stateMutability": "view",
            "type": "function"
        },
        {
            "inputs": [
                {
                    "internalType": "address",
                    "name": "mason",
                    "type": "address"
                }
            ],
            "name": "canWithdraw",
            "outputs": [
                {
                    "internalType": "bool",
                    "name": "",
                    "type": "bool"
                }
            ],
            "stateMutability": "view",
            "type": "function"
        },
        {
            "inputs": [],
            "name": "claimReward",
            "outputs": [],
            "stateMutability": "nonpayable",
            "type": "function"
        },
        {
            "inputs": [
                {
                    "internalType": "address",
                    "name": "mason",
                    "type": "address"
                }
            ],
            "name": "earned",
            "outputs": [
                {
                    "internalType": "uint256",
                    "name": "",
                    "type": "uint256"
                }
            ],
            "stateMutability": "view",
            "type": "function"
        },
        {
            "inputs": [],
            "name": "epoch",
            "outputs": [
                {
                    "internalType": "uint256",
                    "name": "",
                    "type": "uint256"
                }
            ],
            "stateMutability": "view",
            "type": "function"
        },
        {
            "inputs": [],
            "name": "exit",
            "outputs": [],
            "stateMutability": "nonpayable",
            "type": "function"
        },
        {
            "inputs": [
                {
                    "internalType": "address",
                    "name": "mason",
                    "type": "address"
                }
            ],
            "name": "getLastSnapshotIndexOf",
            "outputs": [
                {
                    "internalType": "uint256",
                    "name": "",
                    "type": "uint256"
                }
            ],
            "stateMutability": "view",
            "type": "function"
        },
        {
            "inputs": [],
            "name": "getTulipPrice",
            "outputs": [
                {
                    "internalType": "uint256",
                    "name": "",
                    "type": "uint256"
                }
            ],
            "stateMutability": "view",
            "type": "function"
        },
        {
            "inputs": [
                {
                    "internalType": "contract IERC20",
                    "name": "_token",
                    "type": "address"
                },
                {
                    "internalType": "uint256",
                    "name": "_amount",
                    "type": "uint256"
                },
                {
                    "internalType": "address",
                    "name": "_to",
                    "type": "address"
                }
            ],
            "name": "governanceRecoverUnsupported",
            "outputs": [],
            "stateMutability": "nonpayable",
            "type": "function"
        },
        {
            "inputs": [
                {
                    "internalType": "contract IERC20",
                    "name": "_tulip",
                    "type": "address"
                },
                {
                    "internalType": "contract IERC20",
                    "name": "_petal",
                    "type": "address"
                },
                {
                    "internalType": "contract ITreasury",
                    "name": "_treasury",
                    "type": "address"
                }
            ],
            "name": "initialize",
            "outputs": [],
            "stateMutability": "nonpayable",
            "type": "function"
        },
        {
            "inputs": [],
            "name": "initialized",
            "outputs": [
                {
                    "internalType": "bool",
                    "name": "",
                    "type": "bool"
                }
            ],
            "stateMutability": "view",
            "type": "function"
        },
        {
            "inputs": [],
            "name": "latestSnapshotIndex",
            "outputs": [
                {
                    "internalType": "uint256",
                    "name": "",
                    "type": "uint256"
                }
            ],
            "stateMutability": "view",
            "type": "function"
        },
        {
            "inputs": [
                {
                    "internalType": "uint256",
                    "name": "",
                    "type": "uint256"
                }
            ],
            "name": "masonryHistory",
            "outputs": [
                {
                    "internalType": "uint256",
                    "name": "time",
                    "type": "uint256"
                },
                {
                    "internalType": "uint256",
                    "name": "rewardReceived",
                    "type": "uint256"
                },
                {
                    "internalType": "uint256",
                    "name": "rewardPerShare",
                    "type": "uint256"
                }
            ],
            "stateMutability": "view",
            "type": "function"
        },
        {
            "inputs": [
                {
                    "internalType": "address",
                    "name": "",
                    "type": "address"
                }
            ],
            "name": "masons",
            "outputs": [
                {
                    "internalType": "uint256",
                    "name": "lastSnapshotIndex",
                    "type": "uint256"
                },
                {
                    "internalType": "uint256",
                    "name": "rewardEarned",
                    "type": "uint256"
                },
                {
                    "internalType": "uint256",
                    "name": "epochTimerStart",
                    "type": "uint256"
                }
            ],
            "stateMutability": "view",
            "type": "function"
        },
        {
            "inputs": [],
            "name": "nextEpochPoint",
            "outputs": [
                {
                    "internalType": "uint256",
                    "name": "",
                    "type": "uint256"
                }
            ],
            "stateMutability": "view",
            "type": "function"
        },
        {
            "inputs": [],
            "name": "operator",
            "outputs": [
                {
                    "internalType": "address",
                    "name": "",
                    "type": "address"
                }
            ],
            "stateMutability": "view",
            "type": "function"
        },
        {
            "inputs": [],
            "name": "petal",
            "outputs": [
                {
                    "internalType": "contract IERC20",
                    "name": "",
                    "type": "address"
                }
            ],
            "stateMutability": "view",
            "type": "function"
        },
        {
            "inputs": [],
            "name": "rewardLockupEpochs",
            "outputs": [
                {
                    "internalType": "uint256",
                    "name": "",
                    "type": "uint256"
                }
            ],
            "stateMutability": "view",
            "type": "function"
        },
        {
            "inputs": [],
            "name": "rewardPerShare",
            "outputs": [
                {
                    "internalType": "uint256",
                    "name": "",
                    "type": "uint256"
                }
            ],
            "stateMutability": "view",
            "type": "function"
        },
        {
            "inputs": [
                {
                    "internalType": "uint256",
                    "name": "_withdrawLockupEpochs",
                    "type": "uint256"
                },
                {
                    "internalType": "uint256",
                    "name": "_rewardLockupEpochs",
                    "type": "uint256"
                }
            ],
            "name": "setLockUp",
            "outputs": [],
            "stateMutability": "nonpayable",
            "type": "function"
        },
        {
            "inputs": [
                {
                    "internalType": "address",
                    "name": "_operator",
                    "type": "address"
                }
            ],
            "name": "setOperator",
            "outputs": [],
            "stateMutability": "nonpayable",
            "type": "function"
        },
        {
            "inputs": [
                {
                    "internalType": "uint256",
                    "name": "amount",
                    "type": "uint256"
                }
            ],
            "name": "stake",
            "outputs": [],
            "stateMutability": "nonpayable",
            "type": "function"
        },
        {
            "inputs": [],
            "name": "totalSupply",
            "outputs": [
                {
                    "internalType": "uint256",
                    "name": "",
                    "type": "uint256"
                }
            ],
            "stateMutability": "view",
            "type": "function"
        },
        {
            "inputs": [],
            "name": "treasury",
            "outputs": [
                {
                    "internalType": "contract ITreasury",
                    "name": "",
                    "type": "address"
                }
            ],
            "stateMutability": "view",
            "type": "function"
        },
        {
            "inputs": [],
            "name": "tulip",
            "outputs": [
                {
                    "internalType": "contract IERC20",
                    "name": "",
                    "type": "address"
                }
            ],
            "stateMutability": "view",
            "type": "function"
        },
        {
            "inputs": [
                {
                    "internalType": "uint256",
                    "name": "amount",
                    "type": "uint256"
                }
            ],
            "name": "withdraw",
            "outputs": [],
            "stateMutability": "nonpayable",
            "type": "function"
        },
        {
            "inputs": [],
            "name": "withdrawLockupEpochs",
            "outputs": [
                {
                    "internalType": "uint256",
                    "name": "",
                    "type": "uint256"
                }
            ],
            "stateMutability": "view",
            "type": "function"
        }
    ],
    "bytecode": "0x60806040526004805460ff60a01b1916905534801561001d57600080fd5b506123548061002d6000396000f3fe608060405234801561001057600080fd5b50600436106101ce5760003560e01c80635ceba4aa11610104578063a694fc3a116100a2578063c5967c2611610071578063c5967c26146103ee578063d1e7bb77146103f6578063e0f6dc9e14610409578063e9fad8ee1461043857600080fd5b8063a694fc3a146103ad578063b3ab15fb146103c0578063b88a802f146103d3578063c0c53b8b146103db57600080fd5b8063714b4658116100de578063714b46581461033b5780638cd9a27f14610364578063900cf0cf1461039257806397ffe1d71461039a57600080fd5b80635ceba4aa146102f757806361d027b3146102ff57806370a082311461031257600080fd5b80632180fe6a116101715780633f9e3f041161014b5780633f9e3f04146102c1578063446a2ec8146102c957806354575af4146102d1578063570ca735146102e457600080fd5b80632180fe6a1461026e5780632e1a7d4d146102995780632ffaaa09146102ae57600080fd5b8063158ef93e116101ad578063158ef93e1461022557806318160ddd1461024a57806319262d30146102525780631e85cd651461026557600080fd5b80628cc262146101d3578063022ba18d146101f9578063046335d014610202575b600080fd5b6101e66101e136600461206b565b610440565b6040519081526020015b60405180910390f35b6101e6600a5481565b61021561021036600461206b565b6104d1565b60405190151581526020016101f0565b6004546102159074010000000000000000000000000000000000000000900460ff1681565b6001546101e6565b61021561026036600461206b565b610597565b6101e660095481565b600054610281906001600160a01b031681565b6040516001600160a01b0390911681526020016101f0565b6102ac6102a7366004612088565b610655565b005b6102ac6102bc3660046120a1565b610a9d565b6101e6610bab565b6101e6610bc1565b6102ac6102df3660046120c3565b610bd4565b600454610281906001600160a01b031681565b6101e6610d29565b600654610281906001600160a01b031681565b6101e661032036600461206b565b6001600160a01b031660009081526002602052604090205490565b6101e661034936600461206b565b6001600160a01b031660009081526007602052604090205490565b610377610372366004612088565b610dbf565b604080519384526020840192909252908201526060016101f0565b6101e6610df2565b6102ac6103a8366004612088565b610e50565b6102ac6103bb366004612088565b61124f565b6102ac6103ce36600461206b565b61152a565b6102ac6115e4565b6102ac6103e9366004612105565b61187a565b6101e6611a6b565b600554610281906001600160a01b031681565b61037761041736600461206b565b60076020526000908152604090208054600182015460029092015490919083565b6102ac611ac9565b60008061044b611ae4565b604001519050600061045c84611b5e565b6040908101516001600160a01b0386166000908152600760205291909120600101549091506104c9906104c3670de0b6b3a76400006104bd61049e8787611bf1565b6001600160a01b038a1660009081526002602052604090205490611c04565b90611c10565b90611c1c565b949350505050565b600654604080517f900cf0cf00000000000000000000000000000000000000000000000000000000815290516000926001600160a01b03169163900cf0cf916004808301926020929190829003018186803b15801561052f57600080fd5b505afa158015610543573d6000803e3d6000fd5b505050506040513d601f19601f820116820180604052508101906105679190612145565b600a546001600160a01b03841660009081526007602052604090206002015461058f91611c1c565b111592915050565b600654604080517f900cf0cf00000000000000000000000000000000000000000000000000000000815290516000926001600160a01b03169163900cf0cf916004808301926020929190829003018186803b1580156105f557600080fd5b505afa158015610609573d6000803e3d6000fd5b505050506040513d601f19601f8201168201806040525081019061062d9190612145565b6009546001600160a01b03841660009081526007602052604090206002015461058f91611c1c565b43600090815260036020908152604080832032845290915290205460ff16156106eb5760405162461bcd60e51b815260206004820152602660248201527f436f6e747261637447756172643a206f6e6520626c6f636b2c206f6e6520667560448201527f6e6374696f6e000000000000000000000000000000000000000000000000000060648201526084015b60405180910390fd5b43600090815260036020908152604080832033845290915290205460ff161561077c5760405162461bcd60e51b815260206004820152602660248201527f436f6e747261637447756172643a206f6e6520626c6f636b2c206f6e6520667560448201527f6e6374696f6e000000000000000000000000000000000000000000000000000060648201526084016106e2565b33600090815260026020526040812054116107ff5760405162461bcd60e51b815260206004820152602160248201527f4d61736f6e72793a20546865206d61736f6e20646f6573206e6f74206578697360448201527f740000000000000000000000000000000000000000000000000000000000000060648201526084016106e2565b338015610890576001600160a01b038116600090815260076020908152604091829020825160608101845281548152600182015492810192909252600201549181019190915261084e82610440565b602082015261085b610bab565b81526001600160a01b038216600090815260076020908152604091829020835181559083015160018201559101516002909101555b600082116108e05760405162461bcd60e51b815260206004820152601960248201527f47617264656e3a2043616e6e6f7420776974686472617720300000000000000060448201526064016106e2565b600660009054906101000a90046001600160a01b03166001600160a01b031663900cf0cf6040518163ffffffff1660e01b815260040160206040518083038186803b15801561092e57600080fd5b505afa158015610942573d6000803e3d6000fd5b505050506040513d601f19601f820116820180604052508101906109669190612145565b6009543360009081526007602052604090206002015461098591611c1c565b11156109f95760405162461bcd60e51b815260206004820152602160248201527f4d61736f6e72793a207374696c6c20696e207769746864726177206c6f636b7560448201527f700000000000000000000000000000000000000000000000000000000000000060648201526084016106e2565b610a016115e4565b610a0a82611c28565b60405182815233907f7084f5476618d8e60b11ef0d7d3f06914655adb8793e28ff7f018d4c76d505d5906020015b60405180910390a25050436000908152600360209081526040808320328452909152808220805460017fffffffffffffffffffffffffffffffffffffffffffffffffffffffffffffff0091821681179092553384529190922080549091169091179055565b6004546001600160a01b03163314610b1d5760405162461bcd60e51b815260206004820152602360248201527f4d61736f6e72793a2063616c6c6572206973206e6f7420746865206f7065726160448201527f746f72000000000000000000000000000000000000000000000000000000000060648201526084016106e2565b808210158015610b2e575060388211155b610ba05760405162461bcd60e51b815260206004820152602360248201527f5f77697468647261774c6f636b757045706f6368733a206f7574206f6620726160448201527f6e6765000000000000000000000000000000000000000000000000000000000060648201526084016106e2565b600991909155600a55565b600854600090610bbc906001611bf1565b905090565b6000610bcb611ae4565b60400151905090565b6004546001600160a01b03163314610c545760405162461bcd60e51b815260206004820152602360248201527f4d61736f6e72793a2063616c6c6572206973206e6f7420746865206f7065726160448201527f746f72000000000000000000000000000000000000000000000000000000000060648201526084016106e2565b6005546001600160a01b0384811691161415610cb25760405162461bcd60e51b815260206004820152600560248201527f74756c697000000000000000000000000000000000000000000000000000000060448201526064016106e2565b6000546001600160a01b0384811691161415610d105760405162461bcd60e51b815260206004820152600560248201527f706574616c00000000000000000000000000000000000000000000000000000060448201526064016106e2565b610d246001600160a01b0384168284611cef565b505050565b600654604080517f5ceba4aa00000000000000000000000000000000000000000000000000000000815290516000926001600160a01b031691635ceba4aa916004808301926020929190829003018186803b158015610d8757600080fd5b505afa158015610d9b573d6000803e3d6000fd5b505050506040513d601f19601f82011682018060405250810190610bbc9190612145565b60088181548110610dcf57600080fd5b600091825260209091206003909102018054600182015460029092015490925083565b600654604080517f900cf0cf00000000000000000000000000000000000000000000000000000000815290516000926001600160a01b03169163900cf0cf916004808301926020929190829003018186803b158015610d8757600080fd5b43600090815260036020908152604080832032845290915290205460ff1615610ee15760405162461bcd60e51b815260206004820152602660248201527f436f6e747261637447756172643a206f6e6520626c6f636b2c206f6e6520667560448201527f6e6374696f6e000000000000000000000000000000000000000000000000000060648201526084016106e2565b43600090815260036020908152604080832033845290915290205460ff1615610f725760405162461bcd60e51b815260206004820152602660248201527f436f6e747261637447756172643a206f6e6520626c6f636b2c206f6e6520667560448201527f6e6374696f6e000000000000000000000000000000000000000000000000000060648201526084016106e2565b6004546001600160a01b03163314610ff25760405162461bcd60e51b815260206004820152602360248201527f4d61736f6e72793a2063616c6c6572206973206e6f7420746865206f7065726160448201527f746f72000000000000000000000000000000000000000000000000000000000060648201526084016106e2565b600081116110425760405162461bcd60e51b815260206004820152601960248201527f47617264656e3a2043616e6e6f7420616c6c6f6361746520300000000000000060448201526064016106e2565b600061104d60015490565b116110c05760405162461bcd60e51b815260206004820152602d60248201527f47617264656e3a2043616e6e6f7420616c6c6f63617465207768656e20746f7460448201527f616c537570706c7920697320300000000000000000000000000000000000000060648201526084016106e2565b60006110ca611ae4565b60400151905060006110fa6110f36110e160015490565b6104bd86670de0b6b3a7640000611c04565b8390611c1c565b60408051606081018252438152602081018681529181018381526008805460018101825560009190915282517ff3f7a9fe364faab93b216da50a3214154f22a0a2b415b23a84c8169e8b636ee360039092029182015592517ff3f7a9fe364faab93b216da50a3214154f22a0a2b415b23a84c8169e8b636ee4840155517ff3f7a9fe364faab93b216da50a3214154f22a0a2b415b23a84c8169e8b636ee590920191909155600554919250906111bb906001600160a01b0316333087611db6565b60405184815233907fac24935fd910bc682b5ccb1a07b718cadf8cf2f6d1404c4f3ddc3662dae40e299060200160405180910390a25050436000908152600360209081526040808320328452909152808220805460017fffffffffffffffffffffffffffffffffffffffffffffffffffffffffffffff00918216811790925533845291909220805490911690911790555050565b43600090815260036020908152604080832032845290915290205460ff16156112e05760405162461bcd60e51b815260206004820152602660248201527f436f6e747261637447756172643a206f6e6520626c6f636b2c206f6e6520667560448201527f6e6374696f6e000000000000000000000000000000000000000000000000000060648201526084016106e2565b43600090815260036020908152604080832033845290915290205460ff16156113715760405162461bcd60e51b815260206004820152602660248201527f436f6e747261637447756172643a206f6e6520626c6f636b2c206f6e6520667560448201527f6e6374696f6e000000000000000000000000000000000000000000000000000060648201526084016106e2565b338015611402576001600160a01b03811660009081526007602090815260409182902082516060810184528154815260018201549281019290925260020154918101919091526113c082610440565b60208201526113cd610bab565b81526001600160a01b038216600090815260076020908152604091829020835181559083015160018201559101516002909101555b600082116114525760405162461bcd60e51b815260206004820152601660248201527f47617264656e3a2043616e6e6f74207374616b6520300000000000000000000060448201526064016106e2565b61145b82611e0d565b600660009054906101000a90046001600160a01b03166001600160a01b031663900cf0cf6040518163ffffffff1660e01b815260040160206040518083038186803b1580156114a957600080fd5b505afa1580156114bd573d6000803e3d6000fd5b505050506040513d601f19601f820116820180604052508101906114e19190612145565b33600081815260076020526040908190206002019290925590517f9e71bc8eea02a63969f509818f2dafb9254532904319f9dbda79b67bd34a5f3d90610a389085815260200190565b6004546001600160a01b031633146115aa5760405162461bcd60e51b815260206004820152602360248201527f4d61736f6e72793a2063616c6c6572206973206e6f7420746865206f7065726160448201527f746f72000000000000000000000000000000000000000000000000000000000060648201526084016106e2565b600480547fffffffffffffffffffffffff0000000000000000000000000000000000000000166001600160a01b0392909216919091179055565b338015611675576001600160a01b038116600090815260076020908152604091829020825160608101845281548152600182015492810192909252600201549181019190915261163382610440565b6020820152611640610bab565b81526001600160a01b038216600090815260076020908152604091829020835181559083015160018201559101516002909101555b33600090815260076020526040902060010154801561187657600660009054906101000a90046001600160a01b03166001600160a01b031663900cf0cf6040518163ffffffff1660e01b815260040160206040518083038186803b1580156116dc57600080fd5b505afa1580156116f0573d6000803e3d6000fd5b505050506040513d601f19601f820116820180604052508101906117149190612145565b600a543360009081526007602052604090206002015461173391611c1c565b11156117815760405162461bcd60e51b815260206004820152601f60248201527f4d61736f6e72793a207374696c6c20696e20726577617264206c6f636b75700060448201526064016106e2565b600660009054906101000a90046001600160a01b03166001600160a01b031663900cf0cf6040518163ffffffff1660e01b815260040160206040518083038186803b1580156117cf57600080fd5b505afa1580156117e3573d6000803e3d6000fd5b505050506040513d601f19601f820116820180604052508101906118079190612145565b3360008181526007602052604081206002810193909355600190920191909155600554611840916001600160a01b039091169083611cef565b60405181815233907fe2403640ba68fed3a2f88b7557551d1993f84b99bb10ff833f0cf8db0c5e04869060200160405180910390a25b5050565b60045474010000000000000000000000000000000000000000900460ff16156118e55760405162461bcd60e51b815260206004820152601c60248201527f4d61736f6e72793a20616c726561647920696e697469616c697a65640000000060448201526064016106e2565b600580546001600160a01b038086167fffffffffffffffffffffffff000000000000000000000000000000000000000092831617909255600080548584169083161781556006805493851693909216929092178155604080516060810182524380825260208201858152828401868152600880546001810182559752835160039788027ff3f7a9fe364faab93b216da50a3214154f22a0a2b415b23a84c8169e8b636ee381019190915591517ff3f7a9fe364faab93b216da50a3214154f22a0a2b415b23a84c8169e8b636ee4830155517ff3f7a9fe364faab93b216da50a3214154f22a0a2b415b23a84c8169e8b636ee590910155600993909355600a93909355600480547fffffffffffffffffffffff00000000000000000000000000000000000000000016339081177401000000000000000000000000000000000000000017909155905190917f25ff68dd81b34665b5ba7e553ee5511bf6812e12adb4a7e2c0d9e26b3099ce7991611a5d91815260200190565b60405180910390a250505050565b600654604080517fc5967c2600000000000000000000000000000000000000000000000000000000815290516000926001600160a01b03169163c5967c26916004808301926020929190829003018186803b158015610d8757600080fd5b33600090815260026020526040902054611ae290610655565b565b611b0860405180606001604052806000815260200160008152602001600081525090565b6008611b12610bab565b81548110611b2257611b2261215e565b90600052602060002090600302016040518060600160405290816000820154815260200160018201548152602001600282015481525050905090565b611b8260405180606001604052806000815260200160008152602001600081525090565b6008611ba3836001600160a01b031660009081526007602052604090205490565b81548110611bb357611bb361215e565b906000526020600020906003020160405180606001604052908160008201548152602001600182015481526020016002820154815250509050919050565b6000611bfd82846121bc565b9392505050565b6000611bfd82846121d3565b6000611bfd8284612210565b6000611bfd828461224b565b3360009081526002602052604090205481811015611cae5760405162461bcd60e51b815260206004820152603460248201527f4d61736f6e72793a20776974686472617720726571756573742067726561746560448201527f72207468616e207374616b656420616d6f756e7400000000000000000000000060648201526084016106e2565b600154611cbb9083611bf1565b600155611cc88183611bf1565b336000818152600260205260408120929092559054611876916001600160a01b0390911690845b6040516001600160a01b038316602482015260448101829052610d249084907fa9059cbb00000000000000000000000000000000000000000000000000000000906064015b604080517fffffffffffffffffffffffffffffffffffffffffffffffffffffffffffffffe08184030181529190526020810180517bffffffffffffffffffffffffffffffffffffffffffffffffffffffff167fffffffff0000000000000000000000000000000000000000000000000000000090931692909217909152611e66565b6040516001600160a01b0380851660248301528316604482015260648101829052611e079085907f23b872dd0000000000000000000000000000000000000000000000000000000090608401611d34565b50505050565b600154611e1a9082611c1c565b60015533600090815260026020526040902054611e379082611c1c565b336000818152600260205260408120929092559054611e63916001600160a01b03909116903084611db6565b50565b6000611ebb826040518060400160405280602081526020017f5361666545524332303a206c6f772d6c6576656c2063616c6c206661696c6564815250856001600160a01b0316611f4b9092919063ffffffff16565b805190915015610d245780806020019051810190611ed99190612263565b610d245760405162461bcd60e51b815260206004820152602a60248201527f5361666545524332303a204552433230206f7065726174696f6e20646964206e60448201527f6f7420737563636565640000000000000000000000000000000000000000000060648201526084016106e2565b60606104c9848460008585843b611fa45760405162461bcd60e51b815260206004820152601d60248201527f416464726573733a2063616c6c20746f206e6f6e2d636f6e747261637400000060448201526064016106e2565b600080866001600160a01b03168587604051611fc091906122b1565b60006040518083038185875af1925050503d8060008114611ffd576040519150601f19603f3d011682016040523d82523d6000602084013e612002565b606091505b509150915061201282828661201d565b979650505050505050565b6060831561202c575081611bfd565b82511561203c5782518084602001fd5b8160405162461bcd60e51b81526004016106e291906122cd565b6001600160a01b0381168114611e6357600080fd5b60006020828403121561207d57600080fd5b8135611bfd81612056565b60006020828403121561209a57600080fd5b5035919050565b600080604083850312156120b457600080fd5b50508035926020909101359150565b6000806000606084860312156120d857600080fd5b83356120e381612056565b92506020840135915060408401356120fa81612056565b809150509250925092565b60008060006060848603121561211a57600080fd5b833561212581612056565b9250602084013561213581612056565b915060408401356120fa81612056565b60006020828403121561215757600080fd5b5051919050565b7f4e487b7100000000000000000000000000000000000000000000000000000000600052603260045260246000fd5b7f4e487b7100000000000000000000000000000000000000000000000000000000600052601160045260246000fd5b6000828210156121ce576121ce61218d565b500390565b6000817fffffffffffffffffffffffffffffffffffffffffffffffffffffffffffffffff048311821515161561220b5761220b61218d565b500290565b600082612246577f4e487b7100000000000000000000000000000000000000000000000000000000600052601260045260246000fd5b500490565b6000821982111561225e5761225e61218d565b500190565b60006020828403121561227557600080fd5b81518015158114611bfd57600080fd5b60005b838110156122a0578181015183820152602001612288565b83811115611e075750506000910152565b600082516122c3818460208701612285565b9190910192915050565b60208152600082518060208401526122ec816040850160208701612285565b601f017fffffffffffffffffffffffffffffffffffffffffffffffffffffffffffffffe016919091016040019291505056fea26469706673582212206657fa04ff532186d57289ed53fe48bc6f76e2de4c1821f96bf7caeced3996a664736f6c63430008080033",
    "linkReferences": {},
    "deployedLinkReferences": {}
}