{
    "_format": "hh-sol-artifact-1",
    "contractName": "Oracle",
    "sourceName": "contracts/Oracle.sol",
    "abi": [
        {
            "inputs": [
                {
                    "internalType": "contract IUniswapV2Pair",
                    "name": "_pair",
                    "type": "address"
                }
            ],
            "stateMutability": "nonpayable",
            "type": "constructor"
        },
        {
            "anonymous": false,
            "inputs": [
                {
                    "indexed": true,
                    "internalType": "address",
                    "name": "previousOperator",
                    "type": "address"
                },
                {
                    "indexed": true,
                    "internalType": "address",
                    "name": "newOperator",
                    "type": "address"
                }
            ],
            "name": "OperatorTransferred",
            "type": "event"
        },
        {
            "anonymous": false,
            "inputs": [
                {
                    "indexed": true,
                    "internalType": "address",
                    "name": "previousOwner",
                    "type": "address"
                },
                {
                    "indexed": true,
                    "internalType": "address",
                    "name": "newOwner",
                    "type": "address"
                }
            ],
            "name": "OwnershipTransferred",
            "type": "event"
        },
        {
            "anonymous": false,
            "inputs": [
                {
                    "indexed": false,
                    "internalType": "uint256",
                    "name": "price0CumulativeLast",
                    "type": "uint256"
                },
                {
                    "indexed": false,
                    "internalType": "uint256",
                    "name": "price1CumulativeLast",
                    "type": "uint256"
                }
            ],
            "name": "Updated",
            "type": "event"
        },
        {
            "inputs": [],
            "name": "blockTimestampLast",
            "outputs": [
                {
                    "internalType": "uint32",
                    "name": "",
                    "type": "uint32"
                }
            ],
            "stateMutability": "view",
            "type": "function"
        },
        {
            "inputs": [
                {
                    "internalType": "address",
                    "name": "_token",
                    "type": "address"
                },
                {
                    "internalType": "uint256",
                    "name": "_amountIn",
                    "type": "uint256"
                }
            ],
            "name": "consult",
            "outputs": [
                {
                    "internalType": "uint144",
                    "name": "amountOut",
                    "type": "uint144"
                }
            ],
            "stateMutability": "view",
            "type": "function"
        },
        {
            "inputs": [],
            "name": "getCurrentEpoch",
            "outputs": [
                {
                    "internalType": "uint256",
                    "name": "",
                    "type": "uint256"
                }
            ],
            "stateMutability": "view",
            "type": "function"
        },
        {
            "inputs": [],
            "name": "getLastEpochTime",
            "outputs": [
                {
                    "internalType": "uint256",
                    "name": "",
                    "type": "uint256"
                }
            ],
            "stateMutability": "view",
            "type": "function"
        },
        {
            "inputs": [],
            "name": "getPeriod",
            "outputs": [
                {
                    "internalType": "uint256",
                    "name": "",
                    "type": "uint256"
                }
            ],
            "stateMutability": "view",
            "type": "function"
        },
        {
            "inputs": [],
            "name": "getStartTime",
            "outputs": [
                {
                    "internalType": "uint256",
                    "name": "",
                    "type": "uint256"
                }
            ],
            "stateMutability": "view",
            "type": "function"
        },
        {
            "inputs": [],
            "name": "isOperator",
            "outputs": [
                {
                    "internalType": "bool",
                    "name": "",
                    "type": "bool"
                }
            ],
            "stateMutability": "view",
            "type": "function"
        },
        {
            "inputs": [],
            "name": "nextEpochPoint",
            "outputs": [
                {
                    "internalType": "uint256",
                    "name": "",
                    "type": "uint256"
                }
            ],
            "stateMutability": "view",
            "type": "function"
        },
        {
            "inputs": [],
            "name": "operator",
            "outputs": [
                {
                    "internalType": "address",
                    "name": "",
                    "type": "address"
                }
            ],
            "stateMutability": "view",
            "type": "function"
        },
        {
            "inputs": [],
            "name": "owner",
            "outputs": [
                {
                    "internalType": "address",
                    "name": "",
                    "type": "address"
                }
            ],
            "stateMutability": "view",
            "type": "function"
        },
        {
            "inputs": [],
            "name": "pair",
            "outputs": [
                {
                    "internalType": "contract IUniswapV2Pair",
                    "name": "",
                    "type": "address"
                }
            ],
            "stateMutability": "view",
            "type": "function"
        },
        {
            "inputs": [],
            "name": "price0Average",
            "outputs": [
                {
                    "internalType": "uint224",
                    "name": "_x",
                    "type": "uint224"
                }
            ],
            "stateMutability": "view",
            "type": "function"
        },
        {
            "inputs": [],
            "name": "price0CumulativeLast",
            "outputs": [
                {
                    "internalType": "uint256",
                    "name": "",
                    "type": "uint256"
                }
            ],
            "stateMutability": "view",
            "type": "function"
        },
        {
            "inputs": [],
            "name": "price1Average",
            "outputs": [
                {
                    "internalType": "uint224",
                    "name": "_x",
                    "type": "uint224"
                }
            ],
            "stateMutability": "view",
            "type": "function"
        },
        {
            "inputs": [],
            "name": "price1CumulativeLast",
            "outputs": [
                {
                    "internalType": "uint256",
                    "name": "",
                    "type": "uint256"
                }
            ],
            "stateMutability": "view",
            "type": "function"
        },
        {
            "inputs": [],
            "name": "renounceOwnership",
            "outputs": [],
            "stateMutability": "nonpayable",
            "type": "function"
        },
        {
            "inputs": [
                {
                    "internalType": "uint256",
                    "name": "_epoch",
                    "type": "uint256"
                }
            ],
            "name": "setEpoch",
            "outputs": [],
            "stateMutability": "nonpayable",
            "type": "function"
        },
        {
            "inputs": [
                {
                    "internalType": "uint256",
                    "name": "_period",
                    "type": "uint256"
                }
            ],
            "name": "setPeriod",
            "outputs": [],
            "stateMutability": "nonpayable",
            "type": "function"
        },
        {
            "inputs": [],
            "name": "token0",
            "outputs": [
                {
                    "internalType": "address",
                    "name": "",
                    "type": "address"
                }
            ],
            "stateMutability": "view",
            "type": "function"
        },
        {
            "inputs": [],
            "name": "token1",
            "outputs": [
                {
                    "internalType": "address",
                    "name": "",
                    "type": "address"
                }
            ],
            "stateMutability": "view",
            "type": "function"
        },
        {
            "inputs": [
                {
                    "internalType": "address",
                    "name": "newOperator_",
                    "type": "address"
                }
            ],
            "name": "transferOperator",
            "outputs": [],
            "stateMutability": "nonpayable",
            "type": "function"
        },
        {
            "inputs": [
                {
                    "internalType": "address",
                    "name": "newOwner",
                    "type": "address"
                }
            ],
            "name": "transferOwnership",
            "outputs": [],
            "stateMutability": "nonpayable",
            "type": "function"
        },
        {
            "inputs": [
                {
                    "internalType": "address",
                    "name": "_token",
                    "type": "address"
                },
                {
                    "internalType": "uint256",
                    "name": "_amountIn",
                    "type": "uint256"
                }
            ],
            "name": "twap",
            "outputs": [
                {
                    "internalType": "uint144",
                    "name": "_amountOut",
                    "type": "uint144"
                }
            ],
            "stateMutability": "view",
            "type": "function"
        },
        {
            "inputs": [],
            "name": "update",
            "outputs": [],
            "stateMutability": "nonpayable",
            "type": "function"
        }
    ],
    "bytecode": "0x60806040523480156200001157600080fd5b5060405162001a6738038062001a678339810160408190526200003491620004a8565b6154606200004542612a30620004de565b600062000052336200042a565b600180546001600160a01b031916339081179091556040516000907f74da04524d50c64947f5dd5381ef1a4dca5cba8ed1d816243f9e48aa0b5617ed908290a3600283905560038290556005819055620000b982846200047a602090811b62000d0017901c565b6004908155600880546001600160a01b0319166001600160a01b03871690811790915560408051630dfe168160e01b81529051919550630dfe16819450808301935060209290829003018186803b1580156200011457600080fd5b505afa15801562000129573d6000803e3d6000fd5b505050506040513d601f19601f820116820180604052508101906200014f9190620004a8565b600680546001600160a01b0319166001600160a01b039283161790556008546040805163d21220a760e01b81529051919092169163d21220a7916004808301926020929190829003018186803b158015620001a957600080fd5b505afa158015620001be573d6000803e3d6000fd5b505050506040513d601f19601f82011682018060405250810190620001e49190620004a8565b600780546001600160a01b0319166001600160a01b0392831617905560085460408051635909c0d560e01b815290519190921691635909c0d5916004808301926020929190829003018186803b1580156200023e57600080fd5b505afa15801562000253573d6000803e3d6000fd5b505050506040513d601f19601f82011682018060405250810190620002799190620004f9565b60095560085460408051635a3d549360e01b815290516001600160a01b0390921691635a3d549391600480820192602092909190829003018186803b158015620002c257600080fd5b505afa158015620002d7573d6000803e3d6000fd5b505050506040513d601f19601f82011682018060405250810190620002fd9190620004f9565b600a5560085460408051630240bc6b60e21b8152905160009283926001600160a01b0390911691630902f1ac91600480820192606092909190829003018186803b1580156200034b57600080fd5b505afa15801562000360573d6000803e3d6000fd5b505050506040513d601f19601f8201168201806040525081019062000386919062000530565b6008805463ffffffff909216600160a01b0263ffffffff60a01b1990921691909117905590925090506001600160701b03821615801590620003d057506001600160701b03811615155b620004215760405162461bcd60e51b815260206004820152601360248201527f4f7261636c653a204e4f5f524553455256455300000000000000000000000000604482015260640160405180910390fd5b505050620005a0565b600080546001600160a01b038381166001600160a01b0319831681178455604051919092169283917f8be0079c531659141344cd1fd0a4f28419497f9722a3daafe3b4186f6b6457e09190a35050565b600062000488828462000586565b9392505050565b6001600160a01b0381168114620004a557600080fd5b50565b600060208284031215620004bb57600080fd5b815162000488816200048f565b634e487b7160e01b600052601160045260246000fd5b60008219821115620004f457620004f4620004c8565b500190565b6000602082840312156200050c57600080fd5b5051919050565b80516001600160701b03811681146200052b57600080fd5b919050565b6000806000606084860312156200054657600080fd5b620005518462000513565b9250620005616020850162000513565b9150604084015163ffffffff811681146200057b57600080fd5b809150509250925092565b6000828210156200059b576200059b620004c8565b500390565b6114b780620005b06000396000f3fe608060405234801561001057600080fd5b50600436106101985760003560e01c8063715018a6116100e3578063ba5224581161008c578063c828371e11610066578063c828371e1461036b578063d21220a714610373578063f2fde38b1461038657600080fd5b8063ba5224581461031e578063c5700a0214610326578063c5967c261461036357600080fd5b8063a6bb4539116100bd578063a6bb4539146102f0578063a8aa1b3114610303578063b97dd9e21461031657600080fd5b8063715018a6146102cf5780638da5cb5b146102d7578063a2e62045146102e857600080fd5b80634456eda2116101455780635a3d54931161011f5780635a3d5493146102885780635e6aaf2c146102915780636808a128146102bc57600080fd5b80634456eda214610250578063570ca7351461026e5780635909c0d51461027f57600080fd5b80631ed24195116101765780631ed24195146101f557806329605e77146102075780633ddac9531461021a57600080fd5b80630ceb2cef1461019d5780630dfe1681146101b25780630f3a9f65146101e2575b600080fd5b6101b06101ab36600461120a565b610399565b005b6006546101c5906001600160a01b031681565b6040516001600160a01b0390911681526020015b60405180910390f35b6101b06101f036600461120a565b610422565b6002545b6040519081526020016101d9565b6101b061021536600461123f565b610507565b61022d61022836600461125a565b61056d565b60405171ffffffffffffffffffffffffffffffffffff90911681526020016101d9565b6001546001600160a01b0316331460405190151581526020016101d9565b6001546001600160a01b03166101c5565b6101f960095481565b6101f9600a5481565b600c546102a4906001600160e01b031681565b6040516001600160e01b0390911681526020016101d9565b61022d6102ca36600461125a565b610648565b6101b0610748565b6000546001600160a01b03166101c5565b6101b06107ae565b600b546102a4906001600160e01b031681565b6008546101c5906001600160a01b031681565b6005546101f9565b6004546101f9565b60085461034e9074010000000000000000000000000000000000000000900463ffffffff1681565b60405163ffffffff90911681526020016101d9565b6101f9610c03565b6003546101f9565b6007546101c5906001600160a01b031681565b6101b061039436600461123f565b610c21565b6001546001600160a01b0316331461041d5760405162461bcd60e51b8152602060048201526024808201527f6f70657261746f723a2063616c6c6572206973206e6f7420746865206f70657260448201527f61746f720000000000000000000000000000000000000000000000000000000060648201526084015b60405180910390fd5b600555565b6001546001600160a01b031633146104a15760405162461bcd60e51b8152602060048201526024808201527f6f70657261746f723a2063616c6c6572206973206e6f7420746865206f70657260448201527f61746f72000000000000000000000000000000000000000000000000000000006064820152608401610414565b610e1081101580156104b657506202a3008111155b6105025760405162461bcd60e51b815260206004820152601560248201527f5f706572696f643a206f7574206f662072616e676500000000000000000000006044820152606401610414565b600255565b6000546001600160a01b031633146105615760405162461bcd60e51b815260206004820181905260248201527f4f776e61626c653a2063616c6c6572206973206e6f7420746865206f776e65726044820152606401610414565b61056a81610d0c565b50565b6006546000906001600160a01b03848116911614156105bb576040805160208101909152600b546001600160e01b031681526105b4906105ad9084610df8565b5160701c90565b9050610642565b6007546001600160a01b038481169116146106185760405162461bcd60e51b815260206004820152601560248201527f4f7261636c653a20494e56414c49445f544f4b454e00000000000000000000006044820152606401610414565b6040805160208101909152600c546001600160e01b0316815261063f906105ad9084610df8565b90505b92915050565b600854600090819081908190610666906001600160a01b0316610ebc565b600854929550909350915060009061069c9074010000000000000000000000000000000000000000900463ffffffff16836112b3565b6006549091506001600160a01b03888116911614156106fe576106f76105ad8760405180602001604052808563ffffffff166009548a6106dc91906112d8565b6106e6919061131e565b6001600160e01b0316905290610df8565b945061073e565b6007546001600160a01b038881169116141561073e5761073b6105ad8760405180602001604052808563ffffffff16600a54896106dc91906112d8565b94505b5050505092915050565b6000546001600160a01b031633146107a25760405162461bcd60e51b815260206004820181905260248201527f4f776e61626c653a2063616c6c6572206973206e6f7420746865206f776e65726044820152606401610414565b6107ac60006110bc565b565b60006107b8610c03565b905080421015610a09576001546001600160a01b031633146108425760405162461bcd60e51b815260206004820152602a60248201527f45706f63683a206f6e6c79206f70657261746f7220616c6c6f77656420666f7260448201527f207072652d65706f6368000000000000000000000000000000000000000000006064820152608401610414565b6008546000908190819061085e906001600160a01b0316610ebc565b60085492955090935091506000906108949074010000000000000000000000000000000000000000900463ffffffff16836112b3565b905063ffffffff81166108a8575050505050565b60405180602001604052808263ffffffff16600954876108c891906112d8565b6108d2919061131e565b6001600160e01b039081169091529051600b80547fffffffff0000000000000000000000000000000000000000000000000000000016919092161790556040805160208101909152600a54819063ffffffff84169061093190876112d8565b61093b919061131e565b6001600160e01b039081169091529051600c80547fffffffff0000000000000000000000000000000000000000000000000000000016919092161790556009849055600a839055600880547fffffffffffffffff00000000ffffffffffffffffffffffffffffffffffffffff167401000000000000000000000000000000000000000063ffffffff85160217905560408051858152602081018590527fd78a0cb8bb633d06981248b816e7bd33c2a35a6089241d099fa519e361cab902910160405180910390a15050505050565b60085460009081908190610a25906001600160a01b0316610ebc565b6008549295509093509150600090610a5b9074010000000000000000000000000000000000000000900463ffffffff16836112b3565b905063ffffffff8116610a715750505050610bd0565b60405180602001604052808263ffffffff1660095487610a9191906112d8565b610a9b919061131e565b6001600160e01b039081169091529051600b80547fffffffff0000000000000000000000000000000000000000000000000000000016919092161790556040805160208101909152600a54819063ffffffff841690610afa90876112d8565b610b04919061131e565b6001600160e01b039081169091529051600c80547fffffffff0000000000000000000000000000000000000000000000000000000016919092161790556009849055600a839055600880547fffffffffffffffff00000000ffffffffffffffffffffffffffffffffffffffff167401000000000000000000000000000000000000000063ffffffff85160217905560408051858152602081018590527fd78a0cb8bb633d06981248b816e7bd33c2a35a6089241d099fa519e361cab902910160405180910390a1505050505b600481905560058054600090610be590611332565b90915550610bf1610c03565b905080421015610bfe5750565b610bd0565b6000610c1c60025460045461112490919063ffffffff16565b905090565b6000546001600160a01b03163314610c7b5760405162461bcd60e51b815260206004820181905260248201527f4f776e61626c653a2063616c6c6572206973206e6f7420746865206f776e65726044820152606401610414565b6001600160a01b038116610cf75760405162461bcd60e51b815260206004820152602660248201527f4f776e61626c653a206e6577206f776e657220697320746865207a65726f206160448201527f64647265737300000000000000000000000000000000000000000000000000006064820152608401610414565b61056a816110bc565b600061063f82846112d8565b6001600160a01b038116610d885760405162461bcd60e51b815260206004820152602d60248201527f6f70657261746f723a207a65726f206164647265737320676976656e20666f7260448201527f206e6577206f70657261746f72000000000000000000000000000000000000006064820152608401610414565b6040516001600160a01b038216906000907f74da04524d50c64947f5dd5381ef1a4dca5cba8ed1d816243f9e48aa0b5617ed908290a3600180547fffffffffffffffffffffffff0000000000000000000000000000000000000000166001600160a01b0392909216919091179055565b6040805160208101909152600081526000821580610e35575083516001600160e01b031683610e27818361136b565b9250610e33908361131e565b145b610ea75760405162461bcd60e51b815260206004820152602360248201527f4669786564506f696e743a204d554c5449504c49434154494f4e5f4f5645524660448201527f4c4f5700000000000000000000000000000000000000000000000000000000006064820152608401610414565b60408051602081019091529081529392505050565b6000806000610ec9611130565b9050836001600160a01b0316635909c0d56040518163ffffffff1660e01b815260040160206040518083038186803b158015610f0457600080fd5b505afa158015610f18573d6000803e3d6000fd5b505050506040513d601f19601f82011682018060405250810190610f3c91906113a8565b9250836001600160a01b0316635a3d54936040518163ffffffff1660e01b815260040160206040518083038186803b158015610f7757600080fd5b505afa158015610f8b573d6000803e3d6000fd5b505050506040513d601f19601f82011682018060405250810190610faf91906113a8565b91506000806000866001600160a01b0316630902f1ac6040518163ffffffff1660e01b815260040160606040518083038186803b158015610fef57600080fd5b505afa158015611003573d6000803e3d6000fd5b505050506040513d601f19601f8201168201806040525081019061102791906113df565b9250925092508363ffffffff168163ffffffff16146110b257600061104c82866112b3565b90508063ffffffff1661105f8486611141565b5161107391906001600160e01b031661136b565b61107d908861142f565b96508063ffffffff166110908585611141565b516110a491906001600160e01b031661136b565b6110ae908761142f565b9550505b5050509193909250565b600080546001600160a01b038381167fffffffffffffffffffffffff0000000000000000000000000000000000000000831681178455604051919092169283917f8be0079c531659141344cd1fd0a4f28419497f9722a3daafe3b4186f6b6457e09190a35050565b600061063f828461142f565b6000610c1c64010000000042611447565b6040805160208101909152600081526000826dffffffffffffffffffffffffffff16116111b05760405162461bcd60e51b815260206004820152601760248201527f4669786564506f696e743a204449565f42595f5a45524f0000000000000000006044820152606401610414565b6040805160208101909152806111f86dffffffffffffffffffffffffffff85167bffffffffffffffffffffffffffff0000000000000000000000000000607088901b1661145b565b6001600160e01b031690529392505050565b60006020828403121561121c57600080fd5b5035919050565b80356001600160a01b038116811461123a57600080fd5b919050565b60006020828403121561125157600080fd5b61063f82611223565b6000806040838503121561126d57600080fd5b61127683611223565b946020939093013593505050565b7f4e487b7100000000000000000000000000000000000000000000000000000000600052601160045260246000fd5b600063ffffffff838116908316818110156112d0576112d0611284565b039392505050565b6000828210156112ea576112ea611284565b500390565b7f4e487b7100000000000000000000000000000000000000000000000000000000600052601260045260246000fd5b60008261132d5761132d6112ef565b500490565b60007fffffffffffffffffffffffffffffffffffffffffffffffffffffffffffffffff82141561136457611364611284565b5060010190565b6000817fffffffffffffffffffffffffffffffffffffffffffffffffffffffffffffffff04831182151516156113a3576113a3611284565b500290565b6000602082840312156113ba57600080fd5b5051919050565b80516dffffffffffffffffffffffffffff8116811461123a57600080fd5b6000806000606084860312156113f457600080fd5b6113fd846113c1565b925061140b602085016113c1565b9150604084015163ffffffff8116811461142457600080fd5b809150509250925092565b6000821982111561144257611442611284565b500190565b600082611456576114566112ef565b500690565b60006001600160e01b0380841680611475576114756112ef565b9216919091049291505056fea2646970667358221220b8ddce5bdec335f5f7420fbff00a14fe7ea16f408fd8bfa78f859ea1c120ea8464736f6c63430008080033",
    "linkReferences": {},
    "deployedLinkReferences": {}
}