{
  "_format": "hh-sol-artifact-1",
  "contractName": "PetalRewardPool",
  "sourceName": "contracts/PetalRewardPool.sol",
  "abi": [
    {
      "inputs": [
        {
          "internalType": "contract IERC20",
          "name": "_petal",
          "type": "address"
        }
      ],
      "stateMutability": "nonpayable",
      "type": "constructor"
    },
    {
      "anonymous": false,
      "inputs": [
        {
          "indexed": true,
          "internalType": "address",
          "name": "user",
          "type": "address"
        },
        {
          "indexed": true,
          "internalType": "uint256",
          "name": "pid",
          "type": "uint256"
        },
        {
          "indexed": false,
          "internalType": "uint256",
          "name": "amount",
          "type": "uint256"
        }
      ],
      "name": "Deposit",
      "type": "event"
    },
    {
      "anonymous": false,
      "inputs": [
        {
          "indexed": true,
          "internalType": "address",
          "name": "user",
          "type": "address"
        },
        {
          "indexed": true,
          "internalType": "uint256",
          "name": "pid",
          "type": "uint256"
        },
        {
          "indexed": false,
          "internalType": "uint256",
          "name": "amount",
          "type": "uint256"
        }
      ],
      "name": "EmergencyWithdraw",
      "type": "event"
    },
    {
      "anonymous": false,
      "inputs": [
        {
          "indexed": true,
          "internalType": "address",
          "name": "user",
          "type": "address"
        },
        {
          "indexed": false,
          "internalType": "uint256",
          "name": "amount",
          "type": "uint256"
        }
      ],
      "name": "RewardPaid",
      "type": "event"
    },
    {
      "anonymous": false,
      "inputs": [
        {
          "indexed": true,
          "internalType": "address",
          "name": "user",
          "type": "address"
        },
        {
          "indexed": true,
          "internalType": "uint256",
          "name": "pid",
          "type": "uint256"
        },
        {
          "indexed": false,
          "internalType": "uint256",
          "name": "amount",
          "type": "uint256"
        }
      ],
      "name": "Withdraw",
      "type": "event"
    },
    {
      "inputs": [],
      "name": "TOTAL_REWARDS",
      "outputs": [
        {
          "internalType": "uint256",
          "name": "",
          "type": "uint256"
        }
      ],
      "stateMutability": "view",
      "type": "function"
    },
    {
      "inputs": [
        {
          "internalType": "uint256",
          "name": "_allocPoint",
          "type": "uint256"
        },
        {
          "internalType": "contract IERC20",
          "name": "_token",
          "type": "address"
        },
        {
          "internalType": "bool",
          "name": "_withUpdate",
          "type": "bool"
        },
        {
          "internalType": "uint256",
          "name": "_lastRewardTime",
          "type": "uint256"
        }
      ],
      "name": "add",
      "outputs": [],
      "stateMutability": "nonpayable",
      "type": "function"
    },
    {
      "inputs": [
        {
          "internalType": "uint256",
          "name": "_pid",
          "type": "uint256"
        },
        {
          "internalType": "uint256",
          "name": "_amount",
          "type": "uint256"
        }
      ],
      "name": "deposit",
      "outputs": [],
      "stateMutability": "nonpayable",
      "type": "function"
    },
    {
      "inputs": [
        {
          "internalType": "uint256",
          "name": "_pid",
          "type": "uint256"
        }
      ],
      "name": "emergencyWithdraw",
      "outputs": [],
      "stateMutability": "nonpayable",
      "type": "function"
    },
    {
      "inputs": [
        {
          "internalType": "uint256",
          "name": "_fromTime",
          "type": "uint256"
        },
        {
          "internalType": "uint256",
          "name": "_toTime",
          "type": "uint256"
        }
      ],
      "name": "getGeneratedReward",
      "outputs": [
        {
          "internalType": "uint256",
          "name": "",
          "type": "uint256"
        }
      ],
      "stateMutability": "view",
      "type": "function"
    },
    {
      "inputs": [
        {
          "internalType": "contract IERC20",
          "name": "_token",
          "type": "address"
        },
        {
          "internalType": "uint256",
          "name": "amount",
          "type": "uint256"
        },
        {
          "internalType": "address",
          "name": "to",
          "type": "address"
        }
      ],
      "name": "governanceRecoverUnsupported",
      "outputs": [],
      "stateMutability": "nonpayable",
      "type": "function"
    },
    {
      "inputs": [],
      "name": "massUpdatePools",
      "outputs": [],
      "stateMutability": "nonpayable",
      "type": "function"
    },
    {
      "inputs": [],
      "name": "operator",
      "outputs": [
        {
          "internalType": "address",
          "name": "",
          "type": "address"
        }
      ],
      "stateMutability": "view",
      "type": "function"
    },
    {
      "inputs": [
        {
          "internalType": "uint256",
          "name": "_pid",
          "type": "uint256"
        },
        {
          "internalType": "address",
          "name": "_user",
          "type": "address"
        }
      ],
      "name": "pendingShare",
      "outputs": [
        {
          "internalType": "uint256",
          "name": "",
          "type": "uint256"
        }
      ],
      "stateMutability": "view",
      "type": "function"
    },
    {
      "inputs": [],
      "name": "petal",
      "outputs": [
        {
          "internalType": "contract IERC20",
          "name": "",
          "type": "address"
        }
      ],
      "stateMutability": "view",
      "type": "function"
    },
    {
      "inputs": [],
      "name": "poolEndTime",
      "outputs": [
        {
          "internalType": "uint256",
          "name": "",
          "type": "uint256"
        }
      ],
      "stateMutability": "view",
      "type": "function"
    },
    {
      "inputs": [
        {
          "internalType": "uint256",
          "name": "",
          "type": "uint256"
        }
      ],
      "name": "poolInfo",
      "outputs": [
        {
          "internalType": "contract IERC20",
          "name": "token",
          "type": "address"
        },
        {
          "internalType": "uint256",
          "name": "allocPoint",
          "type": "uint256"
        },
        {
          "internalType": "uint256",
          "name": "lastRewardTime",
          "type": "uint256"
        },
        {
          "internalType": "uint256",
          "name": "accPetalPerShare",
          "type": "uint256"
        },
        {
          "internalType": "bool",
          "name": "isStarted",
          "type": "bool"
        }
      ],
      "stateMutability": "view",
      "type": "function"
    },
    {
      "inputs": [],
      "name": "poolStartTime",
      "outputs": [
        {
          "internalType": "uint256",
          "name": "",
          "type": "uint256"
        }
      ],
      "stateMutability": "view",
      "type": "function"
    },
    {
      "inputs": [],
      "name": "runningTime",
      "outputs": [
        {
          "internalType": "uint256",
          "name": "",
          "type": "uint256"
        }
      ],
      "stateMutability": "view",
      "type": "function"
    },
    {
      "inputs": [
        {
          "internalType": "uint256",
          "name": "_pid",
          "type": "uint256"
        },
        {
          "internalType": "uint256",
          "name": "_allocPoint",
          "type": "uint256"
        }
      ],
      "name": "set",
      "outputs": [],
      "stateMutability": "nonpayable",
      "type": "function"
    },
    {
      "inputs": [
        {
          "internalType": "address",
          "name": "_operator",
          "type": "address"
        }
      ],
      "name": "setOperator",
      "outputs": [],
      "stateMutability": "nonpayable",
      "type": "function"
    },
    {
      "inputs": [],
      "name": "tSharePerSecond",
      "outputs": [
        {
          "internalType": "uint256",
          "name": "",
          "type": "uint256"
        }
      ],
      "stateMutability": "view",
      "type": "function"
    },
    {
      "inputs": [],
      "name": "totalAllocPoint",
      "outputs": [
        {
          "internalType": "uint256",
          "name": "",
          "type": "uint256"
        }
      ],
      "stateMutability": "view",
      "type": "function"
    },
    {
      "inputs": [
        {
          "internalType": "uint256",
          "name": "_pid",
          "type": "uint256"
        }
      ],
      "name": "updatePool",
      "outputs": [],
      "stateMutability": "nonpayable",
      "type": "function"
    },
    {
      "inputs": [
        {
          "internalType": "uint256",
          "name": "",
          "type": "uint256"
        },
        {
          "internalType": "address",
          "name": "",
          "type": "address"
        }
      ],
      "name": "userInfo",
      "outputs": [
        {
          "internalType": "uint256",
          "name": "amount",
          "type": "uint256"
        },
        {
          "internalType": "uint256",
          "name": "rewardDebt",
          "type": "uint256"
        }
      ],
      "stateMutability": "view",
      "type": "function"
    },
    {
      "inputs": [
        {
          "internalType": "uint256",
          "name": "_pid",
          "type": "uint256"
        },
        {
          "internalType": "uint256",
          "name": "_amount",
          "type": "uint256"
        }
      ],
      "name": "withdraw",
      "outputs": [],
      "stateMutability": "nonpayable",
      "type": "function"
    }
  ],
  "bytecode": "0x60806040526000600455661b2da26c8820006007556276a7006008553480156200002857600080fd5b5060405162001b3038038062001b308339810160408190526200004b91620000b1565b600180546001600160a01b0319166001600160a01b0383161790556200007442610e10620000e3565b6200008290610870620000e3565b60058190556008546200009591620000e3565b60065550600080546001600160a01b031916331790556200010a565b600060208284031215620000c457600080fd5b81516001600160a01b0381168114620000dc57600080fd5b9392505050565b600082198211156200010557634e487b7160e01b600052601160045260246000fd5b500190565b611a16806200011a6000396000f3fe608060405234801561001057600080fd5b50600436106101775760003560e01c8063570ca735116100d8578063943f013d1161008c578063b3ab15fb11610066578063b3ab15fb14610328578063cf4b55cb1461033b578063e2bbb1581461034e57600080fd5b8063943f013d1461030357806396805e541461030c5780639e63d2611461031f57600080fd5b8063630b5ba1116100bd578063630b5ba1146102ab5780636e271dd5146102b357806393f1a40b146102bc57600080fd5b8063570ca7351461028f5780635f96dc11146102a257600080fd5b8063231f0c6a1161012f57806351eb05a61161011457806351eb05a6146102565780635312ea8e1461026957806354575af41461027c57600080fd5b8063231f0c6a14610230578063441a3e701461024357600080fd5b806317caf6f11161016057806317caf6f1146101e75780631ab06ee5146101f05780632180fe6a1461020557600080fd5b806309cf60911461017c5780631526fe27146101a0575b600080fd5b61018d690c99805fe37d3e30000081565b6040519081526020015b60405180910390f35b6101b36101ae36600461169b565b610361565b604080516001600160a01b03909616865260208601949094529284019190915260608301521515608082015260a001610197565b61018d60045481565b6102036101fe3660046116b4565b6103af565b005b600154610218906001600160a01b031681565b6040516001600160a01b039091168152602001610197565b61018d61023e3660046116b4565b61049f565b6102036102513660046116b4565b610564565b61020361026436600461169b565b610731565b61020361027736600461169b565b6108cc565b61020361028a3660046116ee565b61096e565b600054610218906001600160a01b031681565b61018d60055481565b610203610b23565b61018d60065481565b6102ee6102ca366004611730565b60036020908152600092835260408084209091529082529020805460019091015482565b60408051928352602083019190915201610197565b61018d60085481565b61020361031a36600461176e565b610b4e565b61018d60075481565b6102036103363660046117b6565b610db8565b61018d610349366004611730565b610e72565b61020361035c3660046116b4565b610ff6565b6002818154811061037157600080fd5b6000918252602090912060059091020180546001820154600283015460038401546004909401546001600160a01b0390931694509092909160ff1685565b6000546001600160a01b031633146104345760405162461bcd60e51b815260206004820152602b60248201527f506574616c526577617264506f6f6c3a2063616c6c6572206973206e6f74207460448201527f6865206f70657261746f7200000000000000000000000000000000000000000060648201526084015b60405180910390fd5b61043c610b23565b600060028381548110610451576104516117d3565b60009182526020909120600590910201600481015490915060ff1615610498576104948261048e836001015460045461117090919063ffffffff16565b90611183565b6004555b6001015550565b60008183106104b05750600061055e565b60065482106105185760065483106104ca5750600061055e565b60055483116104fd576104f66007546104f060055460065461117090919063ffffffff16565b9061118f565b905061055e565b6104f66007546104f08560065461117090919063ffffffff16565b60055482116105295750600061055e565b600554831161054d576104f66007546104f06005548561117090919063ffffffff16565b6007546104f6906104f08486611170565b92915050565b600033905060006002848154811061057e5761057e6117d3565b600091825260208083208784526003825260408085206001600160a01b038816865290925292208054600590920290920192508411156106005760405162461bcd60e51b815260206004820152601260248201527f77697468647261773a206e6f7420676f6f640000000000000000000000000000604482015260640161042b565b61060985610731565b60006106468260010154610640670de0b6b3a764000061063a8760030154876000015461118f90919063ffffffff16565b9061119b565b90611170565b9050801561069c5761065884826111a7565b836001600160a01b03167fe2403640ba68fed3a2f88b7557551d1993f84b99bb10ff833f0cf8db0c5e04868260405161069391815260200190565b60405180910390a25b84156106c65781546106ae9086611170565b825582546106c6906001600160a01b03168587611276565b600383015482546106e491670de0b6b3a76400009161063a9161118f565b600183015560405185815286906001600160a01b038616907ff279e6a1f5e320cca91135676d9cb6e44ca8a08c0b88342bcdb1144f6511b5689060200160405180910390a3505050505050565b600060028281548110610746576107466117d3565b9060005260206000209060050201905080600201544211610765575050565b80546040517f70a082310000000000000000000000000000000000000000000000000000000081523060048201526000916001600160a01b0316906370a082319060240160206040518083038186803b1580156107c157600080fd5b505afa1580156107d5573d6000803e3d6000fd5b505050506040513d601f19601f820116820180604052508101906107f99190611802565b90508061080b57504260029091015550565b600482015460ff1661085a57600480830180547fffffffffffffffffffffffffffffffffffffffffffffffffffffffffffffff00166001908117909155830154905461085691611183565b6004555b600454156108c157600061087283600201544261049f565b9050600061089360045461063a86600101548561118f90919063ffffffff16565b90506108b96108ae8461063a84670de0b6b3a764000061118f565b600386015490611183565b600385015550505b504260029091015550565b6000600282815481106108e1576108e16117d3565b600091825260208083208584526003825260408085203380875293528420805485825560018201959095556005909302018054909450919291610931916001600160a01b03919091169083611276565b604051818152849033907fbb757047c2b5f3974fe26b7c10f732e7bce710b0952a71082702781e62ae05959060200160405180910390a350505050565b6000546001600160a01b031633146109ee5760405162461bcd60e51b815260206004820152602b60248201527f506574616c526577617264506f6f6c3a2063616c6c6572206973206e6f74207460448201527f6865206f70657261746f72000000000000000000000000000000000000000000606482015260840161042b565b6006546109fe906276a70061184a565b421015610b0a576001546001600160a01b0384811691161415610a635760405162461bcd60e51b815260206004820152600560248201527f706574616c000000000000000000000000000000000000000000000000000000604482015260640161042b565b60025460005b81811015610b0757600060028281548110610a8657610a866117d3565b6000918252602090912060059091020180549091506001600160a01b0387811691161415610af65760405162461bcd60e51b815260206004820152600a60248201527f706f6f6c2e746f6b656e00000000000000000000000000000000000000000000604482015260640161042b565b50610b0081611862565b9050610a69565b50505b610b1e6001600160a01b0384168284611276565b505050565b60025460005b81811015610b4a57610b3a81610731565b610b4381611862565b9050610b29565b5050565b6000546001600160a01b03163314610bce5760405162461bcd60e51b815260206004820152602b60248201527f506574616c526577617264506f6f6c3a2063616c6c6572206973206e6f74207460448201527f6865206f70657261746f72000000000000000000000000000000000000000000606482015260840161042b565b610bd78361133d565b8115610be557610be5610b23565b600554421015610c115780610bfd5750600554610c25565b600554811015610c0c57506005545b610c25565b801580610c1d57504281105b15610c255750425b600060055482111580610c385750428211155b6040805160a0810182526001600160a01b03878116825260208201898152928201868152600060608401818152861580156080870190815260028054600181018255945295517f405787fa12a823e0f2b7631cc41b3ba8828b3321ca811111fa75cd3aa3bb5ace600590940293840180547fffffffffffffffffffffffff000000000000000000000000000000000000000016919096161790945594517f405787fa12a823e0f2b7631cc41b3ba8828b3321ca811111fa75cd3aa3bb5acf82015590517f405787fa12a823e0f2b7631cc41b3ba8828b3321ca811111fa75cd3aa3bb5ad082015592517f405787fa12a823e0f2b7631cc41b3ba8828b3321ca811111fa75cd3aa3bb5ad184015590517f405787fa12a823e0f2b7631cc41b3ba8828b3321ca811111fa75cd3aa3bb5ad290920180547fffffffffffffffffffffffffffffffffffffffffffffffffffffffffffffff001692151592909217909155909150610db157600454610dad9086611183565b6004555b5050505050565b6000546001600160a01b03163314610e385760405162461bcd60e51b815260206004820152602b60248201527f506574616c526577617264506f6f6c3a2063616c6c6572206973206e6f74207460448201527f6865206f70657261746f72000000000000000000000000000000000000000000606482015260840161042b565b600080547fffffffffffffffffffffffff0000000000000000000000000000000000000000166001600160a01b0392909216919091179055565b60008060028481548110610e8857610e886117d3565b60009182526020808320878452600380835260408086206001600160a01b038a81168852945280862060059590950290920190810154815492517f70a0823100000000000000000000000000000000000000000000000000000000815230600482015291965093949291909116906370a082319060240160206040518083038186803b158015610f1757600080fd5b505afa158015610f2b573d6000803e3d6000fd5b505050506040513d601f19601f82011682018060405250810190610f4f9190611802565b9050836002015442118015610f6357508015155b15610fc0576000610f7885600201544261049f565b90506000610f9960045461063a88600101548561118f90919063ffffffff16565b9050610fbb610fb48461063a84670de0b6b3a764000061118f565b8590611183565b935050505b610feb8360010154610640670de0b6b3a764000061063a86886000015461118f90919063ffffffff16565b979650505050505050565b6000339050600060028481548110611010576110106117d3565b600091825260208083208784526003825260408085206001600160a01b038816865290925292206005909102909101915061104a85610731565b8054156110da5760006110828260010154610640670de0b6b3a764000061063a8760030154876000015461118f90919063ffffffff16565b905080156110d85761109484826111a7565b836001600160a01b03167fe2403640ba68fed3a2f88b7557551d1993f84b99bb10ff833f0cf8db0c5e0486826040516110cf91815260200190565b60405180910390a25b505b83156111065781546110f7906001600160a01b03168430876113e0565b80546111039085611183565b81555b6003820154815461112491670de0b6b3a76400009161063a9161118f565b600182015560405184815285906001600160a01b038516907f90890809c654f11d6e72a28fa60149770a0d11ec6c92319d6ceb2bb0a4ea1a159060200160405180910390a35050505050565b600061117c828461189b565b9392505050565b600061117c828461184a565b600061117c82846118b2565b600061117c82846118ef565b6001546040517f70a082310000000000000000000000000000000000000000000000000000000081523060048201526000916001600160a01b0316906370a082319060240160206040518083038186803b15801561120457600080fd5b505afa158015611218573d6000803e3d6000fd5b505050506040513d601f19601f8201168201806040525081019061123c9190611802565b90508015610b1e578082111561126357600154610b1e906001600160a01b03168483611276565b600154610b1e906001600160a01b031684845b6040516001600160a01b038316602482015260448101829052610b1e9084907fa9059cbb00000000000000000000000000000000000000000000000000000000906064015b604080517fffffffffffffffffffffffffffffffffffffffffffffffffffffffffffffffe08184030181529190526020810180517bffffffffffffffffffffffffffffffffffffffffffffffffffffffff167fffffffff0000000000000000000000000000000000000000000000000000000090931692909217909152611437565b60025460005b81811015610b1e57826001600160a01b031660028281548110611368576113686117d3565b60009182526020909120600590910201546001600160a01b031614156113d05760405162461bcd60e51b815260206004820152601f60248201527f506574616c526577617264506f6f6c3a206578697374696e6720706f6f6c3f00604482015260640161042b565b6113d981611862565b9050611343565b6040516001600160a01b03808516602483015283166044820152606481018290526114319085907f23b872dd00000000000000000000000000000000000000000000000000000000906084016112bb565b50505050565b600061148c826040518060400160405280602081526020017f5361666545524332303a206c6f772d6c6576656c2063616c6c206661696c6564815250856001600160a01b031661151c9092919063ffffffff16565b805190915015610b1e57808060200190518101906114aa919061192a565b610b1e5760405162461bcd60e51b815260206004820152602a60248201527f5361666545524332303a204552433230206f7065726174696f6e20646964206e60448201527f6f74207375636365656400000000000000000000000000000000000000000000606482015260840161042b565b606061152b8484600085611533565b949350505050565b6060824710156115ab5760405162461bcd60e51b815260206004820152602660248201527f416464726573733a20696e73756666696369656e742062616c616e636520666f60448201527f722063616c6c0000000000000000000000000000000000000000000000000000606482015260840161042b565b843b6115f95760405162461bcd60e51b815260206004820152601d60248201527f416464726573733a2063616c6c20746f206e6f6e2d636f6e7472616374000000604482015260640161042b565b600080866001600160a01b031685876040516116159190611973565b60006040518083038185875af1925050503d8060008114611652576040519150601f19603f3d011682016040523d82523d6000602084013e611657565b606091505b5091509150610feb8282866060831561167157508161117c565b8251156116815782518084602001fd5b8160405162461bcd60e51b815260040161042b919061198f565b6000602082840312156116ad57600080fd5b5035919050565b600080604083850312156116c757600080fd5b50508035926020909101359150565b6001600160a01b03811681146116eb57600080fd5b50565b60008060006060848603121561170357600080fd5b833561170e816116d6565b9250602084013591506040840135611725816116d6565b809150509250925092565b6000806040838503121561174357600080fd5b823591506020830135611755816116d6565b809150509250929050565b80151581146116eb57600080fd5b6000806000806080858703121561178457600080fd5b843593506020850135611796816116d6565b925060408501356117a681611760565b9396929550929360600135925050565b6000602082840312156117c857600080fd5b813561117c816116d6565b7f4e487b7100000000000000000000000000000000000000000000000000000000600052603260045260246000fd5b60006020828403121561181457600080fd5b5051919050565b7f4e487b7100000000000000000000000000000000000000000000000000000000600052601160045260246000fd5b6000821982111561185d5761185d61181b565b500190565b60007fffffffffffffffffffffffffffffffffffffffffffffffffffffffffffffffff8214156118945761189461181b565b5060010190565b6000828210156118ad576118ad61181b565b500390565b6000817fffffffffffffffffffffffffffffffffffffffffffffffffffffffffffffffff04831182151516156118ea576118ea61181b565b500290565b600082611925577f4e487b7100000000000000000000000000000000000000000000000000000000600052601260045260246000fd5b500490565b60006020828403121561193c57600080fd5b815161117c81611760565b60005b8381101561196257818101518382015260200161194a565b838111156114315750506000910152565b60008251611985818460208701611947565b9190910192915050565b60208152600082518060208401526119ae816040850160208701611947565b601f017fffffffffffffffffffffffffffffffffffffffffffffffffffffffffffffffe016919091016040019291505056fea264697066735822122054710aeefbae42f4a96cd15cb38cf2498b3ce3bc058ddcfc1885d7193be5c65964736f6c63430008080033",
  "linkReferences": {},
  "deployedLinkReferences": {}
}