{
  "_format": "hh-sol-artifact-1",
  "contractName": "PetalGenesisRewardPool",
  "sourceName": "contracts/PetalGenesisRewardPool.sol",
  "abi": [
    {
      "inputs": [
        {
          "internalType": "uint256",
          "name": "_startTime",
          "type": "uint256"
        },
        {
          "internalType": "contract IERC20",
          "name": "_petal",
          "type": "address"
        }
      ],
      "stateMutability": "nonpayable",
      "type": "constructor"
    },
    {
      "anonymous": false,
      "inputs": [
        {
          "indexed": true,
          "internalType": "address",
          "name": "user",
          "type": "address"
        },
        {
          "indexed": true,
          "internalType": "uint256",
          "name": "pid",
          "type": "uint256"
        },
        {
          "indexed": false,
          "internalType": "uint256",
          "name": "amount",
          "type": "uint256"
        }
      ],
      "name": "Deposit",
      "type": "event"
    },
    {
      "anonymous": false,
      "inputs": [
        {
          "indexed": true,
          "internalType": "address",
          "name": "user",
          "type": "address"
        },
        {
          "indexed": true,
          "internalType": "uint256",
          "name": "pid",
          "type": "uint256"
        },
        {
          "indexed": false,
          "internalType": "uint256",
          "name": "amount",
          "type": "uint256"
        }
      ],
      "name": "EmergencyWithdraw",
      "type": "event"
    },
    {
      "anonymous": false,
      "inputs": [
        {
          "indexed": true,
          "internalType": "address",
          "name": "user",
          "type": "address"
        },
        {
          "indexed": false,
          "internalType": "uint256",
          "name": "amount",
          "type": "uint256"
        }
      ],
      "name": "RewardPaid",
      "type": "event"
    },
    {
      "anonymous": false,
      "inputs": [
        {
          "indexed": true,
          "internalType": "address",
          "name": "user",
          "type": "address"
        },
        {
          "indexed": true,
          "internalType": "uint256",
          "name": "pid",
          "type": "uint256"
        },
        {
          "indexed": false,
          "internalType": "uint256",
          "name": "amount",
          "type": "uint256"
        }
      ],
      "name": "Withdraw",
      "type": "event"
    },
    {
      "inputs": [],
      "name": "TOTAL_REWARDS",
      "outputs": [
        {
          "internalType": "uint256",
          "name": "",
          "type": "uint256"
        }
      ],
      "stateMutability": "view",
      "type": "function"
    },
    {
      "inputs": [
        {
          "internalType": "uint256",
          "name": "_allocPoint",
          "type": "uint256"
        },
        {
          "internalType": "contract IERC20",
          "name": "_token",
          "type": "address"
        },
        {
          "internalType": "bool",
          "name": "_withUpdate",
          "type": "bool"
        },
        {
          "internalType": "uint256",
          "name": "_lastRewardTime",
          "type": "uint256"
        }
      ],
      "name": "add",
      "outputs": [],
      "stateMutability": "nonpayable",
      "type": "function"
    },
    {
      "inputs": [
        {
          "internalType": "uint256",
          "name": "_pid",
          "type": "uint256"
        },
        {
          "internalType": "uint256",
          "name": "_amount",
          "type": "uint256"
        }
      ],
      "name": "deposit",
      "outputs": [],
      "stateMutability": "nonpayable",
      "type": "function"
    },
    {
      "inputs": [
        {
          "internalType": "uint256",
          "name": "_pid",
          "type": "uint256"
        }
      ],
      "name": "emergencyWithdraw",
      "outputs": [],
      "stateMutability": "nonpayable",
      "type": "function"
    },
    {
      "inputs": [
        {
          "internalType": "uint256",
          "name": "_fromTime",
          "type": "uint256"
        },
        {
          "internalType": "uint256",
          "name": "_toTime",
          "type": "uint256"
        }
      ],
      "name": "getGeneratedReward",
      "outputs": [
        {
          "internalType": "uint256",
          "name": "",
          "type": "uint256"
        }
      ],
      "stateMutability": "view",
      "type": "function"
    },
    {
      "inputs": [
        {
          "internalType": "contract IERC20",
          "name": "_token",
          "type": "address"
        },
        {
          "internalType": "uint256",
          "name": "amount",
          "type": "uint256"
        },
        {
          "internalType": "address",
          "name": "to",
          "type": "address"
        }
      ],
      "name": "governanceRecoverUnsupported",
      "outputs": [],
      "stateMutability": "nonpayable",
      "type": "function"
    },
    {
      "inputs": [],
      "name": "massUpdatePools",
      "outputs": [],
      "stateMutability": "nonpayable",
      "type": "function"
    },
    {
      "inputs": [],
      "name": "operator",
      "outputs": [
        {
          "internalType": "address",
          "name": "",
          "type": "address"
        }
      ],
      "stateMutability": "view",
      "type": "function"
    },
    {
      "inputs": [
        {
          "internalType": "uint256",
          "name": "_pid",
          "type": "uint256"
        },
        {
          "internalType": "address",
          "name": "_user",
          "type": "address"
        }
      ],
      "name": "pendingShare",
      "outputs": [
        {
          "internalType": "uint256",
          "name": "",
          "type": "uint256"
        }
      ],
      "stateMutability": "view",
      "type": "function"
    },
    {
      "inputs": [],
      "name": "petal",
      "outputs": [
        {
          "internalType": "contract IERC20",
          "name": "",
          "type": "address"
        }
      ],
      "stateMutability": "view",
      "type": "function"
    },
    {
      "inputs": [],
      "name": "poolEndTime",
      "outputs": [
        {
          "internalType": "uint256",
          "name": "",
          "type": "uint256"
        }
      ],
      "stateMutability": "view",
      "type": "function"
    },
    {
      "inputs": [
        {
          "internalType": "uint256",
          "name": "",
          "type": "uint256"
        }
      ],
      "name": "poolInfo",
      "outputs": [
        {
          "internalType": "contract IERC20",
          "name": "token",
          "type": "address"
        },
        {
          "internalType": "uint256",
          "name": "allocPoint",
          "type": "uint256"
        },
        {
          "internalType": "uint256",
          "name": "lastRewardTime",
          "type": "uint256"
        },
        {
          "internalType": "uint256",
          "name": "accPetalPerShare",
          "type": "uint256"
        },
        {
          "internalType": "bool",
          "name": "isStarted",
          "type": "bool"
        }
      ],
      "stateMutability": "view",
      "type": "function"
    },
    {
      "inputs": [],
      "name": "poolStartTime",
      "outputs": [
        {
          "internalType": "uint256",
          "name": "",
          "type": "uint256"
        }
      ],
      "stateMutability": "view",
      "type": "function"
    },
    {
      "inputs": [],
      "name": "runningTime",
      "outputs": [
        {
          "internalType": "uint256",
          "name": "",
          "type": "uint256"
        }
      ],
      "stateMutability": "view",
      "type": "function"
    },
    {
      "inputs": [
        {
          "internalType": "uint256",
          "name": "_pid",
          "type": "uint256"
        },
        {
          "internalType": "uint256",
          "name": "_allocPoint",
          "type": "uint256"
        }
      ],
      "name": "set",
      "outputs": [],
      "stateMutability": "nonpayable",
      "type": "function"
    },
    {
      "inputs": [
        {
          "internalType": "address",
          "name": "_operator",
          "type": "address"
        }
      ],
      "name": "setOperator",
      "outputs": [],
      "stateMutability": "nonpayable",
      "type": "function"
    },
    {
      "inputs": [],
      "name": "tSharePerSecond",
      "outputs": [
        {
          "internalType": "uint256",
          "name": "",
          "type": "uint256"
        }
      ],
      "stateMutability": "view",
      "type": "function"
    },
    {
      "inputs": [],
      "name": "totalAllocPoint",
      "outputs": [
        {
          "internalType": "uint256",
          "name": "",
          "type": "uint256"
        }
      ],
      "stateMutability": "view",
      "type": "function"
    },
    {
      "inputs": [
        {
          "internalType": "uint256",
          "name": "_pid",
          "type": "uint256"
        }
      ],
      "name": "updatePool",
      "outputs": [],
      "stateMutability": "nonpayable",
      "type": "function"
    },
    {
      "inputs": [
        {
          "internalType": "uint256",
          "name": "",
          "type": "uint256"
        },
        {
          "internalType": "address",
          "name": "",
          "type": "address"
        }
      ],
      "name": "userInfo",
      "outputs": [
        {
          "internalType": "uint256",
          "name": "amount",
          "type": "uint256"
        },
        {
          "internalType": "uint256",
          "name": "rewardDebt",
          "type": "uint256"
        }
      ],
      "stateMutability": "view",
      "type": "function"
    },
    {
      "inputs": [
        {
          "internalType": "uint256",
          "name": "_pid",
          "type": "uint256"
        },
        {
          "internalType": "uint256",
          "name": "_amount",
          "type": "uint256"
        }
      ],
      "name": "withdraw",
      "outputs": [],
      "stateMutability": "nonpayable",
      "type": "function"
    }
  ],
  "bytecode": "0x6080604052600060045566626900d4474000600755620697806008553480156200002857600080fd5b5060405162002b6f38038062002b6f83398181016040528101906200004e9190620001af565b80600160006101000a81548173ffffffffffffffffffffffffffffffffffffffff021916908373ffffffffffffffffffffffffffffffffffffffff16021790555081600581905550600854600554620000a8919062000225565b600681905550336000806101000a81548173ffffffffffffffffffffffffffffffffffffffff021916908373ffffffffffffffffffffffffffffffffffffffff160217905550505062000282565b600080fd5b6000819050919050565b6200011081620000fb565b81146200011c57600080fd5b50565b600081519050620001308162000105565b92915050565b600073ffffffffffffffffffffffffffffffffffffffff82169050919050565b6000620001638262000136565b9050919050565b6000620001778262000156565b9050919050565b62000189816200016a565b81146200019557600080fd5b50565b600081519050620001a9816200017e565b92915050565b60008060408385031215620001c957620001c8620000f6565b5b6000620001d9858286016200011f565b9250506020620001ec8582860162000198565b9150509250929050565b7f4e487b7100000000000000000000000000000000000000000000000000000000600052601160045260246000fd5b60006200023282620000fb565b91506200023f83620000fb565b9250827fffffffffffffffffffffffffffffffffffffffffffffffffffffffffffffffff03821115620002775762000276620001f6565b5b828201905092915050565b6128dd80620002926000396000f3fe608060405234801561001057600080fd5b50600436106101375760003560e01c8063570ca735116100b8578063943f013d1161007c578063943f013d1461031b57806396805e54146103395780639e63d26114610355578063b3ab15fb14610373578063cf4b55cb1461038f578063e2bbb158146103bf57610137565b8063570ca735146102865780635f96dc11146102a4578063630b5ba1146102c25780636e271dd5146102cc57806393f1a40b146102ea57610137565b8063231f0c6a116100ff578063231f0c6a146101e6578063441a3e701461021657806351eb05a6146102325780635312ea8e1461024e57806354575af41461026a57610137565b806309cf60911461013c5780631526fe271461015a57806317caf6f11461018e5780631ab06ee5146101ac5780632180fe6a146101c8575b600080fd5b6101446103db565b6040516101519190611d0a565b60405180910390f35b610174600480360381019061016f9190611d56565b6103e8565b604051610185959493929190611e1d565b60405180910390f35b61019661045b565b6040516101a39190611d0a565b60405180910390f35b6101c660048036038101906101c19190611e70565b610461565b005b6101d0610574565b6040516101dd9190611eb0565b60405180910390f35b61020060048036038101906101fb9190611e70565b61059a565b60405161020d9190611d0a565b60405180910390f35b610230600480360381019061022b9190611e70565b6106ad565b005b61024c60048036038101906102479190611d56565b610939565b005b61026860048036038101906102639190611d56565b610b36565b005b610284600480360381019061027f9190611f47565b610c71565b005b61028e610ebb565b60405161029b9190611fa9565b60405180910390f35b6102ac610edf565b6040516102b99190611d0a565b60405180910390f35b6102ca610ee5565b005b6102d4610f18565b6040516102e19190611d0a565b60405180910390f35b61030460048036038101906102ff9190611fc4565b610f1e565b604051610312929190612004565b60405180910390f35b610323610f4f565b6040516103309190611d0a565b60405180910390f35b610353600480360381019061034e9190612059565b610f55565b005b61035d611176565b60405161036a9190611d0a565b60405180910390f35b61038d600480360381019061038891906120c0565b61117c565b005b6103a960048036038101906103a49190611fc4565b61124d565b6040516103b69190611d0a565b60405180910390f35b6103d960048036038101906103d49190611e70565b611473565b005b681b1ae4d6e2ef50000081565b600281815481106103f857600080fd5b90600052602060002090600502016000915090508060000160009054906101000a900473ffffffffffffffffffffffffffffffffffffffff16908060010154908060020154908060030154908060040160009054906101000a900460ff16905085565b60045481565b3373ffffffffffffffffffffffffffffffffffffffff1660008054906101000a900473ffffffffffffffffffffffffffffffffffffffff1673ffffffffffffffffffffffffffffffffffffffff16146104ef576040517f08c379a00000000000000000000000000000000000000000000000000000000081526004016104e690612170565b60405180910390fd5b6104f7610ee5565b60006002838154811061050d5761050c612190565b5b906000526020600020906005020190508060040160009054906101000a900460ff16156105665761055f8261055183600101546004546116c890919063ffffffff16565b6116de90919063ffffffff16565b6004819055505b818160010181905550505050565b600160009054906101000a900473ffffffffffffffffffffffffffffffffffffffff1681565b60008183106105ac57600090506106a7565b60065482106106325760065483106105c757600090506106a7565b6005548311610602576105fb6007546105ed6005546006546116c890919063ffffffff16565b6116f490919063ffffffff16565b90506106a7565b61062b60075461061d856006546116c890919063ffffffff16565b6116f490919063ffffffff16565b90506106a7565b600554821161064457600090506106a7565b600554831161067d57610676600754610668600554856116c890919063ffffffff16565b6116f490919063ffffffff16565b90506106a7565b6106a460075461069685856116c890919063ffffffff16565b6116f490919063ffffffff16565b90505b92915050565b60003390506000600284815481106106c8576106c7612190565b5b9060005260206000209060050201905060006003600086815260200190815260200160002060008473ffffffffffffffffffffffffffffffffffffffff1673ffffffffffffffffffffffffffffffffffffffff16815260200190815260200160002090508381600001541015610773576040517f08c379a000000000000000000000000000000000000000000000000000000000815260040161076a9061220b565b60405180910390fd5b61077c85610939565b60006107c982600101546107bb670de0b6b3a76400006107ad876003015487600001546116f490919063ffffffff16565b61170a90919063ffffffff16565b6116c890919063ffffffff16565b9050600081111561082d576107de8482611720565b8373ffffffffffffffffffffffffffffffffffffffff167fe2403640ba68fed3a2f88b7557551d1993f84b99bb10ff833f0cf8db0c5e0486826040516108249190611d0a565b60405180910390a25b60008511156108a55761084d8583600001546116c890919063ffffffff16565b82600001819055506108a484868560000160009054906101000a900473ffffffffffffffffffffffffffffffffffffffff1673ffffffffffffffffffffffffffffffffffffffff166118869092919063ffffffff16565b5b6108da670de0b6b3a76400006108cc856003015485600001546116f490919063ffffffff16565b61170a90919063ffffffff16565b8260010181905550858473ffffffffffffffffffffffffffffffffffffffff167ff279e6a1f5e320cca91135676d9cb6e44ca8a08c0b88342bcdb1144f6511b568876040516109299190611d0a565b60405180910390a3505050505050565b60006002828154811061094f5761094e612190565b5b90600052602060002090600502019050806002015442116109705750610b33565b60008160000160009054906101000a900473ffffffffffffffffffffffffffffffffffffffff1673ffffffffffffffffffffffffffffffffffffffff166370a08231306040518263ffffffff1660e01b81526004016109cf9190611fa9565b60206040518083038186803b1580156109e757600080fd5b505afa1580156109fb573d6000803e3d6000fd5b505050506040513d601f19601f82011682018060405250810190610a1f9190612240565b90506000811415610a3a574282600201819055505050610b33565b8160040160009054906101000a900460ff16610a8d5760018260040160006101000a81548160ff021916908315150217905550610a8682600101546004546116de90919063ffffffff16565b6004819055505b60006004541115610b27576000610aa883600201544261059a565b90506000610ad7600454610ac98660010154856116f490919063ffffffff16565b61170a90919063ffffffff16565b9050610b1c610b0984610afb670de0b6b3a7640000856116f490919063ffffffff16565b61170a90919063ffffffff16565b85600301546116de90919063ffffffff16565b846003018190555050505b42826002018190555050505b50565b600060028281548110610b4c57610b4b612190565b5b9060005260206000209060050201905060006003600084815260200190815260200160002060003373ffffffffffffffffffffffffffffffffffffffff1673ffffffffffffffffffffffffffffffffffffffff16815260200190815260200160002090506000816000015490506000826000018190555060008260010181905550610c1c33828560000160009054906101000a900473ffffffffffffffffffffffffffffffffffffffff1673ffffffffffffffffffffffffffffffffffffffff166118869092919063ffffffff16565b833373ffffffffffffffffffffffffffffffffffffffff167fbb757047c2b5f3974fe26b7c10f732e7bce710b0952a71082702781e62ae059583604051610c639190611d0a565b60405180910390a350505050565b3373ffffffffffffffffffffffffffffffffffffffff1660008054906101000a900473ffffffffffffffffffffffffffffffffffffffff1673ffffffffffffffffffffffffffffffffffffffff1614610cff576040517f08c379a0000000000000000000000000000000000000000000000000000000008152600401610cf690612170565b60405180910390fd5b6276a700600654610d10919061229c565b421015610e8b57600160009054906101000a900473ffffffffffffffffffffffffffffffffffffffff1673ffffffffffffffffffffffffffffffffffffffff168373ffffffffffffffffffffffffffffffffffffffff161415610da8576040517f08c379a0000000000000000000000000000000000000000000000000000000008152600401610d9f9061233e565b60405180910390fd5b6000600280549050905060005b81811015610e8857600060028281548110610dd357610dd2612190565b5b906000526020600020906005020190508060000160009054906101000a900473ffffffffffffffffffffffffffffffffffffffff1673ffffffffffffffffffffffffffffffffffffffff168673ffffffffffffffffffffffffffffffffffffffff161415610e76576040517f08c379a0000000000000000000000000000000000000000000000000000000008152600401610e6d906123aa565b60405180910390fd5b5080610e81906123ca565b9050610db5565b50505b610eb681838573ffffffffffffffffffffffffffffffffffffffff166118869092919063ffffffff16565b505050565b60008054906101000a900473ffffffffffffffffffffffffffffffffffffffff1681565b60055481565b6000600280549050905060005b81811015610f1457610f0381610939565b80610f0d906123ca565b9050610ef2565b5050565b60065481565b6003602052816000526040600020602052806000526040600020600091509150508060000154908060010154905082565b60085481565b3373ffffffffffffffffffffffffffffffffffffffff1660008054906101000a900473ffffffffffffffffffffffffffffffffffffffff1673ffffffffffffffffffffffffffffffffffffffff1614610fe3576040517f08c379a0000000000000000000000000000000000000000000000000000000008152600401610fda90612170565b60405180910390fd5b610fec8361190c565b8115610ffb57610ffa610ee5565b5b60055442101561102e576000811415611018576005549050611029565b6005548110156110285760055490505b5b611046565b600081148061103c57504281105b15611045574290505b5b6000600554821115806110595750428211155b905060026040518060a001604052808673ffffffffffffffffffffffffffffffffffffffff16815260200187815260200184815260200160008152602001831515815250908060018154018082558091505060019003906000526020600020906005020160009091909190915060008201518160000160006101000a81548173ffffffffffffffffffffffffffffffffffffffff021916908373ffffffffffffffffffffffffffffffffffffffff16021790555060208201518160010155604082015181600201556060820151816003015560808201518160040160006101000a81548160ff0219169083151502179055505050801561116f57611168856004546116de90919063ffffffff16565b6004819055505b5050505050565b60075481565b3373ffffffffffffffffffffffffffffffffffffffff1660008054906101000a900473ffffffffffffffffffffffffffffffffffffffff1673ffffffffffffffffffffffffffffffffffffffff161461120a576040517f08c379a000000000000000000000000000000000000000000000000000000000815260040161120190612170565b60405180910390fd5b806000806101000a81548173ffffffffffffffffffffffffffffffffffffffff021916908373ffffffffffffffffffffffffffffffffffffffff16021790555050565b6000806002848154811061126457611263612190565b5b9060005260206000209060050201905060006003600086815260200190815260200160002060008573ffffffffffffffffffffffffffffffffffffffff1673ffffffffffffffffffffffffffffffffffffffff168152602001908152602001600020905060008260030154905060008360000160009054906101000a900473ffffffffffffffffffffffffffffffffffffffff1673ffffffffffffffffffffffffffffffffffffffff166370a08231306040518263ffffffff1660e01b81526004016113309190611fa9565b60206040518083038186803b15801561134857600080fd5b505afa15801561135c573d6000803e3d6000fd5b505050506040513d601f19601f820116820180604052508101906113809190612240565b9050836002015442118015611396575060008114155b156114205760006113ab85600201544261059a565b905060006113da6004546113cc8860010154856116f490919063ffffffff16565b61170a90919063ffffffff16565b905061141b61140c846113fe670de0b6b3a7640000856116f490919063ffffffff16565b61170a90919063ffffffff16565b856116de90919063ffffffff16565b935050505b6114678360010154611459670de0b6b3a764000061144b8688600001546116f490919063ffffffff16565b61170a90919063ffffffff16565b6116c890919063ffffffff16565b94505050505092915050565b600033905060006002848154811061148e5761148d612190565b5b9060005260206000209060050201905060006003600086815260200190815260200160002060008473ffffffffffffffffffffffffffffffffffffffff1673ffffffffffffffffffffffffffffffffffffffff16815260200190815260200160002090506114fb85610939565b6000816000015411156115bb5760006115558260010154611547670de0b6b3a7640000611539876003015487600001546116f490919063ffffffff16565b61170a90919063ffffffff16565b6116c890919063ffffffff16565b905060008111156115b95761156a8482611720565b8373ffffffffffffffffffffffffffffffffffffffff167fe2403640ba68fed3a2f88b7557551d1993f84b99bb10ff833f0cf8db0c5e0486826040516115b09190611d0a565b60405180910390a25b505b6000841115611635576116158330868560000160009054906101000a900473ffffffffffffffffffffffffffffffffffffffff1673ffffffffffffffffffffffffffffffffffffffff166119eb909392919063ffffffff16565b61162c8482600001546116de90919063ffffffff16565b81600001819055505b61166a670de0b6b3a764000061165c846003015484600001546116f490919063ffffffff16565b61170a90919063ffffffff16565b8160010181905550848373ffffffffffffffffffffffffffffffffffffffff167f90890809c654f11d6e72a28fa60149770a0d11ec6c92319d6ceb2bb0a4ea1a15866040516116b99190611d0a565b60405180910390a35050505050565b600081836116d69190612413565b905092915050565b600081836116ec919061229c565b905092915050565b600081836117029190612447565b905092915050565b6000818361171891906124d0565b905092915050565b6000600160009054906101000a900473ffffffffffffffffffffffffffffffffffffffff1673ffffffffffffffffffffffffffffffffffffffff166370a08231306040518263ffffffff1660e01b815260040161177d9190611fa9565b60206040518083038186803b15801561179557600080fd5b505afa1580156117a9573d6000803e3d6000fd5b505050506040513d601f19601f820116820180604052508101906117cd9190612240565b9050600081111561188157808211156118325761182d8382600160009054906101000a900473ffffffffffffffffffffffffffffffffffffffff1673ffffffffffffffffffffffffffffffffffffffff166118869092919063ffffffff16565b611880565b61187f8383600160009054906101000a900473ffffffffffffffffffffffffffffffffffffffff1673ffffffffffffffffffffffffffffffffffffffff166118869092919063ffffffff16565b5b5b505050565b6119078363a9059cbb60e01b84846040516024016118a5929190612501565b604051602081830303815290604052907bffffffffffffffffffffffffffffffffffffffffffffffffffffffff19166020820180517bffffffffffffffffffffffffffffffffffffffffffffffffffffffff8381831617835250505050611a74565b505050565b6000600280549050905060005b818110156119e6578273ffffffffffffffffffffffffffffffffffffffff166002828154811061194c5761194b612190565b5b906000526020600020906005020160000160009054906101000a900473ffffffffffffffffffffffffffffffffffffffff1673ffffffffffffffffffffffffffffffffffffffff1614156119d5576040517f08c379a00000000000000000000000000000000000000000000000000000000081526004016119cc90612576565b60405180910390fd5b806119df906123ca565b9050611919565b505050565b611a6e846323b872dd60e01b858585604051602401611a0c93929190612596565b604051602081830303815290604052907bffffffffffffffffffffffffffffffffffffffffffffffffffffffff19166020820180517bffffffffffffffffffffffffffffffffffffffffffffffffffffffff8381831617835250505050611a74565b50505050565b6000611ad6826040518060400160405280602081526020017f5361666545524332303a206c6f772d6c6576656c2063616c6c206661696c65648152508573ffffffffffffffffffffffffffffffffffffffff16611b3b9092919063ffffffff16565b9050600081511115611b365780806020019051810190611af691906125e2565b611b35576040517f08c379a0000000000000000000000000000000000000000000000000000000008152600401611b2c90612681565b60405180910390fd5b5b505050565b6060611b4a8484600085611b53565b90509392505050565b606082471015611b98576040517f08c379a0000000000000000000000000000000000000000000000000000000008152600401611b8f90612713565b60405180910390fd5b611ba185611c67565b611be0576040517f08c379a0000000000000000000000000000000000000000000000000000000008152600401611bd79061277f565b60405180910390fd5b6000808673ffffffffffffffffffffffffffffffffffffffff168587604051611c099190612819565b60006040518083038185875af1925050503d8060008114611c46576040519150601f19603f3d011682016040523d82523d6000602084013e611c4b565b606091505b5091509150611c5b828286611c8a565b92505050949350505050565b6000808273ffffffffffffffffffffffffffffffffffffffff163b119050919050565b60608315611c9a57829050611cea565b600083511115611cad5782518084602001fd5b816040517f08c379a0000000000000000000000000000000000000000000000000000000008152600401611ce19190612885565b60405180910390fd5b9392505050565b6000819050919050565b611d0481611cf1565b82525050565b6000602082019050611d1f6000830184611cfb565b92915050565b600080fd5b611d3381611cf1565b8114611d3e57600080fd5b50565b600081359050611d5081611d2a565b92915050565b600060208284031215611d6c57611d6b611d25565b5b6000611d7a84828501611d41565b91505092915050565b600073ffffffffffffffffffffffffffffffffffffffff82169050919050565b6000819050919050565b6000611dc8611dc3611dbe84611d83565b611da3565b611d83565b9050919050565b6000611dda82611dad565b9050919050565b6000611dec82611dcf565b9050919050565b611dfc81611de1565b82525050565b60008115159050919050565b611e1781611e02565b82525050565b600060a082019050611e326000830188611df3565b611e3f6020830187611cfb565b611e4c6040830186611cfb565b611e596060830185611cfb565b611e666080830184611e0e565b9695505050505050565b60008060408385031215611e8757611e86611d25565b5b6000611e9585828601611d41565b9250506020611ea685828601611d41565b9150509250929050565b6000602082019050611ec56000830184611df3565b92915050565b6000611ed682611d83565b9050919050565b6000611ee882611ecb565b9050919050565b611ef881611edd565b8114611f0357600080fd5b50565b600081359050611f1581611eef565b92915050565b611f2481611ecb565b8114611f2f57600080fd5b50565b600081359050611f4181611f1b565b92915050565b600080600060608486031215611f6057611f5f611d25565b5b6000611f6e86828701611f06565b9350506020611f7f86828701611d41565b9250506040611f9086828701611f32565b9150509250925092565b611fa381611ecb565b82525050565b6000602082019050611fbe6000830184611f9a565b92915050565b60008060408385031215611fdb57611fda611d25565b5b6000611fe985828601611d41565b9250506020611ffa85828601611f32565b9150509250929050565b60006040820190506120196000830185611cfb565b6120266020830184611cfb565b9392505050565b61203681611e02565b811461204157600080fd5b50565b6000813590506120538161202d565b92915050565b6000806000806080858703121561207357612072611d25565b5b600061208187828801611d41565b945050602061209287828801611f06565b93505060406120a387828801612044565b92505060606120b487828801611d41565b91505092959194509250565b6000602082840312156120d6576120d5611d25565b5b60006120e484828501611f32565b91505092915050565b600082825260208201905092915050565b7f506574616c526577617264506f6f6c3a2063616c6c6572206973206e6f74207460008201527f6865206f70657261746f72000000000000000000000000000000000000000000602082015250565b600061215a602b836120ed565b9150612165826120fe565b604082019050919050565b600060208201905081810360008301526121898161214d565b9050919050565b7f4e487b7100000000000000000000000000000000000000000000000000000000600052603260045260246000fd5b7f77697468647261773a206e6f7420676f6f640000000000000000000000000000600082015250565b60006121f56012836120ed565b9150612200826121bf565b602082019050919050565b60006020820190508181036000830152612224816121e8565b9050919050565b60008151905061223a81611d2a565b92915050565b60006020828403121561225657612255611d25565b5b60006122648482850161222b565b91505092915050565b7f4e487b7100000000000000000000000000000000000000000000000000000000600052601160045260246000fd5b60006122a782611cf1565b91506122b283611cf1565b9250827fffffffffffffffffffffffffffffffffffffffffffffffffffffffffffffffff038211156122e7576122e661226d565b5b828201905092915050565b7f706574616c000000000000000000000000000000000000000000000000000000600082015250565b60006123286005836120ed565b9150612333826122f2565b602082019050919050565b600060208201905081810360008301526123578161231b565b9050919050565b7f706f6f6c2e746f6b656e00000000000000000000000000000000000000000000600082015250565b6000612394600a836120ed565b915061239f8261235e565b602082019050919050565b600060208201905081810360008301526123c381612387565b9050919050565b60006123d582611cf1565b91507fffffffffffffffffffffffffffffffffffffffffffffffffffffffffffffffff8214156124085761240761226d565b5b600182019050919050565b600061241e82611cf1565b915061242983611cf1565b92508282101561243c5761243b61226d565b5b828203905092915050565b600061245282611cf1565b915061245d83611cf1565b9250817fffffffffffffffffffffffffffffffffffffffffffffffffffffffffffffffff04831182151516156124965761249561226d565b5b828202905092915050565b7f4e487b7100000000000000000000000000000000000000000000000000000000600052601260045260246000fd5b60006124db82611cf1565b91506124e683611cf1565b9250826124f6576124f56124a1565b5b828204905092915050565b60006040820190506125166000830185611f9a565b6125236020830184611cfb565b9392505050565b7f506574616c526577617264506f6f6c3a206578697374696e6720706f6f6c3f00600082015250565b6000612560601f836120ed565b915061256b8261252a565b602082019050919050565b6000602082019050818103600083015261258f81612553565b9050919050565b60006060820190506125ab6000830186611f9a565b6125b86020830185611f9a565b6125c56040830184611cfb565b949350505050565b6000815190506125dc8161202d565b92915050565b6000602082840312156125f8576125f7611d25565b5b6000612606848285016125cd565b91505092915050565b7f5361666545524332303a204552433230206f7065726174696f6e20646964206e60008201527f6f74207375636365656400000000000000000000000000000000000000000000602082015250565b600061266b602a836120ed565b91506126768261260f565b604082019050919050565b6000602082019050818103600083015261269a8161265e565b9050919050565b7f416464726573733a20696e73756666696369656e742062616c616e636520666f60008201527f722063616c6c0000000000000000000000000000000000000000000000000000602082015250565b60006126fd6026836120ed565b9150612708826126a1565b604082019050919050565b6000602082019050818103600083015261272c816126f0565b9050919050565b7f416464726573733a2063616c6c20746f206e6f6e2d636f6e7472616374000000600082015250565b6000612769601d836120ed565b915061277482612733565b602082019050919050565b600060208201905081810360008301526127988161275c565b9050919050565b600081519050919050565b600081905092915050565b60005b838110156127d35780820151818401526020810190506127b8565b838111156127e2576000848401525b50505050565b60006127f38261279f565b6127fd81856127aa565b935061280d8185602086016127b5565b80840191505092915050565b600061282582846127e8565b915081905092915050565b600081519050919050565b6000601f19601f8301169050919050565b600061285782612830565b61286181856120ed565b93506128718185602086016127b5565b61287a8161283b565b840191505092915050565b6000602082019050818103600083015261289f818461284c565b90509291505056fea26469706673582212206c6dded9613ffc77fc183b9a57757a46dcd3ecf65db779a01e20fcc796ceca1864736f6c63430008090033",
  "linkReferences": {},
  "deployedLinkReferences": {}
}