{
    "_format": "hh-sol-artifact-1",
    "contractName": "Petal",
    "sourceName": "contracts/Petal.sol",
    "abi": [
        {
            "inputs": [
                {
                    "internalType": "address",
                    "name": "_devFund",
                    "type": "address"
                }
            ],
            "stateMutability": "nonpayable",
            "type": "constructor"
        },
        {
            "anonymous": false,
            "inputs": [
                {
                    "indexed": true,
                    "internalType": "address",
                    "name": "owner",
                    "type": "address"
                },
                {
                    "indexed": true,
                    "internalType": "address",
                    "name": "spender",
                    "type": "address"
                },
                {
                    "indexed": false,
                    "internalType": "uint256",
                    "name": "value",
                    "type": "uint256"
                }
            ],
            "name": "Approval",
            "type": "event"
        },
        {
            "anonymous": false,
            "inputs": [
                {
                    "indexed": true,
                    "internalType": "address",
                    "name": "previousOperator",
                    "type": "address"
                },
                {
                    "indexed": true,
                    "internalType": "address",
                    "name": "newOperator",
                    "type": "address"
                }
            ],
            "name": "OperatorTransferred",
            "type": "event"
        },
        {
            "anonymous": false,
            "inputs": [
                {
                    "indexed": true,
                    "internalType": "address",
                    "name": "previousOwner",
                    "type": "address"
                },
                {
                    "indexed": true,
                    "internalType": "address",
                    "name": "newOwner",
                    "type": "address"
                }
            ],
            "name": "OwnershipTransferred",
            "type": "event"
        },
        {
            "anonymous": false,
            "inputs": [
                {
                    "indexed": true,
                    "internalType": "address",
                    "name": "from",
                    "type": "address"
                },
                {
                    "indexed": true,
                    "internalType": "address",
                    "name": "to",
                    "type": "address"
                },
                {
                    "indexed": false,
                    "internalType": "uint256",
                    "name": "value",
                    "type": "uint256"
                }
            ],
            "name": "Transfer",
            "type": "event"
        },
        {
            "inputs": [],
            "name": "DEV_FUND_POOL_ALLOCATION",
            "outputs": [
                {
                    "internalType": "uint256",
                    "name": "",
                    "type": "uint256"
                }
            ],
            "stateMutability": "view",
            "type": "function"
        },
        {
            "inputs": [],
            "name": "FARMING_POOL_REWARD_ALLOCATION",
            "outputs": [
                {
                    "internalType": "uint256",
                    "name": "",
                    "type": "uint256"
                }
            ],
            "stateMutability": "view",
            "type": "function"
        },
        {
            "inputs": [],
            "name": "VESTING_DURATION",
            "outputs": [
                {
                    "internalType": "uint256",
                    "name": "",
                    "type": "uint256"
                }
            ],
            "stateMutability": "view",
            "type": "function"
        },
        {
            "inputs": [
                {
                    "internalType": "address",
                    "name": "owner",
                    "type": "address"
                },
                {
                    "internalType": "address",
                    "name": "spender",
                    "type": "address"
                }
            ],
            "name": "allowance",
            "outputs": [
                {
                    "internalType": "uint256",
                    "name": "",
                    "type": "uint256"
                }
            ],
            "stateMutability": "view",
            "type": "function"
        },
        {
            "inputs": [
                {
                    "internalType": "address",
                    "name": "spender",
                    "type": "address"
                },
                {
                    "internalType": "uint256",
                    "name": "amount",
                    "type": "uint256"
                }
            ],
            "name": "approve",
            "outputs": [
                {
                    "internalType": "bool",
                    "name": "",
                    "type": "bool"
                }
            ],
            "stateMutability": "nonpayable",
            "type": "function"
        },
        {
            "inputs": [
                {
                    "internalType": "address",
                    "name": "account",
                    "type": "address"
                }
            ],
            "name": "balanceOf",
            "outputs": [
                {
                    "internalType": "uint256",
                    "name": "",
                    "type": "uint256"
                }
            ],
            "stateMutability": "view",
            "type": "function"
        },
        {
            "inputs": [
                {
                    "internalType": "uint256",
                    "name": "amount",
                    "type": "uint256"
                }
            ],
            "name": "burn",
            "outputs": [],
            "stateMutability": "nonpayable",
            "type": "function"
        },
        {
            "inputs": [
                {
                    "internalType": "address",
                    "name": "account",
                    "type": "address"
                },
                {
                    "internalType": "uint256",
                    "name": "amount",
                    "type": "uint256"
                }
            ],
            "name": "burnFrom",
            "outputs": [],
            "stateMutability": "nonpayable",
            "type": "function"
        },
        {
            "inputs": [],
            "name": "claimRewards",
            "outputs": [],
            "stateMutability": "nonpayable",
            "type": "function"
        },
        {
            "inputs": [],
            "name": "decimals",
            "outputs": [
                {
                    "internalType": "uint8",
                    "name": "",
                    "type": "uint8"
                }
            ],
            "stateMutability": "view",
            "type": "function"
        },
        {
            "inputs": [
                {
                    "internalType": "address",
                    "name": "spender",
                    "type": "address"
                },
                {
                    "internalType": "uint256",
                    "name": "subtractedValue",
                    "type": "uint256"
                }
            ],
            "name": "decreaseAllowance",
            "outputs": [
                {
                    "internalType": "bool",
                    "name": "",
                    "type": "bool"
                }
            ],
            "stateMutability": "nonpayable",
            "type": "function"
        },
        {
            "inputs": [],
            "name": "devFund",
            "outputs": [
                {
                    "internalType": "address",
                    "name": "",
                    "type": "address"
                }
            ],
            "stateMutability": "view",
            "type": "function"
        },
        {
            "inputs": [],
            "name": "devFundLastClaimed",
            "outputs": [
                {
                    "internalType": "uint256",
                    "name": "",
                    "type": "uint256"
                }
            ],
            "stateMutability": "view",
            "type": "function"
        },
        {
            "inputs": [],
            "name": "devFundRewardRate",
            "outputs": [
                {
                    "internalType": "uint256",
                    "name": "",
                    "type": "uint256"
                }
            ],
            "stateMutability": "view",
            "type": "function"
        },
        {
            "inputs": [
                {
                    "internalType": "address",
                    "name": "_farmingIncentiveFund",
                    "type": "address"
                }
            ],
            "name": "distributeReward",
            "outputs": [],
            "stateMutability": "nonpayable",
            "type": "function"
        },
        {
            "inputs": [],
            "name": "endTime",
            "outputs": [
                {
                    "internalType": "uint256",
                    "name": "",
                    "type": "uint256"
                }
            ],
            "stateMutability": "view",
            "type": "function"
        },
        {
            "inputs": [
                {
                    "internalType": "contract IERC20",
                    "name": "_token",
                    "type": "address"
                },
                {
                    "internalType": "uint256",
                    "name": "_amount",
                    "type": "uint256"
                },
                {
                    "internalType": "address",
                    "name": "_to",
                    "type": "address"
                }
            ],
            "name": "governanceRecoverUnsupported",
            "outputs": [],
            "stateMutability": "nonpayable",
            "type": "function"
        },
        {
            "inputs": [
                {
                    "internalType": "address",
                    "name": "spender",
                    "type": "address"
                },
                {
                    "internalType": "uint256",
                    "name": "addedValue",
                    "type": "uint256"
                }
            ],
            "name": "increaseAllowance",
            "outputs": [
                {
                    "internalType": "bool",
                    "name": "",
                    "type": "bool"
                }
            ],
            "stateMutability": "nonpayable",
            "type": "function"
        },
        {
            "inputs": [],
            "name": "isOperator",
            "outputs": [
                {
                    "internalType": "bool",
                    "name": "",
                    "type": "bool"
                }
            ],
            "stateMutability": "view",
            "type": "function"
        },
        {
            "inputs": [],
            "name": "name",
            "outputs": [
                {
                    "internalType": "string",
                    "name": "",
                    "type": "string"
                }
            ],
            "stateMutability": "view",
            "type": "function"
        },
        {
            "inputs": [],
            "name": "operator",
            "outputs": [
                {
                    "internalType": "address",
                    "name": "",
                    "type": "address"
                }
            ],
            "stateMutability": "view",
            "type": "function"
        },
        {
            "inputs": [],
            "name": "owner",
            "outputs": [
                {
                    "internalType": "address",
                    "name": "",
                    "type": "address"
                }
            ],
            "stateMutability": "view",
            "type": "function"
        },
        {
            "inputs": [],
            "name": "renounceOwnership",
            "outputs": [],
            "stateMutability": "nonpayable",
            "type": "function"
        },
        {
            "inputs": [],
            "name": "rewardPoolDistributed",
            "outputs": [
                {
                    "internalType": "bool",
                    "name": "",
                    "type": "bool"
                }
            ],
            "stateMutability": "view",
            "type": "function"
        },
        {
            "inputs": [
                {
                    "internalType": "address",
                    "name": "_devFund",
                    "type": "address"
                }
            ],
            "name": "setDevFund",
            "outputs": [],
            "stateMutability": "nonpayable",
            "type": "function"
        },
        {
            "inputs": [],
            "name": "startTime",
            "outputs": [
                {
                    "internalType": "uint256",
                    "name": "",
                    "type": "uint256"
                }
            ],
            "stateMutability": "view",
            "type": "function"
        },
        {
            "inputs": [],
            "name": "symbol",
            "outputs": [
                {
                    "internalType": "string",
                    "name": "",
                    "type": "string"
                }
            ],
            "stateMutability": "view",
            "type": "function"
        },
        {
            "inputs": [],
            "name": "totalSupply",
            "outputs": [
                {
                    "internalType": "uint256",
                    "name": "",
                    "type": "uint256"
                }
            ],
            "stateMutability": "view",
            "type": "function"
        },
        {
            "inputs": [
                {
                    "internalType": "address",
                    "name": "recipient",
                    "type": "address"
                },
                {
                    "internalType": "uint256",
                    "name": "amount",
                    "type": "uint256"
                }
            ],
            "name": "transfer",
            "outputs": [
                {
                    "internalType": "bool",
                    "name": "",
                    "type": "bool"
                }
            ],
            "stateMutability": "nonpayable",
            "type": "function"
        },
        {
            "inputs": [
                {
                    "internalType": "address",
                    "name": "sender",
                    "type": "address"
                },
                {
                    "internalType": "address",
                    "name": "recipient",
                    "type": "address"
                },
                {
                    "internalType": "uint256",
                    "name": "amount",
                    "type": "uint256"
                }
            ],
            "name": "transferFrom",
            "outputs": [
                {
                    "internalType": "bool",
                    "name": "",
                    "type": "bool"
                }
            ],
            "stateMutability": "nonpayable",
            "type": "function"
        },
        {
            "inputs": [
                {
                    "internalType": "address",
                    "name": "newOperator_",
                    "type": "address"
                }
            ],
            "name": "transferOperator",
            "outputs": [],
            "stateMutability": "nonpayable",
            "type": "function"
        },
        {
            "inputs": [
                {
                    "internalType": "address",
                    "name": "newOwner",
                    "type": "address"
                }
            ],
            "name": "transferOwnership",
            "outputs": [],
            "stateMutability": "nonpayable",
            "type": "function"
        },
        {
            "inputs": [],
            "name": "unclaimedDevFund",
            "outputs": [
                {
                    "internalType": "uint256",
                    "name": "_pending",
                    "type": "uint256"
                }
            ],
            "stateMutability": "view",
            "type": "function"
        }
    ],
    "bytecode": "0x6080604052600c805460ff191690553480156200001b57600080fd5b5060405162001c6e38038062001c6e8339810160408190526200003e91620003d1565b604080518082018252600580825264141155105360da1b6020808401828152855180870190965292855284015281519192916200007e916003916200032b565b508051620000949060049060208401906200032b565b505050620000b1620000ab620001db60201b60201c565b620001df565b600680546001600160a01b031916339081179091556040516000907f74da04524d50c64947f5dd5381ef1a4dca5cba8ed1d816243f9e48aa0b5617ed908290a36200010533678ac7230489e8000062000231565b6200011342611c20620003fc565b600781905562000128906276a70090620003fc565b600855600754600b556200015669010f0cf064dd592000006276a70062000316602090811b62000d5517901c565b6009556001600160a01b038116620001b55760405162461bcd60e51b815260206004820152601360248201527f416464726573732063616e6e6f7420626520300000000000000000000000000060448201526064015b60405180910390fd5b600a80546001600160a01b0319166001600160a01b039290921691909117905562000483565b3390565b600580546001600160a01b038381166001600160a01b0319831681179093556040519116919082907f8be0079c531659141344cd1fd0a4f28419497f9722a3daafe3b4186f6b6457e090600090a35050565b6001600160a01b038216620002895760405162461bcd60e51b815260206004820152601f60248201527f45524332303a206d696e7420746f20746865207a65726f2061646472657373006044820152606401620001ac565b80600260008282546200029d9190620003fc565b90915550506001600160a01b03821660009081526020819052604081208054839290620002cc908490620003fc565b90915550506040518181526001600160a01b038316906000907fddf252ad1be2c89b69c2b068fc378daa952ba7f163c4a11628f55a4df523b3ef9060200160405180910390a35050565b600062000324828462000423565b9392505050565b828054620003399062000446565b90600052602060002090601f0160209004810192826200035d5760008555620003a8565b82601f106200037857805160ff1916838001178555620003a8565b82800160010185558215620003a8579182015b82811115620003a85782518255916020019190600101906200038b565b50620003b6929150620003ba565b5090565b5b80821115620003b65760008155600101620003bb565b600060208284031215620003e457600080fd5b81516001600160a01b03811681146200032457600080fd5b600082198211156200041e57634e487b7160e01b600052601160045260246000fd5b500190565b6000826200044157634e487b7160e01b600052601260045260246000fd5b500490565b600181811c908216806200045b57607f821691505b602082108114156200047d57634e487b7160e01b600052602260045260246000fd5b50919050565b6117db80620004936000396000f3fe608060405234801561001057600080fd5b506004361061020b5760003560e01c80634cfc4d301161012a5780638da5cb5b116100bd578063a457c2d71161008c578063ae4db91911610071578063ae4db91914610425578063dd62ed3e14610438578063f2fde38b1461047157600080fd5b8063a457c2d7146103ff578063a9059cbb1461041257600080fd5b80638da5cb5b146103c857806395d89b41146103d95780639662676c146103e1578063a06160fd146103ee57600080fd5b806370a08231116100f957806370a082311461037b578063715018a6146103a457806378e97925146103ac57806379cc6790146103b557600080fd5b80634cfc4d301461033c5780634f337dd51461034657806354575af414610357578063570ca7351461036a57600080fd5b80632e3367ce116101a2578063395093511161017157806339509351146102d857806342966c68146102eb5780634390d2a8146102fe5780634456eda21461032957600080fd5b80632e3367ce146102af578063313ce567146102b85780633197cbb6146102c7578063372500ab146102d057600080fd5b806318160ddd116101de57806318160ddd1461027957806323b872dd1461028157806329605e77146102945780632c07a624146102a757600080fd5b8063040173151461021057806306fdde031461022c578063092193ab14610241578063095ea7b314610256575b600080fd5b610219600b5481565b6040519081526020015b60405180910390f35b610234610484565b60405161022391906114b3565b61025461024f36600461153b565b610516565b005b610269610264366004611558565b610685565b6040519015158152602001610223565b600254610219565b61026961028f366004611584565b61069b565b6102546102a236600461153b565b61075a565b6102196107bd565b61021960095481565b60405160128152602001610223565b61021960085481565b610254610809565b6102696102e6366004611558565b610851565b6102546102f93660046115c5565b61088d565b600a54610311906001600160a01b031681565b6040516001600160a01b039091168152602001610223565b6006546001600160a01b03163314610269565b6102196276a70081565b61021969010f0cf064dd5920000081565b6102546103653660046115de565b610896565b6006546001600160a01b0316610311565b61021961038936600461153b565b6001600160a01b031660009081526020819052604090205490565b6102546109b6565b61021960075481565b6102546103c3366004611558565b610a1c565b6005546001600160a01b0316610311565b610234610abb565b600c546102699060ff1681565b610219690dc3a8351f3d86a0000081565b61026961040d366004611558565b610aca565b610269610420366004611558565b610b7b565b61025461043336600461153b565b610b88565b610219610446366004611620565b6001600160a01b03918216600090815260016020908152604080832093909416825291909152205490565b61025461047f36600461153b565b610c76565b60606003805461049390611659565b80601f01602080910402602001604051908101604052809291908181526020018280546104bf90611659565b801561050c5780601f106104e15761010080835404028352916020019161050c565b820191906000526020600020905b8154815290600101906020018083116104ef57829003601f168201915b5050505050905090565b6006546001600160a01b0316331461059a5760405162461bcd60e51b8152602060048201526024808201527f6f70657261746f723a2063616c6c6572206973206e6f7420746865206f70657260448201527f61746f720000000000000000000000000000000000000000000000000000000060648201526084015b60405180910390fd5b600c5460ff16156105ed5760405162461bcd60e51b815260206004820152601860248201527f6f6e6c792063616e2064697374726962757465206f6e636500000000000000006044820152606401610591565b6001600160a01b0381166106435760405162461bcd60e51b815260206004820152601660248201527f215f6661726d696e67496e63656e7469766546756e64000000000000000000006044820152606401610591565b600c80547fffffffffffffffffffffffffffffffffffffffffffffffffffffffffffffff0016600117905561068281690dc3a8351f3d86a00000610d68565b50565b6000610692338484610e47565b50600192915050565b60006106a8848484610f9f565b6001600160a01b0384166000908152600160209081526040808320338452909152902054828110156107425760405162461bcd60e51b815260206004820152602860248201527f45524332303a207472616e7366657220616d6f756e742065786365656473206160448201527f6c6c6f77616e63650000000000000000000000000000000000000000000000006064820152608401610591565b61074f8533858403610e47565b506001949350505050565b6005546001600160a01b031633146107b45760405162461bcd60e51b815260206004820181905260248201527f4f776e61626c653a2063616c6c6572206973206e6f7420746865206f776e65726044820152606401610591565b610682816111b6565b60085460009042908111156107d157506008545b80600b54106107e257600091505090565b6108036009546107fd600b54846112a290919063ffffffff16565b906112ae565b91505090565b60006108136107bd565b905060008111801561082f5750600a546001600160a01b031615155b1561068257600a5461084a906001600160a01b031682610d68565b42600b5550565b3360008181526001602090815260408083206001600160a01b038716845290915281205490916106929185906108889086906116dc565b610e47565b610682816112ba565b6006546001600160a01b031633146109155760405162461bcd60e51b8152602060048201526024808201527f6f70657261746f723a2063616c6c6572206973206e6f7420746865206f70657260448201527f61746f72000000000000000000000000000000000000000000000000000000006064820152608401610591565b6040517fa9059cbb0000000000000000000000000000000000000000000000000000000081526001600160a01b0382811660048301526024820184905284169063a9059cbb90604401602060405180830381600087803b15801561097857600080fd5b505af115801561098c573d6000803e3d6000fd5b505050506040513d601f19601f820116820180604052508101906109b091906116f4565b50505050565b6005546001600160a01b03163314610a105760405162461bcd60e51b815260206004820181905260248201527f4f776e61626c653a2063616c6c6572206973206e6f7420746865206f776e65726044820152606401610591565b610a1a60006112c4565b565b6000610a288333610446565b905081811015610a9f5760405162461bcd60e51b8152602060048201526024808201527f45524332303a206275726e20616d6f756e74206578636565647320616c6c6f7760448201527f616e6365000000000000000000000000000000000000000000000000000000006064820152608401610591565b610aac8333848403610e47565b610ab6838361132e565b505050565b60606004805461049390611659565b3360009081526001602090815260408083206001600160a01b038616845290915281205482811015610b645760405162461bcd60e51b815260206004820152602560248201527f45524332303a2064656372656173656420616c6c6f77616e63652062656c6f7760448201527f207a65726f0000000000000000000000000000000000000000000000000000006064820152608401610591565b610b713385858403610e47565b5060019392505050565b6000610692338484610f9f565b600a546001600160a01b03163314610be45760405162461bcd60e51b81526004016105919060208082526004908201527f2164657600000000000000000000000000000000000000000000000000000000604082015260600190565b6001600160a01b038116610c3c5760405162461bcd60e51b81526004016105919060208082526004908201527f7a65726f00000000000000000000000000000000000000000000000000000000604082015260600190565b600a80547fffffffffffffffffffffffff0000000000000000000000000000000000000000166001600160a01b0392909216919091179055565b6005546001600160a01b03163314610cd05760405162461bcd60e51b815260206004820181905260248201527f4f776e61626c653a2063616c6c6572206973206e6f7420746865206f776e65726044820152606401610591565b6001600160a01b038116610d4c5760405162461bcd60e51b815260206004820152602660248201527f4f776e61626c653a206e6577206f776e657220697320746865207a65726f206160448201527f64647265737300000000000000000000000000000000000000000000000000006064820152608401610591565b610682816112c4565b6000610d618284611716565b9392505050565b6001600160a01b038216610dbe5760405162461bcd60e51b815260206004820152601f60248201527f45524332303a206d696e7420746f20746865207a65726f2061646472657373006044820152606401610591565b8060026000828254610dd091906116dc565b90915550506001600160a01b03821660009081526020819052604081208054839290610dfd9084906116dc565b90915550506040518181526001600160a01b038316906000907fddf252ad1be2c89b69c2b068fc378daa952ba7f163c4a11628f55a4df523b3ef9060200160405180910390a35050565b6001600160a01b038316610ec25760405162461bcd60e51b8152602060048201526024808201527f45524332303a20617070726f76652066726f6d20746865207a65726f2061646460448201527f72657373000000000000000000000000000000000000000000000000000000006064820152608401610591565b6001600160a01b038216610f3e5760405162461bcd60e51b815260206004820152602260248201527f45524332303a20617070726f766520746f20746865207a65726f20616464726560448201527f73730000000000000000000000000000000000000000000000000000000000006064820152608401610591565b6001600160a01b0383811660008181526001602090815260408083209487168084529482529182902085905590518481527f8c5be1e5ebec7d5bd14f71427d1e84f3dd0314c0f7b2291e5b200ac8c7c3b925910160405180910390a3505050565b6001600160a01b03831661101b5760405162461bcd60e51b815260206004820152602560248201527f45524332303a207472616e736665722066726f6d20746865207a65726f20616460448201527f64726573730000000000000000000000000000000000000000000000000000006064820152608401610591565b6001600160a01b0382166110975760405162461bcd60e51b815260206004820152602360248201527f45524332303a207472616e7366657220746f20746865207a65726f206164647260448201527f65737300000000000000000000000000000000000000000000000000000000006064820152608401610591565b6001600160a01b038316600090815260208190526040902054818110156111265760405162461bcd60e51b815260206004820152602660248201527f45524332303a207472616e7366657220616d6f756e742065786365656473206260448201527f616c616e636500000000000000000000000000000000000000000000000000006064820152608401610591565b6001600160a01b0380851660009081526020819052604080822085850390559185168152908120805484929061115d9084906116dc565b92505081905550826001600160a01b0316846001600160a01b03167fddf252ad1be2c89b69c2b068fc378daa952ba7f163c4a11628f55a4df523b3ef846040516111a991815260200190565b60405180910390a36109b0565b6001600160a01b0381166112325760405162461bcd60e51b815260206004820152602d60248201527f6f70657261746f723a207a65726f206164647265737320676976656e20666f7260448201527f206e6577206f70657261746f72000000000000000000000000000000000000006064820152608401610591565b6040516001600160a01b038216906000907f74da04524d50c64947f5dd5381ef1a4dca5cba8ed1d816243f9e48aa0b5617ed908290a3600680547fffffffffffffffffffffffff0000000000000000000000000000000000000000166001600160a01b0392909216919091179055565b6000610d618284611751565b6000610d618284611768565b610682338261132e565b600580546001600160a01b038381167fffffffffffffffffffffffff0000000000000000000000000000000000000000831681179093556040519116919082907f8be0079c531659141344cd1fd0a4f28419497f9722a3daafe3b4186f6b6457e090600090a35050565b6001600160a01b0382166113aa5760405162461bcd60e51b815260206004820152602160248201527f45524332303a206275726e2066726f6d20746865207a65726f2061646472657360448201527f73000000000000000000000000000000000000000000000000000000000000006064820152608401610591565b6001600160a01b038216600090815260208190526040902054818110156114395760405162461bcd60e51b815260206004820152602260248201527f45524332303a206275726e20616d6f756e7420657863656564732062616c616e60448201527f63650000000000000000000000000000000000000000000000000000000000006064820152608401610591565b6001600160a01b0383166000908152602081905260408120838303905560028054849290611468908490611751565b90915550506040518281526000906001600160a01b038516907fddf252ad1be2c89b69c2b068fc378daa952ba7f163c4a11628f55a4df523b3ef9060200160405180910390a3505050565b600060208083528351808285015260005b818110156114e0578581018301518582016040015282016114c4565b818111156114f2576000604083870101525b50601f017fffffffffffffffffffffffffffffffffffffffffffffffffffffffffffffffe016929092016040019392505050565b6001600160a01b038116811461068257600080fd5b60006020828403121561154d57600080fd5b8135610d6181611526565b6000806040838503121561156b57600080fd5b823561157681611526565b946020939093013593505050565b60008060006060848603121561159957600080fd5b83356115a481611526565b925060208401356115b481611526565b929592945050506040919091013590565b6000602082840312156115d757600080fd5b5035919050565b6000806000606084860312156115f357600080fd5b83356115fe81611526565b925060208401359150604084013561161581611526565b809150509250925092565b6000806040838503121561163357600080fd5b823561163e81611526565b9150602083013561164e81611526565b809150509250929050565b600181811c9082168061166d57607f821691505b602082108114156116a7577f4e487b7100000000000000000000000000000000000000000000000000000000600052602260045260246000fd5b50919050565b7f4e487b7100000000000000000000000000000000000000000000000000000000600052601160045260246000fd5b600082198211156116ef576116ef6116ad565b500190565b60006020828403121561170657600080fd5b81518015158114610d6157600080fd5b60008261174c577f4e487b7100000000000000000000000000000000000000000000000000000000600052601260045260246000fd5b500490565b600082821015611763576117636116ad565b500390565b6000817fffffffffffffffffffffffffffffffffffffffffffffffffffffffffffffffff04831182151516156117a0576117a06116ad565b50029056fea2646970667358221220acbb8c5698b4c8f0fb2695dadf72a6ed3d609a550e6c2248e30314151419e36964736f6c63430008080033",
    "linkReferences": {},
    "deployedLinkReferences": {}
}