{
  "_format": "hh-sol-artifact-1",
  "contractName": "StrategyCommonChefLP",
  "sourceName": "contracts/autocompounder/StrategyCommonChefLP.sol",
  "abi": [
    {
      "inputs": [
        {
          "internalType": "address",
          "name": "_want",
          "type": "address"
        },
        {
          "internalType": "uint256",
          "name": "_poolId",
          "type": "uint256"
        },
        {
          "internalType": "address",
          "name": "_chef",
          "type": "address"
        },
        {
          "internalType": "address",
          "name": "_vault",
          "type": "address"
        },
        {
          "internalType": "address",
          "name": "_unirouter",
          "type": "address"
        },
        {
          "internalType": "address",
          "name": "_keeper",
          "type": "address"
        },
        {
          "internalType": "address",
          "name": "_strategist",
          "type": "address"
        },
        {
          "internalType": "address",
          "name": "_beefyFeeRecipient",
          "type": "address"
        },
        {
          "internalType": "address[]",
          "name": "_outputToNativeRoute",
          "type": "address[]"
        },
        {
          "internalType": "address[]",
          "name": "_outputToLp0Route",
          "type": "address[]"
        },
        {
          "internalType": "address[]",
          "name": "_outputToLp1Route",
          "type": "address[]"
        }
      ],
      "stateMutability": "nonpayable",
      "type": "constructor"
    },
    {
      "anonymous": false,
      "inputs": [
        {
          "indexed": false,
          "internalType": "uint256",
          "name": "tvl",
          "type": "uint256"
        }
      ],
      "name": "Deposit",
      "type": "event"
    },
    {
      "anonymous": false,
      "inputs": [
        {
          "indexed": true,
          "internalType": "address",
          "name": "previousOwner",
          "type": "address"
        },
        {
          "indexed": true,
          "internalType": "address",
          "name": "newOwner",
          "type": "address"
        }
      ],
      "name": "OwnershipTransferred",
      "type": "event"
    },
    {
      "anonymous": false,
      "inputs": [
        {
          "indexed": false,
          "internalType": "address",
          "name": "account",
          "type": "address"
        }
      ],
      "name": "Paused",
      "type": "event"
    },
    {
      "anonymous": false,
      "inputs": [
        {
          "indexed": true,
          "internalType": "address",
          "name": "harvester",
          "type": "address"
        },
        {
          "indexed": false,
          "internalType": "uint256",
          "name": "wantHarvested",
          "type": "uint256"
        },
        {
          "indexed": false,
          "internalType": "uint256",
          "name": "tvl",
          "type": "uint256"
        }
      ],
      "name": "StratHarvest",
      "type": "event"
    },
    {
      "anonymous": false,
      "inputs": [
        {
          "indexed": false,
          "internalType": "address",
          "name": "account",
          "type": "address"
        }
      ],
      "name": "Unpaused",
      "type": "event"
    },
    {
      "anonymous": false,
      "inputs": [
        {
          "indexed": false,
          "internalType": "uint256",
          "name": "tvl",
          "type": "uint256"
        }
      ],
      "name": "Withdraw",
      "type": "event"
    },
    {
      "inputs": [],
      "name": "MAX_CALL_FEE",
      "outputs": [
        {
          "internalType": "uint256",
          "name": "",
          "type": "uint256"
        }
      ],
      "stateMutability": "view",
      "type": "function"
    },
    {
      "inputs": [],
      "name": "MAX_FEE",
      "outputs": [
        {
          "internalType": "uint256",
          "name": "",
          "type": "uint256"
        }
      ],
      "stateMutability": "view",
      "type": "function"
    },
    {
      "inputs": [],
      "name": "STRATEGIST_FEE",
      "outputs": [
        {
          "internalType": "uint256",
          "name": "",
          "type": "uint256"
        }
      ],
      "stateMutability": "view",
      "type": "function"
    },
    {
      "inputs": [],
      "name": "WITHDRAWAL_FEE_CAP",
      "outputs": [
        {
          "internalType": "uint256",
          "name": "",
          "type": "uint256"
        }
      ],
      "stateMutability": "view",
      "type": "function"
    },
    {
      "inputs": [],
      "name": "WITHDRAWAL_MAX",
      "outputs": [
        {
          "internalType": "uint256",
          "name": "",
          "type": "uint256"
        }
      ],
      "stateMutability": "view",
      "type": "function"
    },
    {
      "inputs": [],
      "name": "balanceOf",
      "outputs": [
        {
          "internalType": "uint256",
          "name": "",
          "type": "uint256"
        }
      ],
      "stateMutability": "view",
      "type": "function"
    },
    {
      "inputs": [],
      "name": "balanceOfPool",
      "outputs": [
        {
          "internalType": "uint256",
          "name": "",
          "type": "uint256"
        }
      ],
      "stateMutability": "view",
      "type": "function"
    },
    {
      "inputs": [],
      "name": "balanceOfWant",
      "outputs": [
        {
          "internalType": "uint256",
          "name": "",
          "type": "uint256"
        }
      ],
      "stateMutability": "view",
      "type": "function"
    },
    {
      "inputs": [],
      "name": "beefyFee",
      "outputs": [
        {
          "internalType": "uint256",
          "name": "",
          "type": "uint256"
        }
      ],
      "stateMutability": "view",
      "type": "function"
    },
    {
      "inputs": [],
      "name": "beefyFeeRecipient",
      "outputs": [
        {
          "internalType": "address",
          "name": "",
          "type": "address"
        }
      ],
      "stateMutability": "view",
      "type": "function"
    },
    {
      "inputs": [],
      "name": "beforeDeposit",
      "outputs": [],
      "stateMutability": "nonpayable",
      "type": "function"
    },
    {
      "inputs": [],
      "name": "callFee",
      "outputs": [
        {
          "internalType": "uint256",
          "name": "",
          "type": "uint256"
        }
      ],
      "stateMutability": "view",
      "type": "function"
    },
    {
      "inputs": [],
      "name": "callReward",
      "outputs": [
        {
          "internalType": "uint256",
          "name": "",
          "type": "uint256"
        }
      ],
      "stateMutability": "view",
      "type": "function"
    },
    {
      "inputs": [],
      "name": "chef",
      "outputs": [
        {
          "internalType": "address",
          "name": "",
          "type": "address"
        }
      ],
      "stateMutability": "view",
      "type": "function"
    },
    {
      "inputs": [],
      "name": "deposit",
      "outputs": [],
      "stateMutability": "nonpayable",
      "type": "function"
    },
    {
      "inputs": [],
      "name": "gasprice",
      "outputs": [
        {
          "internalType": "address",
          "name": "",
          "type": "address"
        }
      ],
      "stateMutability": "view",
      "type": "function"
    },
    {
      "inputs": [
        {
          "internalType": "address",
          "name": "callFeeRecipient",
          "type": "address"
        }
      ],
      "name": "harvest",
      "outputs": [],
      "stateMutability": "nonpayable",
      "type": "function"
    },
    {
      "inputs": [],
      "name": "harvest",
      "outputs": [],
      "stateMutability": "nonpayable",
      "type": "function"
    },
    {
      "inputs": [],
      "name": "harvestOnDeposit",
      "outputs": [
        {
          "internalType": "bool",
          "name": "",
          "type": "bool"
        }
      ],
      "stateMutability": "view",
      "type": "function"
    },
    {
      "inputs": [],
      "name": "keeper",
      "outputs": [
        {
          "internalType": "address",
          "name": "",
          "type": "address"
        }
      ],
      "stateMutability": "view",
      "type": "function"
    },
    {
      "inputs": [],
      "name": "lastHarvest",
      "outputs": [
        {
          "internalType": "uint256",
          "name": "",
          "type": "uint256"
        }
      ],
      "stateMutability": "view",
      "type": "function"
    },
    {
      "inputs": [],
      "name": "lpToken0",
      "outputs": [
        {
          "internalType": "address",
          "name": "",
          "type": "address"
        }
      ],
      "stateMutability": "view",
      "type": "function"
    },
    {
      "inputs": [],
      "name": "lpToken1",
      "outputs": [
        {
          "internalType": "address",
          "name": "",
          "type": "address"
        }
      ],
      "stateMutability": "view",
      "type": "function"
    },
    {
      "inputs": [],
      "name": "managerHarvest",
      "outputs": [],
      "stateMutability": "nonpayable",
      "type": "function"
    },
    {
      "inputs": [],
      "name": "native",
      "outputs": [
        {
          "internalType": "address",
          "name": "",
          "type": "address"
        }
      ],
      "stateMutability": "view",
      "type": "function"
    },
    {
      "inputs": [],
      "name": "output",
      "outputs": [
        {
          "internalType": "address",
          "name": "",
          "type": "address"
        }
      ],
      "stateMutability": "view",
      "type": "function"
    },
    {
      "inputs": [],
      "name": "outputToLp0",
      "outputs": [
        {
          "internalType": "address[]",
          "name": "",
          "type": "address[]"
        }
      ],
      "stateMutability": "view",
      "type": "function"
    },
    {
      "inputs": [
        {
          "internalType": "uint256",
          "name": "",
          "type": "uint256"
        }
      ],
      "name": "outputToLp0Route",
      "outputs": [
        {
          "internalType": "address",
          "name": "",
          "type": "address"
        }
      ],
      "stateMutability": "view",
      "type": "function"
    },
    {
      "inputs": [],
      "name": "outputToLp1",
      "outputs": [
        {
          "internalType": "address[]",
          "name": "",
          "type": "address[]"
        }
      ],
      "stateMutability": "view",
      "type": "function"
    },
    {
      "inputs": [
        {
          "internalType": "uint256",
          "name": "",
          "type": "uint256"
        }
      ],
      "name": "outputToLp1Route",
      "outputs": [
        {
          "internalType": "address",
          "name": "",
          "type": "address"
        }
      ],
      "stateMutability": "view",
      "type": "function"
    },
    {
      "inputs": [],
      "name": "outputToNative",
      "outputs": [
        {
          "internalType": "address[]",
          "name": "",
          "type": "address[]"
        }
      ],
      "stateMutability": "view",
      "type": "function"
    },
    {
      "inputs": [
        {
          "internalType": "uint256",
          "name": "",
          "type": "uint256"
        }
      ],
      "name": "outputToNativeRoute",
      "outputs": [
        {
          "internalType": "address",
          "name": "",
          "type": "address"
        }
      ],
      "stateMutability": "view",
      "type": "function"
    },
    {
      "inputs": [],
      "name": "owner",
      "outputs": [
        {
          "internalType": "address",
          "name": "",
          "type": "address"
        }
      ],
      "stateMutability": "view",
      "type": "function"
    },
    {
      "inputs": [],
      "name": "panic",
      "outputs": [],
      "stateMutability": "nonpayable",
      "type": "function"
    },
    {
      "inputs": [],
      "name": "pause",
      "outputs": [],
      "stateMutability": "nonpayable",
      "type": "function"
    },
    {
      "inputs": [],
      "name": "paused",
      "outputs": [
        {
          "internalType": "bool",
          "name": "",
          "type": "bool"
        }
      ],
      "stateMutability": "view",
      "type": "function"
    },
    {
      "inputs": [],
      "name": "pendingRewardsFunctionName",
      "outputs": [
        {
          "internalType": "string",
          "name": "",
          "type": "string"
        }
      ],
      "stateMutability": "view",
      "type": "function"
    },
    {
      "inputs": [],
      "name": "poolId",
      "outputs": [
        {
          "internalType": "uint256",
          "name": "",
          "type": "uint256"
        }
      ],
      "stateMutability": "view",
      "type": "function"
    },
    {
      "inputs": [],
      "name": "renounceOwnership",
      "outputs": [],
      "stateMutability": "nonpayable",
      "type": "function"
    },
    {
      "inputs": [],
      "name": "retireStrat",
      "outputs": [],
      "stateMutability": "nonpayable",
      "type": "function"
    },
    {
      "inputs": [],
      "name": "rewardsAvailable",
      "outputs": [
        {
          "internalType": "uint256",
          "name": "",
          "type": "uint256"
        }
      ],
      "stateMutability": "view",
      "type": "function"
    },
    {
      "inputs": [
        {
          "internalType": "address",
          "name": "_beefyFeeRecipient",
          "type": "address"
        }
      ],
      "name": "setBeefyFeeRecipient",
      "outputs": [],
      "stateMutability": "nonpayable",
      "type": "function"
    },
    {
      "inputs": [
        {
          "internalType": "uint256",
          "name": "_fee",
          "type": "uint256"
        }
      ],
      "name": "setCallFee",
      "outputs": [],
      "stateMutability": "nonpayable",
      "type": "function"
    },
    {
      "inputs": [
        {
          "internalType": "bool",
          "name": "_harvestOnDeposit",
          "type": "bool"
        }
      ],
      "name": "setHarvestOnDeposit",
      "outputs": [],
      "stateMutability": "nonpayable",
      "type": "function"
    },
    {
      "inputs": [
        {
          "internalType": "address",
          "name": "_keeper",
          "type": "address"
        }
      ],
      "name": "setKeeper",
      "outputs": [],
      "stateMutability": "nonpayable",
      "type": "function"
    },
    {
      "inputs": [
        {
          "internalType": "string",
          "name": "_pendingRewardsFunctionName",
          "type": "string"
        }
      ],
      "name": "setPendingRewardsFunctionName",
      "outputs": [],
      "stateMutability": "nonpayable",
      "type": "function"
    },
    {
      "inputs": [
        {
          "internalType": "bool",
          "name": "_shouldGasThrottle",
          "type": "bool"
        }
      ],
      "name": "setShouldGasThrottle",
      "outputs": [],
      "stateMutability": "nonpayable",
      "type": "function"
    },
    {
      "inputs": [
        {
          "internalType": "address",
          "name": "_strategist",
          "type": "address"
        }
      ],
      "name": "setStrategist",
      "outputs": [],
      "stateMutability": "nonpayable",
      "type": "function"
    },
    {
      "inputs": [
        {
          "internalType": "address",
          "name": "_unirouter",
          "type": "address"
        }
      ],
      "name": "setUnirouter",
      "outputs": [],
      "stateMutability": "nonpayable",
      "type": "function"
    },
    {
      "inputs": [
        {
          "internalType": "address",
          "name": "_vault",
          "type": "address"
        }
      ],
      "name": "setVault",
      "outputs": [],
      "stateMutability": "nonpayable",
      "type": "function"
    },
    {
      "inputs": [
        {
          "internalType": "uint256",
          "name": "_fee",
          "type": "uint256"
        }
      ],
      "name": "setWithdrawalFee",
      "outputs": [],
      "stateMutability": "nonpayable",
      "type": "function"
    },
    {
      "inputs": [],
      "name": "shouldGasThrottle",
      "outputs": [
        {
          "internalType": "bool",
          "name": "",
          "type": "bool"
        }
      ],
      "stateMutability": "view",
      "type": "function"
    },
    {
      "inputs": [],
      "name": "strategist",
      "outputs": [
        {
          "internalType": "address",
          "name": "",
          "type": "address"
        }
      ],
      "stateMutability": "view",
      "type": "function"
    },
    {
      "inputs": [
        {
          "internalType": "address",
          "name": "newOwner",
          "type": "address"
        }
      ],
      "name": "transferOwnership",
      "outputs": [],
      "stateMutability": "nonpayable",
      "type": "function"
    },
    {
      "inputs": [],
      "name": "unirouter",
      "outputs": [
        {
          "internalType": "address",
          "name": "",
          "type": "address"
        }
      ],
      "stateMutability": "view",
      "type": "function"
    },
    {
      "inputs": [],
      "name": "unpause",
      "outputs": [],
      "stateMutability": "nonpayable",
      "type": "function"
    },
    {
      "inputs": [],
      "name": "vault",
      "outputs": [
        {
          "internalType": "address",
          "name": "",
          "type": "address"
        }
      ],
      "stateMutability": "view",
      "type": "function"
    },
    {
      "inputs": [],
      "name": "want",
      "outputs": [
        {
          "internalType": "address",
          "name": "",
          "type": "address"
        }
      ],
      "stateMutability": "view",
      "type": "function"
    },
    {
      "inputs": [
        {
          "internalType": "uint256",
          "name": "_amount",
          "type": "uint256"
        }
      ],
      "name": "withdraw",
      "outputs": [],
      "stateMutability": "nonpayable",
      "type": "function"
    },
    {
      "inputs": [],
      "name": "withdrawalFee",
      "outputs": [
        {
          "internalType": "uint256",
          "name": "",
          "type": "uint256"
        }
      ],
      "stateMutability": "view",
      "type": "function"
    }
  ],
  "bytecode": "0x6080604052600a600655606f60075561030960085560098054600160ff1990911617610100600160a81b03191674a43509661141f254f54d9a326e8ec851a0b95307001790553480156200005257600080fd5b50604051620045af380380620045af83398181016040526101608110156200007957600080fd5b815160208301516040808501516060860151608087015160a088015160c089015160e08a01516101008b0180519751999b989a96999598949793969295919491939282019284640100000000821115620000d257600080fd5b908301906020820185811115620000e857600080fd5b82518660208202830111640100000000821117156200010657600080fd5b82525081516020918201928201910280838360005b83811015620001355781810151838201526020016200011b565b50505050905001604052602001805160405193929190846401000000008211156200015f57600080fd5b9083019060208201858111156200017557600080fd5b82518660208202830111640100000000821117156200019357600080fd5b82525081516020918201928201910280838360005b83811015620001c2578181015183820152602001620001a8565b5050505090500160405260200180516040519392919084640100000000821115620001ec57600080fd5b9083019060208201858111156200020257600080fd5b82518660208202830111640100000000821117156200022057600080fd5b82525081516020918201928201910280838360005b838110156200024f57818101518382015260200162000235565b505050509050016040525050508585888a876000620002736200071f60201b60201c565b600080546001600160a01b0319166001600160a01b0383169081178255604051929350917f8be0079c531659141344cd1fd0a4f28419497f9722a3daafe3b4186f6b6457e0908290a3506000805460ff60a01b19168155600180546001600160a01b03199081166001600160a01b0398891617909155600280548216968816969096179095556003805486169487169490941790935560048054851692861692909217909155600580548416918516919091179055600c805483168f851617905560108d9055600f8054909216928c1692909217905583518491906200035557fe5b6020026020010151600b60006101000a8154816001600160a01b0302191690836001600160a01b03160217905550826001845103815181106200039457fe5b602090810291909101810151600a80546001600160a01b0319166001600160a01b039092169190911790558351620003d3916014919086019062000c44565b50600c60009054906101000a90046001600160a01b03166001600160a01b0316630dfe16816040518163ffffffff1660e01b815260040160206040518083038186803b1580156200042357600080fd5b505afa15801562000438573d6000803e3d6000fd5b505050506040513d60208110156200044f57600080fd5b5051600d80546001600160a01b0319166001600160a01b03928316179055600b54835191169083906000906200048157fe5b60200260200101516001600160a01b031614620004e5576040805162461bcd60e51b815260206004820152601d60248201527f6f7574707574546f4c7030526f7574655b305d20213d206f7574707574000000604482015290519081900360640190fd5b600d5482516001600160a01b0390911690839060001981019081106200050757fe5b60200260200101516001600160a01b031614620005565760405162461bcd60e51b81526004018080602001828103825260228152602001806200452d6022913960400191505060405180910390fd5b81516200056b90601590602085019062000c44565b50600c60009054906101000a90046001600160a01b03166001600160a01b031663d21220a76040518163ffffffff1660e01b815260040160206040518083038186803b158015620005bb57600080fd5b505afa158015620005d0573d6000803e3d6000fd5b505050506040513d6020811015620005e757600080fd5b5051600e80546001600160a01b0319166001600160a01b03928316179055600b54825191169082906000906200061957fe5b60200260200101516001600160a01b0316146200067d576040805162461bcd60e51b815260206004820152601d60248201527f6f7574707574546f4c7031526f7574655b305d20213d206f7574707574000000604482015290519081900360640190fd5b600e5481516001600160a01b0390911690829060001981019081106200069f57fe5b60200260200101516001600160a01b031614620006ee5760405162461bcd60e51b8152600401808060200182810382526022815260200180620044e56022913960400191505060405180910390fd5b80516200070390601690602084019062000c44565b506200070e62000723565b505050505050505050505062000ccf565b3390565b600f54600c5462000750916001600160a01b03918216911660001962000831602090811b620021a417901c565b600354600b546200077d916001600160a01b03918216911660001962000831602090811b620021a417901c565b600354600d54620007a9916001600160a01b039182169116600062000831602090811b620021a417901c565b600354600d54620007d6916001600160a01b03918216911660001962000831602090811b620021a417901c565b600354600e5462000802916001600160a01b039182169116600062000831602090811b620021a417901c565b600354600e546200082f916001600160a01b03918216911660001962000831602090811b620021a417901c565b565b801580620008bb575060408051636eb1769f60e11b81523060048201526001600160a01b03848116602483015291519185169163dd62ed3e91604480820192602092909190829003018186803b1580156200088b57600080fd5b505afa158015620008a0573d6000803e3d6000fd5b505050506040513d6020811015620008b757600080fd5b5051155b620008f85760405162461bcd60e51b8152600401808060200182810382526036815260200180620045796036913960400191505060405180910390fd5b604080516001600160a01b038416602482015260448082018490528251808303909101815260649091019091526020810180516001600160e01b0390811663095ea7b360e01b17909152620009509185916200095516565b505050565b6060620009b1826040518060400160405280602081526020017f5361666545524332303a206c6f772d6c6576656c2063616c6c206661696c6564815250856001600160a01b031662000a1160201b620022b7179092919060201c565b8051909150156200095057808060200190516020811015620009d257600080fd5b5051620009505760405162461bcd60e51b815260040180806020018281038252602a8152602001806200454f602a913960400191505060405180910390fd5b606062000a22848460008562000a2c565b90505b9392505050565b60608247101562000a6f5760405162461bcd60e51b8152600401808060200182810382526026815260200180620045076026913960400191505060405180910390fd5b62000a7a8562000b94565b62000acc576040805162461bcd60e51b815260206004820152601d60248201527f416464726573733a2063616c6c20746f206e6f6e2d636f6e7472616374000000604482015290519081900360640190fd5b60006060866001600160a01b031685876040518082805190602001908083835b6020831062000b0d5780518252601f19909201916020918201910162000aec565b6001836020036101000a03801982511681845116808217855250505050505090500191505060006040518083038185875af1925050503d806000811462000b71576040519150601f19603f3d011682016040523d82523d6000602084013e62000b76565b606091505b50909250905062000b8982828662000b9a565b979650505050505050565b3b151590565b6060831562000bab57508162000a25565b82511562000bbc5782518084602001fd5b8160405162461bcd60e51b81526004018080602001828103825283818151815260200191508051906020019080838360005b8381101562000c0857818101518382015260200162000bee565b50505050905090810190601f16801562000c365780820380516001836020036101000a031916815260200191505b509250505060405180910390fd5b82805482825590600052602060002090810192821562000c9c579160200282015b8281111562000c9c57825182546001600160a01b0319166001600160a01b0390911617825560209092019160019091019062000c65565b5062000caa92915062000cae565b5090565b5b8082111562000caa5780546001600160a01b031916815560010162000caf565b6138068062000cdf6000396000f3fe608060405234801561001057600080fd5b50600436106103a45760003560e01c80638456cb59116101e9578063c1a3d44c1161010f578063e7a7250a116100ad578063fad4675e1161007c578063fad4675e1461082a578063fb61778714610849578063fbfa77cf14610851578063fd63a88714610859576103a4565b8063e7a7250a146107ec578063f1a392da146107f4578063f20eaeb8146107fc578063f2fde38b14610804576103a4565b8063d3102589116100e9578063d3102589146107ae578063d801d946146107b6578063d92f3d73146107be578063dfbdc437146107e4576103a4565b8063c1a3d44c14610778578063c7b9d53014610780578063d0e30db0146107a6576103a4565b806397fd323d11610187578063ac1e502511610156578063ac1e50251461072e578063aced16611461074b578063bc063e1a14610753578063be12a9781461075b576103a4565b806397fd323d146106f0578063989ef4e3146106f85780639f8b5da114610700578063a68833e514610708576103a4565b80638bc7e8c4116101c35780638bc7e8c4146106d05780638da5cb5b146106d85780638e145459146106e057806390321e1a146106e8576103a4565b80638456cb59146106b8578063877562b6146106c05780638912cb8b146106c8576103a4565b80633e0dc34e116102ce5780635c975abb1161026c578063715018a61161023b578063715018a61461067a578063722713f714610682578063748747e61461068a5780637d38ca65146106b0576103a4565b80635c975abb146106285780635ee167c0146106445780636817031b1461064c5780636ec232d314610672576103a4565b80634700d305116102a85780634700d305146105a257806354518b1a146105aa578063573fef0a146105b257806359e79138146105ba576103a4565b80633e0dc34e1461058a5780633f4ba83a146105925780634641257d1461059a576103a4565b80631fc8bc5d11610346578063277e5cfd11610315578063277e5cfd146104cb5780632ad5a53f146105485780632e1a7d4d1461055057806336c6cf211461056d576103a4565b80631fc8bc5d146104965780631fe4a6861461049e578063257ae0de146104a657806326465826146104ae576103a4565b80631158808611610382578063115880861461044857806311b0b42d1461046257806313e120b1146104865780631f1fcd511461048e576103a4565b80630587f785146103a95780630e5c011e146104015780630e8fbb5a14610429575b600080fd5b6103b1610876565b60408051602080825283518183015283519192839290830191858101910280838360005b838110156103ed5781810151838201526020016103d5565b505050509050019250505060405180910390f35b6104276004803603602081101561041757600080fd5b50356001600160a01b03166108d8565b005b6104276004803603602081101561043f57600080fd5b503515156109d3565b610450610a71565b60408051918252519081900360200190f35b61046a610af8565b604080516001600160a01b039092168252519081900360200190f35b6103b1610b07565b61046a610b67565b61046a610b76565b61046a610b85565b61046a610b94565b610427600480360360208110156104c457600080fd5b5035610ba3565b6104d3610c5d565b6040805160208082528351818301528351919283929083019185019080838360005b8381101561050d5781810151838201526020016104f5565b50505050905090810190601f16801561053a5780820380516001836020036101000a031916815260200191505b509250505060405180910390f35b610450610ceb565b6104276004803603602081101561056657600080fd5b5035610cf0565b61046a6004803603602081101561058357600080fd5b5035610f76565b610450610f9d565b610427610fa3565b61042761102a565b610427611122565b610450611201565b610427611207565b610427600480360360208110156105d057600080fd5b810190602081018135600160201b8111156105ea57600080fd5b8201836020820111156105fc57600080fd5b803590602001918460018302840111600160201b8311171561061d57600080fd5b50909250905061125a565b6106306112d8565b604080519115158252519081900360200190f35b61046a6112e8565b6104276004803603602081101561066257600080fd5b50356001600160a01b03166112f7565b61046a61137b565b61042761138f565b61045061143b565b610427600480360360208110156106a057600080fd5b50356001600160a01b031661145b565b6104506114ea565b6104276114ef565b61046a61156c565b61063061157b565b610450611584565b61046a61158a565b61046a611599565b6104506115a8565b6104506115ae565b6103b161177a565b6106306117da565b6104276004803603602081101561071e57600080fd5b50356001600160a01b03166117e3565b6104276004803603602081101561074457600080fd5b5035611867565b61046a611918565b610450611927565b61046a6004803603602081101561077157600080fd5b503561192d565b61045061193a565b6104276004803603602081101561079657600080fd5b50356001600160a01b03166119b6565b610427611a25565b610450611b9d565b610427611ba3565b610427600480360360208110156107d457600080fd5b50356001600160a01b0316611c10565b610450611c94565b610450611c99565b610450611e40565b61046a611e46565b6104276004803603602081101561081a57600080fd5b50356001600160a01b0316611e55565b6104276004803603602081101561084057600080fd5b50351515611f57565b610427611fd7565b61046a612188565b61046a6004803603602081101561086f57600080fd5b5035612197565b606060168054806020026020016040519081016040528092919081815260200182805480156108ce57602002820191906000526020600020905b81546001600160a01b031681526001909101906020018083116108b0575b5050505050905090565b60095460ff1680156108ff57506009546108ff9061010090046001600160a01b03166122d0565b156109c757600960019054906101000a90046001600160a01b03166001600160a01b0316633de39c116040518163ffffffff1660e01b8152600401602060405180830381600087803b15801561095457600080fd5b505af1158015610968573d6000803e3d6000fd5b505050506040513d602081101561097e57600080fd5b50513a11156109c7576040805162461bcd60e51b815260206004820152601060248201526f67617320697320746f6f20686967682160801b604482015290519081900360640190fd5b6109d0816122d6565b50565b6109db61158a565b6001600160a01b0316336001600160a01b03161480610a0457506001546001600160a01b031633145b610a40576040805162461bcd60e51b815260206004820152600860248201526710b6b0b730b3b2b960c11b604482015290519081900360640190fd5b6011805460ff1916821515179081905560ff1615610a6757610a626000611867565b6109d0565b6109d0600a611867565b600f54601054604080516393f1a40b60e01b81526004810192909252306024830152805160009384936001600160a01b03909116926393f1a40b92604480840193829003018186803b158015610ac657600080fd5b505afa158015610ada573d6000803e3d6000fd5b505050506040513d6040811015610af057600080fd5b505191505090565b600a546001600160a01b031681565b606060148054806020026020016040519081016040528092919081815260200182805480156108ce576020028201919060005260206000209081546001600160a01b031681526001909101906020018083116108b0575050505050905090565b600c546001600160a01b031681565b600f546001600160a01b031681565b6002546001600160a01b031681565b6003546001600160a01b031681565b610bab61158a565b6001600160a01b0316336001600160a01b03161480610bd457506001546001600160a01b031633145b610c10576040805162461bcd60e51b815260206004820152600860248201526710b6b0b730b3b2b960c11b604482015290519081900360640190fd5b606f811115610c4f576040805162461bcd60e51b815260206004808301919091526024820152630216361760e41b604482015290519081900360640190fd5b600781905561037803600855565b6013805460408051602060026001851615610100026000190190941693909304601f81018490048402820184019092528181529291830182828015610ce35780601f10610cb857610100808354040283529160200191610ce3565b820191906000526020600020905b815481529060010190602001808311610cc657829003601f168201915b505050505081565b606f81565b6004546001600160a01b03163314610d38576040805162461bcd60e51b8152602060048201526006602482015265085d985d5b1d60d21b604482015290519081900360640190fd5b600c54604080516370a0823160e01b815230600482015290516000926001600160a01b0316916370a08231916024808301926020929190829003018186803b158015610d8357600080fd5b505afa158015610d97573d6000803e3d6000fd5b505050506040513d6020811015610dad57600080fd5b5051905081811015610eaa57600f546010546001600160a01b039091169063441a3e7090610ddb8585612484565b6040518363ffffffff1660e01b81526004018083815260200182815260200192505050600060405180830381600087803b158015610e1857600080fd5b505af1158015610e2c573d6000803e3d6000fd5b5050600c54604080516370a0823160e01b815230600482015290516001600160a01b0390921693506370a082319250602480820192602092909190829003018186803b158015610e7b57600080fd5b505afa158015610e8f573d6000803e3d6000fd5b505050506040513d6020811015610ea557600080fd5b505190505b81811115610eb55750805b610ebd61158a565b6001600160a01b0316326001600160a01b031614158015610ee35750610ee16112d8565b155b15610f1b576000610f0b612710610f05600654856124e690919063ffffffff16565b9061253f565b9050610f178282612484565b9150505b600454600c54610f38916001600160a01b039182169116836125a6565b7f5b6b431d4476a211bb7d41c20d1aab9ae2321deee0d20be3d9fc9b1093fa6e3d610f6161143b565b60408051918252519081900360200190a15050565b60158181548110610f8357fe5b6000918252602090912001546001600160a01b0316905081565b60105481565b610fab61158a565b6001600160a01b0316336001600160a01b03161480610fd457506001546001600160a01b031633145b611010576040805162461bcd60e51b815260206004820152600860248201526710b6b0b730b3b2b960c11b604482015290519081900360640190fd5b6110186125f8565b61102061269b565b611028611a25565b565b60095460ff16801561105157506009546110519061010090046001600160a01b03166122d0565b1561111957600960019054906101000a90046001600160a01b03166001600160a01b0316633de39c116040518163ffffffff1660e01b8152600401602060405180830381600087803b1580156110a657600080fd5b505af11580156110ba573d6000803e3d6000fd5b505050506040513d60208110156110d057600080fd5b50513a1115611119576040805162461bcd60e51b815260206004820152601060248201526f67617320697320746f6f20686967682160801b604482015290519081900360640190fd5b611028326122d6565b61112a61158a565b6001600160a01b0316336001600160a01b0316148061115357506001546001600160a01b031633145b61118f576040805162461bcd60e51b815260206004820152600860248201526710b6b0b730b3b2b960c11b604482015290519081900360640190fd5b6111976114ef565b600f5460105460408051632989754760e11b81526004810192909252516001600160a01b0390921691635312ea8e9160248082019260009290919082900301818387803b1580156111e757600080fd5b505af11580156111fb573d6000803e3d6000fd5b50505050565b61271081565b60115460ff1615611028576004546001600160a01b03163314611119576040805162461bcd60e51b8152602060048201526006602482015265085d985d5b1d60d21b604482015290519081900360640190fd5b61126261158a565b6001600160a01b0316336001600160a01b0316148061128b57506001546001600160a01b031633145b6112c7576040805162461bcd60e51b815260206004820152600860248201526710b6b0b730b3b2b960c11b604482015290519081900360640190fd5b6112d360138383613607565b505050565b600054600160a01b900460ff1690565b600d546001600160a01b031681565b6112ff612753565b6001600160a01b031661131061158a565b6001600160a01b031614611359576040805162461bcd60e51b8152602060048201819052602482015260008051602061372d833981519152604482015290519081900360640190fd5b600480546001600160a01b0319166001600160a01b0392909216919091179055565b60095461010090046001600160a01b031681565b611397612753565b6001600160a01b03166113a861158a565b6001600160a01b0316146113f1576040805162461bcd60e51b8152602060048201819052602482015260008051602061372d833981519152604482015290519081900360640190fd5b600080546040516001600160a01b03909116907f8be0079c531659141344cd1fd0a4f28419497f9722a3daafe3b4186f6b6457e0908390a3600080546001600160a01b0319169055565b6000611456611448610a71565b61145061193a565b90612757565b905090565b61146361158a565b6001600160a01b0316336001600160a01b0316148061148c57506001546001600160a01b031633145b6114c8576040805162461bcd60e51b815260206004820152600860248201526710b6b0b730b3b2b960c11b604482015290519081900360640190fd5b600180546001600160a01b0319166001600160a01b0392909216919091179055565b607081565b6114f761158a565b6001600160a01b0316336001600160a01b0316148061152057506001546001600160a01b031633145b61155c576040805162461bcd60e51b815260206004820152600860248201526710b6b0b730b3b2b960c11b604482015290519081900360640190fd5b6115646127b1565b61102861283a565b600e546001600160a01b031681565b60115460ff1681565b60065481565b6000546001600160a01b031690565b6005546001600160a01b031681565b60075481565b6000806115b9611c99565b905060008115611747576003546040805163d06ca61f60e01b8152600481018581526024820192835260148054604484018190526001600160a01b039095169463d06ca61f94889492939290916064909101908490801561164357602002820191906000526020600020905b81546001600160a01b03168152600190910190602001808311611625575b5050935050505060006040518083038186803b15801561166257600080fd5b505afa92505050801561172257506040513d6000823e601f3d908101601f19168201604052602081101561169557600080fd5b8101908080516040519392919084600160201b8211156116b457600080fd5b9083019060208201858111156116c957600080fd5b82518660208202830111600160201b821117156116e557600080fd5b82525081516020918201928201910280838360005b838110156117125781810151838201526020016116fa565b5050505090500160405250505060015b61172b57611747565b8060018251038151811061173b57fe5b60200260200101519150505b6117736103e8610f0560075461176d6103e8610f05602d886124e690919063ffffffff16565b906124e6565b9250505090565b606060158054806020026020016040519081016040528092919081815260200182805480156108ce576020028201919060005260206000209081546001600160a01b031681526001909101906020018083116108b0575050505050905090565b60095460ff1681565b6117eb612753565b6001600160a01b03166117fc61158a565b6001600160a01b031614611845576040805162461bcd60e51b8152602060048201819052602482015260008051602061372d833981519152604482015290519081900360640190fd5b600580546001600160a01b0319166001600160a01b0392909216919091179055565b61186f61158a565b6001600160a01b0316336001600160a01b0316148061189857506001546001600160a01b031633145b6118d4576040805162461bcd60e51b815260206004820152600860248201526710b6b0b730b3b2b960c11b604482015290519081900360640190fd5b6032811115611913576040805162461bcd60e51b815260206004808301919091526024820152630216361760e41b604482015290519081900360640190fd5b600655565b6001546001600160a01b031681565b6103e881565b60148181548110610f8357fe5b600c54604080516370a0823160e01b815230600482015290516000926001600160a01b0316916370a08231916024808301926020929190829003018186803b15801561198557600080fd5b505afa158015611999573d6000803e3d6000fd5b505050506040513d60208110156119af57600080fd5b5051905090565b6002546001600160a01b03163314611a03576040805162461bcd60e51b815260206004820152600b60248201526a085cdd1c985d1959da5cdd60aa1b604482015290519081900360640190fd5b600280546001600160a01b0319166001600160a01b0392909216919091179055565b611a2d6112d8565b15611a72576040805162461bcd60e51b815260206004820152601060248201526f14185d5cd8589b194e881c185d5cd95960821b604482015290519081900360640190fd5b600c54604080516370a0823160e01b815230600482015290516000926001600160a01b0316916370a08231916024808301926020929190829003018186803b158015611abd57600080fd5b505afa158015611ad1573d6000803e3d6000fd5b505050506040513d6020811015611ae757600080fd5b5051905080156109d057600f5460105460408051631c57762b60e31b8152600481019290925260248201849052516001600160a01b039092169163e2bbb1589160448082019260009290919082900301818387803b158015611b4857600080fd5b505af1158015611b5c573d6000803e3d6000fd5b505050507f4d6ce1e535dbade1c23defba91e23b8f791ce5edc0cc320257a2b364e4e38426611b8961143b565b60408051918252519081900360200190a150565b60085481565b611bab61158a565b6001600160a01b0316336001600160a01b03161480611bd457506001546001600160a01b031633145b611119576040805162461bcd60e51b815260206004820152600860248201526710b6b0b730b3b2b960c11b604482015290519081900360640190fd5b611c18612753565b6001600160a01b0316611c2961158a565b6001600160a01b031614611c72576040805162461bcd60e51b8152602060048201819052602482015260008051602061372d833981519152604482015290519081900360640190fd5b600380546001600160a01b0319166001600160a01b0392909216919091179055565b603281565b60138054604080516020601f60026000196101006001881615020190951694909404938401819004810282018101909252828152600093606093611d5c93830182828015611d285780601f10611cfd57610100808354040283529160200191611d28565b820191906000526020600020905b815481529060010190602001808311611d0b57829003601f168201915b5050505050604051806040016040528060118152602001702875696e743235362c616464726573732960781b8152506128b2565b600f5460105460408051602481019290925230604480840191909152815180840390910181526064909201908190528351939450606093611e20936001600160a01b031692918691819060208401908083835b60208310611dce5780518252601f199092019160209182019101611daf565b51815160209384036101000a600019018019909216911617905260405191909301819003902091850180516001600160e01b03199093166001600160e01b03909316929092179091525061296d915050565b9050808060200190516020811015611e3757600080fd5b50519250505090565b60125481565b600b546001600160a01b031681565b611e5d612753565b6001600160a01b0316611e6e61158a565b6001600160a01b031614611eb7576040805162461bcd60e51b8152602060048201819052602482015260008051602061372d833981519152604482015290519081900360640190fd5b6001600160a01b038116611efc5760405162461bcd60e51b815260040180806020018281038252602681526020018061369b6026913960400191505060405180910390fd5b600080546040516001600160a01b03808516939216917f8be0079c531659141344cd1fd0a4f28419497f9722a3daafe3b4186f6b6457e091a3600080546001600160a01b0319166001600160a01b0392909216919091179055565b611f5f61158a565b6001600160a01b0316336001600160a01b03161480611f8857506001546001600160a01b031633145b611fc4576040805162461bcd60e51b815260206004820152600860248201526710b6b0b730b3b2b960c11b604482015290519081900360640190fd5b6009805460ff1916911515919091179055565b6004546001600160a01b0316331461201f576040805162461bcd60e51b8152602060048201526006602482015265085d985d5b1d60d21b604482015290519081900360640190fd5b600f5460105460408051632989754760e11b81526004810192909252516001600160a01b0390921691635312ea8e9160248082019260009290919082900301818387803b15801561206f57600080fd5b505af1158015612083573d6000803e3d6000fd5b5050600c54604080516370a0823160e01b81523060048201529051600094506001600160a01b0390921692506370a08231916024808301926020929190829003018186803b1580156120d457600080fd5b505afa1580156120e8573d6000803e3d6000fd5b505050506040513d60208110156120fe57600080fd5b5051600c54600480546040805163a9059cbb60e01b81526001600160a01b039283169381019390935260248301859052519394509091169163a9059cbb916044808201926020929091908290030181600087803b15801561215e57600080fd5b505af1158015612172573d6000803e3d6000fd5b505050506040513d60208110156112d357600080fd5b6004546001600160a01b031681565b60168181548110610f8357fe5b80158061222a575060408051636eb1769f60e11b81523060048201526001600160a01b03848116602483015291519185169163dd62ed3e91604480820192602092909190829003018186803b1580156121fc57600080fd5b505afa158015612210573d6000803e3d6000fd5b505050506040513d602081101561222657600080fd5b5051155b6122655760405162461bcd60e51b815260040180806020018281038252603681526020018061379b6036913960400191505060405180910390fd5b604080516001600160a01b038416602482015260448082018490528251808303909101815260649091019091526020810180516001600160e01b031663095ea7b360e01b1790526112d3908490612992565b60606122c68484600085612a43565b90505b9392505050565b3b151590565b6122de6112d8565b15612323576040805162461bcd60e51b815260206004820152601060248201526f14185d5cd8589b194e881c185d5cd95960821b604482015290519081900360640190fd5b600f5460105460408051631c57762b60e31b8152600481019290925260006024830181905290516001600160a01b039093169263e2bbb15892604480820193929182900301818387803b15801561237957600080fd5b505af115801561238d573d6000803e3d6000fd5b5050600b54604080516370a0823160e01b81523060048201529051600094506001600160a01b0390921692506370a08231916024808301926020929190829003018186803b1580156123de57600080fd5b505afa1580156123f2573d6000803e3d6000fd5b505050506040513d602081101561240857600080fd5b5051905080156124805761241b82612b9f565b612423612eed565b600061242d61193a565b9050612437611a25565b42601255337f9bc239f1724cacfb88cb1d66a2dc437467699b68a8c90d7b63110cf4b6f924108261246661143b565b6040805192835260208301919091528051918290030190a2505b5050565b6000828211156124db576040805162461bcd60e51b815260206004820152601e60248201527f536166654d6174683a207375627472616374696f6e206f766572666c6f770000604482015290519081900360640190fd5b508082035b92915050565b6000826124f5575060006124e0565b8282028284828161250257fe5b04146122c95760405162461bcd60e51b815260040180806020018281038252602181526020018061370c6021913960400191505060405180910390fd5b6000808211612595576040805162461bcd60e51b815260206004820152601a60248201527f536166654d6174683a206469766973696f6e206279207a65726f000000000000604482015290519081900360640190fd5b81838161259e57fe5b049392505050565b604080516001600160a01b038416602482015260448082018490528251808303909101815260649091019091526020810180516001600160e01b031663a9059cbb60e01b1790526112d3908490612992565b6126006112d8565b612648576040805162461bcd60e51b815260206004820152601460248201527314185d5cd8589b194e881b9bdd081c185d5cd95960621b604482015290519081900360640190fd5b6000805460ff60a01b191690557f5db9ee0a495bf2e6ff9c91a7834c1ba4fdd244a5e8aa4e537bd38aeae4b073aa61267e612753565b604080516001600160a01b039092168252519081900360200190a1565b600f54600c546126ba916001600160a01b0391821691166000196121a4565b600354600b546126d9916001600160a01b0391821691166000196121a4565b600354600d546126f7916001600160a01b03918216911660006121a4565b600354600d54612716916001600160a01b0391821691166000196121a4565b600354600e54612734916001600160a01b03918216911660006121a4565b600354600e54611028916001600160a01b0391821691166000196121a4565b3390565b6000828201838110156122c9576040805162461bcd60e51b815260206004820152601b60248201527f536166654d6174683a206164646974696f6e206f766572666c6f770000000000604482015290519081900360640190fd5b6127b96112d8565b156127fe576040805162461bcd60e51b815260206004820152601060248201526f14185d5cd8589b194e881c185d5cd95960821b604482015290519081900360640190fd5b6000805460ff60a01b1916600160a01b1790557f62e78cea01bee320cd4e420270b5ea74000d11b0c9f74754ebdbfc544b05a25861267e612753565b600f54600c54612858916001600160a01b03918216911660006121a4565b600354600b54612876916001600160a01b03918216911660006121a4565b600354600d54612894916001600160a01b03918216911660006121a4565b600354600e54611028916001600160a01b03918216911660006121a4565b606082826040516020018083805190602001908083835b602083106128e85780518252601f1990920191602091820191016128c9565b51815160209384036101000a600019018019909216911617905285519190930192850191508083835b602083106129305780518252601f199092019160209182019101612911565b6001836020036101000a03801982511681845116808217855250505050505090500192505050604051602081830303815290604052905092915050565b60606122c983836040518060600160405280602581526020016136e760259139613460565b60606129e7826040518060400160405280602081526020017f5361666545524332303a206c6f772d6c6576656c2063616c6c206661696c6564815250856001600160a01b03166122b79092919063ffffffff16565b8051909150156112d357808060200190516020811015612a0657600080fd5b50516112d35760405162461bcd60e51b815260040180806020018281038252602a815260200180613771602a913960400191505060405180910390fd5b606082471015612a845760405162461bcd60e51b81526004018080602001828103825260268152602001806136c16026913960400191505060405180910390fd5b612a8d856122d0565b612ade576040805162461bcd60e51b815260206004820152601d60248201527f416464726573733a2063616c6c20746f206e6f6e2d636f6e7472616374000000604482015290519081900360640190fd5b60006060866001600160a01b031685876040518082805190602001908083835b60208310612b1d5780518252601f199092019160209182019101612afe565b6001836020036101000a03801982511681845116808217855250505050505090500191505060006040518083038185875af1925050503d8060008114612b7f576040519150601f19603f3d011682016040523d82523d6000602084013e612b84565b606091505b5091509150612b94828286613563565b979650505050505050565b600b54604080516370a0823160e01b81523060048201529051600092612c2e926103e892610f0592602d926001600160a01b03909116916370a0823191602480820192602092909190829003018186803b158015612bfc57600080fd5b505afa158015612c10573d6000803e3d6000fd5b505050506040513d6020811015612c2657600080fd5b5051906124e6565b9050600360009054906101000a90046001600160a01b03166001600160a01b03166338ed1739826000601430426040518663ffffffff1660e01b81526004018086815260200185815260200180602001846001600160a01b031681526020018381526020018281038252858181548152602001915080548015612cda57602002820191906000526020600020905b81546001600160a01b03168152600190910190602001808311612cbc575b50509650505050505050600060405180830381600087803b158015612cfe57600080fd5b505af1158015612d12573d6000803e3d6000fd5b505050506040513d6000823e601f3d908101601f191682016040526020811015612d3b57600080fd5b8101908080516040519392919084600160201b821115612d5a57600080fd5b908301906020820185811115612d6f57600080fd5b82518660208202830111600160201b82111715612d8b57600080fd5b82525081516020918201928201910280838360005b83811015612db8578181015183820152602001612da0565b50505050919091016040818152600a546370a0823160e01b83523060048401529051600097506001600160a01b0390911695506370a08231945060248083019450602093509091829003018186803b158015612e1357600080fd5b505afa158015612e27573d6000803e3d6000fd5b505050506040513d6020811015612e3d57600080fd5b5051600754909150600090612e5b906103e890610f059085906124e6565b600a54909150612e75906001600160a01b031685836125a6565b6000612e926103e8610f05600854866124e690919063ffffffff16565b600554600a54919250612eb2916001600160a01b039081169116836125a6565b6000612ec56103e8610f058660706124e6565b600254600a54919250612ee5916001600160a01b039081169116836125a6565b505050505050565b600b54604080516370a0823160e01b81523060048201529051600092612f74926002926001600160a01b03909216916370a0823191602480820192602092909190829003018186803b158015612f4257600080fd5b505afa158015612f56573d6000803e3d6000fd5b505050506040513d6020811015612f6c57600080fd5b50519061253f565b600b54600d549192506001600160a01b03918216911614613116576003546040516338ed173960e01b8152600481018381526000602483018190523060648401819052426084850181905260a0604486019081526015805460a488018190526001600160a01b03909816976338ed1739978a97929594939160c4909101908690801561302957602002820191906000526020600020905b81546001600160a01b0316815260019091019060200180831161300b575b50509650505050505050600060405180830381600087803b15801561304d57600080fd5b505af1158015613061573d6000803e3d6000fd5b505050506040513d6000823e601f3d908101601f19168201604052602081101561308a57600080fd5b8101908080516040519392919084600160201b8211156130a957600080fd5b9083019060208201858111156130be57600080fd5b82518660208202830111600160201b821117156130da57600080fd5b82525081516020918201928201910280838360005b838110156131075781810151838201526020016130ef565b50505050905001604052505050505b600b54600e546001600160a01b039081169116146132b5576003546040516338ed173960e01b8152600481018381526000602483018190523060648401819052426084850181905260a0604486019081526016805460a488018190526001600160a01b03909816976338ed1739978a97929594939160c490910190869080156131c857602002820191906000526020600020905b81546001600160a01b031681526001909101906020018083116131aa575b50509650505050505050600060405180830381600087803b1580156131ec57600080fd5b505af1158015613200573d6000803e3d6000fd5b505050506040513d6000823e601f3d908101601f19168201604052602081101561322957600080fd5b8101908080516040519392919084600160201b82111561324857600080fd5b90830190602082018581111561325d57600080fd5b82518660208202830111600160201b8211171561327957600080fd5b82525081516020918201928201910280838360005b838110156132a657818101518382015260200161328e565b50505050905001604052505050505b600d54604080516370a0823160e01b815230600482015290516000926001600160a01b0316916370a08231916024808301926020929190829003018186803b15801561330057600080fd5b505afa158015613314573d6000803e3d6000fd5b505050506040513d602081101561332a57600080fd5b5051600e54604080516370a0823160e01b815230600482015290519293506000926001600160a01b03909216916370a0823191602480820192602092909190829003018186803b15801561337d57600080fd5b505afa158015613391573d6000803e3d6000fd5b505050506040513d60208110156133a757600080fd5b5051600354600d54600e546040805162e8e33760e81b81526001600160a01b0393841660048201529183166024830152604482018790526064820185905260016084830181905260a48301523060c48301524260e48301525193945091169163e8e3370091610104808201926060929091908290030181600087803b15801561342f57600080fd5b505af1158015613443573d6000803e3d6000fd5b505050506040513d606081101561345957600080fd5b5050505050565b606061346b846122d0565b6134a65760405162461bcd60e51b815260040180806020018281038252602481526020018061374d6024913960400191505060405180910390fd5b60006060856001600160a01b0316856040518082805190602001908083835b602083106134e45780518252601f1990920191602091820191016134c5565b6001836020036101000a038019825116818451168082178552505050505050905001915050600060405180830381855afa9150503d8060008114613544576040519150601f19603f3d011682016040523d82523d6000602084013e613549565b606091505b5091509150613559828286613563565b9695505050505050565b606083156135725750816122c9565b8251156135825782518084602001fd5b8160405162461bcd60e51b81526004018080602001828103825283818151815260200191508051906020019080838360005b838110156135cc5781810151838201526020016135b4565b50505050905090810190601f1680156135f95780820380516001836020036101000a031916815260200191505b509250505060405180910390fd5b828054600181600116156101000203166002900490600052602060002090601f016020900481019282601f106136485782800160ff19823516178555613675565b82800160010185558215613675579182015b8281111561367557823582559160200191906001019061365a565b50613681929150613685565b5090565b5b80821115613681576000815560010161368656fe4f776e61626c653a206e6577206f776e657220697320746865207a65726f2061646472657373416464726573733a20696e73756666696369656e742062616c616e636520666f722063616c6c416464726573733a206c6f772d6c6576656c207374617469632063616c6c206661696c6564536166654d6174683a206d756c7469706c69636174696f6e206f766572666c6f774f776e61626c653a2063616c6c6572206973206e6f7420746865206f776e6572416464726573733a207374617469632063616c6c20746f206e6f6e2d636f6e74726163745361666545524332303a204552433230206f7065726174696f6e20646964206e6f7420737563636565645361666545524332303a20617070726f76652066726f6d206e6f6e2d7a65726f20746f206e6f6e2d7a65726f20616c6c6f77616e6365a26469706673582212201cb122b71aa955b373563060c24f57b63842132f5255f83268988488fe7fe13b64736f6c634300060c00336f7574707574546f4c7031526f7574655b6c6173745d20213d206c70546f6b656e31416464726573733a20696e73756666696369656e742062616c616e636520666f722063616c6c6f7574707574546f4c7030526f7574655b6c6173745d20213d206c70546f6b656e305361666545524332303a204552433230206f7065726174696f6e20646964206e6f7420737563636565645361666545524332303a20617070726f76652066726f6d206e6f6e2d7a65726f20746f206e6f6e2d7a65726f20616c6c6f77616e6365",
  "linkReferences": {},
  "deployedLinkReferences": {}
}