{
  "_format": "hh-sol-artifact-1",
  "contractName": "StrategyCommonChefSingle",
  "sourceName": "contracts/autocompounder/StrategyCommonChefSingle.sol",
  "abi": [
    {
      "inputs": [
        {
          "internalType": "address",
          "name": "_want",
          "type": "address"
        },
        {
          "internalType": "uint256",
          "name": "_poolId",
          "type": "uint256"
        },
        {
          "internalType": "address",
          "name": "_chef",
          "type": "address"
        },
        {
          "internalType": "address",
          "name": "_vault",
          "type": "address"
        },
        {
          "internalType": "address",
          "name": "_unirouter",
          "type": "address"
        },
        {
          "internalType": "address",
          "name": "_keeper",
          "type": "address"
        },
        {
          "internalType": "address",
          "name": "_strategist",
          "type": "address"
        },
        {
          "internalType": "address",
          "name": "_beefyFeeRecipient",
          "type": "address"
        },
        {
          "internalType": "address[]",
          "name": "_outputToNativeRoute",
          "type": "address[]"
        },
        {
          "internalType": "address[]",
          "name": "_outputToWantRoute",
          "type": "address[]"
        }
      ],
      "stateMutability": "nonpayable",
      "type": "constructor"
    },
    {
      "anonymous": false,
      "inputs": [
        {
          "indexed": true,
          "internalType": "address",
          "name": "previousOwner",
          "type": "address"
        },
        {
          "indexed": true,
          "internalType": "address",
          "name": "newOwner",
          "type": "address"
        }
      ],
      "name": "OwnershipTransferred",
      "type": "event"
    },
    {
      "anonymous": false,
      "inputs": [
        {
          "indexed": false,
          "internalType": "address",
          "name": "account",
          "type": "address"
        }
      ],
      "name": "Paused",
      "type": "event"
    },
    {
      "anonymous": false,
      "inputs": [
        {
          "indexed": true,
          "internalType": "address",
          "name": "harvester",
          "type": "address"
        }
      ],
      "name": "StratHarvest",
      "type": "event"
    },
    {
      "anonymous": false,
      "inputs": [
        {
          "indexed": false,
          "internalType": "address",
          "name": "account",
          "type": "address"
        }
      ],
      "name": "Unpaused",
      "type": "event"
    },
    {
      "inputs": [],
      "name": "MAX_CALL_FEE",
      "outputs": [
        {
          "internalType": "uint256",
          "name": "",
          "type": "uint256"
        }
      ],
      "stateMutability": "view",
      "type": "function"
    },
    {
      "inputs": [],
      "name": "MAX_FEE",
      "outputs": [
        {
          "internalType": "uint256",
          "name": "",
          "type": "uint256"
        }
      ],
      "stateMutability": "view",
      "type": "function"
    },
    {
      "inputs": [],
      "name": "STRATEGIST_FEE",
      "outputs": [
        {
          "internalType": "uint256",
          "name": "",
          "type": "uint256"
        }
      ],
      "stateMutability": "view",
      "type": "function"
    },
    {
      "inputs": [],
      "name": "WITHDRAWAL_FEE_CAP",
      "outputs": [
        {
          "internalType": "uint256",
          "name": "",
          "type": "uint256"
        }
      ],
      "stateMutability": "view",
      "type": "function"
    },
    {
      "inputs": [],
      "name": "WITHDRAWAL_MAX",
      "outputs": [
        {
          "internalType": "uint256",
          "name": "",
          "type": "uint256"
        }
      ],
      "stateMutability": "view",
      "type": "function"
    },
    {
      "inputs": [],
      "name": "balanceOf",
      "outputs": [
        {
          "internalType": "uint256",
          "name": "",
          "type": "uint256"
        }
      ],
      "stateMutability": "view",
      "type": "function"
    },
    {
      "inputs": [],
      "name": "balanceOfPool",
      "outputs": [
        {
          "internalType": "uint256",
          "name": "",
          "type": "uint256"
        }
      ],
      "stateMutability": "view",
      "type": "function"
    },
    {
      "inputs": [],
      "name": "balanceOfWant",
      "outputs": [
        {
          "internalType": "uint256",
          "name": "",
          "type": "uint256"
        }
      ],
      "stateMutability": "view",
      "type": "function"
    },
    {
      "inputs": [],
      "name": "beefyFee",
      "outputs": [
        {
          "internalType": "uint256",
          "name": "",
          "type": "uint256"
        }
      ],
      "stateMutability": "view",
      "type": "function"
    },
    {
      "inputs": [],
      "name": "beefyFeeRecipient",
      "outputs": [
        {
          "internalType": "address",
          "name": "",
          "type": "address"
        }
      ],
      "stateMutability": "view",
      "type": "function"
    },
    {
      "inputs": [],
      "name": "beforeDeposit",
      "outputs": [],
      "stateMutability": "nonpayable",
      "type": "function"
    },
    {
      "inputs": [],
      "name": "callFee",
      "outputs": [
        {
          "internalType": "uint256",
          "name": "",
          "type": "uint256"
        }
      ],
      "stateMutability": "view",
      "type": "function"
    },
    {
      "inputs": [],
      "name": "chef",
      "outputs": [
        {
          "internalType": "address",
          "name": "",
          "type": "address"
        }
      ],
      "stateMutability": "view",
      "type": "function"
    },
    {
      "inputs": [],
      "name": "deposit",
      "outputs": [],
      "stateMutability": "nonpayable",
      "type": "function"
    },
    {
      "inputs": [],
      "name": "harvest",
      "outputs": [],
      "stateMutability": "nonpayable",
      "type": "function"
    },
    {
      "inputs": [],
      "name": "harvestOnDeposit",
      "outputs": [
        {
          "internalType": "bool",
          "name": "",
          "type": "bool"
        }
      ],
      "stateMutability": "view",
      "type": "function"
    },
    {
      "inputs": [
        {
          "internalType": "address",
          "name": "callFeeRecipient",
          "type": "address"
        }
      ],
      "name": "harvestWithCallFeeRecipient",
      "outputs": [],
      "stateMutability": "nonpayable",
      "type": "function"
    },
    {
      "inputs": [],
      "name": "keeper",
      "outputs": [
        {
          "internalType": "address",
          "name": "",
          "type": "address"
        }
      ],
      "stateMutability": "view",
      "type": "function"
    },
    {
      "inputs": [],
      "name": "lastHarvest",
      "outputs": [
        {
          "internalType": "uint256",
          "name": "",
          "type": "uint256"
        }
      ],
      "stateMutability": "view",
      "type": "function"
    },
    {
      "inputs": [],
      "name": "managerHarvest",
      "outputs": [],
      "stateMutability": "nonpayable",
      "type": "function"
    },
    {
      "inputs": [],
      "name": "native",
      "outputs": [
        {
          "internalType": "address",
          "name": "",
          "type": "address"
        }
      ],
      "stateMutability": "view",
      "type": "function"
    },
    {
      "inputs": [],
      "name": "output",
      "outputs": [
        {
          "internalType": "address",
          "name": "",
          "type": "address"
        }
      ],
      "stateMutability": "view",
      "type": "function"
    },
    {
      "inputs": [],
      "name": "outputToNative",
      "outputs": [
        {
          "internalType": "address[]",
          "name": "",
          "type": "address[]"
        }
      ],
      "stateMutability": "view",
      "type": "function"
    },
    {
      "inputs": [
        {
          "internalType": "uint256",
          "name": "",
          "type": "uint256"
        }
      ],
      "name": "outputToNativeRoute",
      "outputs": [
        {
          "internalType": "address",
          "name": "",
          "type": "address"
        }
      ],
      "stateMutability": "view",
      "type": "function"
    },
    {
      "inputs": [],
      "name": "outputToWant",
      "outputs": [
        {
          "internalType": "address[]",
          "name": "",
          "type": "address[]"
        }
      ],
      "stateMutability": "view",
      "type": "function"
    },
    {
      "inputs": [
        {
          "internalType": "uint256",
          "name": "",
          "type": "uint256"
        }
      ],
      "name": "outputToWantRoute",
      "outputs": [
        {
          "internalType": "address",
          "name": "",
          "type": "address"
        }
      ],
      "stateMutability": "view",
      "type": "function"
    },
    {
      "inputs": [],
      "name": "owner",
      "outputs": [
        {
          "internalType": "address",
          "name": "",
          "type": "address"
        }
      ],
      "stateMutability": "view",
      "type": "function"
    },
    {
      "inputs": [],
      "name": "panic",
      "outputs": [],
      "stateMutability": "nonpayable",
      "type": "function"
    },
    {
      "inputs": [],
      "name": "pause",
      "outputs": [],
      "stateMutability": "nonpayable",
      "type": "function"
    },
    {
      "inputs": [],
      "name": "paused",
      "outputs": [
        {
          "internalType": "bool",
          "name": "",
          "type": "bool"
        }
      ],
      "stateMutability": "view",
      "type": "function"
    },
    {
      "inputs": [],
      "name": "poolId",
      "outputs": [
        {
          "internalType": "uint256",
          "name": "",
          "type": "uint256"
        }
      ],
      "stateMutability": "view",
      "type": "function"
    },
    {
      "inputs": [],
      "name": "renounceOwnership",
      "outputs": [],
      "stateMutability": "nonpayable",
      "type": "function"
    },
    {
      "inputs": [],
      "name": "retireStrat",
      "outputs": [],
      "stateMutability": "nonpayable",
      "type": "function"
    },
    {
      "inputs": [
        {
          "internalType": "address",
          "name": "_beefyFeeRecipient",
          "type": "address"
        }
      ],
      "name": "setBeefyFeeRecipient",
      "outputs": [],
      "stateMutability": "nonpayable",
      "type": "function"
    },
    {
      "inputs": [
        {
          "internalType": "uint256",
          "name": "_fee",
          "type": "uint256"
        }
      ],
      "name": "setCallFee",
      "outputs": [],
      "stateMutability": "nonpayable",
      "type": "function"
    },
    {
      "inputs": [
        {
          "internalType": "bool",
          "name": "_harvestOnDeposit",
          "type": "bool"
        }
      ],
      "name": "setHarvestOnDeposit",
      "outputs": [],
      "stateMutability": "nonpayable",
      "type": "function"
    },
    {
      "inputs": [
        {
          "internalType": "address",
          "name": "_keeper",
          "type": "address"
        }
      ],
      "name": "setKeeper",
      "outputs": [],
      "stateMutability": "nonpayable",
      "type": "function"
    },
    {
      "inputs": [
        {
          "internalType": "address",
          "name": "_strategist",
          "type": "address"
        }
      ],
      "name": "setStrategist",
      "outputs": [],
      "stateMutability": "nonpayable",
      "type": "function"
    },
    {
      "inputs": [
        {
          "internalType": "address",
          "name": "_unirouter",
          "type": "address"
        }
      ],
      "name": "setUnirouter",
      "outputs": [],
      "stateMutability": "nonpayable",
      "type": "function"
    },
    {
      "inputs": [
        {
          "internalType": "address",
          "name": "_vault",
          "type": "address"
        }
      ],
      "name": "setVault",
      "outputs": [],
      "stateMutability": "nonpayable",
      "type": "function"
    },
    {
      "inputs": [
        {
          "internalType": "uint256",
          "name": "_fee",
          "type": "uint256"
        }
      ],
      "name": "setWithdrawalFee",
      "outputs": [],
      "stateMutability": "nonpayable",
      "type": "function"
    },
    {
      "inputs": [],
      "name": "strategist",
      "outputs": [
        {
          "internalType": "address",
          "name": "",
          "type": "address"
        }
      ],
      "stateMutability": "view",
      "type": "function"
    },
    {
      "inputs": [
        {
          "internalType": "address",
          "name": "newOwner",
          "type": "address"
        }
      ],
      "name": "transferOwnership",
      "outputs": [],
      "stateMutability": "nonpayable",
      "type": "function"
    },
    {
      "inputs": [],
      "name": "unirouter",
      "outputs": [
        {
          "internalType": "address",
          "name": "",
          "type": "address"
        }
      ],
      "stateMutability": "view",
      "type": "function"
    },
    {
      "inputs": [],
      "name": "unpause",
      "outputs": [],
      "stateMutability": "nonpayable",
      "type": "function"
    },
    {
      "inputs": [],
      "name": "vault",
      "outputs": [
        {
          "internalType": "address",
          "name": "",
          "type": "address"
        }
      ],
      "stateMutability": "view",
      "type": "function"
    },
    {
      "inputs": [],
      "name": "want",
      "outputs": [
        {
          "internalType": "address",
          "name": "",
          "type": "address"
        }
      ],
      "stateMutability": "view",
      "type": "function"
    },
    {
      "inputs": [
        {
          "internalType": "uint256",
          "name": "_amount",
          "type": "uint256"
        }
      ],
      "name": "withdraw",
      "outputs": [],
      "stateMutability": "nonpayable",
      "type": "function"
    },
    {
      "inputs": [],
      "name": "withdrawalFee",
      "outputs": [
        {
          "internalType": "uint256",
          "name": "",
          "type": "uint256"
        }
      ],
      "stateMutability": "view",
      "type": "function"
    }
  ],
  "bytecode": "0x6080604052600a600655606f60078190556200001f60706103e862000882565b6200002b919062000882565b6008556011805460ff191660011790553480156200004857600080fd5b506040516200326c3803806200326c8339810160408190526200006b916200097d565b84848789866200007b33620002ee565b6000805460ff60a01b19168155600180546001600160a01b03199081166001600160a01b0398891617909155600280548216968816969096179095556003805486169487169490941790935560048054851692861692909217909155600580548416918516919091179055600b805483168e8516179055600d8c9055600c8054909216928b1692909217905582518391906200011b576200011b62000a76565b6020026020010151600a60006101000a8154816001600160a01b0302191690836001600160a01b0316021790555081600183516200015a919062000882565b815181106200016d576200016d62000a76565b602090810291909101810151600980546001600160a01b0319166001600160a01b039092169190911790558251620001ac91600f919085019062000801565b50600a5481516001600160a01b03909116908290600090620001d257620001d262000a76565b60200260200101516001600160a01b031614620002365760405162461bcd60e51b815260206004820152601660248201527f746f4465706f7369745b305d20213d206f75747075740000000000000000000060448201526064015b60405180910390fd5b600b5481516001600160a01b03909116908290620002579060019062000882565b815181106200026a576200026a62000a76565b60200260200101516001600160a01b031614620002b25760405162461bcd60e51b8152602060048201526005602482015264085dd85b9d60da1b60448201526064016200022d565b8051620002c790601090602084019062000801565b50620002d26200033e565b620002de60006200039a565b5050505050505050505062000b50565b600080546001600160a01b038381166001600160a01b0319831681178455604051919092169283917f8be0079c531659141344cd1fd0a4f28419497f9722a3daafe3b4186f6b6457e09190a35050565b600c54600b546200036b916001600160a01b03918216911660001962000438602090811b620015a217901c565b600354600a5462000398916001600160a01b03918216911660001962000438602090811b620015a217901c565b565b6000546001600160a01b0316331480620003be57506001546001600160a01b031633145b620003f75760405162461bcd60e51b815260206004820152600860248201526710b6b0b730b3b2b960c11b60448201526064016200022d565b6032811115620004335760405162461bcd60e51b81526004016200022d906020808252600490820152630216361760e41b604082015260600190565b600655565b801580620004c65750604051636eb1769f60e11b81523060048201526001600160a01b03838116602483015284169063dd62ed3e9060440160206040518083038186803b1580156200048957600080fd5b505afa1580156200049e573d6000803e3d6000fd5b505050506040513d601f19601f82011682018060405250810190620004c4919062000a8c565b155b6200053a5760405162461bcd60e51b815260206004820152603660248201527f5361666545524332303a20617070726f76652066726f6d206e6f6e2d7a65726f60448201527f20746f206e6f6e2d7a65726f20616c6c6f77616e63650000000000000000000060648201526084016200022d565b604080516001600160a01b038416602482015260448082018490528251808303909101815260649091019091526020810180516001600160e01b0390811663095ea7b360e01b17909152620005929185916200059716565b505050565b6000620005f3826040518060400160405280602081526020017f5361666545524332303a206c6f772d6c6576656c2063616c6c206661696c6564815250856001600160a01b03166200067560201b6200175f179092919060201c565b80519091501562000592578080602001905181019062000614919062000aa6565b620005925760405162461bcd60e51b815260206004820152602a60248201527f5361666545524332303a204552433230206f7065726174696f6e20646964206e6044820152691bdd081cdd58d8d9595960b21b60648201526084016200022d565b606062000686848460008562000690565b90505b9392505050565b606082471015620006f35760405162461bcd60e51b815260206004820152602660248201527f416464726573733a20696e73756666696369656e742062616c616e636520666f6044820152651c8818d85b1b60d21b60648201526084016200022d565b843b620007435760405162461bcd60e51b815260206004820152601d60248201527f416464726573733a2063616c6c20746f206e6f6e2d636f6e747261637400000060448201526064016200022d565b600080866001600160a01b0316858760405162000761919062000afd565b60006040518083038185875af1925050503d8060008114620007a0576040519150601f19603f3d011682016040523d82523d6000602084013e620007a5565b606091505b509092509050620007b8828286620007c3565b979650505050505050565b60608315620007d457508162000689565b825115620007e55782518084602001fd5b8160405162461bcd60e51b81526004016200022d919062000b1b565b82805482825590600052602060002090810192821562000859579160200282015b828111156200085957825182546001600160a01b0319166001600160a01b0390911617825560209092019160019091019062000822565b50620008679291506200086b565b5090565b5b808211156200086757600081556001016200086c565b600082821015620008a357634e487b7160e01b600052601160045260246000fd5b500390565b80516001600160a01b0381168114620008c057600080fd5b919050565b634e487b7160e01b600052604160045260246000fd5b600082601f830112620008ed57600080fd5b815160206001600160401b03808311156200090c576200090c620008c5565b8260051b604051601f19603f83011681018181108482111715620009345762000934620008c5565b6040529384528581018301938381019250878511156200095357600080fd5b83870191505b84821015620007b8576200096d82620008a8565b8352918301919083019062000959565b6000806000806000806000806000806101408b8d0312156200099e57600080fd5b620009a98b620008a8565b995060208b01519850620009c060408c01620008a8565b9750620009d060608c01620008a8565b9650620009e060808c01620008a8565b9550620009f060a08c01620008a8565b945062000a0060c08c01620008a8565b935062000a1060e08c01620008a8565b6101008c01519093506001600160401b038082111562000a2f57600080fd5b62000a3d8e838f01620008db565b93506101208d015191508082111562000a5557600080fd5b5062000a648d828e01620008db565b9150509295989b9194979a5092959850565b634e487b7160e01b600052603260045260246000fd5b60006020828403121562000a9f57600080fd5b5051919050565b60006020828403121562000ab957600080fd5b815180151581146200068957600080fd5b60005b8381101562000ae757818101518382015260200162000acd565b8381111562000af7576000848401525b50505050565b6000825162000b1181846020870162000aca565b9190910192915050565b602081526000825180602084015262000b3c81604085016020870162000aca565b601f01601f19169190910160400192915050565b61270c8062000b606000396000f3fe608060405234801561001057600080fd5b506004361061032b5760003560e01c80638456cb59116101b2578063c7b9d530116100f9578063dd93d6b3116100a2578063f20eaeb81161007c578063f20eaeb8146105df578063f2fde38b146105f2578063fb61778714610605578063fbfa77cf1461060d57600080fd5b8063dd93d6b3146105bb578063dfbdc437146105ce578063f1a392da146105d657600080fd5b8063d3102589116100d3578063d310258914610597578063d801d946146105a0578063d92f3d73146105a857600080fd5b8063c7b9d53014610574578063cc7cb29b14610587578063d0e30db01461058f57600080fd5b8063a68833e51161015b578063bc063e1a11610135578063bc063e1a14610550578063be12a97814610559578063c1a3d44c1461056c57600080fd5b8063a68833e514610517578063ac1e50251461052a578063aced16611461053d57600080fd5b80638da5cb5b1161018c5780638da5cb5b146104ea5780638e145459146104fb57806390321e1a1461050e57600080fd5b80638456cb59146104cc5780638912cb8b146104d45780638bc7e8c4146104e157600080fd5b80633f4ba83a11610276578063623d8bd21161021f578063722713f7116101f9578063722713f7146104a9578063748747e6146104b15780637d38ca65146104c457600080fd5b8063623d8bd21461047b5780636817031b1461048e578063715018a6146104a157600080fd5b806354518b1a1161025057806354518b1a1461043b578063573fef0a146104445780635c975abb1461044c57600080fd5b80633f4ba83a146104235780634641257d1461042b5780634700d3051461043357600080fd5b80631fe4a686116102d85780632ad5a53f116102b25780632ad5a53f146103ff5780632e1a7d4d146104075780633e0dc34e1461041a57600080fd5b80631fe4a686146103c6578063257ae0de146103d957806326465826146103ec57600080fd5b806313e120b11161030957806313e120b11461038b5780631f1fcd51146103a05780631fc8bc5d146103b357600080fd5b80630e8fbb5a14610330578063115880861461034557806311b0b42d14610360575b600080fd5b61034361033e36600461233a565b610620565b005b61034d6106b0565b6040519081526020015b60405180910390f35b600954610373906001600160a01b031681565b6040516001600160a01b039091168152602001610357565b61039361075a565b6040516103579190612357565b600b54610373906001600160a01b031681565b600c54610373906001600160a01b031681565b600254610373906001600160a01b031681565b600354610373906001600160a01b031681565b6103436103fa3660046123a4565b6107bc565b61034d606f81565b6103436104153660046123a4565b61088c565b61034d600d5481565b610343610a51565b610343610ac5565b610343610acf565b61034d61271081565b610343610bb3565b60005474010000000000000000000000000000000000000000900460ff165b6040519015158152602001610357565b6103436104893660046123bd565b610c18565b61034361049c3660046123bd565b610c24565b610343610cb8565b61034d610d1c565b6103436104bf3660046123bd565b610d3c565b61034d607081565b610343610dd0565b60115461046b9060ff1681565b61034d60065481565b6000546001600160a01b0316610373565b600554610373906001600160a01b031681565b61034d60075481565b6103436105253660046123bd565b610e3a565b6103436105383660046123a4565b610ece565b600154610373906001600160a01b031681565b61034d6103e881565b6103736105673660046123a4565b610f80565b61034d610faa565b6103436105823660046123bd565b61103f565b6103936110d3565b610343611133565b61034d60085481565b61034361123a565b6103436105b63660046123bd565b611294565b6103736105c93660046123a4565b611328565b61034d603281565b61034d600e5481565b600a54610373906001600160a01b031681565b6103436106003660046123bd565b611338565b610343611417565b600454610373906001600160a01b031681565b6000546001600160a01b031633148061064357506001546001600160a01b031633145b61067f5760405162461bcd60e51b815260206004820152600860248201526710b6b0b730b3b2b960c11b60448201526064015b60405180910390fd5b601180547fffffffffffffffffffffffffffffffffffffffffffffffffffffffffffffff0016911515919091179055565b600c54600d546040517f93f1a40b000000000000000000000000000000000000000000000000000000008152600481019190915230602482015260009182916001600160a01b03909116906393f1a40b90604401604080518083038186803b15801561071b57600080fd5b505afa15801561072f573d6000803e3d6000fd5b505050506040513d601f19601f8201168201806040525081019061075391906123e6565b5092915050565b6060600f8054806020026020016040519081016040528092919081815260200182805480156107b257602002820191906000526020600020905b81546001600160a01b03168152600190910190602001808311610794575b5050505050905090565b6000546001600160a01b03163314806107df57506001546001600160a01b031633145b6108165760405162461bcd60e51b815260206004820152600860248201526710b6b0b730b3b2b960c11b6044820152606401610676565b606f8111156108695760405162461bcd60e51b81526004016106769060208082526004908201527f2163617000000000000000000000000000000000000000000000000000000000604082015260600190565b60078190558061087c60706103e8612439565b6108869190612439565b60085550565b6004546001600160a01b031633146108e65760405162461bcd60e51b815260206004820152600660248201527f217661756c7400000000000000000000000000000000000000000000000000006044820152606401610676565b60006108f0610faa565b90508181101561099557600c54600d546001600160a01b039091169063441a3e709061091c8585611778565b6040517fffffffff0000000000000000000000000000000000000000000000000000000060e085901b16815260048101929092526024820152604401600060405180830381600087803b15801561097257600080fd5b505af1158015610986573d6000803e3d6000fd5b50505050610992610faa565b90505b818111156109a05750805b6000546001600160a01b03163214806109d3575060005474010000000000000000000000000000000000000000900460ff165b156109f957600454600b546109f5916001600160a01b03918216911683611784565b5050565b6000610a1c612710610a16600654856117cd90919063ffffffff16565b906117d9565b600454909150610a4c906001600160a01b0316610a398484611778565b600b546001600160a01b03169190611784565b505050565b6000546001600160a01b0316331480610a7457506001546001600160a01b031633145b610aab5760405162461bcd60e51b815260206004820152600860248201526710b6b0b730b3b2b960c11b6044820152606401610676565b610ab36117e5565b610abb6118b7565b610ac3611133565b565b610ac360006118f5565b6000546001600160a01b0316331480610af257506001546001600160a01b031633145b610b295760405162461bcd60e51b815260206004820152600860248201526710b6b0b730b3b2b960c11b6044820152606401610676565b610b31610dd0565b600c54600d546040517f5312ea8e0000000000000000000000000000000000000000000000000000000081526001600160a01b0390921691635312ea8e91610b7f9160040190815260200190565b600060405180830381600087803b158015610b9957600080fd5b505af1158015610bad573d6000803e3d6000fd5b50505050565b60115460ff1615610ac3576004546001600160a01b03163314610ac55760405162461bcd60e51b815260206004820152600660248201527f217661756c7400000000000000000000000000000000000000000000000000006044820152606401610676565b610c21816118f5565b50565b6000546001600160a01b03163314610c7e5760405162461bcd60e51b815260206004820181905260248201527f4f776e61626c653a2063616c6c6572206973206e6f7420746865206f776e65726044820152606401610676565b600480547fffffffffffffffffffffffff0000000000000000000000000000000000000000166001600160a01b0392909216919091179055565b6000546001600160a01b03163314610d125760405162461bcd60e51b815260206004820181905260248201527f4f776e61626c653a2063616c6c6572206973206e6f7420746865206f776e65726044820152606401610676565b610ac36000611b31565b6000610d37610d296106b0565b610d31610faa565b90611b99565b905090565b6000546001600160a01b0316331480610d5f57506001546001600160a01b031633145b610d965760405162461bcd60e51b815260206004820152600860248201526710b6b0b730b3b2b960c11b6044820152606401610676565b600180547fffffffffffffffffffffffff0000000000000000000000000000000000000000166001600160a01b0392909216919091179055565b6000546001600160a01b0316331480610df357506001546001600160a01b031633145b610e2a5760405162461bcd60e51b815260206004820152600860248201526710b6b0b730b3b2b960c11b6044820152606401610676565b610e32611ba5565b610ac3611c77565b6000546001600160a01b03163314610e945760405162461bcd60e51b815260206004820181905260248201527f4f776e61626c653a2063616c6c6572206973206e6f7420746865206f776e65726044820152606401610676565b600580547fffffffffffffffffffffffff0000000000000000000000000000000000000000166001600160a01b0392909216919091179055565b6000546001600160a01b0316331480610ef157506001546001600160a01b031633145b610f285760405162461bcd60e51b815260206004820152600860248201526710b6b0b730b3b2b960c11b6044820152606401610676565b6032811115610f7b5760405162461bcd60e51b81526004016106769060208082526004908201527f2163617000000000000000000000000000000000000000000000000000000000604082015260600190565b600655565b600f8181548110610f9057600080fd5b6000918252602090912001546001600160a01b0316905081565b600b546040517f70a082310000000000000000000000000000000000000000000000000000000081523060048201526000916001600160a01b0316906370a082319060240160206040518083038186803b15801561100757600080fd5b505afa15801561101b573d6000803e3d6000fd5b505050506040513d601f19601f82011682018060405250810190610d379190612450565b6002546001600160a01b031633146110995760405162461bcd60e51b815260206004820152600b60248201527f21737472617465676973740000000000000000000000000000000000000000006044820152606401610676565b600280547fffffffffffffffffffffffff0000000000000000000000000000000000000000166001600160a01b0392909216919091179055565b606060108054806020026020016040519081016040528092919081815260200182805480156107b2576020028201919060005260206000209081546001600160a01b03168152600190910190602001808311610794575050505050905090565b60005474010000000000000000000000000000000000000000900460ff161561119e5760405162461bcd60e51b815260206004820152601060248201527f5061757361626c653a20706175736564000000000000000000000000000000006044820152606401610676565b60006111a8610faa565b90508015610c2157600c54600d546040517fe2bbb1580000000000000000000000000000000000000000000000000000000081526001600160a01b039092169163e2bbb15891611205918590600401918252602082015260400190565b600060405180830381600087803b15801561121f57600080fd5b505af1158015611233573d6000803e3d6000fd5b5050505050565b6000546001600160a01b031633148061125d57506001546001600160a01b031633145b610ac55760405162461bcd60e51b815260206004820152600860248201526710b6b0b730b3b2b960c11b6044820152606401610676565b6000546001600160a01b031633146112ee5760405162461bcd60e51b815260206004820181905260248201527f4f776e61626c653a2063616c6c6572206973206e6f7420746865206f776e65726044820152606401610676565b600380547fffffffffffffffffffffffff0000000000000000000000000000000000000000166001600160a01b0392909216919091179055565b60108181548110610f9057600080fd5b6000546001600160a01b031633146113925760405162461bcd60e51b815260206004820181905260248201527f4f776e61626c653a2063616c6c6572206973206e6f7420746865206f776e65726044820152606401610676565b6001600160a01b03811661140e5760405162461bcd60e51b815260206004820152602660248201527f4f776e61626c653a206e6577206f776e657220697320746865207a65726f206160448201527f64647265737300000000000000000000000000000000000000000000000000006064820152608401610676565b610c2181611b31565b6004546001600160a01b031633146114715760405162461bcd60e51b815260206004820152600660248201527f217661756c7400000000000000000000000000000000000000000000000000006044820152606401610676565b600c54600d546040517f5312ea8e0000000000000000000000000000000000000000000000000000000081526001600160a01b0390921691635312ea8e916114bf9160040190815260200190565b600060405180830381600087803b1580156114d957600080fd5b505af11580156114ed573d6000803e3d6000fd5b5050505060006114fb610faa565b600b54600480546040517fa9059cbb0000000000000000000000000000000000000000000000000000000081526001600160a01b03918216928101929092526024820184905292935091169063a9059cbb90604401602060405180830381600087803b15801561156a57600080fd5b505af115801561157e573d6000803e3d6000fd5b505050506040513d601f19601f820116820180604052508101906109f59190612469565b80158061164457506040517fdd62ed3e0000000000000000000000000000000000000000000000000000000081523060048201526001600160a01b03838116602483015284169063dd62ed3e9060440160206040518083038186803b15801561160a57600080fd5b505afa15801561161e573d6000803e3d6000fd5b505050506040513d601f19601f820116820180604052508101906116429190612450565b155b6116b65760405162461bcd60e51b815260206004820152603660248201527f5361666545524332303a20617070726f76652066726f6d206e6f6e2d7a65726f60448201527f20746f206e6f6e2d7a65726f20616c6c6f77616e6365000000000000000000006064820152608401610676565b6040516001600160a01b038316602482015260448101829052610a4c9084907f095ea7b300000000000000000000000000000000000000000000000000000000906064015b60408051601f198184030181529190526020810180517bffffffffffffffffffffffffffffffffffffffffffffffffffffffff167fffffffff0000000000000000000000000000000000000000000000000000000090931692909217909152611cb3565b606061176e8484600085611d98565b90505b9392505050565b60006117718284612439565b6040516001600160a01b038316602482015260448101829052610a4c9084907fa9059cbb00000000000000000000000000000000000000000000000000000000906064016116fb565b60006117718284612486565b600061177182846124a5565b60005474010000000000000000000000000000000000000000900460ff1661184f5760405162461bcd60e51b815260206004820152601460248201527f5061757361626c653a206e6f74207061757365640000000000000000000000006044820152606401610676565b600080547fffffffffffffffffffffff00ffffffffffffffffffffffffffffffffffffffff1690557f5db9ee0a495bf2e6ff9c91a7834c1ba4fdd244a5e8aa4e537bd38aeae4b073aa335b6040516001600160a01b03909116815260200160405180910390a1565b600c54600b546118d6916001600160a01b0391821691166000196115a2565b600354600a54610ac3916001600160a01b0391821691166000196115a2565b60005474010000000000000000000000000000000000000000900460ff16156119605760405162461bcd60e51b815260206004820152601060248201527f5061757361626c653a20706175736564000000000000000000000000000000006044820152606401610676565b3233148061197857506004546001600160a01b031633145b6119c45760405162461bcd60e51b815260206004820152600960248201527f21636f6e747261637400000000000000000000000000000000000000000000006044820152606401610676565b600c54600d546040517fe2bbb1580000000000000000000000000000000000000000000000000000000081526004810191909152600060248201526001600160a01b039091169063e2bbb15890604401600060405180830381600087803b158015611a2e57600080fd5b505af1158015611a42573d6000803e3d6000fd5b5050600a546040517f70a08231000000000000000000000000000000000000000000000000000000008152306004820152600093506001600160a01b0390911691506370a082319060240160206040518083038186803b158015611aa557600080fd5b505afa158015611ab9573d6000803e3d6000fd5b505050506040513d601f19601f82011682018060405250810190611add9190612450565b905080156109f557611aee82611ed7565b611af661219c565b611afe611133565b42600e5560405133907f577a37fdb49a88d66684922c6f913df5239b4f214b2b97c53ef8e3bbb2034cb590600090a25050565b600080546001600160a01b038381167fffffffffffffffffffffffff0000000000000000000000000000000000000000831681178455604051919092169283917f8be0079c531659141344cd1fd0a4f28419497f9722a3daafe3b4186f6b6457e09190a35050565b600061177182846124e0565b60005474010000000000000000000000000000000000000000900460ff1615611c105760405162461bcd60e51b815260206004820152601060248201527f5061757361626c653a20706175736564000000000000000000000000000000006044820152606401610676565b600080547fffffffffffffffffffffff00ffffffffffffffffffffffffffffffffffffffff16740100000000000000000000000000000000000000001790557f62e78cea01bee320cd4e420270b5ea74000d11b0c9f74754ebdbfc544b05a25861189a3390565b600c54600b54611c95916001600160a01b03918216911660006115a2565b600354600a54610ac3916001600160a01b03918216911660006115a2565b6000611d08826040518060400160405280602081526020017f5361666545524332303a206c6f772d6c6576656c2063616c6c206661696c6564815250856001600160a01b031661175f9092919063ffffffff16565b805190915015610a4c5780806020019051810190611d269190612469565b610a4c5760405162461bcd60e51b815260206004820152602a60248201527f5361666545524332303a204552433230206f7065726174696f6e20646964206e60448201527f6f742073756363656564000000000000000000000000000000000000000000006064820152608401610676565b606082471015611e105760405162461bcd60e51b815260206004820152602660248201527f416464726573733a20696e73756666696369656e742062616c616e636520666f60448201527f722063616c6c00000000000000000000000000000000000000000000000000006064820152608401610676565b843b611e5e5760405162461bcd60e51b815260206004820152601d60248201527f416464726573733a2063616c6c20746f206e6f6e2d636f6e74726163740000006044820152606401610676565b600080866001600160a01b03168587604051611e7a9190612524565b60006040518083038185875af1925050503d8060008114611eb7576040519150601f19603f3d011682016040523d82523d6000602084013e611ebc565b606091505b5091509150611ecc8282866122f3565b979650505050505050565b600a546040517f70a08231000000000000000000000000000000000000000000000000000000008152306004820152600091611f81916103e891610a1691602d916001600160a01b0316906370a082319060240160206040518083038186803b158015611f4357600080fd5b505afa158015611f57573d6000803e3d6000fd5b505050506040513d601f19601f82011682018060405250810190611f7b9190612450565b906117cd565b6003546040517f38ed17390000000000000000000000000000000000000000000000000000000081529192506001600160a01b0316906338ed173990611fd5908490600090600f9030904290600401612540565b600060405180830381600087803b158015611fef57600080fd5b505af1158015612003573d6000803e3d6000fd5b505050506040513d6000823e601f3d908101601f1916820160405261202b91908101906125e5565b506009546040517f70a082310000000000000000000000000000000000000000000000000000000081523060048201526000916001600160a01b0316906370a082319060240160206040518083038186803b15801561208957600080fd5b505afa15801561209d573d6000803e3d6000fd5b505050506040513d601f19601f820116820180604052508101906120c19190612450565b905060006120e06103e8610a16600754856117cd90919063ffffffff16565b90506001600160a01b0384161561210d57600954612108906001600160a01b03168583611784565b612124565b600954612124906001600160a01b03163283611784565b60006121416103e8610a16600854866117cd90919063ffffffff16565b600554600954919250612161916001600160a01b03908116911683611784565b60006121746103e8610a168660706117cd565b600254600954919250612194916001600160a01b03908116911683611784565b505050505050565b600a54600b546001600160a01b03908116911614610ac357600a546040517f70a082310000000000000000000000000000000000000000000000000000000081523060048201526000916001600160a01b0316906370a082319060240160206040518083038186803b15801561221157600080fd5b505afa158015612225573d6000803e3d6000fd5b505050506040513d601f19601f820116820180604052508101906122499190612450565b6003546040517f38ed17390000000000000000000000000000000000000000000000000000000081529192506001600160a01b0316906338ed17399061229d90849060009060109030904290600401612540565b600060405180830381600087803b1580156122b757600080fd5b505af11580156122cb573d6000803e3d6000fd5b505050506040513d6000823e601f3d908101601f191682016040526109f591908101906125e5565b60608315612302575081611771565b8251156123125782518084602001fd5b8160405162461bcd60e51b815260040161067691906126a3565b8015158114610c2157600080fd5b60006020828403121561234c57600080fd5b81356117718161232c565b6020808252825182820181905260009190848201906040850190845b818110156123985783516001600160a01b031683529284019291840191600101612373565b50909695505050505050565b6000602082840312156123b657600080fd5b5035919050565b6000602082840312156123cf57600080fd5b81356001600160a01b038116811461177157600080fd5b600080604083850312156123f957600080fd5b505080516020909101519092909150565b7f4e487b7100000000000000000000000000000000000000000000000000000000600052601160045260246000fd5b60008282101561244b5761244b61240a565b500390565b60006020828403121561246257600080fd5b5051919050565b60006020828403121561247b57600080fd5b81516117718161232c565b60008160001904831182151516156124a0576124a061240a565b500290565b6000826124db577f4e487b7100000000000000000000000000000000000000000000000000000000600052601260045260246000fd5b500490565b600082198211156124f3576124f361240a565b500190565b60005b838110156125135781810151838201526020016124fb565b83811115610bad5750506000910152565b600082516125368184602087016124f8565b9190910192915050565b600060a082018783526020878185015260a0604085015281875480845260c0860191508860005282600020935060005b818110156125955784546001600160a01b031683526001948501949284019201612570565b50506001600160a01b03969096166060850152505050608001529392505050565b7f4e487b7100000000000000000000000000000000000000000000000000000000600052604160045260246000fd5b600060208083850312156125f857600080fd5b825167ffffffffffffffff8082111561261057600080fd5b818501915085601f83011261262457600080fd5b815181811115612636576126366125b6565b8060051b604051601f19603f8301168101818110858211171561265b5761265b6125b6565b60405291825284820192508381018501918883111561267957600080fd5b938501935b828510156126975784518452938501939285019261267e565b98975050505050505050565b60208152600082518060208401526126c28160408501602087016124f8565b601f01601f1916919091016040019291505056fea2646970667358221220c4a88e495185d59add88e703e7bcfc70f7597557c977d78fdf7c1a944d0a5b8a64736f6c63430008080033",
  "linkReferences": {},
  "deployedLinkReferences": {}
}