{
  "_format": "hh-sol-artifact-1",
  "contractName": "TokenSale",
  "sourceName": "contracts/TokenSale.sol",
  "abi": [
    {
      "inputs": [
        {
          "internalType": "contract IERC20Token",
          "name": "_tokenContract",
          "type": "address"
        }
      ],
      "stateMutability": "nonpayable",
      "type": "constructor"
    },
    {
      "anonymous": false,
      "inputs": [
        {
          "indexed": false,
          "internalType": "address",
          "name": "buyer",
          "type": "address"
        },
        {
          "indexed": false,
          "internalType": "uint256",
          "name": "amount",
          "type": "uint256"
        }
      ],
      "name": "Sold",
      "type": "event"
    },
    {
      "inputs": [
        {
          "internalType": "address",
          "name": "account",
          "type": "address"
        }
      ],
      "name": "balanceOf",
      "outputs": [
        {
          "internalType": "uint256",
          "name": "",
          "type": "uint256"
        }
      ],
      "stateMutability": "view",
      "type": "function"
    },
    {
      "inputs": [],
      "name": "burnUnsold",
      "outputs": [],
      "stateMutability": "nonpayable",
      "type": "function"
    },
    {
      "inputs": [
        {
          "internalType": "uint256",
          "name": "numberOfTokens",
          "type": "uint256"
        }
      ],
      "name": "buyTokens",
      "outputs": [],
      "stateMutability": "payable",
      "type": "function"
    },
    {
      "inputs": [],
      "name": "claim",
      "outputs": [],
      "stateMutability": "nonpayable",
      "type": "function"
    },
    {
      "inputs": [],
      "name": "completed",
      "outputs": [
        {
          "internalType": "bool",
          "name": "",
          "type": "bool"
        }
      ],
      "stateMutability": "view",
      "type": "function"
    },
    {
      "inputs": [],
      "name": "endSale",
      "outputs": [],
      "stateMutability": "nonpayable",
      "type": "function"
    },
    {
      "inputs": [],
      "name": "start",
      "outputs": [],
      "stateMutability": "nonpayable",
      "type": "function"
    },
    {
      "inputs": [],
      "name": "started",
      "outputs": [
        {
          "internalType": "bool",
          "name": "",
          "type": "bool"
        }
      ],
      "stateMutability": "view",
      "type": "function"
    },
    {
      "inputs": [],
      "name": "tokenContract",
      "outputs": [
        {
          "internalType": "contract IERC20Token",
          "name": "",
          "type": "address"
        }
      ],
      "stateMutability": "view",
      "type": "function"
    },
    {
      "inputs": [],
      "name": "tokensSold",
      "outputs": [
        {
          "internalType": "uint256",
          "name": "",
          "type": "uint256"
        }
      ],
      "stateMutability": "view",
      "type": "function"
    }
  ],
  "bytecode": "0x608060405268a2a15d09519be0000060045534801561001d57600080fd5b50604051610d6a380380610d6a83398101604081905261003c91610079565b60018054336001600160a01b031991821617909155600080549091166001600160a01b03929092169190911790556003805460ff191690556100a9565b60006020828403121561008b57600080fd5b81516001600160a01b03811681146100a257600080fd5b9392505050565b610cb2806100b86000396000f3fe6080604052600436106100b15760003560e01c806355a373d6116100695780639d9a7fe91161004e5780639d9a7fe9146101dd578063b52a5851146101fc578063be9a65551461021157600080fd5b806355a373d61461014857806370a082311461019a57600080fd5b8063380d831b1161009a578063380d831b146100fa5780634e71d92d1461010f578063518ab2a81461012457600080fd5b80631f2698ab146100b65780633610724e146100e5575b600080fd5b3480156100c257600080fd5b506003546100d09060ff1681565b60405190151581526020015b60405180910390f35b6100f86100f3366004610a05565b610226565b005b34801561010657600080fd5b506100f86105dc565b34801561011b57600080fd5b506100f86106db565b34801561013057600080fd5b5061013a60055481565b6040519081526020016100dc565b34801561015457600080fd5b506000546101759073ffffffffffffffffffffffffffffffffffffffff1681565b60405173ffffffffffffffffffffffffffffffffffffffff90911681526020016100dc565b3480156101a657600080fd5b5061013a6101b5366004610a1e565b73ffffffffffffffffffffffffffffffffffffffff1660009081526002602052604090205490565b3480156101e957600080fd5b506003546100d090610100900460ff1681565b34801561020857600080fd5b506100f8610843565b34801561021d57600080fd5b506100f8610976565b60035460ff1661027d5760405162461bcd60e51b815260206004820152601760248201527f73616c65206973206e6f7420737461727465642079657400000000000000000060448201526064015b60405180910390fd5b600354610100900460ff16156102d55760405162461bcd60e51b815260206004820152600f60248201527f73616c652069732073746f7070656400000000000000000000000000000000006044820152606401610274565b6102e781670de0b6b3a76400006109c7565b34146103355760405162461bcd60e51b815260206004820152600d60248201527f696e76616c696420746f74616c000000000000000000000000000000000000006044820152606401610274565b60006103e98260008054906101000a900473ffffffffffffffffffffffffffffffffffffffff1673ffffffffffffffffffffffffffffffffffffffff1663313ce5676040518163ffffffff1660e01b815260040160206040518083038186803b1580156103a157600080fd5b505afa1580156103b5573d6000803e3d6000fd5b505050506040513d601f19601f820116820180604052508101906103d99190610a5b565b6103e490600a610b91565b6109c7565b905080600560008282546103fd9190610ba0565b90915550506005546000546040517f70a0823100000000000000000000000000000000000000000000000000000000815230600482015273ffffffffffffffffffffffffffffffffffffffff909116906370a082319060240160206040518083038186803b15801561046e57600080fd5b505afa158015610482573d6000803e3d6000fd5b505050506040513d601f19601f820116820180604052508101906104a69190610bb8565b101561051a5760405162461bcd60e51b815260206004820152602260248201527f6e6f7420656e6f75676820746f6b656e73206c65667420696e20636f6e74726160448201527f63740000000000000000000000000000000000000000000000000000000000006064820152608401610274565b60408051338152602081018490527fae92ab4b6f8f401ead768d3273e6bb937a13e39827d19c6376e8fd4512a05d9a910160405180910390a13360009081526002602052604081208054839290610572908490610ba0565b90915550506004543360009081526002602052604090205411156105d85760405162461bcd60e51b815260206004820152601e60248201527f426f75676874206d6f7265207468616e206d617820616c6c6f746d656e7400006044820152606401610274565b5050565b60015473ffffffffffffffffffffffffffffffffffffffff16331461060057600080fd5b60035460ff16151560011461061457600080fd5b604051600090339047908381818185875af1925050503d8060008114610656576040519150601f19603f3d011682016040523d82523d6000602084013e61065b565b606091505b50509050806106ac5760405162461bcd60e51b815260206004820152600f60248201527f7472616e73666572206661696c656400000000000000000000000000000000006044820152606401610274565b50600380547fffffffffffffffffffffffffffffffffffffffffffffffffffffffffffff00ff16610100179055565b600354610100900460ff166107325760405162461bcd60e51b815260206004820152601060248201527f4e6f7420636f6d706c65746520796574000000000000000000000000000000006044820152606401610274565b33600081815260026020526040808220805490839055915490517fa9059cbb000000000000000000000000000000000000000000000000000000008152600481019390935260248301829052909173ffffffffffffffffffffffffffffffffffffffff9091169063a9059cbb90604401602060405180830381600087803b1580156107bc57600080fd5b505af11580156107d0573d6000803e3d6000fd5b505050506040513d601f19601f820116820180604052508101906107f49190610bd1565b6108405760405162461bcd60e51b815260206004820152600e60248201527f7472616e73666572206572726f720000000000000000000000000000000000006044820152606401610274565b50565b60015473ffffffffffffffffffffffffffffffffffffffff16331461086757600080fd5b600354610100900460ff1661087b57600080fd5b6000546040517f70a0823100000000000000000000000000000000000000000000000000000000815230600482015273ffffffffffffffffffffffffffffffffffffffff909116906342966c689082906370a082319060240160206040518083038186803b1580156108ec57600080fd5b505afa158015610900573d6000803e3d6000fd5b505050506040513d601f19601f820116820180604052508101906109249190610bb8565b6040518263ffffffff1660e01b815260040161094291815260200190565b600060405180830381600087803b15801561095c57600080fd5b505af1158015610970573d6000803e3d6000fd5b50505050565b60015473ffffffffffffffffffffffffffffffffffffffff16331461099a57600080fd5b600380547fffffffffffffffffffffffffffffffffffffffffffffffffffffffffffffff00166001179055565b6000826109d6575060006109ff565b60006109e28385610bf3565b9050826109ef8583610c12565b146109fc576109fc610c4d565b90505b92915050565b600060208284031215610a1757600080fd5b5035919050565b600060208284031215610a3057600080fd5b813573ffffffffffffffffffffffffffffffffffffffff81168114610a5457600080fd5b9392505050565b600060208284031215610a6d57600080fd5b815160ff81168114610a5457600080fd5b7f4e487b7100000000000000000000000000000000000000000000000000000000600052601160045260246000fd5b600181815b80851115610ae8578160001904821115610ace57610ace610a7e565b80851615610adb57918102915b93841c9390800290610ab2565b509250929050565b600082610aff575060016109ff565b81610b0c575060006109ff565b8160018114610b225760028114610b2c57610b48565b60019150506109ff565b60ff841115610b3d57610b3d610a7e565b50506001821b6109ff565b5060208310610133831016604e8410600b8410161715610b6b575081810a6109ff565b610b758383610aad565b8060001904821115610b8957610b89610a7e565b029392505050565b6000610a5460ff841683610af0565b60008219821115610bb357610bb3610a7e565b500190565b600060208284031215610bca57600080fd5b5051919050565b600060208284031215610be357600080fd5b81518015158114610a5457600080fd5b6000816000190483118215151615610c0d57610c0d610a7e565b500290565b600082610c48577f4e487b7100000000000000000000000000000000000000000000000000000000600052601260045260246000fd5b500490565b7f4e487b7100000000000000000000000000000000000000000000000000000000600052600160045260246000fdfea2646970667358221220271c1eb5166f987db7f0d2ba394435bd0da0695386fda4e42b4f7ffa1ca39b1864736f6c63430008080033",
  "linkReferences": {},
  "deployedLinkReferences": {}
}