{
    "_format": "hh-sol-artifact-1",
    "contractName": "Treasury",
    "sourceName": "contracts/Treasury.sol",
    "abi": [
        {
            "anonymous": false,
            "inputs": [
                {
                    "indexed": true,
                    "internalType": "address",
                    "name": "from",
                    "type": "address"
                },
                {
                    "indexed": false,
                    "internalType": "uint256",
                    "name": "tulipAmount",
                    "type": "uint256"
                },
                {
                    "indexed": false,
                    "internalType": "uint256",
                    "name": "bondAmount",
                    "type": "uint256"
                }
            ],
            "name": "BoughtBonds",
            "type": "event"
        },
        {
            "anonymous": false,
            "inputs": [
                {
                    "indexed": true,
                    "internalType": "address",
                    "name": "from",
                    "type": "address"
                },
                {
                    "indexed": false,
                    "internalType": "uint256",
                    "name": "bondAmount",
                    "type": "uint256"
                }
            ],
            "name": "BurnedBonds",
            "type": "event"
        },
        {
            "anonymous": false,
            "inputs": [
                {
                    "indexed": false,
                    "internalType": "uint256",
                    "name": "timestamp",
                    "type": "uint256"
                },
                {
                    "indexed": false,
                    "internalType": "uint256",
                    "name": "seigniorage",
                    "type": "uint256"
                }
            ],
            "name": "DaoFundFunded",
            "type": "event"
        },
        {
            "anonymous": false,
            "inputs": [
                {
                    "indexed": false,
                    "internalType": "uint256",
                    "name": "timestamp",
                    "type": "uint256"
                },
                {
                    "indexed": false,
                    "internalType": "uint256",
                    "name": "seigniorage",
                    "type": "uint256"
                }
            ],
            "name": "DevFundFunded",
            "type": "event"
        },
        {
            "anonymous": false,
            "inputs": [
                {
                    "indexed": false,
                    "internalType": "uint256",
                    "name": "timestamp",
                    "type": "uint256"
                },
                {
                    "indexed": false,
                    "internalType": "uint256",
                    "name": "seigniorage",
                    "type": "uint256"
                }
            ],
            "name": "GardenFunded",
            "type": "event"
        },
        {
            "anonymous": false,
            "inputs": [
                {
                    "indexed": true,
                    "internalType": "address",
                    "name": "executor",
                    "type": "address"
                },
                {
                    "indexed": false,
                    "internalType": "uint256",
                    "name": "at",
                    "type": "uint256"
                }
            ],
            "name": "Initialized",
            "type": "event"
        },
        {
            "anonymous": false,
            "inputs": [
                {
                    "indexed": true,
                    "internalType": "address",
                    "name": "from",
                    "type": "address"
                },
                {
                    "indexed": false,
                    "internalType": "uint256",
                    "name": "tulipAmount",
                    "type": "uint256"
                },
                {
                    "indexed": false,
                    "internalType": "uint256",
                    "name": "bondAmount",
                    "type": "uint256"
                }
            ],
            "name": "RedeemedBonds",
            "type": "event"
        },
        {
            "anonymous": false,
            "inputs": [
                {
                    "indexed": false,
                    "internalType": "uint256",
                    "name": "timestamp",
                    "type": "uint256"
                },
                {
                    "indexed": false,
                    "internalType": "uint256",
                    "name": "seigniorage",
                    "type": "uint256"
                }
            ],
            "name": "TreasuryFunded",
            "type": "event"
        },
        {
            "inputs": [],
            "name": "PERIOD",
            "outputs": [
                {
                    "internalType": "uint256",
                    "name": "",
                    "type": "uint256"
                }
            ],
            "stateMutability": "view",
            "type": "function"
        },
        {
            "inputs": [],
            "name": "allocateSeigniorage",
            "outputs": [],
            "stateMutability": "nonpayable",
            "type": "function"
        },
        {
            "inputs": [],
            "name": "bondDepletionFloorPercent",
            "outputs": [
                {
                    "internalType": "uint256",
                    "name": "",
                    "type": "uint256"
                }
            ],
            "stateMutability": "view",
            "type": "function"
        },
        {
            "inputs": [],
            "name": "bootstrapEpochs",
            "outputs": [
                {
                    "internalType": "uint256",
                    "name": "",
                    "type": "uint256"
                }
            ],
            "stateMutability": "view",
            "type": "function"
        },
        {
            "inputs": [],
            "name": "bootstrapSupplyExpansionPercent",
            "outputs": [
                {
                    "internalType": "uint256",
                    "name": "",
                    "type": "uint256"
                }
            ],
            "stateMutability": "view",
            "type": "function"
        },
        {
            "inputs": [],
            "name": "bud",
            "outputs": [
                {
                    "internalType": "address",
                    "name": "",
                    "type": "address"
                }
            ],
            "stateMutability": "view",
            "type": "function"
        },
        {
            "inputs": [
                {
                    "internalType": "uint256",
                    "name": "_tulipAmount",
                    "type": "uint256"
                },
                {
                    "internalType": "uint256",
                    "name": "targetPrice",
                    "type": "uint256"
                }
            ],
            "name": "buyBonds",
            "outputs": [],
            "stateMutability": "nonpayable",
            "type": "function"
        },
        {
            "inputs": [],
            "name": "daoFund",
            "outputs": [
                {
                    "internalType": "address",
                    "name": "",
                    "type": "address"
                }
            ],
            "stateMutability": "view",
            "type": "function"
        },
        {
            "inputs": [],
            "name": "daoFundSharedPercent",
            "outputs": [
                {
                    "internalType": "uint256",
                    "name": "",
                    "type": "uint256"
                }
            ],
            "stateMutability": "view",
            "type": "function"
        },
        {
            "inputs": [],
            "name": "devFund",
            "outputs": [
                {
                    "internalType": "address",
                    "name": "",
                    "type": "address"
                }
            ],
            "stateMutability": "view",
            "type": "function"
        },
        {
            "inputs": [],
            "name": "devFundSharedPercent",
            "outputs": [
                {
                    "internalType": "uint256",
                    "name": "",
                    "type": "uint256"
                }
            ],
            "stateMutability": "view",
            "type": "function"
        },
        {
            "inputs": [],
            "name": "discountPercent",
            "outputs": [
                {
                    "internalType": "uint256",
                    "name": "",
                    "type": "uint256"
                }
            ],
            "stateMutability": "view",
            "type": "function"
        },
        {
            "inputs": [],
            "name": "epoch",
            "outputs": [
                {
                    "internalType": "uint256",
                    "name": "",
                    "type": "uint256"
                }
            ],
            "stateMutability": "view",
            "type": "function"
        },
        {
            "inputs": [],
            "name": "epochSupplyContractionLeft",
            "outputs": [
                {
                    "internalType": "uint256",
                    "name": "",
                    "type": "uint256"
                }
            ],
            "stateMutability": "view",
            "type": "function"
        },
        {
            "inputs": [
                {
                    "internalType": "uint256",
                    "name": "",
                    "type": "uint256"
                }
            ],
            "name": "excludedFromTotalSupply",
            "outputs": [
                {
                    "internalType": "address",
                    "name": "",
                    "type": "address"
                }
            ],
            "stateMutability": "view",
            "type": "function"
        },
        {
            "inputs": [],
            "name": "garden",
            "outputs": [
                {
                    "internalType": "address",
                    "name": "",
                    "type": "address"
                }
            ],
            "stateMutability": "view",
            "type": "function"
        },
        {
            "inputs": [
                {
                    "internalType": "uint256",
                    "name": "amount",
                    "type": "uint256"
                }
            ],
            "name": "gardenAllocateSeigniorage",
            "outputs": [],
            "stateMutability": "nonpayable",
            "type": "function"
        },
        {
            "inputs": [
                {
                    "internalType": "address",
                    "name": "_token",
                    "type": "address"
                },
                {
                    "internalType": "uint256",
                    "name": "_amount",
                    "type": "uint256"
                },
                {
                    "internalType": "address",
                    "name": "_to",
                    "type": "address"
                }
            ],
            "name": "gardenGovernanceRecoverUnsupported",
            "outputs": [],
            "stateMutability": "nonpayable",
            "type": "function"
        },
        {
            "inputs": [
                {
                    "internalType": "uint256",
                    "name": "_withdrawLockupEpochs",
                    "type": "uint256"
                },
                {
                    "internalType": "uint256",
                    "name": "_rewardLockupEpochs",
                    "type": "uint256"
                }
            ],
            "name": "gardenSetLockUp",
            "outputs": [],
            "stateMutability": "nonpayable",
            "type": "function"
        },
        {
            "inputs": [
                {
                    "internalType": "address",
                    "name": "_operator",
                    "type": "address"
                }
            ],
            "name": "gardenSetOperator",
            "outputs": [],
            "stateMutability": "nonpayable",
            "type": "function"
        },
        {
            "inputs": [],
            "name": "getBondDiscountRate",
            "outputs": [
                {
                    "internalType": "uint256",
                    "name": "_rate",
                    "type": "uint256"
                }
            ],
            "stateMutability": "view",
            "type": "function"
        },
        {
            "inputs": [],
            "name": "getBondPremiumRate",
            "outputs": [
                {
                    "internalType": "uint256",
                    "name": "_rate",
                    "type": "uint256"
                }
            ],
            "stateMutability": "view",
            "type": "function"
        },
        {
            "inputs": [],
            "name": "getBurnableTulipLeft",
            "outputs": [
                {
                    "internalType": "uint256",
                    "name": "_burnableTulipLeft",
                    "type": "uint256"
                }
            ],
            "stateMutability": "view",
            "type": "function"
        },
        {
            "inputs": [],
            "name": "getRedeemableBonds",
            "outputs": [
                {
                    "internalType": "uint256",
                    "name": "_redeemableBonds",
                    "type": "uint256"
                }
            ],
            "stateMutability": "view",
            "type": "function"
        },
        {
            "inputs": [],
            "name": "getReserve",
            "outputs": [
                {
                    "internalType": "uint256",
                    "name": "",
                    "type": "uint256"
                }
            ],
            "stateMutability": "view",
            "type": "function"
        },
        {
            "inputs": [],
            "name": "getTulipCirculatingSupply",
            "outputs": [
                {
                    "internalType": "uint256",
                    "name": "",
                    "type": "uint256"
                }
            ],
            "stateMutability": "view",
            "type": "function"
        },
        {
            "inputs": [],
            "name": "getTulipPrice",
            "outputs": [
                {
                    "internalType": "uint256",
                    "name": "tulipPrice",
                    "type": "uint256"
                }
            ],
            "stateMutability": "view",
            "type": "function"
        },
        {
            "inputs": [],
            "name": "getTulipUpdatedPrice",
            "outputs": [
                {
                    "internalType": "uint256",
                    "name": "_tulipPrice",
                    "type": "uint256"
                }
            ],
            "stateMutability": "view",
            "type": "function"
        },
        {
            "inputs": [
                {
                    "internalType": "contract IERC20",
                    "name": "_token",
                    "type": "address"
                },
                {
                    "internalType": "uint256",
                    "name": "_amount",
                    "type": "uint256"
                },
                {
                    "internalType": "address",
                    "name": "_to",
                    "type": "address"
                }
            ],
            "name": "governanceRecoverUnsupported",
            "outputs": [],
            "stateMutability": "nonpayable",
            "type": "function"
        },
        {
            "inputs": [
                {
                    "internalType": "address",
                    "name": "_tulip",
                    "type": "address"
                },
                {
                    "internalType": "address",
                    "name": "_bud",
                    "type": "address"
                },
                {
                    "internalType": "address",
                    "name": "_petal",
                    "type": "address"
                },
                {
                    "internalType": "address",
                    "name": "_tulipOracle",
                    "type": "address"
                },
                {
                    "internalType": "address",
                    "name": "_garden",
                    "type": "address"
                }
            ],
            "name": "initialize",
            "outputs": [],
            "stateMutability": "nonpayable",
            "type": "function"
        },
        {
            "inputs": [],
            "name": "initialized",
            "outputs": [
                {
                    "internalType": "bool",
                    "name": "",
                    "type": "bool"
                }
            ],
            "stateMutability": "view",
            "type": "function"
        },
        {
            "inputs": [],
            "name": "isInitialized",
            "outputs": [
                {
                    "internalType": "bool",
                    "name": "",
                    "type": "bool"
                }
            ],
            "stateMutability": "view",
            "type": "function"
        },
        {
            "inputs": [],
            "name": "maxDebtRatioPercent",
            "outputs": [
                {
                    "internalType": "uint256",
                    "name": "",
                    "type": "uint256"
                }
            ],
            "stateMutability": "view",
            "type": "function"
        },
        {
            "inputs": [],
            "name": "maxDiscountRate",
            "outputs": [
                {
                    "internalType": "uint256",
                    "name": "",
                    "type": "uint256"
                }
            ],
            "stateMutability": "view",
            "type": "function"
        },
        {
            "inputs": [
                {
                    "internalType": "uint256",
                    "name": "",
                    "type": "uint256"
                }
            ],
            "name": "maxExpansionTiers",
            "outputs": [
                {
                    "internalType": "uint256",
                    "name": "",
                    "type": "uint256"
                }
            ],
            "stateMutability": "view",
            "type": "function"
        },
        {
            "inputs": [],
            "name": "maxPremiumRate",
            "outputs": [
                {
                    "internalType": "uint256",
                    "name": "",
                    "type": "uint256"
                }
            ],
            "stateMutability": "view",
            "type": "function"
        },
        {
            "inputs": [],
            "name": "maxSupplyContractionPercent",
            "outputs": [
                {
                    "internalType": "uint256",
                    "name": "",
                    "type": "uint256"
                }
            ],
            "stateMutability": "view",
            "type": "function"
        },
        {
            "inputs": [],
            "name": "maxSupplyExpansionPercent",
            "outputs": [
                {
                    "internalType": "uint256",
                    "name": "",
                    "type": "uint256"
                }
            ],
            "stateMutability": "view",
            "type": "function"
        },
        {
            "inputs": [],
            "name": "mintingFactorForPayingDebt",
            "outputs": [
                {
                    "internalType": "uint256",
                    "name": "",
                    "type": "uint256"
                }
            ],
            "stateMutability": "view",
            "type": "function"
        },
        {
            "inputs": [],
            "name": "nextEpochPoint",
            "outputs": [
                {
                    "internalType": "uint256",
                    "name": "",
                    "type": "uint256"
                }
            ],
            "stateMutability": "view",
            "type": "function"
        },
        {
            "inputs": [],
            "name": "operator",
            "outputs": [
                {
                    "internalType": "address",
                    "name": "",
                    "type": "address"
                }
            ],
            "stateMutability": "view",
            "type": "function"
        },
        {
            "inputs": [],
            "name": "petal",
            "outputs": [
                {
                    "internalType": "address",
                    "name": "",
                    "type": "address"
                }
            ],
            "stateMutability": "view",
            "type": "function"
        },
        {
            "inputs": [],
            "name": "premiumPercent",
            "outputs": [
                {
                    "internalType": "uint256",
                    "name": "",
                    "type": "uint256"
                }
            ],
            "stateMutability": "view",
            "type": "function"
        },
        {
            "inputs": [],
            "name": "premiumThreshold",
            "outputs": [
                {
                    "internalType": "uint256",
                    "name": "",
                    "type": "uint256"
                }
            ],
            "stateMutability": "view",
            "type": "function"
        },
        {
            "inputs": [],
            "name": "previousEpochTulipPrice",
            "outputs": [
                {
                    "internalType": "uint256",
                    "name": "",
                    "type": "uint256"
                }
            ],
            "stateMutability": "view",
            "type": "function"
        },
        {
            "inputs": [
                {
                    "internalType": "uint256",
                    "name": "_bondAmount",
                    "type": "uint256"
                },
                {
                    "internalType": "uint256",
                    "name": "targetPrice",
                    "type": "uint256"
                }
            ],
            "name": "redeemBonds",
            "outputs": [],
            "stateMutability": "nonpayable",
            "type": "function"
        },
        {
            "inputs": [],
            "name": "seigniorageExpansionFloorPercent",
            "outputs": [
                {
                    "internalType": "uint256",
                    "name": "",
                    "type": "uint256"
                }
            ],
            "stateMutability": "view",
            "type": "function"
        },
        {
            "inputs": [],
            "name": "seigniorageSaved",
            "outputs": [
                {
                    "internalType": "uint256",
                    "name": "",
                    "type": "uint256"
                }
            ],
            "stateMutability": "view",
            "type": "function"
        },
        {
            "inputs": [
                {
                    "internalType": "uint256",
                    "name": "_bondDepletionFloorPercent",
                    "type": "uint256"
                }
            ],
            "name": "setBondDepletionFloorPercent",
            "outputs": [],
            "stateMutability": "nonpayable",
            "type": "function"
        },
        {
            "inputs": [
                {
                    "internalType": "uint256",
                    "name": "_bootstrapEpochs",
                    "type": "uint256"
                },
                {
                    "internalType": "uint256",
                    "name": "_bootstrapSupplyExpansionPercent",
                    "type": "uint256"
                }
            ],
            "name": "setBootstrap",
            "outputs": [],
            "stateMutability": "nonpayable",
            "type": "function"
        },
        {
            "inputs": [
                {
                    "internalType": "uint256",
                    "name": "_discountPercent",
                    "type": "uint256"
                }
            ],
            "name": "setDiscountPercent",
            "outputs": [],
            "stateMutability": "nonpayable",
            "type": "function"
        },
        {
            "inputs": [
                {
                    "internalType": "address",
                    "name": "_daoFund",
                    "type": "address"
                },
                {
                    "internalType": "uint256",
                    "name": "_daoFundSharedPercent",
                    "type": "uint256"
                },
                {
                    "internalType": "address",
                    "name": "_devFund",
                    "type": "address"
                },
                {
                    "internalType": "uint256",
                    "name": "_devFundSharedPercent",
                    "type": "uint256"
                }
            ],
            "name": "setExtraFunds",
            "outputs": [],
            "stateMutability": "nonpayable",
            "type": "function"
        },
        {
            "inputs": [
                {
                    "internalType": "address",
                    "name": "_garden",
                    "type": "address"
                }
            ],
            "name": "setGarden",
            "outputs": [],
            "stateMutability": "nonpayable",
            "type": "function"
        },
        {
            "inputs": [
                {
                    "internalType": "uint256",
                    "name": "_maxDebtRatioPercent",
                    "type": "uint256"
                }
            ],
            "name": "setMaxDebtRatioPercent",
            "outputs": [],
            "stateMutability": "nonpayable",
            "type": "function"
        },
        {
            "inputs": [
                {
                    "internalType": "uint256",
                    "name": "_maxDiscountRate",
                    "type": "uint256"
                }
            ],
            "name": "setMaxDiscountRate",
            "outputs": [],
            "stateMutability": "nonpayable",
            "type": "function"
        },
        {
            "inputs": [
                {
                    "internalType": "uint8",
                    "name": "_index",
                    "type": "uint8"
                },
                {
                    "internalType": "uint256",
                    "name": "_value",
                    "type": "uint256"
                }
            ],
            "name": "setMaxExpansionTiersEntry",
            "outputs": [
                {
                    "internalType": "bool",
                    "name": "",
                    "type": "bool"
                }
            ],
            "stateMutability": "nonpayable",
            "type": "function"
        },
        {
            "inputs": [
                {
                    "internalType": "uint256",
                    "name": "_maxPremiumRate",
                    "type": "uint256"
                }
            ],
            "name": "setMaxPremiumRate",
            "outputs": [],
            "stateMutability": "nonpayable",
            "type": "function"
        },
        {
            "inputs": [
                {
                    "internalType": "uint256",
                    "name": "_maxSupplyContractionPercent",
                    "type": "uint256"
                }
            ],
            "name": "setMaxSupplyContractionPercent",
            "outputs": [],
            "stateMutability": "nonpayable",
            "type": "function"
        },
        {
            "inputs": [
                {
                    "internalType": "uint256",
                    "name": "_maxSupplyExpansionPercent",
                    "type": "uint256"
                }
            ],
            "name": "setMaxSupplyExpansionPercents",
            "outputs": [],
            "stateMutability": "nonpayable",
            "type": "function"
        },
        {
            "inputs": [
                {
                    "internalType": "uint256",
                    "name": "_mintingFactorForPayingDebt",
                    "type": "uint256"
                }
            ],
            "name": "setMintingFactorForPayingDebt",
            "outputs": [],
            "stateMutability": "nonpayable",
            "type": "function"
        },
        {
            "inputs": [
                {
                    "internalType": "address",
                    "name": "_operator",
                    "type": "address"
                }
            ],
            "name": "setOperator",
            "outputs": [],
            "stateMutability": "nonpayable",
            "type": "function"
        },
        {
            "inputs": [
                {
                    "internalType": "uint256",
                    "name": "_premiumPercent",
                    "type": "uint256"
                }
            ],
            "name": "setPremiumPercent",
            "outputs": [],
            "stateMutability": "nonpayable",
            "type": "function"
        },
        {
            "inputs": [
                {
                    "internalType": "uint256",
                    "name": "_premiumThreshold",
                    "type": "uint256"
                }
            ],
            "name": "setPremiumThreshold",
            "outputs": [],
            "stateMutability": "nonpayable",
            "type": "function"
        },
        {
            "inputs": [
                {
                    "internalType": "uint8",
                    "name": "_index",
                    "type": "uint8"
                },
                {
                    "internalType": "uint256",
                    "name": "_value",
                    "type": "uint256"
                }
            ],
            "name": "setSupplyTiersEntry",
            "outputs": [
                {
                    "internalType": "bool",
                    "name": "",
                    "type": "bool"
                }
            ],
            "stateMutability": "nonpayable",
            "type": "function"
        },
        {
            "inputs": [
                {
                    "internalType": "address",
                    "name": "_tulipOracle",
                    "type": "address"
                }
            ],
            "name": "setTulipOracle",
            "outputs": [],
            "stateMutability": "nonpayable",
            "type": "function"
        },
        {
            "inputs": [
                {
                    "internalType": "uint256",
                    "name": "_tulipPriceCeiling",
                    "type": "uint256"
                }
            ],
            "name": "setTulipPriceCeiling",
            "outputs": [],
            "stateMutability": "nonpayable",
            "type": "function"
        },
        {
            "inputs": [],
            "name": "startTime",
            "outputs": [
                {
                    "internalType": "uint256",
                    "name": "",
                    "type": "uint256"
                }
            ],
            "stateMutability": "view",
            "type": "function"
        },
        {
            "inputs": [
                {
                    "internalType": "uint256",
                    "name": "",
                    "type": "uint256"
                }
            ],
            "name": "supplyTiers",
            "outputs": [
                {
                    "internalType": "uint256",
                    "name": "",
                    "type": "uint256"
                }
            ],
            "stateMutability": "view",
            "type": "function"
        },
        {
            "inputs": [],
            "name": "tulip",
            "outputs": [
                {
                    "internalType": "address",
                    "name": "",
                    "type": "address"
                }
            ],
            "stateMutability": "view",
            "type": "function"
        },
        {
            "inputs": [],
            "name": "tulipOracle",
            "outputs": [
                {
                    "internalType": "address",
                    "name": "",
                    "type": "address"
                }
            ],
            "stateMutability": "view",
            "type": "function"
        },
        {
            "inputs": [],
            "name": "tulipPriceCeiling",
            "outputs": [
                {
                    "internalType": "uint256",
                    "name": "",
                    "type": "uint256"
                }
            ],
            "stateMutability": "view",
            "type": "function"
        },
        {
            "inputs": [],
            "name": "tulipPriceOne",
            "outputs": [
                {
                    "internalType": "uint256",
                    "name": "",
                    "type": "uint256"
                }
            ],
            "stateMutability": "view",
            "type": "function"
        }
    ],
    "bytecode": "0x6001805460ff60a01b191690556000600381815560049190915560e060405273693f5e3aa14587e0476e8248439614c6a37a295a608090815273bfba2e4d35f5727f67b0d3aec232cf6a9b3a119560a0527389c2ec89c0f872eac2e058bed0daab0775acd53260c0526200007791600591906200008c565b503480156200008557600080fd5b506200010d565b828054828255906000526020600020908101928215620000e4579160200282015b82811115620000e457825182546001600160a01b0319166001600160a01b03909116178255602090920191600190910190620000ad565b50620000f2929150620000f6565b5090565b5b80821115620000f25760008155600101620000f7565b615029806200011d6000396000f3fe608060405234801561001057600080fd5b50600436106104a85760003560e01c806382cad8381161026b578063bd4202d111610150578063d6087fa8116100c8578063f14698de11610097578063f91901221161007c578063f9190122146108eb578063fcb6f008146108f4578063fd29f7df146108fd57600080fd5b8063f14698de146108d9578063f1519cd4146108e257600080fd5b8063d6087fa8146108ab578063d98f2495146108be578063da3ed419146108c7578063e90b2454146108d057600080fd5b8063caf9bda01161011f578063d1e7bb7711610104578063d1e7bb771461087d578063d2d3f9cc14610890578063d4b149441461089857600080fd5b8063caf9bda014610861578063cecce38e1461086a57600080fd5b8063bd4202d114610834578063c5967c2614610847578063c8412d021461084f578063c8f987f31461085857600080fd5b806399820025116101e3578063b4d1d795116101b2578063b8a878f911610197578063b8a878f914610805578063bbb147131461080e578063bcc81f191461082157600080fd5b8063b4d1d795146107e9578063b74b70c7146107f257600080fd5b8063998200251461079d578063a0487eea146107b0578063a204452b146107c3578063b3ab15fb146107d657600080fd5b80638d934f741161023a57806391bbfed51161021f57806391bbfed514610764578063940e60641461077757806398b762a11461078a57600080fd5b80638d934f7414610748578063900cf0cf1461075b57600080fd5b806382cad83814610711578063874106cc146107245780638c664db61461072d5780638cd0c2cd1461074057600080fd5b806340af7ba511610391578063591663e1116103095780635ceba4aa116102d857806372c054f9116102bd57806372c054f9146106f757806378e97925146106ff57806381d11eaf1461070857600080fd5b80635ceba4aa146106e75780636c64e5ab146106ef57600080fd5b8063591663e1146106bb57806359bf5d39146106ce5780635a0fc79c146106d65780635b756179146106df57600080fd5b806354575af41161036057806355ebdeef1161034557806355ebdeef1461068c57806356ba88b814610695578063570ca735146106a857600080fd5b806354575af41461066657806354f04a111461067957600080fd5b806340af7ba51461061a57806341dc6de51461062d5780634390d2a814610640578063499f3f191461065357600080fd5b8063158ef93e1161042457806329ef1919116103f35780633313b05c116103d85780633313b05c146105db578063392e53cd146105ee5780634013a08e1461061157600080fd5b806329ef1919146105c95780632e9c7b65146105d257600080fd5b8063158ef93e146105655780631fa413c01461059a5780632180fe6a146105ad57806322f832cd146105c057600080fd5b80630cf601751161047b578063118ebbf911610460578063118ebbf91461052c5780631459457a1461053f578063154ec2db1461055257600080fd5b80630cf601751461051c5780630db7eb0b1461052457600080fd5b80630101805f146104ad57806303be7e76146104dd57806304e5c7b1146104f45780630b5bcec714610509575b600080fd5b6007546104c0906001600160a01b031681565b6040516001600160a01b0390911681526020015b60405180910390f35b6104e660215481565b6040519081526020016104d4565b610507610502366004614ba6565b610910565b005b610507610517366004614ba6565b610a6e565b6104e6610b5e565b6104e6610c0e565b61050761053a366004614bbf565b610cae565b61050761054d366004614bf6565b611496565b610507610560366004614ba6565b6117ed565b60015461058a9074010000000000000000000000000000000000000000900460ff1681565b60405190151581526020016104d4565b6105076105a8366004614ba6565b6118aa565b6008546104c0906001600160a01b031681565b6104e660125481565b6104e6601a5481565b6104e660195481565b6105076105e9366004614bbf565b61198b565b60015474010000000000000000000000000000000000000000900460ff1661058a565b6104e6601d5481565b610507610628366004614ba6565b611a73565b61050761063b366004614c67565b611b30565b6020546104c0906001600160a01b031681565b610507610661366004614ba6565b611c22565b610507610674366004614c67565b611d13565b610507610687366004614bbf565b611eac565b6104e6601f5481565b6009546104c0906001600160a01b031681565b6001546104c0906001600160a01b031681565b6105076106c9366004614ba6565b612788565b600d546104e6565b6104e6600d5481565b610507612853565b6104e6613007565b6104e6613136565b6104e66132d2565b6104e660025481565b6104e660115481565b6104c061071f366004614ba6565b6133a8565b6104e660165481565b61050761073b366004614ba6565b6133d2565b6104e661349d565b601e546104c0906001600160a01b031681565b6104e660035481565b610507610772366004614bbf565b6135b0565b61058a610785366004614ca9565b6136f7565b610507610798366004614ba6565b613886565b6104e66107ab366004614ba6565b6138f1565b6104e66107be366004614ba6565b613912565b6105076107d1366004614ba6565b613922565b6105076107e4366004614cdb565b61398d565b6104e661546081565b600a546104c0906001600160a01b031681565b6104e660185481565b61050761081c366004614cdb565b613a2d565b61050761082f366004614cf8565b613acd565b610507610842366004614ba6565b613cd7565b6104e6613dba565b6104e6601c5481565b6104e6601b5481565b6104e6600b5481565b610507610878366004614ba6565b613de4565b6006546104c0906001600160a01b031681565b6104e6613eae565b61058a6108a6366004614ca9565b613f0e565b6105076108b9366004614cdb565b614066565b6104e660105481565b6104e660145481565b6104e660135481565b6104e660155481565b6104e660175481565b6104e6600c5481565b6104e660045481565b61050761090b366004614cdb565b614106565b6001546001600160a01b0316331461097b5760405162461bcd60e51b8152602060048201526024808201527f54726561737572793a2063616c6c6572206973206e6f7420746865206f70657260448201526330ba37b960e11b60648201526084015b60405180910390fd5b600c548110156109f35760405162461bcd60e51b815260206004820152602b60248201527f5f7072656d69756d5468726573686f6c6420657863656564732074756c69705060448201527f726963654365696c696e670000000000000000000000000000000000000000006064820152608401610972565b6096811115610a695760405162461bcd60e51b8152602060048201526024808201527f5f7072656d69756d5468726573686f6c6420697320686967686572207468616e60448201527f20312e35000000000000000000000000000000000000000000000000000000006064820152608401610972565b601b55565b6001546001600160a01b03163314610ad45760405162461bcd60e51b8152602060048201526024808201527f54726561737572793a2063616c6c6572206973206e6f7420746865206f70657260448201526330ba37b960e11b6064820152608401610972565b600a8110158015610ae757506103e88111155b610b595760405162461bcd60e51b815260206004820152602860248201527f5f6d6178537570706c79457870616e73696f6e50657263656e743a206f75742060448201527f6f662072616e67650000000000000000000000000000000000000000000000006064820152608401610972565b601055565b600080610b69613007565b9050600b548111610c0a57601a54610b83575050600b5490565b6000610bac82610ba6670de0b6b3a7640000600b546141b790919063ffffffff16565b906141ca565b90506000610bd7612710610ba6601a54610bd1600b54876141d690919063ffffffff16565b906141b7565b600b54909150610be790826141e2565b93506000601854118015610bfc575060185484115b15610c075760185493505b50505b5090565b600080610c19613007565b9050600c54811115610c0a576000610c436064610ba6601b54600b546141b790919063ffffffff16565b9050808210610ca4576000610c6f612710610ba6601c54610bd1600b54886141d690919063ffffffff16565b600b54909150610c7f90826141e2565b93506000601954118015610c94575060195484115b15610c0757601954935050505090565b600b549250505090565b4360009081526020818152604080832032845290915290205460ff1615610d3d5760405162461bcd60e51b815260206004820152602660248201527f436f6e747261637447756172643a206f6e6520626c6f636b2c206f6e6520667560448201527f6e6374696f6e00000000000000000000000000000000000000000000000000006064820152608401610972565b4360009081526020818152604080832033845290915290205460ff1615610dcc5760405162461bcd60e51b815260206004820152602660248201527f436f6e747261637447756172643a206f6e6520626c6f636b2c206f6e6520667560448201527f6e6374696f6e00000000000000000000000000000000000000000000000000006064820152608401610972565b600254421015610e1e5760405162461bcd60e51b815260206004820152601960248201527f54726561737572793a206e6f74207374617274656420796574000000000000006044820152606401610972565b6006546040805163570ca73560e01b8152905130926001600160a01b03169163570ca735916004808301926020929190829003018186803b158015610e6257600080fd5b505afa158015610e76573d6000803e3d6000fd5b505050506040513d601f19601f82011682018060405250810190610e9a9190614d40565b6001600160a01b0316148015610f3257506007546040805163570ca73560e01b8152905130926001600160a01b03169163570ca735916004808301926020929190829003018186803b158015610eef57600080fd5b505afa158015610f03573d6000803e3d6000fd5b505050506040513d601f19601f82011682018060405250810190610f279190614d40565b6001600160a01b0316145b8015610fc057506008546040805163570ca73560e01b8152905130926001600160a01b03169163570ca735916004808301926020929190829003018186803b158015610f7d57600080fd5b505afa158015610f91573d6000803e3d6000fd5b505050506040513d601f19601f82011682018060405250810190610fb59190614d40565b6001600160a01b0316145b801561104e57506009546040805163570ca73560e01b8152905130926001600160a01b03169163570ca735916004808301926020929190829003018186803b15801561100b57600080fd5b505afa15801561101f573d6000803e3d6000fd5b505050506040513d601f19601f820116820180604052508101906110439190614d40565b6001600160a01b0316145b61109a5760405162461bcd60e51b815260206004820152601e60248201527f54726561737572793a206e656564206d6f7265207065726d697373696f6e00006044820152606401610972565b600082116111105760405162461bcd60e51b815260206004820152602e60248201527f54726561737572793a2063616e6e6f742072656465656d20626f6e647320776960448201527f7468207a65726f20616d6f756e740000000000000000000000000000000000006064820152608401610972565b600061111a613007565b905081811461116b5760405162461bcd60e51b815260206004820152601b60248201527f54726561737572793a2054554c4950207072696365206d6f76656400000000006044820152606401610972565b600c5481116111e25760405162461bcd60e51b815260206004820152603360248201527f54726561737572793a2074756c69705072696365206e6f7420656c696769626c60448201527f6520666f7220626f6e64207075726368617365000000000000000000000000006064820152608401610972565b60006111ec610c0e565b90506000811161123e5760405162461bcd60e51b815260206004820152601b60248201527f54726561737572793a20696e76616c696420626f6e64207261746500000000006044820152606401610972565b6000611256670de0b6b3a7640000610ba687856141b7565b6006546040517f70a0823100000000000000000000000000000000000000000000000000000000815230600482015291925082916001600160a01b03909116906370a082319060240160206040518083038186803b1580156112b757600080fd5b505afa1580156112cb573d6000803e3d6000fd5b505050506040513d601f19601f820116820180604052508101906112ef9190614d5d565b10156113635760405162461bcd60e51b815260206004820152602560248201527f54726561737572793a20747265617375727920686173206e6f206d6f7265206260448201527f75646765740000000000000000000000000000000000000000000000000000006064820152608401610972565b61137b611372600d54836141ee565b600d54906141d6565b600d556007546040517f79cc6790000000000000000000000000000000000000000000000000000000008152336004820152602481018790526001600160a01b03909116906379cc679090604401600060405180830381600087803b1580156113e357600080fd5b505af11580156113f7573d6000803e3d6000fd5b505060065461141392506001600160a01b031690503383614204565b61141b6142ad565b604080518281526020810187905233917f51e0d16595cabc591e64da08e45bb223577e5b9a39cd947b4ddc3472b2dd8878910160405180910390a25050436000908152602081815260408083203284529091528082208054600160ff1991821681179092553384529190922080549091169091179055505050565b60015474010000000000000000000000000000000000000000900460ff16156115015760405162461bcd60e51b815260206004820152601d60248201527f54726561737572793a20616c726561647920696e697469616c697a65640000006044820152606401610972565b600680547fffffffffffffffffffffffff00000000000000000000000000000000000000009081166001600160a01b0388811691909117909255600780548216878416179055600880548216868416179055600a805482168584161790556009805490911691831691909117905561157b42611c20614da5565b600255670de0b6b3a7640000600b81905561159e90606490610ba69060656141b7565b600c556040805161012081018252600081526969e10de76676d0800000602082015269d3c21bcecceda1000000918101919091526a013da329b633647180000060608201526a01a784379d99db4200000060808201526a0422ca8b0a00a42500000060a08201526a084595161401484a00000060c08201526a108b2a2c2802909400000060e08201526a295be96e6406697200000061010082015261164790600e906009614afa565b5060408051610120810182526101c28152610190602082015261015e9181019190915261012c606082015260fa608082015260c860a0820152609660c0820152607d60e082015260646101008201526116a490600f906009614b50565b50610190601055612710601155610dac601281905561012c601355601455606e601b55611b58601c9081556015556101c26016556006546040517f70a082310000000000000000000000000000000000000000000000000000000081523060048201526001600160a01b03909116906370a082319060240160206040518083038186803b15801561173457600080fd5b505afa158015611748573d6000803e3d6000fd5b505050506040513d601f19601f8201168201806040525081019061176c9190614d5d565b600d55600180547fffffffffffffffffffffff000000000000000000000000000000000000000000163390811774010000000000000000000000000000000000000000179091556040514381527f25ff68dd81b34665b5ba7e553ee5511bf6812e12adb4a7e2c0d9e26b3099ce799060200160405180910390a25050505050565b6001546001600160a01b031633146118535760405162461bcd60e51b8152602060048201526024808201527f54726561737572793a2063616c6c6572206973206e6f7420746865206f70657260448201526330ba37b960e11b6064820152608401610972565b614e208111156118a55760405162461bcd60e51b815260206004820152601d60248201527f5f646973636f756e7450657263656e74206973206f76657220323030250000006044820152606401610972565b601a55565b6001546001600160a01b031633146119105760405162461bcd60e51b8152602060048201526024808201527f54726561737572793a2063616c6c6572206973206e6f7420746865206f70657260448201526330ba37b960e11b6064820152608401610972565b6009546040517f97ffe1d7000000000000000000000000000000000000000000000000000000008152600481018390526001600160a01b03909116906397ffe1d7906024015b600060405180830381600087803b15801561197057600080fd5b505af1158015611984573d6000803e3d6000fd5b5050505050565b6001546001600160a01b031633146119f15760405162461bcd60e51b8152602060048201526024808201527f54726561737572793a2063616c6c6572206973206e6f7420746865206f70657260448201526330ba37b960e11b6064820152608401610972565b6009546040517f2ffaaa0900000000000000000000000000000000000000000000000000000000815260048101849052602481018390526001600160a01b0390911690632ffaaa0990604401600060405180830381600087803b158015611a5757600080fd5b505af1158015611a6b573d6000803e3d6000fd5b505050505050565b6001546001600160a01b03163314611ad95760405162461bcd60e51b8152602060048201526024808201527f54726561737572793a2063616c6c6572206973206e6f7420746865206f70657260448201526330ba37b960e11b6064820152608401610972565b614e20811115611b2b5760405162461bcd60e51b815260206004820152601c60248201527f5f7072656d69756d50657263656e74206973206f7665722032303025000000006044820152606401610972565b601c55565b6001546001600160a01b03163314611b965760405162461bcd60e51b8152602060048201526024808201527f54726561737572793a2063616c6c6572206973206e6f7420746865206f70657260448201526330ba37b960e11b6064820152608401610972565b6009546040517f54575af40000000000000000000000000000000000000000000000000000000081526001600160a01b038581166004830152602482018590528381166044830152909116906354575af490606401600060405180830381600087803b158015611c0557600080fd5b505af1158015611c19573d6000803e3d6000fd5b50505050505050565b6001546001600160a01b03163314611c885760405162461bcd60e51b8152602060048201526024808201527f54726561737572793a2063616c6c6572206973206e6f7420746865206f70657260448201526330ba37b960e11b6064820152608401610972565b6127108110158015611c9c5750614e208111155b611d0e5760405162461bcd60e51b815260206004820152602960248201527f5f6d696e74696e67466163746f72466f72506179696e67446562743a206f757460448201527f206f662072616e676500000000000000000000000000000000000000000000006064820152608401610972565b601d55565b6001546001600160a01b03163314611d795760405162461bcd60e51b8152602060048201526024808201527f54726561737572793a2063616c6c6572206973206e6f7420746865206f70657260448201526330ba37b960e11b6064820152608401610972565b6006546001600160a01b0384811691161415611dd75760405162461bcd60e51b815260206004820152600560248201527f74756c69700000000000000000000000000000000000000000000000000000006044820152606401610972565b6008546001600160a01b0384811691161415611e355760405162461bcd60e51b815260206004820152600560248201527f706574616c0000000000000000000000000000000000000000000000000000006044820152606401610972565b6007546001600160a01b0384811691161415611e935760405162461bcd60e51b815260206004820152600360248201527f62756400000000000000000000000000000000000000000000000000000000006044820152606401610972565b611ea76001600160a01b0384168284614204565b505050565b4360009081526020818152604080832032845290915290205460ff1615611f3b5760405162461bcd60e51b815260206004820152602660248201527f436f6e747261637447756172643a206f6e6520626c6f636b2c206f6e6520667560448201527f6e6374696f6e00000000000000000000000000000000000000000000000000006064820152608401610972565b4360009081526020818152604080832033845290915290205460ff1615611fca5760405162461bcd60e51b815260206004820152602660248201527f436f6e747261637447756172643a206f6e6520626c6f636b2c206f6e6520667560448201527f6e6374696f6e00000000000000000000000000000000000000000000000000006064820152608401610972565b60025442101561201c5760405162461bcd60e51b815260206004820152601960248201527f54726561737572793a206e6f74207374617274656420796574000000000000006044820152606401610972565b6006546040805163570ca73560e01b8152905130926001600160a01b03169163570ca735916004808301926020929190829003018186803b15801561206057600080fd5b505afa158015612074573d6000803e3d6000fd5b505050506040513d601f19601f820116820180604052508101906120989190614d40565b6001600160a01b031614801561213057506007546040805163570ca73560e01b8152905130926001600160a01b03169163570ca735916004808301926020929190829003018186803b1580156120ed57600080fd5b505afa158015612101573d6000803e3d6000fd5b505050506040513d601f19601f820116820180604052508101906121259190614d40565b6001600160a01b0316145b80156121be57506008546040805163570ca73560e01b8152905130926001600160a01b03169163570ca735916004808301926020929190829003018186803b15801561217b57600080fd5b505afa15801561218f573d6000803e3d6000fd5b505050506040513d601f19601f820116820180604052508101906121b39190614d40565b6001600160a01b0316145b801561224c57506009546040805163570ca73560e01b8152905130926001600160a01b03169163570ca735916004808301926020929190829003018186803b15801561220957600080fd5b505afa15801561221d573d6000803e3d6000fd5b505050506040513d601f19601f820116820180604052508101906122419190614d40565b6001600160a01b0316145b6122985760405162461bcd60e51b815260206004820152601e60248201527f54726561737572793a206e656564206d6f7265207065726d697373696f6e00006044820152606401610972565b6000821161230e5760405162461bcd60e51b815260206004820152603060248201527f54726561737572793a2063616e6e6f7420707572636861736520626f6e64732060448201527f77697468207a65726f20616d6f756e74000000000000000000000000000000006064820152608401610972565b6000612318613007565b90508181146123695760405162461bcd60e51b815260206004820152601b60248201527f54726561737572793a2054554c4950207072696365206d6f76656400000000006044820152606401610972565b600b5481106123e05760405162461bcd60e51b815260206004820152603360248201527f54726561737572793a2074756c69705072696365206e6f7420656c696769626c60448201527f6520666f7220626f6e64207075726368617365000000000000000000000000006064820152608401610972565b6004548311156124585760405162461bcd60e51b815260206004820152602a60248201527f54726561737572793a206e6f7420656e6f75676820626f6e64206c656674207460448201527f6f207075726368617365000000000000000000000000000000000000000000006064820152608401610972565b6000612462610b5e565b9050600081116124b45760405162461bcd60e51b815260206004820152601b60248201527f54726561737572793a20696e76616c696420626f6e64207261746500000000006044820152606401610972565b60006124cc670de0b6b3a7640000610ba687856141b7565b905060006124d8613136565b9050600061256c83600760009054906101000a90046001600160a01b03166001600160a01b03166318160ddd6040518163ffffffff1660e01b815260040160206040518083038186803b15801561252e57600080fd5b505afa158015612542573d6000803e3d6000fd5b505050506040513d601f19601f820116820180604052508101906125669190614d5d565b906141e2565b9050612589612710610ba6601454856141b790919063ffffffff16565b8111156125d85760405162461bcd60e51b815260206004820152601360248201527f6f766572206d6178206465627420726174696f000000000000000000000000006044820152606401610972565b6006546040517f79cc6790000000000000000000000000000000000000000000000000000000008152336004820152602481018990526001600160a01b03909116906379cc679090604401600060405180830381600087803b15801561263d57600080fd5b505af1158015612651573d6000803e3d6000fd5b50506007546040517f40c10f19000000000000000000000000000000000000000000000000000000008152336004820152602481018790526001600160a01b0390911692506340c10f199150604401602060405180830381600087803b1580156126ba57600080fd5b505af11580156126ce573d6000803e3d6000fd5b505050506040513d601f19601f820116820180604052508101906126f29190614dbd565b5060045461270090886141d6565b60045561270b6142ad565b604080518881526020810185905233917f73017f1b70789e2e66759eeb3c7ec11f59e6eedb55d921cfaec5410dd42a4799910160405180910390a25050436000908152602081815260408083203284529091528082208054600160ff19918216811790925533845291909220805490911690911790555050505050565b6001546001600160a01b031633146127ee5760405162461bcd60e51b8152602060048201526024808201527f54726561737572793a2063616c6c6572206973206e6f7420746865206f70657260448201526330ba37b960e11b6064820152608401610972565b6103e8811015801561280257506127108111155b61284e5760405162461bcd60e51b815260206004820152600c60248201527f6f7574206f662072616e676500000000000000000000000000000000000000006044820152606401610972565b601455565b4360009081526020818152604080832032845290915290205460ff16156128e25760405162461bcd60e51b815260206004820152602660248201527f436f6e747261637447756172643a206f6e6520626c6f636b2c206f6e6520667560448201527f6e6374696f6e00000000000000000000000000000000000000000000000000006064820152608401610972565b4360009081526020818152604080832033845290915290205460ff16156129715760405162461bcd60e51b815260206004820152602660248201527f436f6e747261637447756172643a206f6e6520626c6f636b2c206f6e6520667560448201527f6e6374696f6e00000000000000000000000000000000000000000000000000006064820152608401610972565b6002544210156129c35760405162461bcd60e51b815260206004820152601960248201527f54726561737572793a206e6f74207374617274656420796574000000000000006044820152606401610972565b6129cb613dba565b421015612a1a5760405162461bcd60e51b815260206004820152601860248201527f54726561737572793a206e6f74206f70656e65642079657400000000000000006044820152606401610972565b6006546040805163570ca73560e01b8152905130926001600160a01b03169163570ca735916004808301926020929190829003018186803b158015612a5e57600080fd5b505afa158015612a72573d6000803e3d6000fd5b505050506040513d601f19601f82011682018060405250810190612a969190614d40565b6001600160a01b0316148015612b2e57506007546040805163570ca73560e01b8152905130926001600160a01b03169163570ca735916004808301926020929190829003018186803b158015612aeb57600080fd5b505afa158015612aff573d6000803e3d6000fd5b505050506040513d601f19601f82011682018060405250810190612b239190614d40565b6001600160a01b0316145b8015612bbc57506008546040805163570ca73560e01b8152905130926001600160a01b03169163570ca735916004808301926020929190829003018186803b158015612b7957600080fd5b505afa158015612b8d573d6000803e3d6000fd5b505050506040513d601f19601f82011682018060405250810190612bb19190614d40565b6001600160a01b0316145b8015612c4a57506009546040805163570ca73560e01b8152905130926001600160a01b03169163570ca735916004808301926020929190829003018186803b158015612c0757600080fd5b505afa158015612c1b573d6000803e3d6000fd5b505050506040513d601f19601f82011682018060405250810190612c3f9190614d40565b6001600160a01b0316145b612c965760405162461bcd60e51b815260206004820152601e60248201527f54726561737572793a206e656564206d6f7265207065726d697373696f6e00006044820152606401610972565b612c9e6142ad565b612ca6613007565b601755600d54600090612cc190612cbb613136565b906141d6565b90506015546003541015612cf757612cf2612ced612710610ba6601654856141b790919063ffffffff16565b614311565b612f8b565b600c546017541115612f8b57600754604080517f18160ddd00000000000000000000000000000000000000000000000000000000815290516000926001600160a01b0316916318160ddd916004808301926020929190829003018186803b158015612d6157600080fd5b505afa158015612d75573d6000803e3d6000fd5b505050506040513d601f19601f82011682018060405250810190612d999190614d5d565b90506000612db4600b546017546141d690919063ffffffff16565b90506000806000612dce655af3107a4000610bd1886146b9565b905080841115612ddc578093505b612df7612710610ba6601154886141b790919063ffffffff16565b600d5410612e1c57612e15670de0b6b3a7640000610ba688876141b7565b9150612e88565b6000612e34670de0b6b3a7640000610ba689886141b7565b9050612e51612710610ba6601254846141b790919063ffffffff16565b9250612e5d81846141d6565b601d5490945015612e8657612e83612710610ba6601d54876141b790919063ffffffff16565b93505b505b8115612e9757612e9782614311565b8215612f8557600d54612eaa90846141e2565b600d556006546040517f40c10f19000000000000000000000000000000000000000000000000000000008152306004820152602481018590526001600160a01b03909116906340c10f1990604401602060405180830381600087803b158015612f1257600080fd5b505af1158015612f26573d6000803e3d6000fd5b505050506040513d601f19601f82011682018060405250810190612f4a9190614dbd565b5060408051428152602081018590527ff705142bf09f04297640495ddf7c59b7fd6f51894c5aea9602d631cf05f0efc2910160405180910390a15b50505050505b50600354612f9a9060016141e2565b600355600c54612fa8613007565b11612fc657612fc1612710610ba6601354610bd1613136565b612fc9565b60005b600455436000908152602081815260408083203284529091528082208054600160ff1991821681179092553384529190922080549091169091179055565b600a546006546040517f3ddac9530000000000000000000000000000000000000000000000000000000081526001600160a01b039182166004820152670de0b6b3a764000060248201526000929190911690633ddac953906044015b60206040518083038186803b15801561307b57600080fd5b505afa9250505080156130ab575060408051601f3d908101601f191682019092526130a891810190614ddf565b60015b61311d5760405162461bcd60e51b815260206004820152603760248201527f54726561737572793a206661696c656420746f20636f6e73756c742054554c4960448201527f502070726963652066726f6d20746865206f7261636c650000000000000000006064820152608401610972565b71ffffffffffffffffffffffffffffffffffff16919050565b600654604080517f18160ddd00000000000000000000000000000000000000000000000000000000815290516000926001600160a01b031691839183916318160ddd916004808301926020929190829003018186803b15801561319857600080fd5b505afa1580156131ac573d6000803e3d6000fd5b505050506040513d601f19601f820116820180604052508101906131d09190614d5d565b90506000805b60055460ff821610156132bf576132ad846001600160a01b03166370a0823160058460ff168154811061320b5761320b614e13565b60009182526020909120015460405160e083901b7fffffffff000000000000000000000000000000000000000000000000000000001681526001600160a01b03909116600482015260240160206040518083038186803b15801561326e57600080fd5b505afa158015613282573d6000803e3d6000fd5b505050506040513d601f19601f820116820180604052508101906132a69190614d5d565b83906141e2565b91506132b881614e42565b90506131d6565b506132ca82826141d6565b935050505090565b6000806132dd613007565b9050600c54811115610c0a576006546040517f70a082310000000000000000000000000000000000000000000000000000000081523060048201526000916001600160a01b0316906370a082319060240160206040518083038186803b15801561334657600080fd5b505afa15801561335a573d6000803e3d6000fd5b505050506040513d601f19601f8201168201806040525081019061337e9190614d5d565b9050600061338a610c0e565b90508015610c07576132ca81610ba684670de0b6b3a76400006141b7565b600581815481106133b857600080fd5b6000918252602090912001546001600160a01b0316905081565b6001546001600160a01b031633146134385760405162461bcd60e51b8152602060048201526024808201527f54726561737572793a2063616c6c6572206973206e6f7420746865206f70657260448201526330ba37b960e11b6064820152608401610972565b6101f4811015801561344c57506127108111155b6134985760405162461bcd60e51b815260206004820152600c60248201527f6f7574206f662072616e676500000000000000000000000000000000000000006044820152606401610972565b601155565b6000806134a8613007565b9050600b548111610c0a5760006134bd613136565b905060006134dc612710610ba6601454856141b790919063ffffffff16565b90506000600760009054906101000a90046001600160a01b03166001600160a01b03166318160ddd6040518163ffffffff1660e01b815260040160206040518083038186803b15801561352e57600080fd5b505afa158015613542573d6000803e3d6000fd5b505050506040513d601f19601f820116820180604052508101906135669190614d5d565b9050808211156135a957600061357c83836141d6565b90506000613596670de0b6b3a7640000610ba684896141b7565b90506135a4600454826141ee565b965050505b5050505090565b6001546001600160a01b031633146136165760405162461bcd60e51b8152602060048201526024808201527f54726561737572793a2063616c6c6572206973206e6f7420746865206f70657260448201526330ba37b960e11b6064820152608401610972565b60788211156136675760405162461bcd60e51b815260206004820152601e60248201527f5f626f6f74737472617045706f6368733a206f7574206f662072616e676500006044820152606401610972565b6064811015801561367a57506103e88111155b6136ec5760405162461bcd60e51b815260206004820152602e60248201527f5f626f6f747374726170537570706c79457870616e73696f6e50657263656e7460448201527f3a206f7574206f662072616e67650000000000000000000000000000000000006064820152608401610972565b601591909155601655565b6001546000906001600160a01b031633146137605760405162461bcd60e51b8152602060048201526024808201527f54726561737572793a2063616c6c6572206973206e6f7420746865206f70657260448201526330ba37b960e11b6064820152608401610972565b60098360ff16106137d95760405162461bcd60e51b815260206004820152602960248201527f496e6465782068617320746f206265206c6f776572207468616e20636f756e7460448201527f206f6620746965727300000000000000000000000000000000000000000000006064820152608401610972565b60ff83161561381857600e6137ef600185614e62565b60ff168154811061380257613802614e13565b9060005260206000200154821161381857600080fd5b60088360ff16101561385a57600e613831846001614e85565b60ff168154811061384457613844614e13565b9060005260206000200154821061385a57600080fd5b81600e8460ff168154811061387157613871614e13565b60009182526020909120015550600192915050565b6001546001600160a01b031633146138ec5760405162461bcd60e51b8152602060048201526024808201527f54726561737572793a2063616c6c6572206973206e6f7420746865206f70657260448201526330ba37b960e11b6064820152608401610972565b601855565b600e818154811061390157600080fd5b600091825260209091200154905081565b600f818154811061390157600080fd5b6001546001600160a01b031633146139885760405162461bcd60e51b8152602060048201526024808201527f54726561737572793a2063616c6c6572206973206e6f7420746865206f70657260448201526330ba37b960e11b6064820152608401610972565b601955565b6001546001600160a01b031633146139f35760405162461bcd60e51b8152602060048201526024808201527f54726561737572793a2063616c6c6572206973206e6f7420746865206f70657260448201526330ba37b960e11b6064820152608401610972565b600180547fffffffffffffffffffffffff0000000000000000000000000000000000000000166001600160a01b0392909216919091179055565b6001546001600160a01b03163314613a935760405162461bcd60e51b8152602060048201526024808201527f54726561737572793a2063616c6c6572206973206e6f7420746865206f70657260448201526330ba37b960e11b6064820152608401610972565b600980547fffffffffffffffffffffffff0000000000000000000000000000000000000000166001600160a01b0392909216919091179055565b6001546001600160a01b03163314613b335760405162461bcd60e51b8152602060048201526024808201527f54726561737572793a2063616c6c6572206973206e6f7420746865206f70657260448201526330ba37b960e11b6064820152608401610972565b6001600160a01b038416613b8b5760405162461bcd60e51b81526004016109729060208082526004908201527f7a65726f00000000000000000000000000000000000000000000000000000000604082015260600190565b610bb8831115613bdd5760405162461bcd60e51b815260206004820152600c60248201527f6f7574206f662072616e676500000000000000000000000000000000000000006044820152606401610972565b6001600160a01b038216613c355760405162461bcd60e51b81526004016109729060208082526004908201527f7a65726f00000000000000000000000000000000000000000000000000000000604082015260600190565b6103e8811115613c875760405162461bcd60e51b815260206004820152600c60248201527f6f7574206f662072616e676500000000000000000000000000000000000000006044820152606401610972565b601e80547fffffffffffffffffffffffff00000000000000000000000000000000000000009081166001600160a01b0396871617909155601f939093556020805490931691909316179055602155565b6001546001600160a01b03163314613d3d5760405162461bcd60e51b8152602060048201526024808201527f54726561737572793a2063616c6c6572206973206e6f7420746865206f70657260448201526330ba37b960e11b6064820152608401610972565b600b548110158015613d695750613d656064610ba66078600b546141b790919063ffffffff16565b8111155b613db55760405162461bcd60e51b815260206004820152600c60248201527f6f7574206f662072616e676500000000000000000000000000000000000000006044820152606401610972565b600c55565b6000613ddf613dd66154606003546141b790919063ffffffff16565b600254906141e2565b905090565b6001546001600160a01b03163314613e4a5760405162461bcd60e51b8152602060048201526024808201527f54726561737572793a2063616c6c6572206973206e6f7420746865206f70657260448201526330ba37b960e11b6064820152608401610972565b60648110158015613e5d57506105dc8111155b613ea95760405162461bcd60e51b815260206004820152600c60248201527f6f7574206f662072616e676500000000000000000000000000000000000000006044820152606401610972565b601355565b600a546006546040517f6808a1280000000000000000000000000000000000000000000000000000000081526001600160a01b039182166004820152670de0b6b3a764000060248201526000929190911690636808a12890604401613063565b6001546000906001600160a01b03163314613f775760405162461bcd60e51b8152602060048201526024808201527f54726561737572793a2063616c6c6572206973206e6f7420746865206f70657260448201526330ba37b960e11b6064820152608401610972565b60098360ff1610613ff05760405162461bcd60e51b815260206004820152602960248201527f496e6465782068617320746f206265206c6f776572207468616e20636f756e7460448201527f206f6620746965727300000000000000000000000000000000000000000000006064820152608401610972565b600a821015801561400357506103e88211155b61404f5760405162461bcd60e51b815260206004820152601460248201527f5f76616c75653a206f7574206f662072616e67650000000000000000000000006044820152606401610972565b81600f8460ff168154811061387157613871614e13565b6001546001600160a01b031633146140cc5760405162461bcd60e51b8152602060048201526024808201527f54726561737572793a2063616c6c6572206973206e6f7420746865206f70657260448201526330ba37b960e11b6064820152608401610972565b600a80547fffffffffffffffffffffffff0000000000000000000000000000000000000000166001600160a01b0392909216919091179055565b6001546001600160a01b0316331461416c5760405162461bcd60e51b8152602060048201526024808201527f54726561737572793a2063616c6c6572206973206e6f7420746865206f70657260448201526330ba37b960e11b6064820152608401610972565b6009546040517fb3ab15fb0000000000000000000000000000000000000000000000000000000081526001600160a01b0383811660048301529091169063b3ab15fb90602401611956565b60006141c38284614eaa565b9392505050565b60006141c38284614ee7565b60006141c38284614f22565b60006141c38284614da5565b60008183106141fd57816141c3565b5090919050565b6040516001600160a01b038316602482015260448101829052611ea79084907fa9059cbb00000000000000000000000000000000000000000000000000000000906064015b60408051601f198184030181529190526020810180517bffffffffffffffffffffffffffffffffffffffffffffffffffffffff167fffffffff0000000000000000000000000000000000000000000000000000000090931692909217909152614729565b600a60009054906101000a90046001600160a01b03166001600160a01b031663a2e620456040518163ffffffff1660e01b8152600401600060405180830381600087803b1580156142fd57600080fd5b505af192505050801561430e575060015b50565b6006546040517f40c10f19000000000000000000000000000000000000000000000000000000008152306004820152602481018390526001600160a01b03909116906340c10f1990604401602060405180830381600087803b15801561437657600080fd5b505af115801561438a573d6000803e3d6000fd5b505050506040513d601f19601f820116820180604052508101906143ae9190614dbd565b50601f54600090156144b3576143d5612710610ba6601f54856141b790919063ffffffff16565b600654601e546040517fa9059cbb0000000000000000000000000000000000000000000000000000000081526001600160a01b03918216600482015260248101849052929350169063a9059cbb90604401602060405180830381600087803b15801561444057600080fd5b505af1158015614454573d6000803e3d6000fd5b505050506040513d601f19601f820116820180604052508101906144789190614dbd565b5060408051428152602081018390527fcb3f34aaa3445b461e6da5492dc89e5c257a59fa598131f3b6bbc97a3638e409910160405180910390a15b602154600090156145b7576144d9612710610ba6602154866141b790919063ffffffff16565b6006546020546040517fa9059cbb0000000000000000000000000000000000000000000000000000000081526001600160a01b03918216600482015260248101849052929350169063a9059cbb90604401602060405180830381600087803b15801561454457600080fd5b505af1158015614558573d6000803e3d6000fd5b505050506040513d601f19601f8201168201806040525081019061457c9190614dbd565b5060408051428152602081018390527fdc8b715b18523e58b7fd0da53259dfa91efd91df4a854d94b136e3333a3b9395910160405180910390a15b6145c581612cbb85856141d6565b6009546006549194506145e6916001600160a01b039081169116600061480e565b600954600654614603916001600160a01b0391821691168561480e565b6009546040517f97ffe1d7000000000000000000000000000000000000000000000000000000008152600481018590526001600160a01b03909116906397ffe1d790602401600060405180830381600087803b15801561466257600080fd5b505af1158015614676573d6000803e3d6000fd5b505060408051428152602081018790527f2b3b2882c93976d09081fcd788b30c049728769a8b555ed4d77e15a428a80429935001905060405180910390a1505050565b600060085b600e8160ff16815481106146d4576146d4614e13565b9060005260206000200154831061470f57600f8160ff16815481106146fb576146fb614e13565b60009182526020909120015460105561471f565b61471881614f39565b90506146be565b5050601054919050565b600061477e826040518060400160405280602081526020017f5361666545524332303a206c6f772d6c6576656c2063616c6c206661696c6564815250856001600160a01b031661496b9092919063ffffffff16565b805190915015611ea7578080602001905181019061479c9190614dbd565b611ea75760405162461bcd60e51b815260206004820152602a60248201527f5361666545524332303a204552433230206f7065726174696f6e20646964206e60448201527f6f742073756363656564000000000000000000000000000000000000000000006064820152608401610972565b8015806148b057506040517fdd62ed3e0000000000000000000000000000000000000000000000000000000081523060048201526001600160a01b03838116602483015284169063dd62ed3e9060440160206040518083038186803b15801561487657600080fd5b505afa15801561488a573d6000803e3d6000fd5b505050506040513d601f19601f820116820180604052508101906148ae9190614d5d565b155b6149225760405162461bcd60e51b815260206004820152603660248201527f5361666545524332303a20617070726f76652066726f6d206e6f6e2d7a65726f60448201527f20746f206e6f6e2d7a65726f20616c6c6f77616e6365000000000000000000006064820152608401610972565b6040516001600160a01b038316602482015260448101829052611ea79084907f095ea7b30000000000000000000000000000000000000000000000000000000090606401614249565b606061497a8484600085614982565b949350505050565b6060824710156149fa5760405162461bcd60e51b815260206004820152602660248201527f416464726573733a20696e73756666696369656e742062616c616e636520666f60448201527f722063616c6c00000000000000000000000000000000000000000000000000006064820152608401610972565b843b614a485760405162461bcd60e51b815260206004820152601d60248201527f416464726573733a2063616c6c20746f206e6f6e2d636f6e74726163740000006044820152606401610972565b600080866001600160a01b03168587604051614a649190614fa4565b60006040518083038185875af1925050503d8060008114614aa1576040519150601f19603f3d011682016040523d82523d6000602084013e614aa6565b606091505b5091509150614ab6828286614ac1565b979650505050505050565b60608315614ad05750816141c3565b825115614ae05782518084602001fd5b8160405162461bcd60e51b81526004016109729190614fc0565b828054828255906000526020600020908101928215614b44579160200282015b82811115614b4457825182906affffffffffffffffffffff16905591602001919060010190614b1a565b50610c0a929150614b91565b828054828255906000526020600020908101928215614b44579160200282015b82811115614b44578251829061ffff16905591602001919060010190614b70565b5b80821115610c0a5760008155600101614b92565b600060208284031215614bb857600080fd5b5035919050565b60008060408385031215614bd257600080fd5b50508035926020909101359150565b6001600160a01b038116811461430e57600080fd5b600080600080600060a08688031215614c0e57600080fd5b8535614c1981614be1565b94506020860135614c2981614be1565b93506040860135614c3981614be1565b92506060860135614c4981614be1565b91506080860135614c5981614be1565b809150509295509295909350565b600080600060608486031215614c7c57600080fd5b8335614c8781614be1565b9250602084013591506040840135614c9e81614be1565b809150509250925092565b60008060408385031215614cbc57600080fd5b823560ff81168114614ccd57600080fd5b946020939093013593505050565b600060208284031215614ced57600080fd5b81356141c381614be1565b60008060008060808587031215614d0e57600080fd5b8435614d1981614be1565b9350602085013592506040850135614d3081614be1565b9396929550929360600135925050565b600060208284031215614d5257600080fd5b81516141c381614be1565b600060208284031215614d6f57600080fd5b5051919050565b7f4e487b7100000000000000000000000000000000000000000000000000000000600052601160045260246000fd5b60008219821115614db857614db8614d76565b500190565b600060208284031215614dcf57600080fd5b815180151581146141c357600080fd5b600060208284031215614df157600080fd5b815171ffffffffffffffffffffffffffffffffffff811681146141c357600080fd5b7f4e487b7100000000000000000000000000000000000000000000000000000000600052603260045260246000fd5b600060ff821660ff811415614e5957614e59614d76565b60010192915050565b600060ff821660ff841680821015614e7c57614e7c614d76565b90039392505050565b600060ff821660ff84168060ff03821115614ea257614ea2614d76565b019392505050565b6000817fffffffffffffffffffffffffffffffffffffffffffffffffffffffffffffffff0483118215151615614ee257614ee2614d76565b500290565b600082614f1d577f4e487b7100000000000000000000000000000000000000000000000000000000600052601260045260246000fd5b500490565b600082821015614f3457614f34614d76565b500390565b600060ff821680614f4c57614f4c614d76565b7fffffffffffffffffffffffffffffffffffffffffffffffffffffffffffffffff0192915050565b60005b83811015614f8f578181015183820152602001614f77565b83811115614f9e576000848401525b50505050565b60008251614fb6818460208701614f74565b9190910192915050565b6020815260008251806020840152614fdf816040850160208701614f74565b601f01601f1916919091016040019291505056fea2646970667358221220f8941aba2abda6955b8ab0062e0af71034f587a7471d6c34bd41f9f7d2c7d20b64736f6c63430008080033",
    "linkReferences": {},
    "deployedLinkReferences": {}
}