{
  "_format": "hh-sol-artifact-1",
  "contractName": "TulipSwapChef",
  "sourceName": "contracts/TulipSwapChef.sol",
  "abi": [
    {
      "inputs": [
        {
          "internalType": "contract IERC20",
          "name": "_tswap",
          "type": "address"
        }
      ],
      "stateMutability": "nonpayable",
      "type": "constructor"
    },
    {
      "anonymous": false,
      "inputs": [
        {
          "indexed": true,
          "internalType": "address",
          "name": "user",
          "type": "address"
        },
        {
          "indexed": true,
          "internalType": "uint256",
          "name": "pid",
          "type": "uint256"
        },
        {
          "indexed": false,
          "internalType": "uint256",
          "name": "amount",
          "type": "uint256"
        }
      ],
      "name": "Deposit",
      "type": "event"
    },
    {
      "anonymous": false,
      "inputs": [
        {
          "indexed": true,
          "internalType": "address",
          "name": "user",
          "type": "address"
        },
        {
          "indexed": true,
          "internalType": "uint256",
          "name": "pid",
          "type": "uint256"
        },
        {
          "indexed": false,
          "internalType": "uint256",
          "name": "amount",
          "type": "uint256"
        }
      ],
      "name": "EmergencyWithdraw",
      "type": "event"
    },
    {
      "anonymous": false,
      "inputs": [
        {
          "indexed": true,
          "internalType": "address",
          "name": "user",
          "type": "address"
        },
        {
          "indexed": false,
          "internalType": "uint256",
          "name": "amount",
          "type": "uint256"
        }
      ],
      "name": "RewardPaid",
      "type": "event"
    },
    {
      "anonymous": false,
      "inputs": [
        {
          "indexed": true,
          "internalType": "address",
          "name": "user",
          "type": "address"
        },
        {
          "indexed": false,
          "internalType": "uint256",
          "name": "amount",
          "type": "uint256"
        }
      ],
      "name": "TokenPerSecondUpdated",
      "type": "event"
    },
    {
      "anonymous": false,
      "inputs": [
        {
          "indexed": true,
          "internalType": "address",
          "name": "user",
          "type": "address"
        },
        {
          "indexed": true,
          "internalType": "uint256",
          "name": "pid",
          "type": "uint256"
        },
        {
          "indexed": false,
          "internalType": "uint256",
          "name": "amount",
          "type": "uint256"
        }
      ],
      "name": "Withdraw",
      "type": "event"
    },
    {
      "inputs": [
        {
          "internalType": "uint256",
          "name": "_allocPoint",
          "type": "uint256"
        },
        {
          "internalType": "contract IERC20",
          "name": "_token",
          "type": "address"
        },
        {
          "internalType": "bool",
          "name": "_withUpdate",
          "type": "bool"
        },
        {
          "internalType": "uint256",
          "name": "_lastRewardTime",
          "type": "uint256"
        }
      ],
      "name": "add",
      "outputs": [],
      "stateMutability": "nonpayable",
      "type": "function"
    },
    {
      "inputs": [
        {
          "internalType": "uint256",
          "name": "_pid",
          "type": "uint256"
        },
        {
          "internalType": "uint256",
          "name": "_amount",
          "type": "uint256"
        }
      ],
      "name": "deposit",
      "outputs": [],
      "stateMutability": "nonpayable",
      "type": "function"
    },
    {
      "inputs": [
        {
          "internalType": "uint256",
          "name": "_pid",
          "type": "uint256"
        }
      ],
      "name": "emergencyWithdraw",
      "outputs": [],
      "stateMutability": "nonpayable",
      "type": "function"
    },
    {
      "inputs": [
        {
          "internalType": "uint256",
          "name": "_fromTime",
          "type": "uint256"
        },
        {
          "internalType": "uint256",
          "name": "_toTime",
          "type": "uint256"
        }
      ],
      "name": "getGeneratedReward",
      "outputs": [
        {
          "internalType": "uint256",
          "name": "",
          "type": "uint256"
        }
      ],
      "stateMutability": "view",
      "type": "function"
    },
    {
      "inputs": [
        {
          "internalType": "address",
          "name": "_user",
          "type": "address"
        },
        {
          "internalType": "uint256",
          "name": "amount",
          "type": "uint256"
        }
      ],
      "name": "getRewardBonus",
      "outputs": [
        {
          "internalType": "uint8",
          "name": "",
          "type": "uint8"
        }
      ],
      "stateMutability": "view",
      "type": "function"
    },
    {
      "inputs": [
        {
          "internalType": "contract IERC20",
          "name": "_token",
          "type": "address"
        },
        {
          "internalType": "uint256",
          "name": "amount",
          "type": "uint256"
        },
        {
          "internalType": "address",
          "name": "to",
          "type": "address"
        }
      ],
      "name": "governanceRecoverUnsupported",
      "outputs": [],
      "stateMutability": "nonpayable",
      "type": "function"
    },
    {
      "inputs": [],
      "name": "massUpdatePools",
      "outputs": [],
      "stateMutability": "nonpayable",
      "type": "function"
    },
    {
      "inputs": [],
      "name": "operator",
      "outputs": [
        {
          "internalType": "address",
          "name": "",
          "type": "address"
        }
      ],
      "stateMutability": "view",
      "type": "function"
    },
    {
      "inputs": [
        {
          "internalType": "uint256",
          "name": "_pid",
          "type": "uint256"
        },
        {
          "internalType": "address",
          "name": "_user",
          "type": "address"
        }
      ],
      "name": "pendingShare",
      "outputs": [
        {
          "internalType": "uint256",
          "name": "",
          "type": "uint256"
        }
      ],
      "stateMutability": "view",
      "type": "function"
    },
    {
      "inputs": [
        {
          "internalType": "uint256",
          "name": "",
          "type": "uint256"
        }
      ],
      "name": "poolInfo",
      "outputs": [
        {
          "internalType": "contract IERC20",
          "name": "token",
          "type": "address"
        },
        {
          "internalType": "uint256",
          "name": "allocPoint",
          "type": "uint256"
        },
        {
          "internalType": "uint256",
          "name": "lastRewardTime",
          "type": "uint256"
        },
        {
          "internalType": "uint256",
          "name": "accTswapPerShare",
          "type": "uint256"
        },
        {
          "internalType": "bool",
          "name": "isStarted",
          "type": "bool"
        }
      ],
      "stateMutability": "view",
      "type": "function"
    },
    {
      "inputs": [],
      "name": "poolStartTime",
      "outputs": [
        {
          "internalType": "uint256",
          "name": "",
          "type": "uint256"
        }
      ],
      "stateMutability": "view",
      "type": "function"
    },
    {
      "inputs": [],
      "name": "proposalRecoverTime",
      "outputs": [
        {
          "internalType": "uint256",
          "name": "",
          "type": "uint256"
        }
      ],
      "stateMutability": "view",
      "type": "function"
    },
    {
      "inputs": [],
      "name": "proposeRecoverUnsupported",
      "outputs": [],
      "stateMutability": "nonpayable",
      "type": "function"
    },
    {
      "inputs": [
        {
          "internalType": "uint256",
          "name": "_pid",
          "type": "uint256"
        },
        {
          "internalType": "uint256",
          "name": "_allocPoint",
          "type": "uint256"
        },
        {
          "internalType": "bool",
          "name": "_withUpdate",
          "type": "bool"
        }
      ],
      "name": "set",
      "outputs": [],
      "stateMutability": "nonpayable",
      "type": "function"
    },
    {
      "inputs": [
        {
          "internalType": "address",
          "name": "_operator",
          "type": "address"
        }
      ],
      "name": "setOperator",
      "outputs": [],
      "stateMutability": "nonpayable",
      "type": "function"
    },
    {
      "inputs": [
        {
          "internalType": "address",
          "name": "_rewardCalculator",
          "type": "address"
        }
      ],
      "name": "setRewardCalculator",
      "outputs": [],
      "stateMutability": "nonpayable",
      "type": "function"
    },
    {
      "inputs": [
        {
          "internalType": "uint256",
          "name": "_tokensPerSecond",
          "type": "uint256"
        }
      ],
      "name": "setTokenPerSecond",
      "outputs": [],
      "stateMutability": "nonpayable",
      "type": "function"
    },
    {
      "inputs": [],
      "name": "tokensPerSecond",
      "outputs": [
        {
          "internalType": "uint256",
          "name": "",
          "type": "uint256"
        }
      ],
      "stateMutability": "view",
      "type": "function"
    },
    {
      "inputs": [],
      "name": "totalAllocPoint",
      "outputs": [
        {
          "internalType": "uint256",
          "name": "",
          "type": "uint256"
        }
      ],
      "stateMutability": "view",
      "type": "function"
    },
    {
      "inputs": [],
      "name": "tswap",
      "outputs": [
        {
          "internalType": "contract IERC20",
          "name": "",
          "type": "address"
        }
      ],
      "stateMutability": "view",
      "type": "function"
    },
    {
      "inputs": [
        {
          "internalType": "uint256",
          "name": "_pid",
          "type": "uint256"
        }
      ],
      "name": "updatePool",
      "outputs": [],
      "stateMutability": "nonpayable",
      "type": "function"
    },
    {
      "inputs": [
        {
          "internalType": "uint256",
          "name": "",
          "type": "uint256"
        },
        {
          "internalType": "address",
          "name": "",
          "type": "address"
        }
      ],
      "name": "userInfo",
      "outputs": [
        {
          "internalType": "uint256",
          "name": "amount",
          "type": "uint256"
        },
        {
          "internalType": "uint256",
          "name": "rewardDebt",
          "type": "uint256"
        }
      ],
      "stateMutability": "view",
      "type": "function"
    },
    {
      "inputs": [
        {
          "internalType": "uint256",
          "name": "_pid",
          "type": "uint256"
        },
        {
          "internalType": "uint256",
          "name": "_amount",
          "type": "uint256"
        }
      ],
      "name": "withdraw",
      "outputs": [],
      "stateMutability": "nonpayable",
      "type": "function"
    }
  ],
  "bytecode": "0x6080604052600060045567046635d209cc80006007553480156200002257600080fd5b5060405162001ec138038062001ec183398101604081905262000045916200008a565b600180546001600160a01b0319166001600160a01b0383161790556200006e42610708620000bc565b60055550600080546001600160a01b03191633179055620000e3565b6000602082840312156200009d57600080fd5b81516001600160a01b0381168114620000b557600080fd5b9392505050565b60008219821115620000de57634e487b7160e01b600052601160045260246000fd5b500190565b611dce80620000f36000396000f3fe608060405234801561001057600080fd5b506004361061018d5760003560e01c806354575af4116100e357806396805e541161008c578063c9e4865311610066578063c9e4865314610377578063cf4b55cb1461038a578063e2bbb1581461039d57600080fd5b806396805e541461032c578063b3ab15fb1461033f578063ba5368251461035257600080fd5b8063630b5ba1116100bd578063630b5ba1146102ca57806364482f79146102d257806393f1a40b146102e557600080fd5b806354575af414610283578063570ca735146102965780635f96dc11146102c157600080fd5b80633ccf6447116101455780634d8d9e921161011f5780634d8d9e921461025457806351eb05a61461025d5780635312ea8e1461027057600080fd5b80633ccf644714610225578063441a3e701461022e578063451c9eb01461024157600080fd5b8063231f0c6a11610176578063231f0c6a146101f55780632bd4b2d01461020857806335bc10ff1461021d57600080fd5b80631526fe271461019257806317caf6f1146101de575b600080fd5b6101a56101a03660046119d6565b6103b0565b604080516001600160a01b03909616865260208601949094529284019190915260608301521515608082015260a0015b60405180910390f35b6101e760045481565b6040519081526020016101d5565b6101e76102033660046119ef565b6103fe565b61021b610216366004611a29565b61046b565b005b61021b61052a565b6101e760065481565b61021b61023c3660046119ef565b6105b0565b61021b61024f3660046119d6565b610796565b6101e760075481565b61021b61026b3660046119d6565b610853565b61021b61027e3660046119d6565b6109ee565b61021b610291366004611a46565b610a90565b6000546102a9906001600160a01b031681565b6040516001600160a01b0390911681526020016101d5565b6101e760055481565b61021b610bcf565b61021b6102e0366004611a96565b610bfa565b6103176102f3366004611ac4565b60036020908152600092835260408084209091529082529020805460019091015482565b604080519283526020830191909152016101d5565b61021b61033a366004611af4565b610cef565b61021b61034d366004611a29565b610fea565b610365610360366004611b3c565b6110a4565b60405160ff90911681526020016101d5565b6001546102a9906001600160a01b031681565b6101e7610398366004611ac4565b61119a565b61021b6103ab3660046119ef565b611337565b600281815481106103c057600080fd5b6000918252602090912060059091020180546001820154600283015460038401546004909401546001600160a01b0390931694509092909160ff1685565b600081831061040f57506000610465565b600554821161042057506000610465565b60055483116104515761044a600754610444600554856114b190919063ffffffff16565b906114bd565b9050610465565b6007546104629061044484866114b1565b90505b92915050565b6000546001600160a01b031633146104f05760405162461bcd60e51b815260206004820152602860248201527f5453776170526577617264733a2063616c6c6572206973206e6f74207468652060448201527f6f70657261746f7200000000000000000000000000000000000000000000000060648201526084015b60405180910390fd5b600880547fffffffffffffffffffffffff0000000000000000000000000000000000000000166001600160a01b0392909216919091179055565b6000546001600160a01b031633146105aa5760405162461bcd60e51b815260206004820152602860248201527f5453776170526577617264733a2063616c6c6572206973206e6f74207468652060448201527f6f70657261746f7200000000000000000000000000000000000000000000000060648201526084016104e7565b42600655565b60003390506000600284815481106105ca576105ca611b68565b600091825260208083208784526003825260408085206001600160a01b0388168652909252922080546005909202909201925084111561064c5760405162461bcd60e51b815260206004820152601260248201527f77697468647261773a206e6f7420676f6f64000000000000000000000000000060448201526064016104e7565b61065585610853565b60006106ab82600101546106a5606461069f6106758988600001546110a4565b60ff16610444670de0b6b3a764000061069f8b600301548b600001546114bd90919063ffffffff16565b906114c9565b906114b1565b90508015610701576106bd84826114d5565b836001600160a01b03167fe2403640ba68fed3a2f88b7557551d1993f84b99bb10ff833f0cf8db0c5e0486826040516106f891815260200190565b60405180910390a25b841561072b57815461071390866114b1565b8255825461072b906001600160a01b031685876115a9565b6003830154825461074991670de0b6b3a76400009161069f916114bd565b600183015560405185815286906001600160a01b038616907ff279e6a1f5e320cca91135676d9cb6e44ca8a08c0b88342bcdb1144f6511b5689060200160405180910390a3505050505050565b6000546001600160a01b031633146108165760405162461bcd60e51b815260206004820152602860248201527f5453776170526577617264733a2063616c6c6572206973206e6f74207468652060448201527f6f70657261746f7200000000000000000000000000000000000000000000000060648201526084016104e7565b600781905560405181815233907fa67da0e2474e161e2c8f6fabe7822b3472a242586cda43529b6b0c01592b2da69060200160405180910390a250565b60006002828154811061086857610868611b68565b9060005260206000209060050201905080600201544211610887575050565b80546040517f70a082310000000000000000000000000000000000000000000000000000000081523060048201526000916001600160a01b0316906370a082319060240160206040518083038186803b1580156108e357600080fd5b505afa1580156108f7573d6000803e3d6000fd5b505050506040513d601f19601f8201168201806040525081019061091b9190611b97565b90508061092d57504260029091015550565b600482015460ff1661097c57600480830180547fffffffffffffffffffffffffffffffffffffffffffffffffffffffffffffff00166001908117909155830154905461097891611670565b6004555b600454156109e35760006109948360020154426103fe565b905060006109b560045461069f8660010154856114bd90919063ffffffff16565b90506109db6109d08461069f84670de0b6b3a76400006114bd565b600386015490611670565b600385015550505b504260029091015550565b600060028281548110610a0357610a03611b68565b600091825260208083208584526003825260408085203380875293528420805485825560018201959095556005909302018054909450919291610a53916001600160a01b039190911690836115a9565b604051818152849033907fbb757047c2b5f3974fe26b7c10f732e7bce710b0952a71082702781e62ae05959060200160405180910390a350505050565b6000546001600160a01b03163314610b105760405162461bcd60e51b815260206004820152602860248201527f5453776170526577617264733a2063616c6c6572206973206e6f74207468652060448201527f6f70657261746f7200000000000000000000000000000000000000000000000060648201526084016104e7565b60025460005b81811015610bb457600060028281548110610b3357610b33611b68565b6000918252602090912060059091020180549091506001600160a01b0387811691161415610ba35760405162461bcd60e51b815260206004820152600a60248201527f706f6f6c2e746f6b656e0000000000000000000000000000000000000000000060448201526064016104e7565b50610bad81611bdf565b9050610b16565b50610bc96001600160a01b03851683856115a9565b50505050565b60025460005b81811015610bf657610be681610853565b610bef81611bdf565b9050610bd5565b5050565b6000546001600160a01b03163314610c7a5760405162461bcd60e51b815260206004820152602860248201527f5453776170526577617264733a2063616c6c6572206973206e6f74207468652060448201527f6f70657261746f7200000000000000000000000000000000000000000000000060648201526084016104e7565b8015610c8857610c88610bcf565b600060028481548110610c9d57610c9d611b68565b60009182526020909120600590910201600481015490915060ff1615610ce457610ce083610cda83600101546004546114b190919063ffffffff16565b90611670565b6004555b600101919091555050565b6000546001600160a01b03163314610d6f5760405162461bcd60e51b815260206004820152602860248201527f5453776170526577617264733a2063616c6c6572206973206e6f74207468652060448201527f6f70657261746f7200000000000000000000000000000000000000000000000060648201526084016104e7565b610d788361167c565b6040517f70a082310000000000000000000000000000000000000000000000000000000081523060048201526001600160a01b038416906370a082319060240160206040518083038186803b158015610dd057600080fd5b505afa158015610de4573d6000803e3d6000fd5b505050506040513d601f19601f82011682018060405250810190610e089190611b97565b508115610e1757610e17610bcf565b600554421015610e435780610e2f5750600554610e57565b600554811015610e3e57506005545b610e57565b801580610e4f57504281105b15610e575750425b600060055482111580610e6a5750428211155b6040805160a0810182526001600160a01b03878116825260208201898152928201868152600060608401818152861580156080870190815260028054600181018255945295517f405787fa12a823e0f2b7631cc41b3ba8828b3321ca811111fa75cd3aa3bb5ace600590940293840180547fffffffffffffffffffffffff000000000000000000000000000000000000000016919096161790945594517f405787fa12a823e0f2b7631cc41b3ba8828b3321ca811111fa75cd3aa3bb5acf82015590517f405787fa12a823e0f2b7631cc41b3ba8828b3321ca811111fa75cd3aa3bb5ad082015592517f405787fa12a823e0f2b7631cc41b3ba8828b3321ca811111fa75cd3aa3bb5ad184015590517f405787fa12a823e0f2b7631cc41b3ba8828b3321ca811111fa75cd3aa3bb5ad290920180547fffffffffffffffffffffffffffffffffffffffffffffffffffffffffffffff001692151592909217909155909150610fe357600454610fdf9086611670565b6004555b5050505050565b6000546001600160a01b0316331461106a5760405162461bcd60e51b815260206004820152602860248201527f5453776170526577617264733a2063616c6c6572206973206e6f74207468652060448201527f6f70657261746f7200000000000000000000000000000000000000000000000060648201526084016104e7565b600080547fffffffffffffffffffffffff0000000000000000000000000000000000000000166001600160a01b0392909216919091179055565b6008546040517fba5368250000000000000000000000000000000000000000000000000000000081526001600160a01b03848116600483015260248201849052600092839291169063ba5368259060440160206040518083038186803b15801561110d57600080fd5b505afa158015611121573d6000803e3d6000fd5b505050506040513d601f19601f820116820180604052508101906111459190611c18565b905060878160ff16106104625760405162461bcd60e51b815260206004820152601f60248201527f6d617820626f6e7573206d757374206265206c657373207468616e203335250060448201526064016104e7565b600080600284815481106111b0576111b0611b68565b60009182526020808320878452600380835260408086206001600160a01b038a81168852945280862060059590950290920190810154815492517f70a0823100000000000000000000000000000000000000000000000000000000815230600482015291965093949291909116906370a082319060240160206040518083038186803b15801561123f57600080fd5b505afa158015611253573d6000803e3d6000fd5b505050506040513d601f19601f820116820180604052508101906112779190611b97565b905083600201544211801561128b57508015155b156112e85760006112a08560020154426103fe565b905060006112c160045461069f8860010154856114bd90919063ffffffff16565b90506112e36112dc8461069f84670de0b6b3a76400006114bd565b8590611670565b935050505b61132c83600101546106a5606461069f6113068b89600001546110a4565b60ff16610444670de0b6b3a764000061069f8a8c600001546114bd90919063ffffffff16565b979650505050505050565b600033905060006002848154811061135157611351611b68565b600091825260208083208784526003825260408085206001600160a01b038816865290925292206005909102909101915061138b85610853565b80541561141b5760006113c382600101546106a5670de0b6b3a764000061069f876003015487600001546114bd90919063ffffffff16565b90508015611419576113d584826114d5565b836001600160a01b03167fe2403640ba68fed3a2f88b7557551d1993f84b99bb10ff833f0cf8db0c5e04868260405161141091815260200190565b60405180910390a25b505b8315611447578154611438906001600160a01b031684308761171f565b80546114449085611670565b81555b6003820154815461146591670de0b6b3a76400009161069f916114bd565b600182015560405184815285906001600160a01b038516907f90890809c654f11d6e72a28fa60149770a0d11ec6c92319d6ceb2bb0a4ea1a159060200160405180910390a35050505050565b60006104628284611c3b565b60006104628284611c52565b60006104628284611c8f565b6001546040517f70a082310000000000000000000000000000000000000000000000000000000081523060048201526000916001600160a01b0316906370a082319060240160206040518083038186803b15801561153257600080fd5b505afa158015611546573d6000803e3d6000fd5b505050506040513d601f19601f8201168201806040525081019061156a9190611b97565b90508015611591578082111561159657600154611591906001600160a01b031684836115a9565b505050565b600154611591906001600160a01b031684845b6040516001600160a01b0383166024820152604481018290526115919084907fa9059cbb00000000000000000000000000000000000000000000000000000000906064015b604080517fffffffffffffffffffffffffffffffffffffffffffffffffffffffffffffffe08184030181529190526020810180517bffffffffffffffffffffffffffffffffffffffffffffffffffffffff167fffffffff0000000000000000000000000000000000000000000000000000000090931692909217909152611770565b60006104628284611cca565b60025460005b8181101561159157826001600160a01b0316600282815481106116a7576116a7611b68565b60009182526020909120600590910201546001600160a01b0316141561170f5760405162461bcd60e51b815260206004820152601c60248201527f5453776170526577617264733a206578697374696e6720706f6f6c3f0000000060448201526064016104e7565b61171881611bdf565b9050611682565b6040516001600160a01b0380851660248301528316604482015260648101829052610bc99085907f23b872dd00000000000000000000000000000000000000000000000000000000906084016115ee565b60006117c5826040518060400160405280602081526020017f5361666545524332303a206c6f772d6c6576656c2063616c6c206661696c6564815250856001600160a01b03166118559092919063ffffffff16565b80519091501561159157808060200190518101906117e39190611ce2565b6115915760405162461bcd60e51b815260206004820152602a60248201527f5361666545524332303a204552433230206f7065726174696f6e20646964206e60448201527f6f7420737563636565640000000000000000000000000000000000000000000060648201526084016104e7565b6060611864848460008561186e565b90505b9392505050565b6060824710156118e65760405162461bcd60e51b815260206004820152602660248201527f416464726573733a20696e73756666696369656e742062616c616e636520666f60448201527f722063616c6c000000000000000000000000000000000000000000000000000060648201526084016104e7565b843b6119345760405162461bcd60e51b815260206004820152601d60248201527f416464726573733a2063616c6c20746f206e6f6e2d636f6e747261637400000060448201526064016104e7565b600080866001600160a01b031685876040516119509190611d2b565b60006040518083038185875af1925050503d806000811461198d576040519150601f19603f3d011682016040523d82523d6000602084013e611992565b606091505b509150915061132c828286606083156119ac575081611867565b8251156119bc5782518084602001fd5b8160405162461bcd60e51b81526004016104e79190611d47565b6000602082840312156119e857600080fd5b5035919050565b60008060408385031215611a0257600080fd5b50508035926020909101359150565b6001600160a01b0381168114611a2657600080fd5b50565b600060208284031215611a3b57600080fd5b813561046281611a11565b600080600060608486031215611a5b57600080fd5b8335611a6681611a11565b9250602084013591506040840135611a7d81611a11565b809150509250925092565b8015158114611a2657600080fd5b600080600060608486031215611aab57600080fd5b83359250602084013591506040840135611a7d81611a88565b60008060408385031215611ad757600080fd5b823591506020830135611ae981611a11565b809150509250929050565b60008060008060808587031215611b0a57600080fd5b843593506020850135611b1c81611a11565b92506040850135611b2c81611a88565b9396929550929360600135925050565b60008060408385031215611b4f57600080fd5b8235611b5a81611a11565b946020939093013593505050565b7f4e487b7100000000000000000000000000000000000000000000000000000000600052603260045260246000fd5b600060208284031215611ba957600080fd5b5051919050565b7f4e487b7100000000000000000000000000000000000000000000000000000000600052601160045260246000fd5b60007fffffffffffffffffffffffffffffffffffffffffffffffffffffffffffffffff821415611c1157611c11611bb0565b5060010190565b600060208284031215611c2a57600080fd5b815160ff8116811461046257600080fd5b600082821015611c4d57611c4d611bb0565b500390565b6000817fffffffffffffffffffffffffffffffffffffffffffffffffffffffffffffffff0483118215151615611c8a57611c8a611bb0565b500290565b600082611cc5577f4e487b7100000000000000000000000000000000000000000000000000000000600052601260045260246000fd5b500490565b60008219821115611cdd57611cdd611bb0565b500190565b600060208284031215611cf457600080fd5b815161046281611a88565b60005b83811015611d1a578181015183820152602001611d02565b83811115610bc95750506000910152565b60008251611d3d818460208701611cff565b9190910192915050565b6020815260008251806020840152611d66816040850160208701611cff565b601f017fffffffffffffffffffffffffffffffffffffffffffffffffffffffffffffffe016919091016040019291505056fea2646970667358221220b694d1eaf23e16e7737275bb2f7b120b2dee528bc4a2d1aabee7d37987f8887e64736f6c63430008080033",
  "linkReferences": {},
  "deployedLinkReferences": {}
}