{
  "_format": "hh-sol-artifact-1",
  "contractName": "TulipGenesisRewardPool",
  "sourceName": "contracts/TulipGenesisRewardPool.sol",
  "abi": [
    {
      "inputs": [
        {
          "internalType": "address",
          "name": "_tulip",
          "type": "address"
        },
        {
          "internalType": "uint256",
          "name": "_poolStartTime",
          "type": "uint256"
        }
      ],
      "stateMutability": "nonpayable",
      "type": "constructor"
    },
    {
      "anonymous": false,
      "inputs": [
        {
          "indexed": true,
          "internalType": "address",
          "name": "user",
          "type": "address"
        },
        {
          "indexed": true,
          "internalType": "uint256",
          "name": "pid",
          "type": "uint256"
        },
        {
          "indexed": false,
          "internalType": "uint256",
          "name": "amount",
          "type": "uint256"
        }
      ],
      "name": "Deposit",
      "type": "event"
    },
    {
      "anonymous": false,
      "inputs": [
        {
          "indexed": true,
          "internalType": "address",
          "name": "user",
          "type": "address"
        },
        {
          "indexed": true,
          "internalType": "uint256",
          "name": "pid",
          "type": "uint256"
        },
        {
          "indexed": false,
          "internalType": "uint256",
          "name": "amount",
          "type": "uint256"
        }
      ],
      "name": "EmergencyWithdraw",
      "type": "event"
    },
    {
      "anonymous": false,
      "inputs": [
        {
          "indexed": true,
          "internalType": "address",
          "name": "user",
          "type": "address"
        },
        {
          "indexed": false,
          "internalType": "uint256",
          "name": "amount",
          "type": "uint256"
        }
      ],
      "name": "RewardPaid",
      "type": "event"
    },
    {
      "anonymous": false,
      "inputs": [
        {
          "indexed": true,
          "internalType": "address",
          "name": "user",
          "type": "address"
        },
        {
          "indexed": true,
          "internalType": "uint256",
          "name": "pid",
          "type": "uint256"
        },
        {
          "indexed": false,
          "internalType": "uint256",
          "name": "amount",
          "type": "uint256"
        }
      ],
      "name": "Withdraw",
      "type": "event"
    },
    {
      "inputs": [],
      "name": "TOTAL_REWARDS",
      "outputs": [
        {
          "internalType": "uint256",
          "name": "",
          "type": "uint256"
        }
      ],
      "stateMutability": "view",
      "type": "function"
    },
    {
      "inputs": [
        {
          "internalType": "uint256",
          "name": "_allocPoint",
          "type": "uint256"
        },
        {
          "internalType": "contract IERC20",
          "name": "_token",
          "type": "address"
        },
        {
          "internalType": "bool",
          "name": "_withUpdate",
          "type": "bool"
        },
        {
          "internalType": "uint256",
          "name": "_lastRewardTime",
          "type": "uint256"
        },
        {
          "internalType": "uint256",
          "name": "_fee",
          "type": "uint256"
        }
      ],
      "name": "add",
      "outputs": [],
      "stateMutability": "nonpayable",
      "type": "function"
    },
    {
      "inputs": [
        {
          "internalType": "uint256",
          "name": "_pid",
          "type": "uint256"
        },
        {
          "internalType": "uint256",
          "name": "_amount",
          "type": "uint256"
        }
      ],
      "name": "deposit",
      "outputs": [],
      "stateMutability": "nonpayable",
      "type": "function"
    },
    {
      "inputs": [
        {
          "internalType": "uint256",
          "name": "_pid",
          "type": "uint256"
        }
      ],
      "name": "emergencyWithdraw",
      "outputs": [],
      "stateMutability": "nonpayable",
      "type": "function"
    },
    {
      "inputs": [
        {
          "internalType": "uint256",
          "name": "_fromTime",
          "type": "uint256"
        },
        {
          "internalType": "uint256",
          "name": "_toTime",
          "type": "uint256"
        }
      ],
      "name": "getGeneratedReward",
      "outputs": [
        {
          "internalType": "uint256",
          "name": "",
          "type": "uint256"
        }
      ],
      "stateMutability": "view",
      "type": "function"
    },
    {
      "inputs": [
        {
          "internalType": "contract IERC20",
          "name": "_token",
          "type": "address"
        },
        {
          "internalType": "uint256",
          "name": "amount",
          "type": "uint256"
        },
        {
          "internalType": "address",
          "name": "to",
          "type": "address"
        }
      ],
      "name": "governanceRecoverUnsupported",
      "outputs": [],
      "stateMutability": "nonpayable",
      "type": "function"
    },
    {
      "inputs": [],
      "name": "massUpdatePools",
      "outputs": [],
      "stateMutability": "nonpayable",
      "type": "function"
    },
    {
      "inputs": [],
      "name": "operator",
      "outputs": [
        {
          "internalType": "address",
          "name": "",
          "type": "address"
        }
      ],
      "stateMutability": "view",
      "type": "function"
    },
    {
      "inputs": [
        {
          "internalType": "uint256",
          "name": "_pid",
          "type": "uint256"
        },
        {
          "internalType": "address",
          "name": "_user",
          "type": "address"
        }
      ],
      "name": "pendingTULIP",
      "outputs": [
        {
          "internalType": "uint256",
          "name": "",
          "type": "uint256"
        }
      ],
      "stateMutability": "view",
      "type": "function"
    },
    {
      "inputs": [],
      "name": "poolEndTime",
      "outputs": [
        {
          "internalType": "uint256",
          "name": "",
          "type": "uint256"
        }
      ],
      "stateMutability": "view",
      "type": "function"
    },
    {
      "inputs": [
        {
          "internalType": "uint256",
          "name": "",
          "type": "uint256"
        }
      ],
      "name": "poolInfo",
      "outputs": [
        {
          "internalType": "contract IERC20",
          "name": "token",
          "type": "address"
        },
        {
          "internalType": "uint256",
          "name": "allocPoint",
          "type": "uint256"
        },
        {
          "internalType": "uint256",
          "name": "lastRewardTime",
          "type": "uint256"
        },
        {
          "internalType": "uint256",
          "name": "accTulipPerShare",
          "type": "uint256"
        },
        {
          "internalType": "bool",
          "name": "isStarted",
          "type": "bool"
        },
        {
          "internalType": "uint256",
          "name": "fee",
          "type": "uint256"
        }
      ],
      "stateMutability": "view",
      "type": "function"
    },
    {
      "inputs": [],
      "name": "poolStartTime",
      "outputs": [
        {
          "internalType": "uint256",
          "name": "",
          "type": "uint256"
        }
      ],
      "stateMutability": "view",
      "type": "function"
    },
    {
      "inputs": [],
      "name": "runningTime",
      "outputs": [
        {
          "internalType": "uint256",
          "name": "",
          "type": "uint256"
        }
      ],
      "stateMutability": "view",
      "type": "function"
    },
    {
      "inputs": [
        {
          "internalType": "uint256",
          "name": "_pid",
          "type": "uint256"
        },
        {
          "internalType": "uint256",
          "name": "_allocPoint",
          "type": "uint256"
        }
      ],
      "name": "set",
      "outputs": [],
      "stateMutability": "nonpayable",
      "type": "function"
    },
    {
      "inputs": [
        {
          "internalType": "address",
          "name": "_operator",
          "type": "address"
        }
      ],
      "name": "setOperator",
      "outputs": [],
      "stateMutability": "nonpayable",
      "type": "function"
    },
    {
      "inputs": [],
      "name": "totalAllocPoint",
      "outputs": [
        {
          "internalType": "uint256",
          "name": "",
          "type": "uint256"
        }
      ],
      "stateMutability": "view",
      "type": "function"
    },
    {
      "inputs": [],
      "name": "tulip",
      "outputs": [
        {
          "internalType": "contract IERC20",
          "name": "",
          "type": "address"
        }
      ],
      "stateMutability": "view",
      "type": "function"
    },
    {
      "inputs": [],
      "name": "tulipPerSecond",
      "outputs": [
        {
          "internalType": "uint256",
          "name": "",
          "type": "uint256"
        }
      ],
      "stateMutability": "view",
      "type": "function"
    },
    {
      "inputs": [
        {
          "internalType": "uint256",
          "name": "_pid",
          "type": "uint256"
        }
      ],
      "name": "updatePool",
      "outputs": [],
      "stateMutability": "nonpayable",
      "type": "function"
    },
    {
      "inputs": [
        {
          "internalType": "uint256",
          "name": "",
          "type": "uint256"
        },
        {
          "internalType": "address",
          "name": "",
          "type": "address"
        }
      ],
      "name": "userInfo",
      "outputs": [
        {
          "internalType": "uint256",
          "name": "amount",
          "type": "uint256"
        },
        {
          "internalType": "uint256",
          "name": "rewardDebt",
          "type": "uint256"
        }
      ],
      "stateMutability": "view",
      "type": "function"
    },
    {
      "inputs": [],
      "name": "wRose",
      "outputs": [
        {
          "internalType": "address",
          "name": "",
          "type": "address"
        }
      ],
      "stateMutability": "view",
      "type": "function"
    },
    {
      "inputs": [
        {
          "internalType": "uint256",
          "name": "_pid",
          "type": "uint256"
        },
        {
          "internalType": "uint256",
          "name": "_amount",
          "type": "uint256"
        }
      ],
      "name": "withdraw",
      "outputs": [],
      "stateMutability": "nonpayable",
      "type": "function"
    }
  ],
  "bytecode": "0x60806040527321c718c22d52d0f3a789b752d4c2fd5908a8a733600260006101000a81548173ffffffffffffffffffffffffffffffffffffffff021916908373ffffffffffffffffffffffffffffffffffffffff16021790555060006005556702ad5187292c40006008556203f4806009553480156200007e57600080fd5b5060405162002f6338038062002f638339818101604052810190620000a491906200026c565b804210620000e9576040517f08c379a0000000000000000000000000000000000000000000000000000000008152600401620000e09062000314565b60405180910390fd5b600073ffffffffffffffffffffffffffffffffffffffff168273ffffffffffffffffffffffffffffffffffffffff1614620001605781600160006101000a81548173ffffffffffffffffffffffffffffffffffffffff021916908373ffffffffffffffffffffffffffffffffffffffff1602179055505b336000806101000a81548173ffffffffffffffffffffffffffffffffffffffff021916908373ffffffffffffffffffffffffffffffffffffffff16021790555080600681905550600954600654620001b9919062000365565b6007819055505050620003c2565b600080fd5b600073ffffffffffffffffffffffffffffffffffffffff82169050919050565b6000620001f982620001cc565b9050919050565b6200020b81620001ec565b81146200021757600080fd5b50565b6000815190506200022b8162000200565b92915050565b6000819050919050565b620002468162000231565b81146200025257600080fd5b50565b60008151905062000266816200023b565b92915050565b60008060408385031215620002865762000285620001c7565b5b600062000296858286016200021a565b9250506020620002a98582860162000255565b9150509250929050565b600082825260208201905092915050565b7f6c61746500000000000000000000000000000000000000000000000000000000600082015250565b6000620002fc600483620002b3565b91506200030982620002c4565b602082019050919050565b600060208201905081810360008301526200032f81620002ed565b9050919050565b7f4e487b7100000000000000000000000000000000000000000000000000000000600052601160045260246000fd5b6000620003728262000231565b91506200037f8362000231565b9250827fffffffffffffffffffffffffffffffffffffffffffffffffffffffffffffffff03821115620003b757620003b662000336565b5b828201905092915050565b612b9180620003d26000396000f3fe608060405234801561001057600080fd5b50600436106101425760003560e01c806362e006c7116100b8578063943f013d1161007c578063943f013d14610355578063b3ab15fb14610373578063b8fc617a1461038f578063be99f337146103ad578063d1e7bb77146103cb578063e2bbb158146103e957610142565b806362e006c7146102b0578063630b5ba1146102cc578063636ef28f146102d65780636e271dd51461030657806393f1a40b1461032457610142565b8063441a3e701161010a578063441a3e701461020457806351eb05a6146102205780635312ea8e1461023c57806354575af414610258578063570ca735146102745780635f96dc111461029257610142565b806309cf6091146101475780631526fe271461016557806317caf6f11461019a5780631ab06ee5146101b8578063231f0c6a146101d4575b600080fd5b61014f610405565b60405161015c9190611f30565b60405180910390f35b61017f600480360381019061017a9190611f7c565b610413565b60405161019196959493929190612043565b60405180910390f35b6101a261048c565b6040516101af9190611f30565b60405180910390f35b6101d260048036038101906101cd91906120a4565b610492565b005b6101ee60048036038101906101e991906120a4565b6105a5565b6040516101fb9190611f30565b60405180910390f35b61021e600480360381019061021991906120a4565b6106b8565b005b61023a60048036038101906102359190611f7c565b6109f7565b005b61025660048036038101906102519190611f7c565b610bf4565b005b610272600480360381019061026d9190612160565b610d2f565b005b61027c610f79565b60405161028991906121c2565b60405180910390f35b61029a610f9d565b6040516102a79190611f30565b60405180910390f35b6102ca60048036038101906102c59190612209565b610fa3565b005b6102d4611219565b005b6102f060048036038101906102eb9190612284565b61124c565b6040516102fd9190611f30565b60405180910390f35b61030e611472565b60405161031b9190611f30565b60405180910390f35b61033e60048036038101906103399190612284565b611478565b60405161034c9291906122c4565b60405180910390f35b61035d6114a9565b60405161036a9190611f30565b60405180910390f35b61038d600480360381019061038891906122ed565b6114af565b005b610397611580565b6040516103a49190611f30565b60405180910390f35b6103b5611586565b6040516103c291906121c2565b60405180910390f35b6103d36115ac565b6040516103e0919061231a565b60405180910390f35b61040360048036038101906103fe91906120a4565b6115d2565b005b690a968163f0a57b40000081565b6003818154811061042357600080fd5b90600052602060002090600602016000915090508060000160009054906101000a900473ffffffffffffffffffffffffffffffffffffffff16908060010154908060020154908060030154908060040160009054906101000a900460ff16908060050154905086565b60055481565b3373ffffffffffffffffffffffffffffffffffffffff1660008054906101000a900473ffffffffffffffffffffffffffffffffffffffff1673ffffffffffffffffffffffffffffffffffffffff1614610520576040517f08c379a0000000000000000000000000000000000000000000000000000000008152600401610517906123b8565b60405180910390fd5b610528611219565b60006003838154811061053e5761053d6123d8565b5b906000526020600020906006020190508060040160009054906101000a900460ff1615610597576105908261058283600101546005546118ee90919063ffffffff16565b61190490919063ffffffff16565b6005819055505b818160010181905550505050565b60008183106105b757600090506106b2565b600754821061063d5760075483106105d257600090506106b2565b600654831161060d576106066008546105f86006546007546118ee90919063ffffffff16565b61191a90919063ffffffff16565b90506106b2565b610636600854610628856007546118ee90919063ffffffff16565b61191a90919063ffffffff16565b90506106b2565b600654821161064f57600090506106b2565b600654831161068857610681600854610673600654856118ee90919063ffffffff16565b61191a90919063ffffffff16565b90506106b2565b6106af6008546106a185856118ee90919063ffffffff16565b61191a90919063ffffffff16565b90505b92915050565b60003390506000600384815481106106d3576106d26123d8565b5b9060005260206000209060060201905060006004600086815260200190815260200160002060008473ffffffffffffffffffffffffffffffffffffffff1673ffffffffffffffffffffffffffffffffffffffff1681526020019081526020016000209050838160000154101561077e576040517f08c379a000000000000000000000000000000000000000000000000000000000815260040161077590612453565b60405180910390fd5b610787856109f7565b60006107d482600101546107c6670de0b6b3a76400006107b88760030154876000015461191a90919063ffffffff16565b61193090919063ffffffff16565b6118ee90919063ffffffff16565b90506000811115610838576107e98482611946565b8373ffffffffffffffffffffffffffffffffffffffff167fe2403640ba68fed3a2f88b7557551d1993f84b99bb10ff833f0cf8db0c5e04868260405161082f9190611f30565b60405180910390a25b6000851115610963576108588583600001546118ee90919063ffffffff16565b8260000181905550600061088d61271061087f86600501548961191a90919063ffffffff16565b61193090919063ffffffff16565b90506108fe60008054906101000a900473ffffffffffffffffffffffffffffffffffffffff16828660000160009054906101000a900473ffffffffffffffffffffffffffffffffffffffff1673ffffffffffffffffffffffffffffffffffffffff16611aac9092919063ffffffff16565b808611156109615761096085828861091691906124a2565b8660000160009054906101000a900473ffffffffffffffffffffffffffffffffffffffff1673ffffffffffffffffffffffffffffffffffffffff16611aac9092919063ffffffff16565b5b505b610998670de0b6b3a764000061098a8560030154856000015461191a90919063ffffffff16565b61193090919063ffffffff16565b8260010181905550858473ffffffffffffffffffffffffffffffffffffffff167ff279e6a1f5e320cca91135676d9cb6e44ca8a08c0b88342bcdb1144f6511b568876040516109e79190611f30565b60405180910390a3505050505050565b600060038281548110610a0d57610a0c6123d8565b5b9060005260206000209060060201905080600201544211610a2e5750610bf1565b60008160000160009054906101000a900473ffffffffffffffffffffffffffffffffffffffff1673ffffffffffffffffffffffffffffffffffffffff166370a08231306040518263ffffffff1660e01b8152600401610a8d91906121c2565b60206040518083038186803b158015610aa557600080fd5b505afa158015610ab9573d6000803e3d6000fd5b505050506040513d601f19601f82011682018060405250810190610add91906124eb565b90506000811415610af8574282600201819055505050610bf1565b8160040160009054906101000a900460ff16610b4b5760018260040160006101000a81548160ff021916908315150217905550610b44826001015460055461190490919063ffffffff16565b6005819055505b60006005541115610be5576000610b668360020154426105a5565b90506000610b95600554610b8786600101548561191a90919063ffffffff16565b61193090919063ffffffff16565b9050610bda610bc784610bb9670de0b6b3a76400008561191a90919063ffffffff16565b61193090919063ffffffff16565b856003015461190490919063ffffffff16565b846003018190555050505b42826002018190555050505b50565b600060038281548110610c0a57610c096123d8565b5b9060005260206000209060060201905060006004600084815260200190815260200160002060003373ffffffffffffffffffffffffffffffffffffffff1673ffffffffffffffffffffffffffffffffffffffff16815260200190815260200160002090506000816000015490506000826000018190555060008260010181905550610cda33828560000160009054906101000a900473ffffffffffffffffffffffffffffffffffffffff1673ffffffffffffffffffffffffffffffffffffffff16611aac9092919063ffffffff16565b833373ffffffffffffffffffffffffffffffffffffffff167fbb757047c2b5f3974fe26b7c10f732e7bce710b0952a71082702781e62ae059583604051610d219190611f30565b60405180910390a350505050565b3373ffffffffffffffffffffffffffffffffffffffff1660008054906101000a900473ffffffffffffffffffffffffffffffffffffffff1673ffffffffffffffffffffffffffffffffffffffff1614610dbd576040517f08c379a0000000000000000000000000000000000000000000000000000000008152600401610db4906123b8565b60405180910390fd5b62278d00600754610dce9190612518565b421015610f4957600160009054906101000a900473ffffffffffffffffffffffffffffffffffffffff1673ffffffffffffffffffffffffffffffffffffffff168373ffffffffffffffffffffffffffffffffffffffff161415610e66576040517f08c379a0000000000000000000000000000000000000000000000000000000008152600401610e5d906125ba565b60405180910390fd5b6000600380549050905060005b81811015610f4657600060038281548110610e9157610e906123d8565b5b906000526020600020906006020190508060000160009054906101000a900473ffffffffffffffffffffffffffffffffffffffff1673ffffffffffffffffffffffffffffffffffffffff168673ffffffffffffffffffffffffffffffffffffffff161415610f34576040517f08c379a0000000000000000000000000000000000000000000000000000000008152600401610f2b90612626565b60405180910390fd5b5080610f3f90612646565b9050610e73565b50505b610f7481838573ffffffffffffffffffffffffffffffffffffffff16611aac9092919063ffffffff16565b505050565b60008054906101000a900473ffffffffffffffffffffffffffffffffffffffff1681565b60065481565b3373ffffffffffffffffffffffffffffffffffffffff1660008054906101000a900473ffffffffffffffffffffffffffffffffffffffff1673ffffffffffffffffffffffffffffffffffffffff1614611031576040517f08c379a0000000000000000000000000000000000000000000000000000000008152600401611028906123b8565b60405180910390fd5b6101f48110611075576040517f08c379a000000000000000000000000000000000000000000000000000000000815260040161106c906126db565b60405180910390fd5b61107e84611b32565b821561108d5761108c611219565b5b6006544210156110c05760008214156110aa5760065491506110bb565b6006548210156110ba5760065491505b5b6110d8565b60008214806110ce57504282105b156110d7574291505b5b6000600654831115806110eb5750428311155b905060036040518060c001604052808773ffffffffffffffffffffffffffffffffffffffff16815260200188815260200185815260200160008152602001831515815260200184815250908060018154018082558091505060019003906000526020600020906006020160009091909190915060008201518160000160006101000a81548173ffffffffffffffffffffffffffffffffffffffff021916908373ffffffffffffffffffffffffffffffffffffffff16021790555060208201518160010155604082015181600201556060820151816003015560808201518160040160006101000a81548160ff02191690831515021790555060a08201518160050155505080156112115761120a8660055461190490919063ffffffff16565b6005819055505b505050505050565b6000600380549050905060005b8181101561124857611237816109f7565b8061124190612646565b9050611226565b5050565b60008060038481548110611263576112626123d8565b5b9060005260206000209060060201905060006004600086815260200190815260200160002060008573ffffffffffffffffffffffffffffffffffffffff1673ffffffffffffffffffffffffffffffffffffffff168152602001908152602001600020905060008260030154905060008360000160009054906101000a900473ffffffffffffffffffffffffffffffffffffffff1673ffffffffffffffffffffffffffffffffffffffff166370a08231306040518263ffffffff1660e01b815260040161132f91906121c2565b60206040518083038186803b15801561134757600080fd5b505afa15801561135b573d6000803e3d6000fd5b505050506040513d601f19601f8201168201806040525081019061137f91906124eb565b9050836002015442118015611395575060008114155b1561141f5760006113aa8560020154426105a5565b905060006113d96005546113cb88600101548561191a90919063ffffffff16565b61193090919063ffffffff16565b905061141a61140b846113fd670de0b6b3a76400008561191a90919063ffffffff16565b61193090919063ffffffff16565b8561190490919063ffffffff16565b935050505b6114668360010154611458670de0b6b3a764000061144a86886000015461191a90919063ffffffff16565b61193090919063ffffffff16565b6118ee90919063ffffffff16565b94505050505092915050565b60075481565b6004602052816000526040600020602052806000526040600020600091509150508060000154908060010154905082565b60095481565b3373ffffffffffffffffffffffffffffffffffffffff1660008054906101000a900473ffffffffffffffffffffffffffffffffffffffff1673ffffffffffffffffffffffffffffffffffffffff161461153d576040517f08c379a0000000000000000000000000000000000000000000000000000000008152600401611534906123b8565b60405180910390fd5b806000806101000a81548173ffffffffffffffffffffffffffffffffffffffff021916908373ffffffffffffffffffffffffffffffffffffffff16021790555050565b60085481565b600260009054906101000a900473ffffffffffffffffffffffffffffffffffffffff1681565b600160009054906101000a900473ffffffffffffffffffffffffffffffffffffffff1681565b60003390506000600384815481106115ed576115ec6123d8565b5b9060005260206000209060060201905060006004600086815260200190815260200160002060008473ffffffffffffffffffffffffffffffffffffffff1673ffffffffffffffffffffffffffffffffffffffff168152602001908152602001600020905061165a856109f7565b60008160000154111561171a5760006116b482600101546116a6670de0b6b3a76400006116988760030154876000015461191a90919063ffffffff16565b61193090919063ffffffff16565b6118ee90919063ffffffff16565b90506000811115611718576116c98482611946565b8373ffffffffffffffffffffffffffffffffffffffff167fe2403640ba68fed3a2f88b7557551d1993f84b99bb10ff833f0cf8db0c5e04868260405161170f9190611f30565b60405180910390a25b505b600084111561185b576117748330868560000160009054906101000a900473ffffffffffffffffffffffffffffffffffffffff1673ffffffffffffffffffffffffffffffffffffffff16611c11909392919063ffffffff16565b600260009054906101000a900473ffffffffffffffffffffffffffffffffffffffff1673ffffffffffffffffffffffffffffffffffffffff168260000160009054906101000a900473ffffffffffffffffffffffffffffffffffffffff1673ffffffffffffffffffffffffffffffffffffffff16141561183a5761182d61181a61271061180c6126ac8861191a90919063ffffffff16565b61193090919063ffffffff16565b826000015461190490919063ffffffff16565b816000018190555061185a565b61185184826000015461190490919063ffffffff16565b81600001819055505b5b611890670de0b6b3a76400006118828460030154846000015461191a90919063ffffffff16565b61193090919063ffffffff16565b8160010181905550848373ffffffffffffffffffffffffffffffffffffffff167f90890809c654f11d6e72a28fa60149770a0d11ec6c92319d6ceb2bb0a4ea1a15866040516118df9190611f30565b60405180910390a35050505050565b600081836118fc91906124a2565b905092915050565b600081836119129190612518565b905092915050565b6000818361192891906126fb565b905092915050565b6000818361193e9190612784565b905092915050565b6000600160009054906101000a900473ffffffffffffffffffffffffffffffffffffffff1673ffffffffffffffffffffffffffffffffffffffff166370a08231306040518263ffffffff1660e01b81526004016119a391906121c2565b60206040518083038186803b1580156119bb57600080fd5b505afa1580156119cf573d6000803e3d6000fd5b505050506040513d601f19601f820116820180604052508101906119f391906124eb565b90506000811115611aa75780821115611a5857611a538382600160009054906101000a900473ffffffffffffffffffffffffffffffffffffffff1673ffffffffffffffffffffffffffffffffffffffff16611aac9092919063ffffffff16565b611aa6565b611aa58383600160009054906101000a900473ffffffffffffffffffffffffffffffffffffffff1673ffffffffffffffffffffffffffffffffffffffff16611aac9092919063ffffffff16565b5b5b505050565b611b2d8363a9059cbb60e01b8484604051602401611acb9291906127b5565b604051602081830303815290604052907bffffffffffffffffffffffffffffffffffffffffffffffffffffffff19166020820180517bffffffffffffffffffffffffffffffffffffffffffffffffffffffff8381831617835250505050611c9a565b505050565b6000600380549050905060005b81811015611c0c578273ffffffffffffffffffffffffffffffffffffffff1660038281548110611b7257611b716123d8565b5b906000526020600020906006020160000160009054906101000a900473ffffffffffffffffffffffffffffffffffffffff1673ffffffffffffffffffffffffffffffffffffffff161415611bfb576040517f08c379a0000000000000000000000000000000000000000000000000000000008152600401611bf29061282a565b60405180910390fd5b80611c0590612646565b9050611b3f565b505050565b611c94846323b872dd60e01b858585604051602401611c329392919061284a565b604051602081830303815290604052907bffffffffffffffffffffffffffffffffffffffffffffffffffffffff19166020820180517bffffffffffffffffffffffffffffffffffffffffffffffffffffffff8381831617835250505050611c9a565b50505050565b6000611cfc826040518060400160405280602081526020017f5361666545524332303a206c6f772d6c6576656c2063616c6c206661696c65648152508573ffffffffffffffffffffffffffffffffffffffff16611d619092919063ffffffff16565b9050600081511115611d5c5780806020019051810190611d1c9190612896565b611d5b576040517f08c379a0000000000000000000000000000000000000000000000000000000008152600401611d5290612935565b60405180910390fd5b5b505050565b6060611d708484600085611d79565b90509392505050565b606082471015611dbe576040517f08c379a0000000000000000000000000000000000000000000000000000000008152600401611db5906129c7565b60405180910390fd5b611dc785611e8d565b611e06576040517f08c379a0000000000000000000000000000000000000000000000000000000008152600401611dfd90612a33565b60405180910390fd5b6000808673ffffffffffffffffffffffffffffffffffffffff168587604051611e2f9190612acd565b60006040518083038185875af1925050503d8060008114611e6c576040519150601f19603f3d011682016040523d82523d6000602084013e611e71565b606091505b5091509150611e81828286611eb0565b92505050949350505050565b6000808273ffffffffffffffffffffffffffffffffffffffff163b119050919050565b60608315611ec057829050611f10565b600083511115611ed35782518084602001fd5b816040517f08c379a0000000000000000000000000000000000000000000000000000000008152600401611f079190612b39565b60405180910390fd5b9392505050565b6000819050919050565b611f2a81611f17565b82525050565b6000602082019050611f456000830184611f21565b92915050565b600080fd5b611f5981611f17565b8114611f6457600080fd5b50565b600081359050611f7681611f50565b92915050565b600060208284031215611f9257611f91611f4b565b5b6000611fa084828501611f67565b91505092915050565b600073ffffffffffffffffffffffffffffffffffffffff82169050919050565b6000819050919050565b6000611fee611fe9611fe484611fa9565b611fc9565b611fa9565b9050919050565b600061200082611fd3565b9050919050565b600061201282611ff5565b9050919050565b61202281612007565b82525050565b60008115159050919050565b61203d81612028565b82525050565b600060c0820190506120586000830189612019565b6120656020830188611f21565b6120726040830187611f21565b61207f6060830186611f21565b61208c6080830185612034565b61209960a0830184611f21565b979650505050505050565b600080604083850312156120bb576120ba611f4b565b5b60006120c985828601611f67565b92505060206120da85828601611f67565b9150509250929050565b60006120ef82611fa9565b9050919050565b6000612101826120e4565b9050919050565b612111816120f6565b811461211c57600080fd5b50565b60008135905061212e81612108565b92915050565b61213d816120e4565b811461214857600080fd5b50565b60008135905061215a81612134565b92915050565b60008060006060848603121561217957612178611f4b565b5b60006121878682870161211f565b935050602061219886828701611f67565b92505060406121a98682870161214b565b9150509250925092565b6121bc816120e4565b82525050565b60006020820190506121d760008301846121b3565b92915050565b6121e681612028565b81146121f157600080fd5b50565b600081359050612203816121dd565b92915050565b600080600080600060a0868803121561222557612224611f4b565b5b600061223388828901611f67565b95505060206122448882890161211f565b9450506040612255888289016121f4565b935050606061226688828901611f67565b925050608061227788828901611f67565b9150509295509295909350565b6000806040838503121561229b5761229a611f4b565b5b60006122a985828601611f67565b92505060206122ba8582860161214b565b9150509250929050565b60006040820190506122d96000830185611f21565b6122e66020830184611f21565b9392505050565b60006020828403121561230357612302611f4b565b5b60006123118482850161214b565b91505092915050565b600060208201905061232f6000830184612019565b92915050565b600082825260208201905092915050565b7f54756c697047656e65736973506f6f6c3a2063616c6c6572206973206e6f742060008201527f746865206f70657261746f720000000000000000000000000000000000000000602082015250565b60006123a2602c83612335565b91506123ad82612346565b604082019050919050565b600060208201905081810360008301526123d181612395565b9050919050565b7f4e487b7100000000000000000000000000000000000000000000000000000000600052603260045260246000fd5b7f77697468647261773a206e6f7420676f6f640000000000000000000000000000600082015250565b600061243d601283612335565b915061244882612407565b602082019050919050565b6000602082019050818103600083015261246c81612430565b9050919050565b7f4e487b7100000000000000000000000000000000000000000000000000000000600052601160045260246000fd5b60006124ad82611f17565b91506124b883611f17565b9250828210156124cb576124ca612473565b5b828203905092915050565b6000815190506124e581611f50565b92915050565b60006020828403121561250157612500611f4b565b5b600061250f848285016124d6565b91505092915050565b600061252382611f17565b915061252e83611f17565b9250827fffffffffffffffffffffffffffffffffffffffffffffffffffffffffffffffff0382111561256357612562612473565b5b828201905092915050565b7f74756c6970000000000000000000000000000000000000000000000000000000600082015250565b60006125a4600583612335565b91506125af8261256e565b602082019050919050565b600060208201905081810360008301526125d381612597565b9050919050565b7f706f6f6c2e746f6b656e00000000000000000000000000000000000000000000600082015250565b6000612610600a83612335565b915061261b826125da565b602082019050919050565b6000602082019050818103600083015261263f81612603565b9050919050565b600061265182611f17565b91507fffffffffffffffffffffffffffffffffffffffffffffffffffffffffffffffff82141561268457612683612473565b5b600182019050919050565b7f6d61782035252074617800000000000000000000000000000000000000000000600082015250565b60006126c5600a83612335565b91506126d08261268f565b602082019050919050565b600060208201905081810360008301526126f4816126b8565b9050919050565b600061270682611f17565b915061271183611f17565b9250817fffffffffffffffffffffffffffffffffffffffffffffffffffffffffffffffff048311821515161561274a57612749612473565b5b828202905092915050565b7f4e487b7100000000000000000000000000000000000000000000000000000000600052601260045260246000fd5b600061278f82611f17565b915061279a83611f17565b9250826127aa576127a9612755565b5b828204905092915050565b60006040820190506127ca60008301856121b3565b6127d76020830184611f21565b9392505050565b7f54756c697047656e65736973506f6f6c3a206578697374696e6720706f6f6c3f600082015250565b6000612814602083612335565b915061281f826127de565b602082019050919050565b6000602082019050818103600083015261284381612807565b9050919050565b600060608201905061285f60008301866121b3565b61286c60208301856121b3565b6128796040830184611f21565b949350505050565b600081519050612890816121dd565b92915050565b6000602082840312156128ac576128ab611f4b565b5b60006128ba84828501612881565b91505092915050565b7f5361666545524332303a204552433230206f7065726174696f6e20646964206e60008201527f6f74207375636365656400000000000000000000000000000000000000000000602082015250565b600061291f602a83612335565b915061292a826128c3565b604082019050919050565b6000602082019050818103600083015261294e81612912565b9050919050565b7f416464726573733a20696e73756666696369656e742062616c616e636520666f60008201527f722063616c6c0000000000000000000000000000000000000000000000000000602082015250565b60006129b1602683612335565b91506129bc82612955565b604082019050919050565b600060208201905081810360008301526129e0816129a4565b9050919050565b7f416464726573733a2063616c6c20746f206e6f6e2d636f6e7472616374000000600082015250565b6000612a1d601d83612335565b9150612a28826129e7565b602082019050919050565b60006020820190508181036000830152612a4c81612a10565b9050919050565b600081519050919050565b600081905092915050565b60005b83811015612a87578082015181840152602081019050612a6c565b83811115612a96576000848401525b50505050565b6000612aa782612a53565b612ab18185612a5e565b9350612ac1818560208601612a69565b80840191505092915050565b6000612ad98284612a9c565b915081905092915050565b600081519050919050565b6000601f19601f8301169050919050565b6000612b0b82612ae4565b612b158185612335565b9350612b25818560208601612a69565b612b2e81612aef565b840191505092915050565b60006020820190508181036000830152612b538184612b00565b90509291505056fea26469706673582212209eadfb7e9c8692fe319acad965af1a9f542e73c1e10031d6aa0c2fe9e81fad1864736f6c63430008090033",
  "linkReferences": {},
  "deployedLinkReferences": {}
}