{
  "_format": "hh-sol-artifact-1",
  "contractName": "UniswapV2Factory",
  "sourceName": "contracts/uniswap/UniswapV2Factory.sol",
  "abi": [
    {
      "inputs": [
        {
          "internalType": "address",
          "name": "_feeToSetter",
          "type": "address"
        }
      ],
      "stateMutability": "nonpayable",
      "type": "constructor"
    },
    {
      "anonymous": false,
      "inputs": [
        {
          "indexed": true,
          "internalType": "address",
          "name": "token0",
          "type": "address"
        },
        {
          "indexed": true,
          "internalType": "address",
          "name": "token1",
          "type": "address"
        },
        {
          "indexed": false,
          "internalType": "address",
          "name": "pair",
          "type": "address"
        },
        {
          "indexed": false,
          "internalType": "uint256",
          "name": "",
          "type": "uint256"
        }
      ],
      "name": "PairCreated",
      "type": "event"
    },
    {
      "inputs": [],
      "name": "INIT_CODE_PAIR_HASH",
      "outputs": [
        {
          "internalType": "bytes32",
          "name": "",
          "type": "bytes32"
        }
      ],
      "stateMutability": "view",
      "type": "function"
    },
    {
      "inputs": [
        {
          "internalType": "uint256",
          "name": "",
          "type": "uint256"
        }
      ],
      "name": "allPairs",
      "outputs": [
        {
          "internalType": "address",
          "name": "",
          "type": "address"
        }
      ],
      "stateMutability": "view",
      "type": "function"
    },
    {
      "inputs": [],
      "name": "allPairsLength",
      "outputs": [
        {
          "internalType": "uint256",
          "name": "",
          "type": "uint256"
        }
      ],
      "stateMutability": "view",
      "type": "function"
    },
    {
      "inputs": [
        {
          "internalType": "address",
          "name": "tokenA",
          "type": "address"
        },
        {
          "internalType": "address",
          "name": "tokenB",
          "type": "address"
        }
      ],
      "name": "createPair",
      "outputs": [
        {
          "internalType": "address",
          "name": "pair",
          "type": "address"
        }
      ],
      "stateMutability": "nonpayable",
      "type": "function"
    },
    {
      "inputs": [],
      "name": "feeTo",
      "outputs": [
        {
          "internalType": "address",
          "name": "",
          "type": "address"
        }
      ],
      "stateMutability": "view",
      "type": "function"
    },
    {
      "inputs": [],
      "name": "feeToSetter",
      "outputs": [
        {
          "internalType": "address",
          "name": "",
          "type": "address"
        }
      ],
      "stateMutability": "view",
      "type": "function"
    },
    {
      "inputs": [
        {
          "internalType": "address",
          "name": "",
          "type": "address"
        },
        {
          "internalType": "address",
          "name": "",
          "type": "address"
        }
      ],
      "name": "getPair",
      "outputs": [
        {
          "internalType": "address",
          "name": "",
          "type": "address"
        }
      ],
      "stateMutability": "view",
      "type": "function"
    },
    {
      "inputs": [],
      "name": "pairCodeHash",
      "outputs": [
        {
          "internalType": "bytes32",
          "name": "",
          "type": "bytes32"
        }
      ],
      "stateMutability": "pure",
      "type": "function"
    },
    {
      "inputs": [
        {
          "internalType": "address",
          "name": "_feeTo",
          "type": "address"
        }
      ],
      "name": "setFeeTo",
      "outputs": [],
      "stateMutability": "nonpayable",
      "type": "function"
    },
    {
      "inputs": [
        {
          "internalType": "address",
          "name": "_feeToSetter",
          "type": "address"
        }
      ],
      "name": "setFeeToSetter",
      "outputs": [],
      "stateMutability": "nonpayable",
      "type": "function"
    }
  ],
  "bytecode": "0x608060405234801561001057600080fd5b506040516132be3803806132be83398101604081905261002f91610054565b600180546001600160a01b0319166001600160a01b0392909216919091179055610084565b60006020828403121561006657600080fd5b81516001600160a01b038116811461007d57600080fd5b9392505050565b61322b806100936000396000f3fe608060405234801561001057600080fd5b50600436106100be5760003560e01c80639aab924811610076578063c9c653961161005b578063c9c6539614610177578063e6a439051461018a578063f46901ed146101cb57600080fd5b80639aab92481461015a578063a2e74af61461016257600080fd5b80631e3dd18b116100a75780631e3dd18b1461012d578063574f2ba3146101405780635855a25a1461015257600080fd5b8063017e7e58146100c3578063094b74151461010d575b600080fd5b6000546100e39073ffffffffffffffffffffffffffffffffffffffff1681565b60405173ffffffffffffffffffffffffffffffffffffffff90911681526020015b60405180910390f35b6001546100e39073ffffffffffffffffffffffffffffffffffffffff1681565b6100e361013b36600461086f565b6101de565b6003545b604051908152602001610104565b610144610215565b61014461027d565b6101756101703660046108b1565b6102af565b005b6100e36101853660046108d3565b61037c565b6100e36101983660046108d3565b600260209081526000928352604080842090915290825290205473ffffffffffffffffffffffffffffffffffffffff1681565b6101756101d93660046108b1565b61079a565b600381815481106101ee57600080fd5b60009182526020909120015473ffffffffffffffffffffffffffffffffffffffff16905081565b60405161022460208201610862565b7fffffffffffffffffffffffffffffffffffffffffffffffffffffffffffffffe082820381018352601f9091011660408190526102649190602001610906565b6040516020818303038152906040528051906020012081565b60006040518060200161028f90610862565b6020820181038252601f19601f8201166040525080519060200120905090565b60015473ffffffffffffffffffffffffffffffffffffffff163314610335576040517f08c379a000000000000000000000000000000000000000000000000000000000815260206004820152601460248201527f556e697377617056323a20464f5242494444454e00000000000000000000000060448201526064015b60405180910390fd5b600180547fffffffffffffffffffffffff00000000000000000000000000000000000000001673ffffffffffffffffffffffffffffffffffffffff92909216919091179055565b60008173ffffffffffffffffffffffffffffffffffffffff168373ffffffffffffffffffffffffffffffffffffffff161415610414576040517f08c379a000000000000000000000000000000000000000000000000000000000815260206004820152601e60248201527f556e697377617056323a204944454e544943414c5f4144445245535345530000604482015260640161032c565b6000808373ffffffffffffffffffffffffffffffffffffffff168573ffffffffffffffffffffffffffffffffffffffff1610610451578385610454565b84845b909250905073ffffffffffffffffffffffffffffffffffffffff82166104d6576040517f08c379a000000000000000000000000000000000000000000000000000000000815260206004820152601760248201527f556e697377617056323a205a45524f5f41444452455353000000000000000000604482015260640161032c565b73ffffffffffffffffffffffffffffffffffffffff828116600090815260026020908152604080832085851684529091529020541615610572576040517f08c379a000000000000000000000000000000000000000000000000000000000815260206004820152601660248201527f556e697377617056323a20504149525f45584953545300000000000000000000604482015260640161032c565b60006040518060200161058490610862565b7fffffffffffffffffffffffffffffffffffffffffffffffffffffffffffffffe082820381018352601f9091011660408190527fffffffffffffffffffffffffffffffffffffffff000000000000000000000000606086811b8216602084015285901b166034820152909150600090604801604051602081830303815290604052805190602001209050808251602084016000f56040517f485cc95500000000000000000000000000000000000000000000000000000000815273ffffffffffffffffffffffffffffffffffffffff868116600483015285811660248301529196509086169063485cc95590604401600060405180830381600087803b15801561068d57600080fd5b505af11580156106a1573d6000803e3d6000fd5b5050505073ffffffffffffffffffffffffffffffffffffffff84811660008181526002602081815260408084208987168086529083528185208054978d167fffffffffffffffffffffffff000000000000000000000000000000000000000098891681179091559383528185208686528352818520805488168517905560038054600181018255958190527fc2575a0e9e593c00f959f8c92f12db2869c3395a3b0502d05e2516446f71f85b9095018054909716841790965592548351928352908201527f0d3648bd0f6ba80134a33ba9275ac585d9d315f0ad8355cddefde31afa28d0e9910160405180910390a35050505092915050565b60015473ffffffffffffffffffffffffffffffffffffffff16331461081b576040517f08c379a000000000000000000000000000000000000000000000000000000000815260206004820152601460248201527f556e697377617056323a20464f5242494444454e000000000000000000000000604482015260640161032c565b600080547fffffffffffffffffffffffff00000000000000000000000000000000000000001673ffffffffffffffffffffffffffffffffffffffff92909216919091179055565b6128b48061094283390190565b60006020828403121561088157600080fd5b5035919050565b803573ffffffffffffffffffffffffffffffffffffffff811681146108ac57600080fd5b919050565b6000602082840312156108c357600080fd5b6108cc82610888565b9392505050565b600080604083850312156108e657600080fd5b6108ef83610888565b91506108fd60208401610888565b90509250929050565b6000825160005b81811015610927576020818601810151858301520161090d565b81811115610936576000828501525b50919091019291505056fe60806040526001600c5534801561001557600080fd5b506040805180820182526008815267054756c6970204c560c41b6020918201528151808301835260018152603160f81b9082015281517f8b73c3c69bb8fe3d512ecc4cf759cc79239f7b179b0ffacaa9a75d522b39400f818301527f73b8a1a642cc537660076e312bfdfec0f38b2adcbc829c5ee0d6270c60df9e95818401527fc89efdaa54c0f20c7adf612882df0950f5a951637e0307cdcb4c672f298b8bc660608201524660808201523060a0808301919091528351808303909101815260c09091019092528151910120600355600580546001600160a01b031916331790556127ae806101066000396000f3fe608060405234801561001057600080fd5b50600436106101b95760003560e01c80636a627842116100f9578063ba9a7a5611610097578063d21220a711610071578063d21220a714610474578063d505accf14610487578063dd62ed3e1461049a578063fff6cae9146104c557600080fd5b8063ba9a7a5614610445578063bc25cf771461044e578063c45a01551461046157600080fd5b80637ecebe00116100d35780637ecebe00146103ae57806389afcb44146103ce57806395d89b41146103f6578063a9059cbb1461043257600080fd5b80636a6278421461037257806370a08231146103855780637464fc3d146103a557600080fd5b806323b872dd116101665780633644e515116101405780633644e51514610344578063485cc9551461034d5780635909c0d5146103605780635a3d54931461036957600080fd5b806323b872dd146102f057806330adf81f14610303578063313ce5671461032a57600080fd5b8063095ea7b311610197578063095ea7b31461028b5780630dfe1681146102ae57806318160ddd146102d957600080fd5b8063022c0d9f146101be57806306fdde03146101d35780630902f1ac14610225575b600080fd5b6101d16101cc3660046122f1565b6104cd565b005b61020f6040518060400160405280600881526020017f54756c6970204c5000000000000000000000000000000000000000000000000081525081565b60405161021c91906123b7565b60405180910390f35b600854604080516dffffffffffffffffffffffffffff80841682526e01000000000000000000000000000084041660208201527c010000000000000000000000000000000000000000000000000000000090920463ffffffff169082015260600161021c565b61029e6102993660046123ea565b610b1e565b604051901515815260200161021c565b6006546102c1906001600160a01b031681565b6040516001600160a01b03909116815260200161021c565b6102e260005481565b60405190815260200161021c565b61029e6102fe366004612416565b610b35565b6102e27f6e71edae12b1b97f4d1f60370fef10105fa2faae0126114a169c64845d6126c981565b610332601281565b60405160ff909116815260200161021c565b6102e260035481565b6101d161035b366004612457565b610bc9565b6102e260095481565b6102e2600a5481565b6102e2610380366004612490565b610c69565b6102e2610393366004612490565b60016020526000908152604090205481565b6102e2600b5481565b6102e26103bc366004612490565b60046020526000908152604090205481565b6103e16103dc366004612490565b610fdd565b6040805192835260208301919091520161021c565b61020f6040518060400160405280600481526020017f74704c500000000000000000000000000000000000000000000000000000000081525081565b61029e6104403660046123ea565b6113f8565b6102e26103e881565b6101d161045c366004612490565b611405565b6005546102c1906001600160a01b031681565b6007546102c1906001600160a01b031681565b6101d16104953660046124ad565b611571565b6102e26104a8366004612457565b600260209081526000928352604080842090915290825290205481565b6101d16117ab565b600c546001146105245760405162461bcd60e51b815260206004820152601160248201527f556e697377617056323a204c4f434b454400000000000000000000000000000060448201526064015b60405180910390fd5b6000600c55841515806105375750600084115b6105a95760405162461bcd60e51b815260206004820152602560248201527f556e697377617056323a20494e53554646494349454e545f4f55545055545f4160448201527f4d4f554e54000000000000000000000000000000000000000000000000000000606482015260840161051b565b6000806106056008546dffffffffffffffffffffffffffff808216926e01000000000000000000000000000083049091169163ffffffff7c01000000000000000000000000000000000000000000000000000000009091041690565b5091509150816dffffffffffffffffffffffffffff16871080156106385750806dffffffffffffffffffffffffffff1686105b6106aa5760405162461bcd60e51b815260206004820152602160248201527f556e697377617056323a20494e53554646494349454e545f4c4951554944495460448201527f5900000000000000000000000000000000000000000000000000000000000000606482015260840161051b565b60065460075460009182916001600160a01b039182169190811690891682148015906106e85750806001600160a01b0316896001600160a01b031614155b6107345760405162461bcd60e51b815260206004820152601560248201527f556e697377617056323a20494e56414c49445f544f0000000000000000000000604482015260640161051b565b8a1561074557610745828a8d61192f565b891561075657610756818a8c61192f565b86156107dc576040517f10d1e85c0000000000000000000000000000000000000000000000000000000081526001600160a01b038a16906310d1e85c906107a99033908f908f908e908e90600401612524565b600060405180830381600087803b1580156107c357600080fd5b505af11580156107d7573d6000803e3d6000fd5b505050505b6040516370a0823160e01b81523060048201526001600160a01b038316906370a082319060240160206040518083038186803b15801561081b57600080fd5b505afa15801561082f573d6000803e3d6000fd5b505050506040513d601f19601f820116820180604052508101906108539190612571565b6040516370a0823160e01b81523060048201529094506001600160a01b038216906370a082319060240160206040518083038186803b15801561089557600080fd5b505afa1580156108a9573d6000803e3d6000fd5b505050506040513d601f19601f820116820180604052508101906108cd9190612571565b92505050600089856dffffffffffffffffffffffffffff166108ef91906125b9565b83116108fc576000610920565b6109168a6dffffffffffffffffffffffffffff87166125b9565b61092090846125b9565b9050600061093e8a6dffffffffffffffffffffffffffff87166125b9565b831161094b57600061096f565b6109658a6dffffffffffffffffffffffffffff87166125b9565b61096f90846125b9565b905060008211806109805750600081115b6109f15760405162461bcd60e51b8152602060048201526024808201527f556e697377617056323a20494e53554646494349454e545f494e5055545f414d60448201527f4f554e5400000000000000000000000000000000000000000000000000000000606482015260840161051b565b6000610a13610a01846002611aa8565b610a0d876103e8611aa8565b90611b18565b90506000610a25610a01846002611aa8565b9050610a51620f4240610a4b6dffffffffffffffffffffffffffff8b8116908b16611aa8565b90611aa8565b610a5b8383611aa8565b1015610aa95760405162461bcd60e51b815260206004820152600c60248201527f556e697377617056323a204b0000000000000000000000000000000000000000604482015260640161051b565b5050610ab784848888611b76565b60408051838152602081018390529081018c9052606081018b90526001600160a01b038a169033907fd78ad95fa46c994b6551d0da85fc275fe613ce37657fb8d5e3d130840159d8229060800160405180910390a350506001600c55505050505050505050565b6000610b2b338484611e38565b5060015b92915050565b6001600160a01b038316600090815260026020908152604080832033845290915281205460001914610bb4576001600160a01b0384166000908152600260209081526040808320338452909152902054610b8f9083611b18565b6001600160a01b03851660009081526002602090815260408083203384529091529020555b610bbf848484611e9a565b5060019392505050565b6005546001600160a01b03163314610c235760405162461bcd60e51b815260206004820152601460248201527f556e697377617056323a20464f5242494444454e000000000000000000000000604482015260640161051b565b600680546001600160a01b039384167fffffffffffffffffffffffff00000000000000000000000000000000000000009182161790915560078054929093169116179055565b6000600c54600114610cbd5760405162461bcd60e51b815260206004820152601160248201527f556e697377617056323a204c4f434b4544000000000000000000000000000000604482015260640161051b565b6000600c819055600854600654604080516370a0823160e01b815230600482015290516dffffffffffffffffffffffffffff808516956e0100000000000000000000000000009095041693926001600160a01b0316916370a08231916024808301926020929190829003018186803b158015610d3857600080fd5b505afa158015610d4c573d6000803e3d6000fd5b505050506040513d601f19601f82011682018060405250810190610d709190612571565b6007546040516370a0823160e01b81523060048201529192506000916001600160a01b03909116906370a082319060240160206040518083038186803b158015610db957600080fd5b505afa158015610dcd573d6000803e3d6000fd5b505050506040513d601f19601f82011682018060405250810190610df19190612571565b90506000610e0f836dffffffffffffffffffffffffffff8716611b18565b90506000610e2d836dffffffffffffffffffffffffffff8716611b18565b90506000610e3b8787611f40565b60005490915080610e7257610e5e6103e8610a0d610e598787611aa8565b612093565b9850610e6d60006103e8612103565b610ec7565b610ec46dffffffffffffffffffffffffffff8916610e908684611aa8565b610e9a91906125ff565b6dffffffffffffffffffffffffffff8916610eb58685611aa8565b610ebf91906125ff565b612192565b98505b60008911610f3d5760405162461bcd60e51b815260206004820152602860248201527f556e697377617056323a20494e53554646494349454e545f4c4951554944495460448201527f595f4d494e544544000000000000000000000000000000000000000000000000606482015260840161051b565b610f478a8a612103565b610f5386868a8a611b76565b8115610f8f57600854610f8b906dffffffffffffffffffffffffffff808216916e010000000000000000000000000000900416611aa8565b600b555b604080518581526020810185905233917f4c209b5fc8ad50758f13e2e1088ba56a560dff690a1c6fef26394f4c03821c4f910160405180910390a250506001600c5550949695505050505050565b600080600c546001146110325760405162461bcd60e51b815260206004820152601160248201527f556e697377617056323a204c4f434b4544000000000000000000000000000000604482015260640161051b565b6000600c819055600854600654600754604080516370a0823160e01b815230600482015290516dffffffffffffffffffffffffffff808616966e01000000000000000000000000000090960416946001600160a01b0394851694909316929184916370a0823191602480820192602092909190829003018186803b1580156110b957600080fd5b505afa1580156110cd573d6000803e3d6000fd5b505050506040513d601f19601f820116820180604052508101906110f19190612571565b6040516370a0823160e01b81523060048201529091506000906001600160a01b038416906370a082319060240160206040518083038186803b15801561113657600080fd5b505afa15801561114a573d6000803e3d6000fd5b505050506040513d601f19601f8201168201806040525081019061116e9190612571565b3060009081526001602052604081205491925061118b8888611f40565b6000549091508061119c8487611aa8565b6111a691906125ff565b9a50806111b38486611aa8565b6111bd91906125ff565b995060008b1180156111cf575060008a115b6112415760405162461bcd60e51b815260206004820152602860248201527f556e697377617056323a20494e53554646494349454e545f4c4951554944495460448201527f595f4255524e4544000000000000000000000000000000000000000000000000606482015260840161051b565b61124b30846121aa565b611256878d8d61192f565b611261868d8c61192f565b6040516370a0823160e01b81523060048201526001600160a01b038816906370a082319060240160206040518083038186803b1580156112a057600080fd5b505afa1580156112b4573d6000803e3d6000fd5b505050506040513d601f19601f820116820180604052508101906112d89190612571565b6040516370a0823160e01b81523060048201529095506001600160a01b038716906370a082319060240160206040518083038186803b15801561131a57600080fd5b505afa15801561132e573d6000803e3d6000fd5b505050506040513d601f19601f820116820180604052508101906113529190612571565b935061136085858b8b611b76565b811561139c57600854611398906dffffffffffffffffffffffffffff808216916e010000000000000000000000000000900416611aa8565b600b555b604080518c8152602081018c90526001600160a01b038e169133917fdccd412f0b1252819cb1fd330b93224ca42612892bb3f4f789976e6d81936496910160405180910390a35050505050505050506001600c81905550915091565b6000610b2b338484611e9a565b600c546001146114575760405162461bcd60e51b815260206004820152601160248201527f556e697377617056323a204c4f434b4544000000000000000000000000000000604482015260640161051b565b6000600c556006546007546008546040516370a0823160e01b81523060048201526001600160a01b0393841693909216916115089184918691611503916dffffffffffffffffffffffffffff9091169084906370a08231906024015b60206040518083038186803b1580156114cb57600080fd5b505afa1580156114df573d6000803e3d6000fd5b505050506040513d601f19601f82011682018060405250810190610a0d9190612571565b61192f565b6008546040516370a0823160e01b81523060048201526115679183918691611503916e0100000000000000000000000000009091046dffffffffffffffffffffffffffff16906001600160a01b038516906370a08231906024016114b3565b50506001600c5550565b428410156115c15760405162461bcd60e51b815260206004820152601260248201527f556e697377617056323a20455850495245440000000000000000000000000000604482015260640161051b565b6003546001600160a01b038816600090815260046020526040812080549192917f6e71edae12b1b97f4d1f60370fef10105fa2faae0126114a169c64845d6126c9918b918b918b91908761161483612613565b909155506040805160208101969096526001600160a01b0394851690860152929091166060840152608083015260a082015260c0810187905260e001604051602081830303815290604052805190602001206040516020016116a89291907f190100000000000000000000000000000000000000000000000000000000000081526002810192909252602282015260420190565b60408051601f198184030181528282528051602091820120600080855291840180845281905260ff88169284019290925260608301869052608083018590529092509060019060a0016020604051602081039080840390855afa158015611713573d6000803e3d6000fd5b5050604051601f1901519150506001600160a01b038116158015906117495750886001600160a01b0316816001600160a01b0316145b6117955760405162461bcd60e51b815260206004820152601c60248201527f556e697377617056323a20494e56414c49445f5349474e415455524500000000604482015260640161051b565b6117a0898989611e38565b505050505050505050565b600c546001146117fd5760405162461bcd60e51b815260206004820152601160248201527f556e697377617056323a204c4f434b4544000000000000000000000000000000604482015260640161051b565b6000600c556006546040516370a0823160e01b8152306004820152611928916001600160a01b0316906370a082319060240160206040518083038186803b15801561184757600080fd5b505afa15801561185b573d6000803e3d6000fd5b505050506040513d601f19601f8201168201806040525081019061187f9190612571565b6007546040516370a0823160e01b81523060048201526001600160a01b03909116906370a082319060240160206040518083038186803b1580156118c257600080fd5b505afa1580156118d6573d6000803e3d6000fd5b505050506040513d601f19601f820116820180604052508101906118fa9190612571565b6008546dffffffffffffffffffffffffffff808216916e010000000000000000000000000000900416611b76565b6001600c55565b604080518082018252601981527f7472616e7366657228616464726573732c75696e74323536290000000000000060209182015281516001600160a01b0385811660248301526044808301869052845180840390910181526064909201845291810180517bffffffffffffffffffffffffffffffffffffffffffffffffffffffff167fa9059cbb00000000000000000000000000000000000000000000000000000000179052915160009283928716916119e9919061262e565b6000604051808303816000865af19150503d8060008114611a26576040519150601f19603f3d011682016040523d82523d6000602084013e611a2b565b606091505b5091509150818015611a55575080511580611a55575080806020019051810190611a55919061264a565b611aa15760405162461bcd60e51b815260206004820152601a60248201527f556e697377617056323a205452414e534645525f4641494c4544000000000000604482015260640161051b565b5050505050565b6000811580611acc57508282611abe818361266c565b9250611aca90836125ff565b145b610b2f5760405162461bcd60e51b815260206004820152601460248201527f64732d6d6174682d6d756c2d6f766572666c6f77000000000000000000000000604482015260640161051b565b600082611b2583826125b9565b9150811115610b2f5760405162461bcd60e51b815260206004820152601560248201527f64732d6d6174682d7375622d756e646572666c6f770000000000000000000000604482015260640161051b565b6dffffffffffffffffffffffffffff8411801590611ba257506dffffffffffffffffffffffffffff8311155b611bee5760405162461bcd60e51b815260206004820152601360248201527f556e697377617056323a204f564552464c4f5700000000000000000000000000604482015260640161051b565b6000611bff6401000000004261268b565b600854909150600090611c38907c0100000000000000000000000000000000000000000000000000000000900463ffffffff168361269f565b905060008163ffffffff16118015611c5f57506dffffffffffffffffffffffffffff841615155b8015611c7a57506dffffffffffffffffffffffffffff831615155b15611d48578063ffffffff16611cb785611c9386612234565b7bffffffffffffffffffffffffffffffffffffffffffffffffffffffff169061225f565b7bffffffffffffffffffffffffffffffffffffffffffffffffffffffff16611cdf919061266c565b60096000828254611cf091906126c4565b909155505063ffffffff8116611d0984611c9387612234565b7bffffffffffffffffffffffffffffffffffffffffffffffffffffffff16611d31919061266c565b600a6000828254611d4291906126c4565b90915550505b6008805463ffffffff84167c0100000000000000000000000000000000000000000000000000000000027bffffffffffffffffffffffffffffffffffffffffffffffffffffffff6dffffffffffffffffffffffffffff8981166e0100000000000000000000000000009081027fffffffff000000000000000000000000000000000000000000000000000000009095168c83161794909417918216831794859055604080519382169282169290921783529290930490911660208201527f1c411e9a96e071241c2f21f7726b17ae89e3cab4c78be50e062b03a9fffbbad1910160405180910390a1505050505050565b6001600160a01b0383811660008181526002602090815260408083209487168084529482529182902085905590518481527f8c5be1e5ebec7d5bd14f71427d1e84f3dd0314c0f7b2291e5b200ac8c7c3b92591015b60405180910390a3505050565b6001600160a01b038316600090815260016020526040902054611ebd9082611b18565b6001600160a01b038085166000908152600160205260408082209390935590841681522054611eec908261227b565b6001600160a01b0380841660008181526001602052604090819020939093559151908516907fddf252ad1be2c89b69c2b068fc378daa952ba7f163c4a11628f55a4df523b3ef90611e8d9085815260200190565b600080600560009054906101000a90046001600160a01b03166001600160a01b031663017e7e586040518163ffffffff1660e01b815260040160206040518083038186803b158015611f9157600080fd5b505afa158015611fa5573d6000803e3d6000fd5b505050506040513d601f19601f82011682018060405250810190611fc991906126dc565b600b546001600160a01b03821615801594509192509061207f57801561207a57600061200b610e596dffffffffffffffffffffffffffff888116908816611aa8565b9050600061201883612093565b90508082111561207757600061203a6120318484611b18565b60005490611aa8565b905060006120538361204d866003611aa8565b9061227b565b9050600061206182846125ff565b90508015612073576120738782612103565b5050505b50505b61208b565b801561208b576000600b555b505092915050565b600060038211156120f457508060006120ad6002836125ff565b6120b89060016126c4565b90505b818110156120ee579050806002816120d381866125ff565b6120dd91906126c4565b6120e791906125ff565b90506120bb565b50919050565b81156120fe575060015b919050565b600054612110908261227b565b60009081556001600160a01b038316815260016020526040902054612135908261227b565b6001600160a01b0383166000818152600160205260408082209390935591519091907fddf252ad1be2c89b69c2b068fc378daa952ba7f163c4a11628f55a4df523b3ef906121869085815260200190565b60405180910390a35050565b60008183106121a157816121a3565b825b9392505050565b6001600160a01b0382166000908152600160205260409020546121cd9082611b18565b6001600160a01b038316600090815260016020526040812091909155546121f49082611b18565b60009081556040518281526001600160a01b038416907fddf252ad1be2c89b69c2b068fc378daa952ba7f163c4a11628f55a4df523b3ef90602001612186565b6000610b2f6e0100000000000000000000000000006dffffffffffffffffffffffffffff84166126f9565b60006121a36dffffffffffffffffffffffffffff83168461273d565b60008261228883826126c4565b9150811015610b2f5760405162461bcd60e51b815260206004820152601460248201527f64732d6d6174682d6164642d6f766572666c6f77000000000000000000000000604482015260640161051b565b6001600160a01b03811681146122ee57600080fd5b50565b60008060008060006080868803121561230957600080fd5b85359450602086013593506040860135612322816122d9565b9250606086013567ffffffffffffffff8082111561233f57600080fd5b818801915088601f83011261235357600080fd5b81358181111561236257600080fd5b89602082850101111561237457600080fd5b9699959850939650602001949392505050565b60005b838110156123a257818101518382015260200161238a565b838111156123b1576000848401525b50505050565b60208152600082518060208401526123d6816040850160208701612387565b601f01601f19169190910160400192915050565b600080604083850312156123fd57600080fd5b8235612408816122d9565b946020939093013593505050565b60008060006060848603121561242b57600080fd5b8335612436816122d9565b92506020840135612446816122d9565b929592945050506040919091013590565b6000806040838503121561246a57600080fd5b8235612475816122d9565b91506020830135612485816122d9565b809150509250929050565b6000602082840312156124a257600080fd5b81356121a3816122d9565b600080600080600080600060e0888a0312156124c857600080fd5b87356124d3816122d9565b965060208801356124e3816122d9565b95506040880135945060608801359350608088013560ff8116811461250757600080fd5b9699959850939692959460a0840135945060c09093013592915050565b6001600160a01b038616815284602082015283604082015260806060820152816080820152818360a0830137600081830160a090810191909152601f909201601f19160101949350505050565b60006020828403121561258357600080fd5b5051919050565b7f4e487b7100000000000000000000000000000000000000000000000000000000600052601160045260246000fd5b6000828210156125cb576125cb61258a565b500390565b7f4e487b7100000000000000000000000000000000000000000000000000000000600052601260045260246000fd5b60008261260e5761260e6125d0565b500490565b60006000198214156126275761262761258a565b5060010190565b60008251612640818460208701612387565b9190910192915050565b60006020828403121561265c57600080fd5b815180151581146121a357600080fd5b60008160001904831182151516156126865761268661258a565b500290565b60008261269a5761269a6125d0565b500690565b600063ffffffff838116908316818110156126bc576126bc61258a565b039392505050565b600082198211156126d7576126d761258a565b500190565b6000602082840312156126ee57600080fd5b81516121a3816122d9565b60007bffffffffffffffffffffffffffffffffffffffffffffffffffffffff808316818516818304811182151516156127345761273461258a565b02949350505050565b60007bffffffffffffffffffffffffffffffffffffffffffffffffffffffff8084168061276c5761276c6125d0565b9216919091049291505056fea2646970667358221220f45a48af72dc5a8d83cdb09da174bdbaab4a0c3d50ce28348df1f94c86ee3fbe64736f6c63430008080033a26469706673582212203883352c80e34c07dd70f777faee27036d6bfe26121164961e5e93ea477cbcba64736f6c63430008080033",
  "linkReferences": {},
  "deployedLinkReferences": {}
}