{
  "_format": "hh-sol-artifact-1",
  "contractName": "UpgradeTswap",
  "sourceName": "contracts/UpgradeTswap.sol",
  "abi": [
    {
      "inputs": [
        {
          "internalType": "address",
          "name": "_oldToken",
          "type": "address"
        },
        {
          "internalType": "address",
          "name": "_newToken",
          "type": "address"
        }
      ],
      "stateMutability": "nonpayable",
      "type": "constructor"
    },
    {
      "inputs": [],
      "name": "newToken",
      "outputs": [
        {
          "internalType": "contract IERC20",
          "name": "",
          "type": "address"
        }
      ],
      "stateMutability": "view",
      "type": "function"
    },
    {
      "inputs": [],
      "name": "oldToken",
      "outputs": [
        {
          "internalType": "contract IERC20",
          "name": "",
          "type": "address"
        }
      ],
      "stateMutability": "view",
      "type": "function"
    },
    {
      "inputs": [],
      "name": "owner",
      "outputs": [
        {
          "internalType": "address",
          "name": "",
          "type": "address"
        }
      ],
      "stateMutability": "view",
      "type": "function"
    },
    {
      "inputs": [],
      "name": "recoverAll",
      "outputs": [],
      "stateMutability": "nonpayable",
      "type": "function"
    },
    {
      "inputs": [],
      "name": "upgradeTokens",
      "outputs": [],
      "stateMutability": "nonpayable",
      "type": "function"
    }
  ],
  "bytecode": "0x6080604052600060025534801561001557600080fd5b50604051610ad7380380610ad783398181016040528101906100379190610122565b816000806101000a81548173ffffffffffffffffffffffffffffffffffffffff021916908373ffffffffffffffffffffffffffffffffffffffff16021790555080600160006101000a81548173ffffffffffffffffffffffffffffffffffffffff021916908373ffffffffffffffffffffffffffffffffffffffff1602179055505050610162565b600080fd5b600073ffffffffffffffffffffffffffffffffffffffff82169050919050565b60006100ef826100c4565b9050919050565b6100ff816100e4565b811461010a57600080fd5b50565b60008151905061011c816100f6565b92915050565b60008060408385031215610139576101386100bf565b5b60006101478582860161010d565b92505060206101588582860161010d565b9150509250929050565b610966806101716000396000f3fe608060405234801561001057600080fd5b50600436106100575760003560e01c80633d0b1e2c1461005c5780636899d8c2146100665780638da5cb5b14610070578063b31c710a1461008e578063c42bd05a146100ac575b600080fd5b6100646100ca565b005b61006e610332565b005b610078610540565b60405161008591906105f1565b60405180910390f35b610096610566565b6040516100a3919061066b565b60405180910390f35b6100b461058a565b6040516100c1919061066b565b60405180910390f35b60008060009054906101000a900473ffffffffffffffffffffffffffffffffffffffff1673ffffffffffffffffffffffffffffffffffffffff166370a08231336040518263ffffffff1660e01b815260040161012691906105f1565b60206040518083038186803b15801561013e57600080fd5b505afa158015610152573d6000803e3d6000fd5b505050506040513d601f19601f8201168201806040525081019061017691906106c1565b905060008054906101000a900473ffffffffffffffffffffffffffffffffffffffff1673ffffffffffffffffffffffffffffffffffffffff166323b872dd3330846040518463ffffffff1660e01b81526004016101d5939291906106fd565b602060405180830381600087803b1580156101ef57600080fd5b505af1158015610203573d6000803e3d6000fd5b505050506040513d601f19601f82011682018060405250810190610227919061076c565b610266576040517f08c379a000000000000000000000000000000000000000000000000000000000815260040161025d906107f6565b60405180910390fd5b80600260008282546102789190610845565b92505081905550600160009054906101000a900473ffffffffffffffffffffffffffffffffffffffff1673ffffffffffffffffffffffffffffffffffffffff1663a9059cbb33836040518363ffffffff1660e01b81526004016102dc92919061089b565b602060405180830381600087803b1580156102f657600080fd5b505af115801561030a573d6000803e3d6000fd5b505050506040513d601f19601f8201168201806040525081019061032e919061076c565b5050565b600360009054906101000a900473ffffffffffffffffffffffffffffffffffffffff1673ffffffffffffffffffffffffffffffffffffffff163373ffffffffffffffffffffffffffffffffffffffff16146103c2576040517f08c379a00000000000000000000000000000000000000000000000000000000081526004016103b990610910565b60405180910390fd5b600160009054906101000a900473ffffffffffffffffffffffffffffffffffffffff1673ffffffffffffffffffffffffffffffffffffffff1663a9059cbb600360009054906101000a900473ffffffffffffffffffffffffffffffffffffffff16600160009054906101000a900473ffffffffffffffffffffffffffffffffffffffff1673ffffffffffffffffffffffffffffffffffffffff166370a08231306040518263ffffffff1660e01b815260040161047e91906105f1565b60206040518083038186803b15801561049657600080fd5b505afa1580156104aa573d6000803e3d6000fd5b505050506040513d601f19601f820116820180604052508101906104ce91906106c1565b6040518363ffffffff1660e01b81526004016104eb92919061089b565b602060405180830381600087803b15801561050557600080fd5b505af1158015610519573d6000803e3d6000fd5b505050506040513d601f19601f8201168201806040525081019061053d919061076c565b50565b600360009054906101000a900473ffffffffffffffffffffffffffffffffffffffff1681565b60008054906101000a900473ffffffffffffffffffffffffffffffffffffffff1681565b600160009054906101000a900473ffffffffffffffffffffffffffffffffffffffff1681565b600073ffffffffffffffffffffffffffffffffffffffff82169050919050565b60006105db826105b0565b9050919050565b6105eb816105d0565b82525050565b600060208201905061060660008301846105e2565b92915050565b6000819050919050565b600061063161062c610627846105b0565b61060c565b6105b0565b9050919050565b600061064382610616565b9050919050565b600061065582610638565b9050919050565b6106658161064a565b82525050565b6000602082019050610680600083018461065c565b92915050565b600080fd5b6000819050919050565b61069e8161068b565b81146106a957600080fd5b50565b6000815190506106bb81610695565b92915050565b6000602082840312156106d7576106d6610686565b5b60006106e5848285016106ac565b91505092915050565b6106f78161068b565b82525050565b600060608201905061071260008301866105e2565b61071f60208301856105e2565b61072c60408301846106ee565b949350505050565b60008115159050919050565b61074981610734565b811461075457600080fd5b50565b60008151905061076681610740565b92915050565b60006020828403121561078257610781610686565b5b600061079084828501610757565b91505092915050565b600082825260208201905092915050565b7f696e76616c6964207472616e73616374696f6e00000000000000000000000000600082015250565b60006107e0601383610799565b91506107eb826107aa565b602082019050919050565b6000602082019050818103600083015261080f816107d3565b9050919050565b7f4e487b7100000000000000000000000000000000000000000000000000000000600052601160045260246000fd5b60006108508261068b565b915061085b8361068b565b9250827fffffffffffffffffffffffffffffffffffffffffffffffffffffffffffffffff038211156108905761088f610816565b5b828201905092915050565b60006040820190506108b060008301856105e2565b6108bd60208301846106ee565b9392505050565b7f6f6e6c79206f776e657200000000000000000000000000000000000000000000600082015250565b60006108fa600a83610799565b9150610905826108c4565b602082019050919050565b60006020820190508181036000830152610929816108ed565b905091905056fea2646970667358221220f286140a24c973734a7c9c1fc0e3b1a2d6b76b712f2ae50414323c1e5900cdc964736f6c63430008090033",
  "linkReferences": {},
  "deployedLinkReferences": {}
}