{
  "_format": "hh-sol-artifact-1",
  "contractName": "Zap",
  "sourceName": "contracts/Zap.sol",
  "abi": [
    {
      "inputs": [
        {
          "internalType": "address",
          "name": "_WNATIVE",
          "type": "address"
        }
      ],
      "stateMutability": "nonpayable",
      "type": "constructor"
    },
    {
      "anonymous": false,
      "inputs": [
        {
          "indexed": false,
          "internalType": "address",
          "name": "fee_to",
          "type": "address"
        },
        {
          "indexed": false,
          "internalType": "uint16",
          "name": "rate",
          "type": "uint16"
        },
        {
          "indexed": false,
          "internalType": "uint16",
          "name": "min",
          "type": "uint16"
        }
      ],
      "name": "FeeChange",
      "type": "event"
    },
    {
      "anonymous": false,
      "inputs": [
        {
          "indexed": true,
          "internalType": "address",
          "name": "previousOwner",
          "type": "address"
        },
        {
          "indexed": true,
          "internalType": "address",
          "name": "newOwner",
          "type": "address"
        }
      ],
      "name": "OwnershipTransferred",
      "type": "event"
    },
    {
      "inputs": [
        {
          "internalType": "address",
          "name": "_LP",
          "type": "address"
        },
        {
          "internalType": "address",
          "name": "_router",
          "type": "address"
        },
        {
          "internalType": "uint256",
          "name": "_amt",
          "type": "uint256"
        }
      ],
      "name": "estimateZapIn",
      "outputs": [
        {
          "internalType": "uint256",
          "name": "",
          "type": "uint256"
        },
        {
          "internalType": "uint256",
          "name": "",
          "type": "uint256"
        }
      ],
      "stateMutability": "view",
      "type": "function"
    },
    {
      "inputs": [
        {
          "internalType": "address",
          "name": "_from",
          "type": "address"
        },
        {
          "internalType": "address",
          "name": "_to",
          "type": "address"
        },
        {
          "internalType": "address",
          "name": "_router",
          "type": "address"
        },
        {
          "internalType": "uint256",
          "name": "_amt",
          "type": "uint256"
        }
      ],
      "name": "estimateZapInToken",
      "outputs": [
        {
          "internalType": "uint256",
          "name": "",
          "type": "uint256"
        },
        {
          "internalType": "uint256",
          "name": "",
          "type": "uint256"
        }
      ],
      "stateMutability": "view",
      "type": "function"
    },
    {
      "inputs": [],
      "name": "owner",
      "outputs": [
        {
          "internalType": "address",
          "name": "",
          "type": "address"
        }
      ],
      "stateMutability": "view",
      "type": "function"
    },
    {
      "inputs": [],
      "name": "renounceOwnership",
      "outputs": [],
      "stateMutability": "nonpayable",
      "type": "function"
    },
    {
      "inputs": [
        {
          "internalType": "address",
          "name": "addr",
          "type": "address"
        },
        {
          "internalType": "uint16",
          "name": "rate",
          "type": "uint16"
        },
        {
          "internalType": "uint16",
          "name": "min",
          "type": "uint16"
        }
      ],
      "name": "setFee",
      "outputs": [],
      "stateMutability": "nonpayable",
      "type": "function"
    },
    {
      "inputs": [
        {
          "internalType": "address",
          "name": "token",
          "type": "address"
        },
        {
          "internalType": "address",
          "name": "router",
          "type": "address"
        },
        {
          "internalType": "address",
          "name": "bridgeToken",
          "type": "address"
        }
      ],
      "name": "setTokenBridgeForRouter",
      "outputs": [],
      "stateMutability": "nonpayable",
      "type": "function"
    },
    {
      "inputs": [
        {
          "internalType": "address",
          "name": "router",
          "type": "address"
        }
      ],
      "name": "setUseNativeRouter",
      "outputs": [],
      "stateMutability": "nonpayable",
      "type": "function"
    },
    {
      "inputs": [
        {
          "internalType": "address",
          "name": "_from",
          "type": "address"
        },
        {
          "internalType": "uint256",
          "name": "amount",
          "type": "uint256"
        },
        {
          "internalType": "address",
          "name": "routerAddr",
          "type": "address"
        },
        {
          "internalType": "address",
          "name": "_recipient",
          "type": "address"
        }
      ],
      "name": "swapToNative",
      "outputs": [],
      "stateMutability": "nonpayable",
      "type": "function"
    },
    {
      "inputs": [
        {
          "internalType": "address",
          "name": "_from",
          "type": "address"
        },
        {
          "internalType": "uint256",
          "name": "amount",
          "type": "uint256"
        },
        {
          "internalType": "address",
          "name": "_to",
          "type": "address"
        },
        {
          "internalType": "address",
          "name": "routerAddr",
          "type": "address"
        },
        {
          "internalType": "address",
          "name": "_recipient",
          "type": "address"
        }
      ],
      "name": "swapToken",
      "outputs": [],
      "stateMutability": "nonpayable",
      "type": "function"
    },
    {
      "inputs": [
        {
          "internalType": "address",
          "name": "newOwner",
          "type": "address"
        }
      ],
      "name": "transferOwnership",
      "outputs": [],
      "stateMutability": "nonpayable",
      "type": "function"
    },
    {
      "inputs": [
        {
          "internalType": "address",
          "name": "",
          "type": "address"
        }
      ],
      "name": "useNativeRouter",
      "outputs": [
        {
          "internalType": "bool",
          "name": "",
          "type": "bool"
        }
      ],
      "stateMutability": "view",
      "type": "function"
    },
    {
      "inputs": [
        {
          "internalType": "address",
          "name": "token",
          "type": "address"
        }
      ],
      "name": "withdraw",
      "outputs": [],
      "stateMutability": "nonpayable",
      "type": "function"
    },
    {
      "inputs": [
        {
          "internalType": "address",
          "name": "_from",
          "type": "address"
        },
        {
          "internalType": "uint256",
          "name": "amount",
          "type": "uint256"
        },
        {
          "internalType": "address",
          "name": "_toRouter",
          "type": "address"
        },
        {
          "internalType": "address",
          "name": "_recipient",
          "type": "address"
        }
      ],
      "name": "zapAcross",
      "outputs": [],
      "stateMutability": "nonpayable",
      "type": "function"
    },
    {
      "inputs": [
        {
          "internalType": "address",
          "name": "_to",
          "type": "address"
        },
        {
          "internalType": "address",
          "name": "routerAddr",
          "type": "address"
        },
        {
          "internalType": "address",
          "name": "_recipient",
          "type": "address"
        }
      ],
      "name": "zapIn",
      "outputs": [],
      "stateMutability": "payable",
      "type": "function"
    },
    {
      "inputs": [
        {
          "internalType": "address",
          "name": "_from",
          "type": "address"
        },
        {
          "internalType": "uint256",
          "name": "amount",
          "type": "uint256"
        },
        {
          "internalType": "address",
          "name": "_to",
          "type": "address"
        },
        {
          "internalType": "address",
          "name": "routerAddr",
          "type": "address"
        },
        {
          "internalType": "address",
          "name": "_recipient",
          "type": "address"
        }
      ],
      "name": "zapInToken",
      "outputs": [],
      "stateMutability": "nonpayable",
      "type": "function"
    },
    {
      "inputs": [
        {
          "internalType": "address",
          "name": "_from",
          "type": "address"
        },
        {
          "internalType": "uint256",
          "name": "amount",
          "type": "uint256"
        },
        {
          "internalType": "address",
          "name": "routerAddr",
          "type": "address"
        },
        {
          "internalType": "address",
          "name": "_recipient",
          "type": "address"
        }
      ],
      "name": "zapOut",
      "outputs": [],
      "stateMutability": "nonpayable",
      "type": "function"
    },
    {
      "inputs": [
        {
          "internalType": "address",
          "name": "_from",
          "type": "address"
        },
        {
          "internalType": "uint256",
          "name": "amount",
          "type": "uint256"
        },
        {
          "internalType": "address",
          "name": "_to",
          "type": "address"
        },
        {
          "internalType": "address",
          "name": "routerAddr",
          "type": "address"
        },
        {
          "internalType": "address",
          "name": "_recipient",
          "type": "address"
        }
      ],
      "name": "zapOutToken",
      "outputs": [],
      "stateMutability": "nonpayable",
      "type": "function"
    },
    {
      "stateMutability": "payable",
      "type": "receive"
    }
  ],
  "bytecode": "0x60806040523480156200001157600080fd5b5060405162004183380380620041838339810160408190526200003491620000ca565b600080546001600160a01b031916339081178255604051909182917f8be0079c531659141344cd1fd0a4f28419497f9722a3daafe3b4186f6b6457e0908290a350600180546001600160a01b0319166001600160a01b0392909216919091179055600280546001600160b01b0319163361ffff60a01b19161760a560a11b1761ffff60b01b191661027160b41b179055620000fc565b600060208284031215620000dd57600080fd5b81516001600160a01b0381168114620000f557600080fd5b9392505050565b614077806200010c6000396000f3fe6080604052600436106101125760003560e01c806389fecbd5116100a5578063ba2ebf9611610074578063cee6202c11610059578063cee6202c1461030a578063d9059f1b1461032a578063f2fde38b1461034a57600080fd5b8063ba2ebf96146102ca578063c2ab127a146102ea57600080fd5b806389fecbd5146102085780638da5cb5b146102285780638e8d8152146102555780639416cbc61461028a57600080fd5b80635cc7647c116100e15780635cc7647c14610193578063715018a6146101b357806388f61f9f146101c857806388fbe419146101e857600080fd5b80631b71afbd1461011e57806335e8b7d51461014057806351cff8d9146101535780635424888b1461017357600080fd5b3661011957005b600080fd5b34801561012a57600080fd5b5061013e610139366004613a94565b61036a565b005b61013e61014e366004613afc565b6105c3565b34801561015f57600080fd5b5061013e61016e366004613b47565b6105d5565b34801561017f57600080fd5b5061013e61018e366004613afc565b6107ca565b34801561019f57600080fd5b5061013e6101ae366004613b64565b610879565b3480156101bf57600080fd5b5061013e610bac565b3480156101d457600080fd5b5061013e6101e3366004613b64565b610c68565b3480156101f457600080fd5b5061013e610203366004613b47565b610fab565b34801561021457600080fd5b5061013e610223366004613b64565b611047565b34801561023457600080fd5b506000546040516001600160a01b0390911681526020015b60405180910390f35b34801561026157600080fd5b50610275610270366004613bb7565b611079565b6040805192835260208301919091520161024c565b34801561029657600080fd5b506102ba6102a5366004613b47565b60046020526000908152604090205460ff1681565b604051901515815260200161024c565b3480156102d657600080fd5b5061013e6102e5366004613a94565b61141b565b3480156102f657600080fd5b5061013e610305366004613c1f565b611447565b34801561031657600080fd5b5061013e610325366004613a94565b6115d9565b34801561033657600080fd5b50610275610345366004613c64565b611605565b34801561035657600080fd5b5061013e610365366004613b47565b6117fc565b61037f6001600160a01b038616333087611945565b61038985836119f6565b6000856001600160a01b0316630dfe16816040518163ffffffff1660e01b815260040160206040518083038186803b1580156103c457600080fd5b505afa1580156103d8573d6000803e3d6000fd5b505050506040513d601f19601f820116820180604052508101906103fc9190613ca5565b90506000866001600160a01b031663d21220a76040518163ffffffff1660e01b815260040160206040518083038186803b15801561043957600080fd5b505afa15801561044d573d6000803e3d6000fd5b505050506040513d601f19601f820116820180604052508101906104719190613ca5565b905061047d82856119f6565b61048781856119f6565b6040517fbaa2abde0000000000000000000000000000000000000000000000000000000081526001600160a01b038381166004830152828116602483015260448201889052600060648301819052608483018190523060a48401524260c484015291829187169063baa2abde9060e4016040805180830381600087803b15801561051057600080fd5b505af1158015610524573d6000803e3d6000fd5b505050506040513d601f19601f820116820180604052508101906105489190613cc2565b90925090506001600160a01b03848116908816146105705761056d848389308a611ac6565b91505b866001600160a01b0316836001600160a01b03161461059957610596838289308a611ac6565b90505b6105b8856105a7848461216c565b6001600160a01b038a16919061217f565b505050505050505050565b6105cf833483856121cd565b50505050565b6000546001600160a01b031633146106345760405162461bcd60e51b815260206004820181905260248201527f4f776e61626c653a2063616c6c6572206973206e6f7420746865206f776e657260448201526064015b60405180910390fd5b6001600160a01b03811661068057600080546040516001600160a01b03909116914780156108fc02929091818181858888f1935050505015801561067c573d6000803e3d6000fd5b5050565b806001600160a01b031663a9059cbb6106a16000546001600160a01b031690565b6040517f70a082310000000000000000000000000000000000000000000000000000000081523060048201526001600160a01b038516906370a082319060240160206040518083038186803b1580156106f957600080fd5b505afa15801561070d573d6000803e3d6000fd5b505050506040513d601f19601f820116820180604052508101906107319190613ce6565b6040517fffffffff0000000000000000000000000000000000000000000000000000000060e085901b1681526001600160a01b0390921660048301526024820152604401602060405180830381600087803b15801561078f57600080fd5b505af11580156107a3573d6000803e3d6000fd5b505050506040513d601f19601f8201168201806040525081019061067c9190613cff565b50565b6000546001600160a01b031633146108245760405162461bcd60e51b815260206004820181905260248201527f4f776e61626c653a2063616c6c6572206973206e6f7420746865206f776e6572604482015260640161062b565b6001600160a01b03928316600090815260036020908152604080832094861683529390529190912080547fffffffffffffffffffffffff00000000000000000000000000000000000000001691909216179055565b61088e6001600160a01b038516333086611945565b61089884836119f6565b6000846001600160a01b0316630dfe16816040518163ffffffff1660e01b815260040160206040518083038186803b1580156108d357600080fd5b505afa1580156108e7573d6000803e3d6000fd5b505050506040513d601f19601f8201168201806040525081019061090b9190613ca5565b90506000856001600160a01b031663d21220a76040518163ffffffff1660e01b815260040160206040518083038186803b15801561094857600080fd5b505afa15801561095c573d6000803e3d6000fd5b505050506040513d601f19601f820116820180604052508101906109809190613ca5565b905061098c82856119f6565b61099681856119f6565b6001546001600160a01b03838116911614806109bf57506001546001600160a01b038281169116145b15610ac5576001546000906001600160a01b03848116911614156109e357816109e5565b825b6040517f02751cec0000000000000000000000000000000000000000000000000000000081526001600160a01b03808316600483015260248201899052600060448301819052606483018190523060848401524260a48401529293508291908816906302751cec9060c4016040805180830381600087803b158015610a6957600080fd5b505af1158015610a7d573d6000803e3d6000fd5b505050506040513d601f19601f82011682018060405250810190610aa19190613cc2565b9092509050610ab28383888a612346565b50610abd868261269a565b505050610ba4565b6040517fbaa2abde0000000000000000000000000000000000000000000000000000000081526001600160a01b038381166004830152828116602483015260448201879052600060648301819052608483018190523060a48401524260c484015291829187169063baa2abde9060e4016040805180830381600087803b158015610b4e57600080fd5b505af1158015610b62573d6000803e3d6000fd5b505050506040513d601f19601f82011682018060405250810190610b869190613cc2565b9092509050610b9784838789612346565b506105b883828789612346565b505050505050565b6000546001600160a01b03163314610c065760405162461bcd60e51b815260206004820181905260248201527f4f776e61626c653a2063616c6c6572206973206e6f7420746865206f776e6572604482015260640161062b565b600080546040516001600160a01b03909116907f8be0079c531659141344cd1fd0a4f28419497f9722a3daafe3b4186f6b6457e0908390a3600080547fffffffffffffffffffffffff0000000000000000000000000000000000000000169055565b610c7d6001600160a01b038516333086611945565b6000849050610cfc816001600160a01b0316630dfe16816040518163ffffffff1660e01b815260040160206040518083038186803b158015610cbe57600080fd5b505afa158015610cd2573d6000803e3d6000fd5b505050506040513d601f19601f82011682018060405250810190610cf69190613ca5565b846119f6565b610d38816001600160a01b031663d21220a76040518163ffffffff1660e01b815260040160206040518083038186803b158015610cbe57600080fd5b610d4c6001600160a01b038616868661217f565b6040517f89afcb4400000000000000000000000000000000000000000000000000000000815230600482015260009081906001600160a01b038416906389afcb44906024016040805180830381600087803b158015610daa57600080fd5b505af1158015610dbe573d6000803e3d6000fd5b505050506040513d601f19601f82011682018060405250810190610de29190613cc2565b8092508193505050846001600160a01b031663e8e33700846001600160a01b0316630dfe16816040518163ffffffff1660e01b815260040160206040518083038186803b158015610e3257600080fd5b505afa158015610e46573d6000803e3d6000fd5b505050506040513d601f19601f82011682018060405250810190610e6a9190613ca5565b856001600160a01b031663d21220a76040518163ffffffff1660e01b815260040160206040518083038186803b158015610ea357600080fd5b505afa158015610eb7573d6000803e3d6000fd5b505050506040513d601f19601f82011682018060405250810190610edb9190613ca5565b6040517fffffffff0000000000000000000000000000000000000000000000000000000060e085901b1681526001600160a01b0392831660048201529082166024820152604481018690526064810185905260006084820181905260a482015290871660c48201524260e482015261010401606060405180830381600087803b158015610f6757600080fd5b505af1158015610f7b573d6000803e3d6000fd5b505050506040513d601f19601f82011682018060405250810190610f9f9190613d21565b50505050505050505050565b6000546001600160a01b031633146110055760405162461bcd60e51b815260206004820181905260248201527f4f776e61626c653a2063616c6c6572206973206e6f7420746865206f776e6572604482015260640161062b565b6001600160a01b0316600090815260046020526040902080547fffffffffffffffffffffffffffffffffffffffffffffffffffffffffffffff00166001179055565b61105c6001600160a01b038516333086611945565b61106684836119f6565b61107284848385612346565b5050505050565b600080846001600160a01b0316630dfe16816040518163ffffffff1660e01b815260040160206040518083038186803b1580156110b557600080fd5b505afa1580156110c9573d6000803e3d6000fd5b505050506040513d601f19601f820116820180604052508101906110ed9190613ca5565b6001600160a01b0316866001600160a01b0316148061118d5750846001600160a01b031663d21220a76040518163ffffffff1660e01b815260040160206040518083038186803b15801561114057600080fd5b505afa158015611154573d6000803e3d6000fd5b505050506040513d601f19601f820116820180604052508101906111789190613ca5565b6001600160a01b0316866001600160a01b0316145b156113c6576000856001600160a01b0316630dfe16816040518163ffffffff1660e01b815260040160206040518083038186803b1580156111cd57600080fd5b505afa1580156111e1573d6000803e3d6000fd5b505050506040513d601f19601f820116820180604052508101906112059190613ca5565b6001600160a01b0316876001600160a01b03161461129357856001600160a01b0316630dfe16816040518163ffffffff1660e01b815260040160206040518083038186803b15801561125657600080fd5b505afa15801561126a573d6000803e3d6000fd5b505050506040513d601f19601f8201168201806040525081019061128e9190613ca5565b611304565b856001600160a01b031663d21220a76040518163ffffffff1660e01b815260040160206040518083038186803b1580156112cc57600080fd5b505afa1580156112e0573d6000803e3d6000fd5b505050506040513d601f19601f820116820180604052508101906113049190613ca5565b9050600061131385600261277d565b905060006113238983858a612789565b9050876001600160a01b0316630dfe16816040518163ffffffff1660e01b815260040160206040518083038186803b15801561135e57600080fd5b505afa158015611372573d6000803e3d6000fd5b505050506040513d601f19601f820116820180604052508101906113969190613ca5565b6001600160a01b0316896001600160a01b031614156113bb5790935091506114129050565b935091506114129050565b6001546000906001600160a01b038881169116146113fd576001546113f890889086906001600160a01b031688612789565b6113ff565b835b905061140c868683611605565b92509250505b94509492505050565b6114306001600160a01b038616333087611945565b61143a85836119f6565b610ba48585858486611ac6565b6000546001600160a01b031633146114a15760405162461bcd60e51b815260206004820181905260248201527f4f776e61626c653a2063616c6c6572206973206e6f7420746865206f776e6572604482015260640161062b565b60198261ffff1610156114f65760405162461bcd60e51b815260206004820152601a60248201527f46454520544f4f20484947483b204d415820464545203d203425000000000000604482015260640161062b565b600280546001600160a01b0385167fffffffffffffffffffff0000000000000000000000000000000000000000000090911681177401000000000000000000000000000000000000000061ffff868116918202929092177fffffffffffffffff0000ffffffffffffffffffffffffffffffffffffffffffff1676010000000000000000000000000000000000000000000092861692830217909355604080519283526020830193909352918101919091527f85821cef013e8cfdef82753245b89968789e66779b634e6bc15eb1916a2aec899060600160405180910390a1505050565b6115ee6001600160a01b038616333087611945565b6115f885836119f6565b610ba48585858486612e25565b6000808061161484600261277d565b905060008690506000816001600160a01b0316630dfe16816040518163ffffffff1660e01b815260040160206040518083038186803b15801561165657600080fd5b505afa15801561166a573d6000803e3d6000fd5b505050506040513d601f19601f8201168201806040525081019061168e9190613ca5565b90506000826001600160a01b031663d21220a76040518163ffffffff1660e01b815260040160206040518083038186803b1580156116cb57600080fd5b505afa1580156116df573d6000803e3d6000fd5b505050506040513d601f19601f820116820180604052508101906117039190613ca5565b6001549091506001600160a01b038381169116148061172f57506001546001600160a01b038281169116145b156117aa576001546000906001600160a01b038481169116146117525782611754565b815b600154909150600090611772906001600160a01b031687848d612789565b6001549091506001600160a01b038581169116141561179b579496509394506117f49350505050565b96509394506117f49350505050565b6001546000906117c5906001600160a01b031686858c612789565b6001549091506000906117e3906001600160a01b031687858d612789565b9197509095506117f4945050505050565b935093915050565b6000546001600160a01b031633146118565760405162461bcd60e51b815260206004820181905260248201527f4f776e61626c653a2063616c6c6572206973206e6f7420746865206f776e6572604482015260640161062b565b6001600160a01b0381166118d25760405162461bcd60e51b815260206004820152602660248201527f4f776e61626c653a206e6577206f776e657220697320746865207a65726f206160448201527f6464726573730000000000000000000000000000000000000000000000000000606482015260840161062b565b600080546040516001600160a01b03808516939216917f8be0079c531659141344cd1fd0a4f28419497f9722a3daafe3b4186f6b6457e091a3600080547fffffffffffffffffffffffff0000000000000000000000000000000000000000166001600160a01b0392909216919091179055565b6040516001600160a01b03808516602483015283166044820152606481018290526105cf9085907f23b872dd00000000000000000000000000000000000000000000000000000000906084015b60408051601f198184030181529190526020810180517bffffffffffffffffffffffffffffffffffffffffffffffffffffffff167fffffffff00000000000000000000000000000000000000000000000000000000909316929092179091526131ec565b6040517fdd62ed3e0000000000000000000000000000000000000000000000000000000081523060048201526001600160a01b03828116602483015283169063dd62ed3e9060440160206040518083038186803b158015611a5657600080fd5b505afa158015611a6a573d6000803e3d6000fd5b505050506040513d601f19601f82011682018060405250810190611a8e9190613ce6565b61067c5761067c6001600160a01b038316827fffffffffffffffffffffffffffffffffffffffffffffffffffffffffffffffff6132d1565b6001600160a01b03808616600090815260036020818152604080842085871680865290835281852054898716865293835281852090855290915282205491928492918116911660608215801590611b2557506001600160a01b03821615155b15611d0757816001600160a01b0316836001600160a01b031614611c6a5760408051600580825260c08201909252906020820160a0803683370190505090508981600081518110611b7857611b78613d7e565b60200260200101906001600160a01b031690816001600160a01b0316815250508281600181518110611bac57611bac613d7e565b6001600160a01b039283166020918202929092010152600154825191169082906002908110611bdd57611bdd613d7e565b60200260200101906001600160a01b031690816001600160a01b0316815250508181600381518110611c1157611c11613d7e565b60200260200101906001600160a01b031690816001600160a01b0316815250508781600481518110611c4557611c45613d7e565b60200260200101906001600160a01b031690816001600160a01b03168152505061208c565b6040805160038082526080820190925290602082016060803683370190505090508981600081518110611c9f57611c9f613d7e565b60200260200101906001600160a01b031690816001600160a01b0316815250508281600181518110611cd357611cd3613d7e565b60200260200101906001600160a01b031690816001600160a01b0316815250508781600281518110611c4557611c45613d7e565b6001600160a01b03831615611e94576001546001600160a01b0389811691161415611dc6576040805160038082526080820190925290602082016060803683370190505090508981600081518110611d6157611d61613d7e565b60200260200101906001600160a01b031690816001600160a01b0316815250508281600181518110611d9557611d95613d7e565b6001600160a01b039283166020918202929092010152600154825191169082906002908110611c4557611c45613d7e565b60408051600480825260a0820190925290602082016080803683370190505090508981600081518110611dfb57611dfb613d7e565b60200260200101906001600160a01b031690816001600160a01b0316815250508281600181518110611e2f57611e2f613d7e565b6001600160a01b039283166020918202929092010152600154825191169082906002908110611e6057611e60613d7e565b60200260200101906001600160a01b031690816001600160a01b0316815250508781600381518110611c4557611c45613d7e565b6001600160a01b03821615611f3c5760408051600480825260a0820190925290602082016080803683370190505090508981600081518110611ed857611ed8613d7e565b6001600160a01b0392831660209182029290920101526001805483519216918391908110611f0857611f08613d7e565b60200260200101906001600160a01b031690816001600160a01b0316815250508181600281518110611e6057611e60613d7e565b6001546001600160a01b038b811691161480611f6557506001546001600160a01b038981169116145b15611fd25760408051600280825260608201835290916020830190803683370190505090508981600081518110611f9e57611f9e613d7e565b60200260200101906001600160a01b031690816001600160a01b0316815250508781600181518110611c4557611c45613d7e565b604080516003808252608082019092529060208201606080368337019050509050898160008151811061200757612007613d7e565b6001600160a01b039283166020918202929092010152600180548351921691839190811061203757612037613d7e565b60200260200101906001600160a01b031690816001600160a01b031681525050878160028151811061206b5761206b613d7e565b60200260200101906001600160a01b031690816001600160a01b0316815250505b6040517f38ed17390000000000000000000000000000000000000000000000000000000081526000906001600160a01b038616906338ed1739906120dc908d90859087908e904290600401613df1565b600060405180830381600087803b1580156120f657600080fd5b505af115801561210a573d6000803e3d6000fd5b505050506040513d6000823e601f3d908101601f191682016040526121329190810190613e2d565b905080600182516121439190613f0e565b8151811061215357612153613d7e565b6020026020010151955050505050505b95945050505050565b60006121788284613f25565b9392505050565b6040516001600160a01b0383166024820152604481018290526121c89084907fa9059cbb0000000000000000000000000000000000000000000000000000000090606401611992565b505050565b6000808590506000816001600160a01b0316630dfe16816040518163ffffffff1660e01b815260040160206040518083038186803b15801561220e57600080fd5b505afa158015612222573d6000803e3d6000fd5b505050506040513d601f19601f820116820180604052508101906122469190613ca5565b90506000826001600160a01b031663d21220a76040518163ffffffff1660e01b815260040160206040518083038186803b15801561228357600080fd5b505afa158015612297573d6000803e3d6000fd5b505050506040513d601f19601f820116820180604052508101906122bb9190613ca5565b6001549091506000906001600160a01b03848116911614806122ea57506001546001600160a01b038381169116145b15612328576001546000906001600160a01b0385811691161461230d578361230f565b825b905061231d818a898b61342e565b935061233a92505050565b61233583838a898b61357a565b925050505b98975050505050505050565b6001600160a01b03848116600090815260036020908152604080832084861684529091528120549091606091849116156124c55760408051600380825260808201909252906020820160608036833701905050915086826000815181106123af576123af613d7e565b6001600160a01b039283166020918202929092018101919091528882166000908152600382526040808220888516835290925220548351911690839060019081106123fc576123fc613d7e565b60200260200101906001600160a01b031690816001600160a01b031681525050806001600160a01b031663ad5c46486040518163ffffffff1660e01b815260040160206040518083038186803b15801561245557600080fd5b505afa158015612469573d6000803e3d6000fd5b505050506040513d601f19601f8201168201806040525081019061248d9190613ca5565b826002815181106124a0576124a0613d7e565b60200260200101906001600160a01b031690816001600160a01b0316815250506125be565b604080516002808252606082018352909160208301908036833701905050915086826000815181106124f9576124f9613d7e565b60200260200101906001600160a01b031690816001600160a01b031681525050806001600160a01b031663ad5c46486040518163ffffffff1660e01b815260040160206040518083038186803b15801561255257600080fd5b505afa158015612566573d6000803e3d6000fd5b505050506040513d601f19601f8201168201806040525081019061258a9190613ca5565b8260018151811061259d5761259d613d7e565b60200260200101906001600160a01b031690816001600160a01b0316815250505b6040517f18cbafe50000000000000000000000000000000000000000000000000000000081526000906001600160a01b038316906318cbafe59061260e908a90859088908c904290600401613df1565b600060405180830381600087803b15801561262857600080fd5b505af115801561263c573d6000803e3d6000fd5b505050506040513d6000823e601f3d908101601f191682016040526126649190810190613e2d565b905080600182516126759190613f0e565b8151811061268557612685613d7e565b60200260200101519350505050949350505050565b604080516000808252602082019092526001600160a01b0384169083906040516126c49190613f69565b60006040518083038185875af1925050503d8060008114612701576040519150601f19603f3d011682016040523d82523d6000602084013e612706565b606091505b50509050806121c85760405162461bcd60e51b815260206004820152602360248201527f5472616e7366657248656c7065723a204554485f5452414e534645525f46414960448201527f4c45440000000000000000000000000000000000000000000000000000000000606482015260840161062b565b60006121788284613f85565b6001600160a01b038085166000908152600360208181526040808420858716808652908352818520548887168652938352818520908552909152822054919284929181169116606082158015906127e857506001600160a01b03821615155b156129ca57816001600160a01b0316836001600160a01b03161461292d5760408051600580825260c08201909252906020820160a080368337019050509050888160008151811061283b5761283b613d7e565b60200260200101906001600160a01b031690816001600160a01b031681525050828160018151811061286f5761286f613d7e565b6001600160a01b0392831660209182029290920101526001548251911690829060029081106128a0576128a0613d7e565b60200260200101906001600160a01b031690816001600160a01b03168152505081816003815181106128d4576128d4613d7e565b60200260200101906001600160a01b031690816001600160a01b031681525050868160048151811061290857612908613d7e565b60200260200101906001600160a01b031690816001600160a01b031681525050612d4f565b604080516003808252608082019092529060208201606080368337019050509050888160008151811061296257612962613d7e565b60200260200101906001600160a01b031690816001600160a01b031681525050828160018151811061299657612996613d7e565b60200260200101906001600160a01b031690816001600160a01b031681525050868160028151811061290857612908613d7e565b6001600160a01b03831615612b57576001546001600160a01b0388811691161415612a89576040805160038082526080820190925290602082016060803683370190505090508881600081518110612a2457612a24613d7e565b60200260200101906001600160a01b031690816001600160a01b0316815250508281600181518110612a5857612a58613d7e565b6001600160a01b03928316602091820292909201015260015482519116908290600290811061290857612908613d7e565b60408051600480825260a0820190925290602082016080803683370190505090508881600081518110612abe57612abe613d7e565b60200260200101906001600160a01b031690816001600160a01b0316815250508281600181518110612af257612af2613d7e565b6001600160a01b039283166020918202929092010152600154825191169082906002908110612b2357612b23613d7e565b60200260200101906001600160a01b031690816001600160a01b031681525050868160038151811061290857612908613d7e565b6001600160a01b03821615612bff5760408051600480825260a0820190925290602082016080803683370190505090508881600081518110612b9b57612b9b613d7e565b6001600160a01b0392831660209182029290920101526001805483519216918391908110612bcb57612bcb613d7e565b60200260200101906001600160a01b031690816001600160a01b0316815250508181600281518110612b2357612b23613d7e565b6001546001600160a01b038a811691161480612c2857506001546001600160a01b038881169116145b15612c955760408051600280825260608201835290916020830190803683370190505090508881600081518110612c6157612c61613d7e565b60200260200101906001600160a01b031690816001600160a01b031681525050868160018151811061290857612908613d7e565b6040805160038082526080820190925290602082016060803683370190505090508881600081518110612cca57612cca613d7e565b6001600160a01b0392831660209182029290920101526001805483519216918391908110612cfa57612cfa613d7e565b60200260200101906001600160a01b031690816001600160a01b0316815250508681600281518110612d2e57612d2e613d7e565b60200260200101906001600160a01b031690816001600160a01b0316815250505b6040517fd06ca61f0000000000000000000000000000000000000000000000000000000081526000906001600160a01b0386169063d06ca61f90612d99908c908690600401613fc0565b60006040518083038186803b158015612db157600080fd5b505afa158015612dc5573d6000803e3d6000fd5b505050506040513d6000823e601f3d908101601f19168201604052612ded9190810190613e2d565b90508060018251612dfe9190613f0e565b81518110612e0e57612e0e613d7e565b602002602001015195505050505050949350505050565b6000836001600160a01b0316630dfe16816040518163ffffffff1660e01b815260040160206040518083038186803b158015612e6057600080fd5b505afa158015612e74573d6000803e3d6000fd5b505050506040513d601f19601f82011682018060405250810190612e989190613ca5565b6001600160a01b0316866001600160a01b03161480612f385750836001600160a01b031663d21220a76040518163ffffffff1660e01b815260040160206040518083038186803b158015612eeb57600080fd5b505afa158015612eff573d6000803e3d6000fd5b505050506040513d601f19601f82011682018060405250810190612f239190613ca5565b6001600160a01b0316866001600160a01b0316145b156131c8576000846001600160a01b0316630dfe16816040518163ffffffff1660e01b815260040160206040518083038186803b158015612f7857600080fd5b505afa158015612f8c573d6000803e3d6000fd5b505050506040513d601f19601f82011682018060405250810190612fb09190613ca5565b6001600160a01b0316876001600160a01b03161461303e57846001600160a01b0316630dfe16816040518163ffffffff1660e01b815260040160206040518083038186803b15801561300157600080fd5b505afa158015613015573d6000803e3d6000fd5b505050506040513d601f19601f820116820180604052508101906130399190613ca5565b6130af565b846001600160a01b031663d21220a76040518163ffffffff1660e01b815260040160206040518083038186803b15801561307757600080fd5b505afa15801561308b573d6000803e3d6000fd5b505050506040513d601f19601f820116820180604052508101906130af9190613ca5565b90506130bb81846119f6565b60006130c887600261277d565b905060006130d98983853089611ac6565b905060006001600160a01b03861663e8e337008b866130f88d886136a8565b6040517fffffffff0000000000000000000000000000000000000000000000000000000060e086901b1681526001600160a01b039384166004820152918316602483015260448201526064810186905260006084820181905260a4820152908a1660c48201524260e482015261010401606060405180830381600087803b15801561318257600080fd5b505af1158015613196573d6000803e3d6000fd5b505050506040513d601f19601f820116820180604052508101906131ba9190613d21565b965061216395505050505050565b60006131d687873086612346565b90506131e4858286866121cd565b915050612163565b6000613241826040518060400160405280602081526020017f5361666545524332303a206c6f772d6c6576656c2063616c6c206661696c6564815250856001600160a01b03166136b49092919063ffffffff16565b8051909150156121c8578080602001905181019061325f9190613cff565b6121c85760405162461bcd60e51b815260206004820152602a60248201527f5361666545524332303a204552433230206f7065726174696f6e20646964206e60448201527f6f74207375636365656400000000000000000000000000000000000000000000606482015260840161062b565b80158061337357506040517fdd62ed3e0000000000000000000000000000000000000000000000000000000081523060048201526001600160a01b03838116602483015284169063dd62ed3e9060440160206040518083038186803b15801561333957600080fd5b505afa15801561334d573d6000803e3d6000fd5b505050506040513d601f19601f820116820180604052508101906133719190613ce6565b155b6133e55760405162461bcd60e51b815260206004820152603660248201527f5361666545524332303a20617070726f76652066726f6d206e6f6e2d7a65726f60448201527f20746f206e6f6e2d7a65726f20616c6c6f77616e636500000000000000000000606482015260840161062b565b6040516001600160a01b0383166024820152604481018290526121c89084907f095ea7b30000000000000000000000000000000000000000000000000000000090606401611992565b600080808061343e87600261277d565b9050600061344e8983308a6136cb565b905061345a89886119f6565b6001600160a01b03871660009081526004602052604090205460ff161561355657866001600160a01b03811663d427d12c6134958b866136a8565b6040517fffffffff0000000000000000000000000000000000000000000000000000000060e084901b1681526001600160a01b03808f1660048301526024820187905260006044830181905260648301528b1660848201524260a482015260c4016060604051808303818588803b15801561350f57600080fd5b505af1158015613523573d6000803e3d6000fd5b50505050506040513d601f19601f820116820180604052508101906135489190613d21565b955095509550505050613570565b866001600160a01b03811663f305d7196134958b866136a8565b9450945094915050565b600080808061358a87600261277d565b9050600061359a8a83308a6136cb565b905060006135b38a6135ac8b866136a8565b308b6136cb565b90506135bf8b896119f6565b6135c98a896119f6565b6040517fe8e337000000000000000000000000000000000000000000000000000000000081526001600160a01b038c811660048301528b81166024830152604482018490526064820183905260006084830181905260a483015288811660c48301524260e483015289919082169063e8e337009061010401606060405180830381600087803b15801561365b57600080fd5b505af115801561366f573d6000803e3d6000fd5b505050506040513d601f19601f820116820180604052508101906136939190613d21565b96509650965050505050955095509592505050565b60006121788284613f0e565b60606136c38484600085613907565b949350505050565b6001600160a01b03848116600090815260036020908152604080832084861684529091528120549091606091849116156137e657604080516003808252608082019092529060208201606080368337505060015482519294506001600160a01b03169184915060009061374057613740613d7e565b6001600160a01b0392831660209182029290920181019190915288821660009081526003825260408082208885168352909252205483519116908390600190811061378d5761378d613d7e565b60200260200101906001600160a01b031690816001600160a01b03168152505086826002815181106137c1576137c1613d7e565b60200260200101906001600160a01b031690816001600160a01b03168152505061387b565b6040805160028082526060820183529091602083019080368337505060015482519294506001600160a01b03169184915060009061382657613826613d7e565b60200260200101906001600160a01b031690816001600160a01b031681525050868260018151811061385a5761385a613d7e565b60200260200101906001600160a01b031690816001600160a01b0316815250505b6000816001600160a01b0316637ff36ab5886000868a426040518663ffffffff1660e01b81526004016138b19493929190613fd9565b6000604051808303818588803b1580156138ca57600080fd5b505af11580156138de573d6000803e3d6000fd5b50505050506040513d6000823e601f3d908101601f191682016040526126649190810190613e2d565b60608247101561397f5760405162461bcd60e51b815260206004820152602660248201527f416464726573733a20696e73756666696369656e742062616c616e636520666f60448201527f722063616c6c0000000000000000000000000000000000000000000000000000606482015260840161062b565b843b6139cd5760405162461bcd60e51b815260206004820152601d60248201527f416464726573733a2063616c6c20746f206e6f6e2d636f6e7472616374000000604482015260640161062b565b600080866001600160a01b031685876040516139e99190613f69565b60006040518083038185875af1925050503d8060008114613a26576040519150601f19603f3d011682016040523d82523d6000602084013e613a2b565b606091505b5091509150613a3b828286613a46565b979650505050505050565b60608315613a55575081612178565b825115613a655782518084602001fd5b8160405162461bcd60e51b815260040161062b919061400e565b6001600160a01b03811681146107c757600080fd5b600080600080600060a08688031215613aac57600080fd5b8535613ab781613a7f565b9450602086013593506040860135613ace81613a7f565b92506060860135613ade81613a7f565b91506080860135613aee81613a7f565b809150509295509295909350565b600080600060608486031215613b1157600080fd5b8335613b1c81613a7f565b92506020840135613b2c81613a7f565b91506040840135613b3c81613a7f565b809150509250925092565b600060208284031215613b5957600080fd5b813561217881613a7f565b60008060008060808587031215613b7a57600080fd5b8435613b8581613a7f565b9350602085013592506040850135613b9c81613a7f565b91506060850135613bac81613a7f565b939692955090935050565b60008060008060808587031215613bcd57600080fd5b8435613bd881613a7f565b93506020850135613be881613a7f565b92506040850135613bf881613a7f565b9396929550929360600135925050565b803561ffff81168114613c1a57600080fd5b919050565b600080600060608486031215613c3457600080fd5b8335613c3f81613a7f565b9250613c4d60208501613c08565b9150613c5b60408501613c08565b90509250925092565b600080600060608486031215613c7957600080fd5b8335613c8481613a7f565b92506020840135613c9481613a7f565b929592945050506040919091013590565b600060208284031215613cb757600080fd5b815161217881613a7f565b60008060408385031215613cd557600080fd5b505080516020909101519092909150565b600060208284031215613cf857600080fd5b5051919050565b600060208284031215613d1157600080fd5b8151801515811461217857600080fd5b600080600060608486031215613d3657600080fd5b8351925060208401519150604084015190509250925092565b7f4e487b7100000000000000000000000000000000000000000000000000000000600052604160045260246000fd5b7f4e487b7100000000000000000000000000000000000000000000000000000000600052603260045260246000fd5b600081518084526020808501945080840160005b83811015613de65781516001600160a01b031687529582019590820190600101613dc1565b509495945050505050565b85815284602082015260a060408201526000613e1060a0830186613dad565b6001600160a01b0394909416606083015250608001529392505050565b60006020808385031215613e4057600080fd5b825167ffffffffffffffff80821115613e5857600080fd5b818501915085601f830112613e6c57600080fd5b815181811115613e7e57613e7e613d4f565b8060051b604051601f19603f83011681018181108582111715613ea357613ea3613d4f565b604052918252848201925083810185019188831115613ec157600080fd5b938501935b8285101561233a57845184529385019392850192613ec6565b7f4e487b7100000000000000000000000000000000000000000000000000000000600052601160045260246000fd5b600082821015613f2057613f20613edf565b500390565b60008219821115613f3857613f38613edf565b500190565b60005b83811015613f58578181015183820152602001613f40565b838111156105cf5750506000910152565b60008251613f7b818460208701613f3d565b9190910192915050565b600082613fbb577f4e487b7100000000000000000000000000000000000000000000000000000000600052601260045260246000fd5b500490565b8281526040602082015260006136c36040830184613dad565b848152608060208201526000613ff26080830186613dad565b6001600160a01b03949094166040830152506060015292915050565b602081526000825180602084015261402d816040850160208701613f3d565b601f01601f1916919091016040019291505056fea2646970667358221220e78cb39896dc8d93cebee2fb58c766ac92682f1b8d9150a816e243753dfbb30c64736f6c63430008080033",
  "linkReferences": {},
  "deployedLinkReferences": {}
}